:030000000221EBEF
:0C21EB00787FE4F6D8FD758122022232D4
:10209300206B65795F7363616E0D0A00204B4559B0
:1020A3005F325F505245530D0A0052203D20256692
:1020B30020200D0A002564200D0A000D0A3D3D3D38
:1020C3003D3D3D3D3D3D3D3D3D3D3D3D3D3D3D3D3D
:1020D3003D3D3D3D3D3D3D3D3D3D3D3D3D3D3D0D5D
:1020E3000A00736B753A4B2564200D0A00736F6603
:1020F300742076657273696F6E3A2573200D0A003A
:10210300312E30302E303000676170202564200D71
:102113000A0074696D6572202564200D0A003D3D37
:102123003D3D3D3D3D3D3D3D3D3D3D3D3D3D3D3DDC
:102133003D3D3D3D3D3D3D3D3D3D3D3D3D3D3D3DCC
:032143000D0A0082
:101E6E004200E800004100EA004100E7004100E6C0
:011E7E000063
:102A1C00758E5390FE917401F090FF027410F022A9
:101B2400E4900000F09000E7E0700A12238B90002C
:101B340000EFF08005E4900000F0900000E0640104
:101B440070489000E5E070427BFF7A207993120997
:101B5400E9122A76EF700D7F01122A7C122920E403
:101B6400FF0229ABE4FF122A7C1223019000EA74DD
:101B740001F09000D2E0FF1224099000D2E0FF129D
:101B84001A279000D3E0FF022277122A76EF60032F
:101B9400021C17900000E0640270507BFF7A2079E9
:101BA4009F1209E99000D2E0C394095005E004F0C3
:101BB40080069000D27401F09000D2E0FFD3940329
:101BC4004016A3E0FE70059000D18009EED3940383
:101BD40040069000C27402F09000EA7401F01224EE
:101BE400099000D2E0FF121A278025900000E0B48B
:101BF40003219000D3E0C394055005E004F0800570
:101C0400E49000D3F09000D3E0FF12227712230176
:031C14001228395A
:011C170022AA
:081DB300900006EEF0A3EFF032
:101DBB00900091E06402706A9000E5E0640170624B
:101DCB00900006A3E0FFE4900091F09000D604F0A1
:101DDB00900072E0FED3940F4048EED39F400CE08E
:101DEB009F9000D4F0A37401F08016900072E0FE77
:101DFB00C3EF9EFF9000D4F0122A559000D57402C9
:101E0B00F09000D4E0FFC394024006EFD39414404B
:101E1B0007E49000D4F0A3F01228397D027F021260
:101E2B0028E39000D5E0FDB401149000D4E0FF7ED0
:101E3B0000900006EE8FF012071AAFF0FE22EDB401
:101E4B0002189000D4E0FFC3900007E09FFF9000C2
:101E5B0006E09400FEF0A3EFF022900006E0FEA354
:021E6B00E0FF96
:011E6D002252
:10122900900008ECF0A3EDF0900006EEF0FAA3EFC1
:02123900F0FBC8
:10123B00E490000AF0A37432F0A3740AF0A312082E
:10124B00AD00000000C3EB9432EA9400401690000E
:10125B0008E0FEA3E0FF900006E0FCA3E0FDD39FB7
:10126B00EC9E4003021302E4120342E4FBFA797A88
:10127B007844120227C004C005C006C007900008BE
:10128B00E0FCA3E0FDE4120342E4FBFA797A784434
:10129B00120227D003D002D001D000120029C004C3
:1012AB00C005C006C007900006E0FCA3E0FDE412F9
:1012BB000342E4FBFA797A7844120227E4FBFA79C9
:1012CB00FF7843120227A804A905AA06AB07D0078B
:1012DB00D006D005D00412022790000D1208A1E40D
:1012EB00FFFEFDFC90000DE0F8A3E0F9A3E0FAA3EC
:1012FB00E0FB1202C450057E007FFF227BFF7A20A9
:10130B0079AD90000DE0FCA3E0FDA3E0FEA3E0FFB0
:10131B009000441208A11209E990000DE0FCA3E033
:10132B00FDA3E0FEA3E0FFE4FBFAF97841120227EC
:10133B0090000D1208A1E4FFFE7D927C4290000DFF
:10134B00E0F8A3E0F9A3E0FAA3E0FB1202C4500417
:10135B00E4FEFF2290000DE0FCA3E0FDA3E0FEA362
:10136B00E0FF7BF37A1F79B6784212022790000DCB
:10137B001208A17FF37E1F7DB67C4290000DE0F832
:10138B00A3E0F9A3E0FAA3E0FB12011E7BF37A1FA3
:10139B0079B678421202C4504C90000DE0FCA3E0E9
:1013AB00FDA3E0FEA3E0FF7B497A9D7980783F1295
:1013BB00022790000D1208A190000AE004F0E4FF50
:1013CB00FE7D807C3F90000DE0F8A3E0F9A3E0FAEE
:1013DB00A3E0FB1202C4600250BF90000AE0FFA31F
:1013EB00E02FF0804E90000DE0FCA3E0FDA3E0FEAB
:1013FB00A3E0FF7B6D7AC5797E783F1202279000C0
:10140B000D1208A190000AE004F0E4FFFE7D807C41
:10141B003F90000DE0F8A3E0F9A3E0FAA3E0FB1284
:10142B0002C440C190000BE0FF90000AE0FEC3EF46
:0A143B009EA3F090000BE0FF7E007E
:011445002284
:10158500E4900000F0A3F0A3F0A3F0A3F0A3F09083
:1015950000E9E004F070069000E8E004F0D3900064
:1015A500E9E094109000E8E0942750030216BCE4AB
:1015B500F0A3F07B0190000904F0A37400F0A3747C
:1015C50004F07A0079021217F5900002E0FEA3E01C
:1015D500FFA3E0FCA3E0FD121229900000EEF0A3AA
:1015E500EFF0121DB3900000EEF0A3EFF07BFF7A51
:1015F5002079B8900044EEF0A3EFF01209E9D390FA
:101605000003E09432900002E09400500302169B20
:10161500122A76EF704C9000EAE0B40128E4F0D38A
:10162500900001E09432900000E094009000C574B1
:10163500024008F09000CC14F0800AF09000C61427
:10164500F09000CCF09000D3E0FF1222779000D20A
:10165500E0FF121A27900000E0FEA3E0FF121CF63F
:10166500802E9000E5E0B40118E4FF1229AB1229A1
:10167500209000D2E0FF121A279000EC7401F08050
:101685000FE4FF1229AB7F04122975E49000ECF0FA
:10169500E49000E7F022E49000E5F09000ECF01211
:1016A5002920E4FF1229AB9000E674FFF0FF121A1F
:0716B500279000E77401F02B
:0116BC00220B
:10214600122A1C1227C1122990D2AF12000E122990
:10215600DA1214467FC87E001228811228127F20C8
:102166007E031229C37F02122A481228C3E4FF12F3
:1021760029AB7BFF7A2079BE1209E97BFF7A2079A9
:10218600E59000447423F0A37445F01209E9900029
:102196004474FFF0A37421F0A37403F07BFF7A204C
:1021A60079F01209E97BFF7A21790B9000D2E0FFE2
:1021B600900044E4F0A3EFF01209E97BFF7A21795D
:1021C600159000D3E0FF900044E4F0A3EFF012096D
:1021D600E97BFF7A2179211209E9121B2412158560
:0521E600122A9280F5B1
:1026BB00900008EEF0A3EFF0A3ECF0A3EDF0D39FA6
:1026CB00EC9E4004E4FF80229000CCE0FFC390001E
:1026DB0009E09FFF900008E09400FEC390000BE020
:0E26EB009F90000AE09E50057F0A1229AB2244
:101CF600900006EEF0A3EFF09000C6E0B4010D9060
:101D06000006E0FCA3E0FD7F50021DAD9000D2E08E
:101D1600B40A004003021DB2901D25F8282873025C
:101D26001D43021D4F021D5B021D67021D73021D2E
:101D36007F021D8B021D97021D97021DA3900006B0
:101D4600E0FCA3E0FD7F1E805E900006E0FCA3E0C1
:101D5600FD7F2B8052900006E0FCA3E0FD7F2F80E4
:101D660046900006E0FCA3E0FD7F31803A90000635
:101D7600E0FCA3E0FD7F36802E900006E0FCA3E0A9
:101D8600FD7F3C8022900006E0FCA3E0FD7F4180C1
:101D960016900006E0FCA3E0FD7F46800A90000650
:0D1DA600E0FCA3E0FD7F4B7E001226BB2277
:1028A3009000C1E0B401189000D2E0D39403400F2C
:1028B3007403F0FF121A27122839E49000C1F022A2
:101921000D0A3D3D3D3D3D3D3D3D3D3D3D3D3D3D49
:101931003D3D3D3D3D3D3D3D3D3D3D3D3D3D3D3DD6
:101941003D3D3D3D3D3D3D3D3D3D0D0A00706F77C7
:101951006572206F6E20666C617368206761703AF2
:101961002564202074696D65723A2564200D0A0092
:10197100706F776572206F6E20666C617368207678
:10198100616C75653A256420207369676E3A256438
:10199100200D0A003D3D3D3D3D3D3D3D3D3D3D3D33
:1019A1003D3D3D3D3D3D3D3D3D3D3D3D3D3D3D3D66
:1019B1003D3D3D3D3D3D3D3D3D3D3D3D0D0A003DF6
:1019C1003D3D3D3D3D3D3D3D3D3D3D3D6669727386
:1019D1007420696E697420646174613D3D3D3D3DD3
:1019E1003D3D3D3D3D3D200D0A00307825303458C8
:1019F1002020307825303458202030782530345854
:101A01002020307825303458200D0A00666C61732F
:101A110068206761703A2564202074696D65723AA7
:061A21002564200D0A00FF
:101E7F004500D200000000004400D720200501419A
:031E8F0000DB0174
:062A76009000DBE0FF22EE
:062A7C009000DBEFF022E8
:10285F00D310AF01C3C0D075FDF075FC0F8EFA8F8A
:10286F00F975FDD275FC2D75FDE175FC1ED0D0926A
:02287F00AF2286
:1027EA00D310AF01C3C0D08FFB75FDF075FC0FAEDF
:1027FA0004AF058EFA8FF975FDB475FC4B75FDE1D2
:08280A0075FC1ED0D092AF2234
:0C247E007B017A0079D27D057F047E3C52
:10248A00D310AF01C3C0D0900008EEF0A3EFF0A3C1
:0B249A00EDF0A3EBF0A3EAF0A3E9F0E3
:1024A500E4A3F0C2AFF090000AE0FF90000EE0C395
:1024B5009F502C90000BE0FBA3E475F00112073050
:1024C500A9F0FA12066DFF900008E475F0011207F5
:1024D50030ADF0FC1227EA90000EE004F080C7D280
:0124E500AF47
:0524E600D0D092AF22EE
:040003008F828E83D7
:03000700E493FF80
:01000A0022D3
:1025FD00900008EEF0A3EFF0A3EBF0A3EAF0A3E94F
:10260D00F0AF051DEF6028900008E475F00112078A
:10261D003085F082F583E493FF90000AE0FBA3E49C
:10262D0075F001120730A9F0FAEF1206B380D2222D
:10273500E4FDFCED2400FFE4343CFE12000374D7F5
:102745002DF582E43400F583E0B507030C80037FA3
:1027550000220DEDB404DCECC3940440037F012298
:022765007F00F3
:01276700224F
:10144600E4900000F090FE927404F0122735EF70DD
:101456000790000004F0807C7BFF7A19792112093D
:10146600E97B017A0079D27D057F047E3C1225FD59
:101476007BFF7A19794E9000D2E0FF900044E4F0A9
:10148600A3EFF09000D3E0FF900046E4F0A3EFF066
:101496001209E97BFF7A1979719000D4E0FF900078
:1014A60044E4F0A3EFF09000D5E0FF900046E4F0AE
:1014B600A3EFF01209E97BFF7A1979951209E990F1
:1014C60000D2E0D394095006A3E0940540069000AC
:1014D600007401F0900000E0640160030215627B75
:1014E600FF7A1979C01209E99000D27401F0A37449
:1014F60003F07F007E3C12285F7B017A0079D77D5E
:101506000412248A12247E7B017A0079D77D047F17
:10151600007E3C1225FD7BFF7A1979EB9000D7E01F
:10152600FF900044E4F0A3EFF09000D8E0FF9000B5
:1015360046E4F0A3EFF09000D9E0FF900048E4F015
:10154600A3EFF09000DAE0FF90004AE4F0A3EFF09A
:101556001209E97BFF7A1979951209E97BFF7A1A54
:10156600790D9000D2E0FF900044E4F0A3EFF090F4
:0F15760000D3E0FF900046E4F0A3EFF00209E994
:102839007F047E3C12285F7B017A0079D77D047F73
:102849000012248A12247E7B017A0079D27D057FC9
:06285900047E3C0225FD97
:0E2A2C00EF1F70011E144E6004000080F322A4
:1029C3007DA07C01ED1D70011C144C70F7EF1F708E
:0629D300011E144E70EA23
:0129D90022DB
:032A9600022A2CE5
:10295A0090FF0974C1F090FF08F090FF07F090FF14
:0B296A0006F0D291D290D287D28622D4
:08263D00900044EFF0A3EDF062
:10264500E4A3F0F0900045E0FFA3E0C39F5027C24C
:1026550087900044E020E704C2868002D286D287B4
:102665007F057E00122A96900044E025E0F0900058
:0626750046E004F080CEF7
:01267B00223C
:08267C00900044EFF0A3EDF023
:10268400E4A3F0F0900045E0FFA3E0C39F5027C20D
:1026940087900044E020E004C2868002D286D2877C
:1026A4007F057E00122A96900044E0C313F0900048
:0626B40046E004F080CEB8
:0126BA0022FD
:10297500900007EFF0C2917D047F8012263D900004
:0B29850007E0FF7D0812263DD29122E2
:10279500900042EFF0A3EDF0C2917D037FA01226D9
:1027A5003D900042E025E025E0FF7D0612263D90A4
:0C27B5000043E0FF7D0412267CD291223C
:092A6D00D291D290D287D28622C8
:081E92004100EB004100EC00EF
:052A88007F0602297524
:052A8D007F0402297521
:10290200E4900000F0F0900000E0FFC39420500D2E
:0D2912007D0F122795900000E004F080E991
:01291F002295
:10292000E4900041F0F0900041E0FFC39420500D8E
:0D293000E4FD122795900041E004F080E9DD
:01293D002277
:1028120012295A7F521229757F301229757F0A12A6
:1028220029757F081229757F021229757F061229E0
:0728320075122920022902A2
:0E2A3A00E4FD7F1C122795E4FD7F1F02279507
:10227700900006EFF07F06122975E4FD7F1F1227F5
:1022870095E4FD7F1C122795900006E014601B144F
:10229700602314602B14603A1460492405705A7D3A
:1022A7000A7F1B1227957D0E80317D0B7F1B12271E
:1022B700957D0A80267D0E7F1B1227957D0A801B40
:1022C7007D0A7F1B1227957D0A7F1C1227957D0BA0
:1022D70080227D0A7F1B1227957D0B7F1C12279575
:1022E7007D0A80107D0A7F1B1227957D0A7F1C12AD
:0A22F70027957D0E7F1F1227952208
:101A2700900006EFF07F06122975E4FD7F1D12274F
:101A370095E4FD7F1E1227959000ECE06401700E7F
:101A47009000EBE070057D06021AFE021B11900064
:101A570006E0B401047D068063900006E0B4020B43
:101A67007D0B7F1D1227957D0C8065900006E0B4E5
:101A7700030B7D0F7F1D1227957D04805390000671
:101A8700E0B4040B7D067F1D1227957D06804190EB
:101A97000006E0B4050B7D0D7F1D1227957D06809E
:101AA7002F900006E0B4060B7D0D7F1D1227957D54
:101AB7000E801D900006E0B407067D077F1D805944
:101AC700900006E0B4080D7D0F7F1D1227957D0E4F
:101AD7007F1E8045900006E0B4090D7D0F7F1D1223
:101AE70027957D067F1E8031900006E0F4702D90CB
:101AF70000EBE070157D017F1D1227957D0E7F1E7F
:101B07001227959000EB7401F022E49000EBF0FDB2
:0D1B17007F1C122795E4FD7F1F12279522E9
:101E9A005E00730000000000000000000000000067
:101EAA000000000000000000000000000000000028
:091EBA000041009100410072009A
:1027C10090FF0E74C1F090FF0F7461F090FFA07440
:1027D10016F090FFA104F075CEFF75CDE675CC061D
:0927E100759E02759810D2AC221D
:0C2A5500C2AC8F993099FDC299D2AC221E
:032A9900022A55B9
:0B27680090000DEBF0A3EAF0A3E9F0F5
:10277300E4FEEEC39D501A90000DE0FBA3E0FAA324
:10278300E0F98E82758300120686FF122A990E8065
:01279300E164
:012794002222
:1028E3009000087455F0A3EFF0A3EDF0A3740DF07E
:0F28F300A3740AF07B017A0079087D050227683B
:062A8200AE07122A5522E6
:030023000225B003
:0D25B000C0E0C083C082C0D075D000C0075D
:1025BD00E59830E030AF995398FE900091E01460AB
:1025CD0019047021EFB4551D900073F0900071E067
:1025DD0004F09000917401F0800B900072EFF09078
:0525ED0000917402F0F2
:0B25F200D007D0D0D082D083D0E032E0
:101EC3004100E5004100DC004200DD00004100DF8D
:0F1ED300004200E000004100E2014200E3000095
:10000E0090FF1D7461F090FF15F090FF16F090FFB9
:03001E0002F022CB
:101F2500E4900002F0A2A533900001F09000DCE0FF
:101F350014602614604E147003021FC82403600346
:101F4500021FD1900001E06003021FD69000DDF072
:101F5500A3F09000DC04F08078900001E0706B90B5
:101F650000DEE004F070069000DDE004F0C39000B0
:101F7500DEE094039000DDE09400403E9000DC74C8
:101F850002F08036900001E0B40106A37404F080ED
:101F95003B9000DEE004F070069000DDE004F0C345
:101FA5009000DEE094789000DDE09400400C900015
:101FB500027405F09000DC7403F07F0A7E0012299C
:101FC500C3800E900001E0B401078000E49000DCBE
:061FD500F0900002E0FFA5
:011FDB0022E3
:101FDC00E4900002F0A2A633900001F09000DFE044
:101FEC0014602614604E14700302207F24036003D7
:101FFC00022088900001E0600302208D9000E0F048
:10200C00A3F09000DF04F08078900001E0706B90FA
:10201C0000E1E004F070069000E0E004F0C39000F2
:10202C00E1E094039000E0E09400403E9000DF7407
:10203C0002F08036900001E0B40106A37404F08035
:10204C003B9000E1E004F070069000E0E004F0C387
:10205C009000E1E094F09000E0E09400400C9000DF
:10206C00027406F09000DF7403F07F0A7E001229E0
:10207C00C3800E900001E0B401078000E49000DF03
:06208C00F0900002E0FFED
:01209200222B
:10238B00121F25BF05037F0122121FDCBF0621127E
:10239B002A76BF01149000D6E0700E9000E504F091
:1023AB009000D6F0122839803CE49000E5F080359F
:1023BB009000E2E0602330A60320B51D9000E5E01D
:1023CB0070177F32FE1229C3E49000E2F020A603BF
:1023DB007F032220B50F7F022230A60930B506906D
:1023EB0000E27401F030A513D39000E4E094019067
:0D23FB0000E3E094004004E4F0A3F07F0054
:0124080022B1
:101C18007365742074696D65207365636F6E643ACB
:101C280025640D0A0065786368616E67655F68659D
:101C380061745F76616C7565200D0A0074696D6565
:101C4800207365636F6E643A2564200D0A00707214
:101C58006F74656374200D0A0074696D65206F6682
:101C680066200D0A0074696D655F746F5F302E35EC
:101C780048202074696D655F7365633D2564200D98
:101C88000A0074696D655F746F5F3148202074695C
:101C98006D655F7365633D2564200D0A0074696D89
:101CA800655F746F5F3248202074696D655F736586
:101CB800633D2564200D0A0074696D655F746F5F6C
:101CC8003448202074696D655F7365633D25642021
:101CD8000D0A0074696D655F746F5F384820207461
:0E1CE800696D655F7365633D2564200D0A001C
:101EE2004100CB004200C900004200CD0000410089
:101EF200C1004100C2004100D1004100CC004100BC
:101F0200C5004200C300004200C700004200BF00FB
:0A1F1200004100C6004200CF0000AD
:10293E009000C9EEF0A3EFF0E4A3F07BFF7A1C79D0
:0C294E0018900044EEF0A3EFF00209E93D
:10240900EFB40A00506E902416F828287302243479
:1024190002243E02244002244202244C0224560291
:10242900246002246A0224740224749000BFE4F038
:10243900A3741EF022800280009000BFE4F0A37410
:102449003CF0229000BFE4F0A3745AF0229000BF40
:10245900E4F0A37478F0229000BFE4F0A37496F03E
:10246900229000BFE4F0A374B4F0229000BFE4F01E
:05247900A374F0F02245
:102555009000D2E0B40A005051902565F828287300
:1025650002258502258502258702258902259002F7
:1025750025920225990225A00225A20225858024FF
:10258500802280009000CC7403F02280009000CC63
:102595007405F0229000CC7408F02280009000CCE5
:0B25A500740CF0229000CC7401F022B6
:1026F9009000C5E0B402349000C3E475F0011207FC
:102709001AFEC39000C0E095F09000BFE09E501BF8
:102719007BFF7A1C792D1209E9E49000C5F090003D
:0C272900C3F0A3F09000C6F0122555226A
:10230100E49000CBF09000D3E0FF70089000C9F09A
:10231100A3F08052EFB4010C9000C97407F0A3043C
:10232100F0E48042EFB4020D9000C9740EF0A37482
:1023310010F0E48031EFB4030D9000C9741CF0A3D8
:102341007420F0E48020EFB4040D9000C97438F0DB
:10235100A37440F0E4800FEFB405179000C97470C6
:10236100F0A37480F0E49000CDF0A3F09000C7F0EA
:10237100A3F07BFF7A1C79449000C9E0FFA3E090B1
:0A2381000044CFF0A3EFF00209E9D9
:1029DA00E490FE80F0F589758CF2758AFBC28DD27F
:0629EA00A9D28CD2AF223D
:03000B000216BD1D
:1016BD00C0E0C0F0C083C082C0D075D000C000C0F3
:1016CD0001C002C003C004C005C006C007122A76BF
:1016DD00EF60030217B39000CBE004F0E0C3946415
:1016ED0050030217DA1226F99000D1E0B4022D90C2
:1016FD0000CEE004F070069000CDE004F0D3900031
:10170D00CEE094209000CDE0941C40109000D1E4E8
:10171D00F09000CDF0A3F09000C104F0D39000CA7A
:10172D00E094009000C9E094004048A3E024FFF04D
:10173D009000C9E034FFF09000C2E0640270609048
:10174D0000CEE004F070069000CDE004F0D39000E0
:10175D00CEE094209000CDE0941C40439000C174E5
:10176D0001F0A3E4F09000CDF0A3F07BFF7A1C799B
:10177D005680299000D3E060267F01122A7C9000CC
:10178D00C9E4F0A3F09000CDF0A3F09000C2F0906A
:10179D0000D1F01229207BFF7A1C79611209E990A2
:1017AD0000CBE4F080279000E5E0B401209000CF5D
:1017BD00E475F00112071AFED3E5F094E0EE942ED5
:1017CD00400B9000E5E4F09000CFF0A3F0D007D0EF
:1017DD0006D005D004D003D002D001D000D0D0D097
:0817ED0082D083D0F0D0E0327D
:1024EB009000C7E475F00112071AFEE5F08EF012AA
:1024FB00092425150708251D0E1025251C20252D23
:10250B00384025357080000025547BFF7A1C796D8F
:10251B00801E7BFF7A1C798A80167BFF7A1C79A53B
:10252B00800E7BFF7A1C79C080067BFF7A1C79DBDF
:10253B009000C9E0FFA3E0900044CFF0A3EFF012AE
:0A254B0009E9E49000C7F0A3F022B4
:041F1C004100ED0093
:1029AB007E009000EDE0FD7C00120951E47B64FA9F
:0729BB00F9F81207F08FDFAD
:0129C20022F2
:1028810090FF0074C1F0E490FF9CF0AC06AD077EB0
:102891007A7F121206C5EF149000EDF0F5DE75DDBA
:0228A10097227C
:1029900090FF017401F090FF03F075B4807F147E06
:0B29A00000122A2C90FE9B7449F022CC
:1029F000E4FFFE75B50143B440E5B430E5FB53B4E4
:052A0000DFAEB7AFB628
:012A050022AE
:102A0600E4FFFE75B50343B440E5B430E5FB53B4CB
:052A1600DFAEB7AFB612
:012A1B002298
:0B17F500900006EBF0A3EAF0A3E9F07F
:1018000090000C1208AD00000000E4900010F0F011
:1018100090000CE0F8A3E0F9A3E0FAA3E0FB1229A2
:10182000F0E4FCFDEB2FFFEA3EFEED39FDEC38FC69
:1018300090000C1208A1900010E004F0E0C39405A1
:1018400040CE90000CE0FCA3E0FDA3E0FEA3E0FF8F
:10185000E47B05FAF9F81207F090000C1208A1E4F5
:101860007F887E13FDFC90000CE0F8A3E0F9A3E074
:10187000FAA3E0FB120765E4FB7A10F9F81207F00F
:10188000900006E0FBA3E0FAA3E0F9EE8FF0120768
:101890004690000C1208AD00000000E4900010F02B
:1018A00090000CE0F8A3E0F9A3E0FAA3E0FB122A11
:1018B00006E4FCFDEB2FFFEA3EFEED39FDEC38FCC3
:1018C00090000C1208A1900010E004F0E0C3940511
:1018D00040CE90000CE0FCA3E0FDA3E0FEA3E0FFFF
:1018E000E47B05FAF9F81207F090000C1208A1E465
:1018F0007F887E13FDFC90000CE0F8A3E0F9A3E0E4
:10190000FAA3E0FB120765E4FB7A10F9F81207F07E
:10191000900009E0FBA3E0FAA3E0F9EE8FF00207E4
:011920004680
:0D2A480075BD17EF75F02BA490FEA0F022D5
:042A920043BD10220E
:0C2A610000000000000000000000000069
:041F20004100AA00D2
:1028C300E49000A8F0A3F09000A4F0A3F0A3F0A379
:1028D300F09000A304F09000A2F09000A104F02275
:100E010078AB7C007D017BFF7A2A79617E007F0CC3
:100E11001206479000B71208AD000000009000BB19
:100E21001208AD000000009000A8E0FEA3E0FF90D2
:100E310000A6E0FCA3E0FDD39FEC9E50030212212B
:100E4100ED9FFFEC9EFED3EF9464EE94004003020D
:100E51001217E4FCFD9000AB1208A1E490009FF092
:100E6100900096E0FCA3E0FDA3E0FEA3E0FFA31247
:100E710008A1900092E0FCA3E0FDA3E0FEA3E0FF47
:100E8100A31208A19000ABE0FCA3E0FDA3E0FEA348
:100E9100E0FF9000921208A1900096E0FCA3E0FD13
:100EA100A3E0FEA3E0FF900092E0F8A3E0F9A3E045
:100EB100FAA3E0FBD31208904033900096E0F8A328
:100EC100E0F9A3E0FAA3E0FB900092E0FCA3E0FDCF
:100ED100A3E0FEA3E09BFFEE9AFEED99FDEC98FCEA
:100EE1009000AB1208A1E490009EF0803190009236
:100EF100E0F8A3E0F9A3E0FAA3E0FBA3E0FCA3E0A0
:100F0100FDA3E0FEA3E0C39BFFEE9AFEED99FDEC8D
:100F110098FC9000AB1208A190009E7401F0E47F50
:100F210002FEFDFC900096E0F8A3E0F9A3E0FAA32D
:100F3100E0FB1207659000B31208A190009AE0FC53
:100F4100A3E0FDA3E0FEA3E0FF900092E0F8A3E0A0
:100F5100F9A3E0FAA3E02FFFEA3EFEE93DFDE83CFC
:100F6100FC9000B3E0F8A3E0F9A3E0FAA3E0FBC32F
:100F7100120890504B90009AE0FCA3E0FDA3E0FE24
:100F8100A3E0FF900092E0F8A3E0F9A3E0FAA3E068
:100F91002FFFEA3EFEE93DFDE83CFC9000B3E0F89E
:100FA100A3E0F9A3E0FAC3EF9BFFEE9AFEED99FDF2
:100FB100EC98FC9000B31208A1E49000A0F0805DD1
:100FC1009000B3E0FCA3E0FDA3E0FEA3E0FFC004BA
:100FD100C005C006C00790009AE0FCA3E0FDA3E0B5
:100FE100FEA3E0FF900092E0F8A3E0F9A3E0FAA3EA
:100FF100E02FFBEA3EFAE93DF9E83CF8D007D006DC
:10100100D005D004C3EF9BFFEE9AFEED99FDEC985D
:10101100FC9000B31208A19000A07401F09000A10F
:10102100E0FFE4FCFDFE9000ABE0F8A3E0F9A3E0F3
:10103100FAA3E0FB1207659000AB1208A19000A291
:10104100E0FFE4FCFDFE900092E0F8A3E0F9A3E0EC
:10105100FAA3E0FB1207659000AF1208A19000A36C
:10106100E0FFE4FCFDFE9000B3E0F8A3E0F9A3E0AB
:10107100FAA3E0FB1207659000B31208A190009E4D
:10108100E0702D9000B7E0FCA3E0FDA3E0FEA3E03B
:10109100FF9000ABE0F8A3E0F9A3E0FAA3E0FBEFD7
:1010A1002BFFEE3AFEED39FDEC38FC9000B7802BBA
:1010B1009000BBE0FCA3E0FDA3E0FEA3E0FF9000F5
:1010C100ABE0F8A3E0F9A3E0FAA3E0FBEF2BFFEE1E
:1010D1003AFEED39FDEC38FC9000BB1208A19000FE
:1010E1009FE0702E9000B7E0FCA3E0FDA3E0FEA31B
:1010F100E0FF9000ABE0F8A3E0F9A3E0FAA3E0FB86
:10110100EF2BFFEE3AFEED39FDEC38FC9000B71203
:1011110008A19000A0E0702B9000B7E0FCA3E0FDD7
:10112100A3E0FEA3E0FF9000B3E0F8A3E0F9A3E0A1
:10113100FAA3E0FBEF2BFFEE3AFEED39FDEC38FCB4
:10114100A3802B9000BBE0FCA3E0FDA3E0FEA3E0A5
:10115100FF9000B3E0F8A3E0F9A3E0FAA3E0FBEF0E
:101161002BFFEE3AFEED39FDEC38FC9000BB120886
:10117100A19000B7E0F8A3E0F9A3E0FAA3E0FB90A7
:1011810000A4E0FEA3E0FFE4FCFDEB2FFFEA3EFE3E
:10119100ED39FDEC38FC9000B71208A19000BBE0DE
:1011A100FCA3E0FDA3E0FEA3E0FF9000B7E0F8A3FD
:1011B100E0F9A3E0FAA3E0FBD312089040629000AB
:1011C100BBE0F8A3E0F9A3E0FAA3E0FB9000B7E0ED
:1011D100FCA3E0FDA3E0FEA3E09BFFEE9AFEED99E8
:1011E100FDEC98FC9000AB1208A1E47F64FEFDFCCD
:1011F1009000ABE0F8A3E0F9A3E0FAA3E0FBC3128F
:10120100089050129000ABA3A3E0FFA3E09000A4CC
:10121100CFF0A3EFF0229000A4E4F0A37464F022D5
:07122100E49000A4F0A3F02B
:0112280022A3
:100026000203B0E86480F8E933E83360110460F055
:10003600ED33EC337009E8FCE9FDEAFEEBFF220440
:1000460060DED3EB9FEA9EE99DE8C2E78CF0C2F73B
:1000560095F0400CE8CCF8E9CDF9EACEFAEBCFFB07
:1000660012037B85D0F05804700320D5B3E80470E2
:10007600075002B2D50203BA92D5EC0460F7E4CC7D
:10008600C0E0C398F8603B94186008400DD0E0FBD0
:10009600020392E4FBFAC9FC8028E830E406E4C9CE
:1000A600FBE4CAFCE830E305E4C9CACBFCE8540724
:1000B6006010F8C3E913F9EA13FAEB13FBEC13FC2F
:1000C600D8F130F52FC3E49CFCEF9BFFEE9AFEEDD2
:1000D60099FDD0E0FBEF4E4D4C701222DB0302037C
:1000E600B7EC2CFCEF33FFEE33FEED33FDED30E7DE
:1000F600EB020392EF2BFFEE3AFEED39FDD0E0FB6B
:1001060050130BBB00030203BAED13FDEE13FEEF13
:0801160013FFEC13FC0203923D
:10011E00EC4D6011E8497017ED33EC3304600DE4DB
:10012E00FCFFFEFD22E933E8330470F80203B0123F
:10013E00037B58046009E4CC248150062850090240
:10014E0003BA2840030203B7C0E0EB4A7044B980FB
:10015E0006D0E0FB0203A6EF4E701CBD8008EBFF3D
:10016E00EAFEE9FD80EBE98DF0A4FEE5F002020760
:10017E00E9CDF9EAFEEBFFEF89F0A4FCE5F0CE89BC
:10018E00F0A42EFFE435F0CD89F0A42DFEE435F079
:10019E008067EF4E7005BD80D780C3EF8BF0A4ACA7
:1001AE00F0EE8BF0A42CFCE435F0F8EF8AF0A42CE2
:1001BE00E5F038FCE433CB8DF0A42CFCE5F03BF8F5
:1001CE00EE8AF0A42CFCE5F038F8E433CF89F0A4E5
:1001DE002CFCE5F038CF3400CE89F0A42FFFE5F0EB
:1001EE003EFEE433C98DF0A42EFEE5F039CD8AF043
:1001FE00A42FFFE5F03EFEE43DFD33D0E0FB5007BB
:10020E000BBB000F0203BAEC2CFCEF33FFEE33FEF8
:06021E00ED33FD02039226
:100224000203BAEC5D046005E8590470030203B0EC
:1002340012037B580460F6EC4860F2EC7004FDFE97
:10024400FF22C860DB2481C85009C39860025006AD
:100254000203B79850CAF582E9294B4A7005AB826C
:100264000203A675F0007C1A7880C3EF9BEE9AED2A
:1002740099400DC3EF9BFFEE9AFEED99FDE842F025
:10028400DC23ACF0D0E0FFD0E0FED0E0FDAB822078
:10029400E7101BEB60BAEC2CFCEF33FFEE33FEED02
:1002A40033FD020392E803F830E705C0F075F0006F
:1002B400EF2FFFEE33FEED33FD40B830E7C280AAE6
:1002C40074F8CC6480CCC86480C8F58204604FC3E1
:1002D400EB9FF5F0EA9E42F0E99D42F0E89C45F080
:1002E400603C501DE5825FFFE582D313CB5BCBF40A
:1002F4002B5582FB50280ABA002409B90020088033
:100304001DE5825BFBE582D313CF5FCFF4C3132FCC
:100314005582FF50090EBE00050DBD00010CC3EB54
:100324009FF5F0EA9E42F0E99D42F0E89C45F060BA
:0903340007CC4820E701B3EC22DC
:10033D0075F020800E75F010800575F0087D007E3B
:10034D00007F003392D530D503120882EC33401074
:10035D00EF33FFEE33FEED33FDEC33FCD5F0ED2244
:0E036D00E5F0247EA2D513CC92E7CDCEFF2280
:10097E00E50D2444F582E43400F583E0050D229064
:10098E000041301003900044E475F0011208DE02BD
:10099E00066D2009E97F2ED2098018EF540F24909E
:1009AE00D43440D4FF300D0BEF24BFB41A005003E3
:1009BE002461FFE50E6002150E0511E511700205AA
:1009CE001030100E900041E475F0011208DEEF02B7
:1009DE0006B3022A827403D2108003E4C210F50D0E
:1009EE009000411208F5E4F50EF510F511E50E60D4
:1009FE00077F201209C180F5750FFFC20AC209C216
:100A0E000BC20CC20EC20FC21112098DFF700D3037
:100A1E0010057F001209D2AF11AE1022B4255FC2AD
:100A2E00D5C20D12098DFF24D0B40A00501A75F0EC
:100A3E000A780E30D50508B6FF0106C6A426F620A4
:100A4E00D5047002D20C80D924CFB41A00EF500412
:100A5E00C2E5D20D020CC4D20A80C6D20980C0D221
:100A6E000B80BCD2D580BAD20E80B47F201209C1C1
:100A7E00200B077401B50E0040F112097EFF12091A
:100A8E00C10209FBD211D20F809512097EFB120909
:100A9E007EFA12097EF94A4B700679C27A0D7BFFF7
:100AAE00200B2EE50E602A7E008E827583001206C4
:100ABE008660060EEE650F70F0C2D5EBC0E0EAC0A0
:100ACE00E0E9C0E0EE120D25D0E0F9D0E0FAD0E07A
:100ADE00FB12066DFF60AAEBC0E0EAC0E0E9C0E0E1
:100AEE001209C1D0E02401F9D0E03400FAD0E0FBC5
:100AFE00E50F0460DCD50FD98087D20B80A2120DD2
:100B0E000760F7E50F7001041203C5A90F600DE52C
:100B1E000F600914F50F120DAFEF60F3EA30E70224
:100B2E00F404C3995079EAF4250F0430E701E40484
:100B3E00F50F800D120D0760C1EA050F250F120388
:100B4E00C5EA900070F030E701E4250F04D50F04DC
:100B5E00200E0114120D25E4C0E0120DAF900070AE
:100B6E00E0601320E70714F01209A9802204F0D0E8
:100B7E00E014C0E07F001209A9E50F60071209A07A
:100B8E00150F800B300E031209A0D0E00209FBD026
:100B9E00E00480C4120D07609EE50F041203C59099
:100BAE000070EAF0E50F200E026001042404120D1D
:010BBE002511
:100BBF0074FF04C0E0120DAF1209A9E50F200E0259
:100BCF0060031209A0D0E0B50FE87F451209B3907A
:100BDF000070E07F2B30E7047F2DF404C0E0120992
:100BEF00C1D0E075F00A84C0F01209AAD0E0120952
:100BFF00AA0209FB791080027908C20FC21180087E
:100C0F00D2D5790A8004790AC2D5E50F047002F5AE
:100C1F000FE4FAFDFEFF12097EFC7B08200A131277
:100C2F00097EFD7B1030090A12097EFE12097EFF34
:100C3F007B20EC3382D592D55013C3E43009069F45
:100C4F00FFE49EFEE4200A039DFDE49CFCE4CBF848
:100C5F00C20AEC700CCFCECDCCE824F8F870F3803C
:100C6F0017C3EF33FFEE33FEED33FDEC33FCEB3305
:100C7F00FB994002FB0FD8E9EB300A05F8D0E0C42E
:100C8F0048B20AC0E00AEC4D4E4F78207B0070C28C
:100C9F00EAB50F0040BCC0E0120D27D0F0D0E02025
:100CAF000A04C4C0E0C4B20AC0F01209AAD0F0D539
:100CBF00F0EB0209FB1208FE0A98530C03580A695D
:100CCF004C0A65420C074F0C0F440C0F490A7E4328
:100CDF000C15550B42460BA2450B0C470DE2500A63
:100CEF006D2D0A712E0A942B0A75230A92200DCBB3
:100CFF002A0A2D4800000A8CE50FB4FF03750F0672
:100D0F0012097EFC12097EFD12097EFE12097EFF7A
:100D1F00900069020402790AA2D5200C14300E0942
:100D2F00B910020404B9080104A2D5200F02500122
:100D3F0004200B68920BB50E005034C0E07F2030BA
:100D4F000C197F30A20B720F720E500F120D7EC254
:100D5F000BC20FC20EC2117F30800F300E03E9C0DD
:100D6F00E01209C1300E03D0E0F9D0E0B50ECC305F
:100D7F000E177F30B9100C1209C17F58300D077F45
:100D8F00788003B908031209C1300B057F2D0209C2
:100D9F00C17F202011F87F2B200FF322920B80CFE1
:100DAF007F00B40700500B2469F582E43400F5830B
:100DBF00E0FF22286E756C6C2900D20A12097E3072
:100DCF000AF8C20A780E30D50108F6020A2D2D5006
:100DDF0043495812097E2403B405004001E4900DE5
:100DEF00DD931209B2743A1209B2D20C750E0402D5
:020DFF000C03E3
:10037B00E9D2E7C933E833F892D5EDD2E7CD33ECC8
:07038B0033FC5002B2D52241
:10039200EC30E7100FBF000C0EBE00080DBD0004CC
:1003A2000BEB6014A2D5EB13FCED92E7FD2274FF78
:1003B200FCFDFEFF22E480F8A2D574FF13FC7D80D1
:0303C200E480EFE5
:1003C500F920E73624F950037907E4F42402FBE524
:1003D50082158270021583DBF6E024FB501BE96071
:1003E50014E4F0E582158270021583E004F0B40A86
:0D03F50008E4F0D9EE7401F00A22C2D5220E
:10040200ED33EC3392D5FA602AB4FF33EDC2E77BC9
:10041200FF60067A047927E4227A04793020D50431
:100422007A04792B224E614E002B494E46002D490B
:100432004E4600E47A08F0A3DAFC7B00740722C07F
:1004420083C082ECC0E0EDC0E0EEC0E0EFC0E0EAC5
:1004520075F010A4CAABF075F04DA42BFBE435F097
:10046200FCEA2410FAEB34C5FBEC34D9FCEDC2E70C
:10047200FF75F056A4F42411C5F0F434C58FF0A42E
:100482002AE5F03BE43CF020E714120537D0E0FF08
:10049200D0E0FED0E0FDD0E0FC1202278014F4048C
:1004A200120537D0E0FFD0E0FED0E0FDD0E0FC1234
:1004B200011ED082D083E0FAEDD2E7CD33EC3324B3
:1004C20082FBE4C3CF33CFCE33CECD33CD33DBF398
:1004D2007B0775F00A846004F0A31B0AE5F0F0A321
:1004E2008FF0740AA4FFACF08EF0740AA42CFEAC58
:1004F200F050010C8DF0740AA42CFDE435F0F0A349
:05050200DBDE7407229E
:100507003F8000004120000042C80000447A0000FC
:10051700461C400047C35000497424004B1896807E
:100527004CBEBC205A0E1BCA6753C21C749DC5AE75
:10053700FB60065407601C2323120565EB543860E3
:100547000912055112056012011EECF8EDF9EEFAD9
:10055700EFCB22EB12056080F1543803241C900581
:1005670007FE93FC0EEE93FD0EEE930ECE93FF2245
:1021F700022146E493A3F8E493A34003F68001F297
:1022070008DFF48029E493A3F85407240CC8C333E8
:10221700C4540F4420C8834004F456800146F6DFB7
:10222700E4800B0102040810204080901E6EE47EBB
:10223700019360BCA3FF543F30E509541FFEE493AC
:10224700A360010ECF54C025E060A840B8E493A373
:10225700FAE493A3F8E493A3C8C582C8CAC583CA9E
:10226700F0A3C8C582C8CAC583CADFE9DEE780BE56
:011F240000BC
:10057700E709F608DFFA8046E709F208DFFA803E66
:1005870088828C83E709F0A3DFFA8032E309F60853
:10059700DFFA8078E309F208DFFA807088828C83BB
:1005A700E309F0A3DFFA806489828A83E0A3F6086F
:1005B700DFFA805889828A83E0A3F208DFFA804C49
:1005C70080D280FA80C680D4806980F28033801020
:1005D70080A680EA809A80A880DA80E280CA803389
:1005E70089828A83ECFAE493A3C8C582C8CCC58301
:1005F700CCF0A3C8C582C8CCC583CCDFE9DEE780D1
:100607000D89828A83E493A3F608DFF9ECFAA9F04F
:10061700EDFB2289828A83ECFAE0A3C8C582C8CCA5
:10062700C583CCF0A3C8C582C8CCC583CCDFEADEBE
:10063700E880DB89828A83E493A3F208DFF980CC20
:1006470088F0EF60010E4E60C388F0ED2402B40419
:100657000050B9F582EB2402B4040050AF232345C0
:0606670082239005C77319
:10066D00BB010689828A83E0225002E722BBFE028B
:09067D00E32289828A83E49322BE
:10068600BB010CE58229F582E5833AF583E0225029
:1006960006E92582F8E622BBFE06E92582F8E22273
:0D06A600E58229F582E5833AF583E493228D
:1006B300BB010689828A83F0225002F722BBFE0126
:0206C300F32220
:1006C500BC000BBE0029EF8DF084FFADF022E4CC19
:1006D500F875F008EF2FFFEE33FEEC33FCEE9DECE2
:1006E500984005FCEE9DFE0FD5F0E9E4CEFD22ED28
:1006F500F8F5F0EE8420D21CFEADF075F008EF2F72
:10070500FFED33FD4007985006D5F0F222C398FD62
:050715000FD5F0EA22FF
:10071A00C5F0F8A3E028F0C5F0F8E582158270026A
:06072A001583E038F02207
:10073000A3F8E0C5F025F0F0E5821582700215837C
:06074000E0C838F0E822D9
:10074600BB010A89828A83F0E5F0A3F0225006F7FE
:0F07560009A7F01922BBFE06F3E5F009F31922FB
:10076500E88FF0A4CC8BF0A42CFCE98EF0A42CFC33
:100775008AF0EDA42CFCEA8EF0A4CDA8F08BF0A4B1
:100785002DCC3825F0FDE98FF0A42CCD35F0FCEB10
:100795008EF0A4FEA9F0EB8FF0A4CFC5F02ECD39D5
:0F07A500FEE43CFCEAA42DCE35F0FDE43CFC2242
:1007B40075F008758200EF2FFFEE33FECD33CDCCFC
:1007C40033CCC58233C5829BED9AEC99E58298407F
:1007D4000CF582EE9BFEED9AFDEC99FC0FD5F0D65C
:1007E400E4CEFBE4CDFAE4CCF9A88222B800C1B986
:1007F4000059BA002DEC8BF084CFCECDFCE5F0CBC4
:10080400F97818EF2FFFEE33FEED33FDEC33FCEBFC
:1008140033FB10D703994004EB99FB0FD8E5E4F9B7
:10082400FA227818EF2FFFEE33FEED33FDEC33FCA4
:10083400C933C910D7059BE99A4007EC9BFCE99A98
:10084400F90FD8E0E4C9FAE4CCFB2275F010EF2FDD
:10085400FFEE33FEED33FDCC33CCC833C810D707DD
:100864009BEC9AE899400AED9BFDEC9AFCE899F818
:0E0874000FD5F0DAE4CDFBE4CCFAE4C8F922AB
:0E088200C3E49FFFE49EFEE49DFDE49CFC2287
:10089000EB9FF5F0EA9E42F0E99D42F0E89C45F0BE
:0108A0002235
:0C08A100ECF0A3EDF0A3EEF0A3EFF022CA
:1008AD00A8828583F0D083D0821208C41208C412A6
:1008BD0008C41208C4E473E493A3C583C5F0C583CB
:1008CD00C8C582C8F0A3C583C5F0C583C8C582C895
:0108DD0022F8
:1008DE00F8E0FBA3A3E0F925F0F0E58215827002A3
:0708EE001583E0FA38F02247
:0908F500EBF0A3EAF0A3E9F02204
:1008FE00D083D082F8E4937012740193700DA3A389
:10090E0093F8740193F5828883E47374029368609C
:06091E00EFA3A3A380DF9C
:10092400D083D082F8E4937012740193700DA3A362
:1009340093F8740193F5828883E473740293B5F099
:0D094400067403936860E9A3A3A3A380D801
:10095100EC8EF0A4CCC5F0CCCDF8EFA4CEC5F02D33
:10096100FDE43CFCE8A42EC8C5F03DFDE43CFCEFF1
:0D097100A4FFE5F028FEE43DFDE43CFC227F
:00000001FF
