:03000000021CB12E
:0C1CB100787FE4F6D8FD758122021CF853
:1017B100206B65795F7363616E0D0A00204B45599B
:1017C1005F325F505245530D0A0052203D2025667D
:1017D10020200D0A0074656D702076616C3A2564D5
:1017E100200D0A0063616C695F74656D702076611C
:1017F1006C3A2564200D0A000D0A3D3D3D3D3D3DFD
:101801003D3D3D3D3D3D3D3D3D3D3D3D3D3D3D3D07
:101811003D3D3D3D3D3D3D3D3D3D3D3D0D0A007361
:101821006B753A4B2564200D0A00736F6674207640
:10183100657273696F6E3A2573200D0A00312E307F
:10184100332E303000676170202564200D0A00744A
:10185100696D6572202564200D0A003D3D3D3D3DC9
:101861003D3D3D3D3D3D3D3D3D3D3D3D3D3D3D3DA7
:101871003D3D3D3D3D3D3D3D3D3D3D3D3D0D0A0037
:101B62004200B900004100BB004100B8004100B78B
:011B72000072
:1024A300758E5390FE917401F090FF027410F02228
:1015DF00E4900000F09000B8E0700A121F9D900098
:1015EF0000EFF08005E4900000F0900000E064014F
:1015FF0070489000ADE070427BFF7A1779B1120905
:10160F00191224F1EF700D7F011224F71223A7E4B2
:10161F00FF022432E4FF1224F7121DC79000BB749F
:10162F0001F09000AEE0FF121E519000AEE0FF12ED
:10163F0014E29000AFE0FF021D3D1224F1EF6003B2
:10164F000216D2900000E0640270507BFF7A177987
:10165F00BD1209199000AEE0C394095005E004F0E3
:10166F0080069000AE7401F09000AEE0FFD39403BB
:10167F004016A3E0FE70059000A38009EED39403FB
:10168F0040069000967402F09000BB7401F0121E99
:10169F00519000AEE0FF1214E28025900000E0B4FC
:1016AF0003219000AFE0C394055005E004F08005DE
:1016BF00E49000AFF09000AFE0FF121D3D121DC788
:0316CF001222E004
:0116D20022F5
:081AAC00900006EEF0A3EFF03C
:101AB400900092E0640270659000ADE06401705D96
:101AC400900006A3E0FFE4900092F0900073E0FE23
:101AD400D3940F4048EED39F400CE09F9000B0F0A9
:101AE400A37401F08016900073E0FEC3EF9EFF9094
:101AF40000B0F01224DC9000B17402F09000B0E069
:101B0400FFC394024006EFD394144007E49000B05E
:101B1400F0A3F01222E07D027F0212236A9000B14A
:101B2400E0FDB401149000B0E0FF7E00900006EEEA
:101B34008FF012065BAFF0FE22EDB402189000B0F5
:101B4400E0FFC3900007E09FFF900006E09400FED2
:0D1B5400F0A3EFF022900006E0FEA3E0FFFA
:011B61002261
:100D3100900008ECF0A3EDF0900006EEF0FAA3EFBE
:020D4100F0FBC5
:100D4300E490000AF0A3F0A3F0A37414F0A3120735
:100D5300DD00000000C3EB9432EA940040169000DB
:100D630008E0FEA3E0FF900006E0FCA3E0FDD39FB4
:100D7300EC9E4003020E0AE412023CE4FBFA797A89
:100D83007844120121C004C005C006C007900008C2
:100D9300E0FCA3E0FDE412023CE4FBFA797A784438
:100DA300120121D003D002D001D000120029C004C7
:100DB300C005C006C007900006E0FCA3E0FDE412F6
:100DC300023CE4FBFA797A7844120121E4FBFA79D4
:100DD300FF7843120121A804A905AA06AB07D0078F
:100DE300D006D005D00412012190000E1207D1E4E1
:100DF300FFFEFDFC90000EE0F8A3E0F9A3E0FAA3E8
:100E0300E0FB1201BE50057E007FFF227BFF7A17B5
:100E130079CB90000EE0FCA3E0FDA3E0FEA3E0FF8E
:100E23009000451207D1120919E4FFFE7DE17C43CE
:100E330090000EE0F8A3E0F9A3E0FAA3E0FB1201AF
:100E4300BE5004E4FEFF227FF37E1F7DB67C4290FA
:100E5300000EE0F8A3E0F9A3E0FAA3E0FB1201BE61
:100E63006050404E7FF37E1F7DB67CC290000EE043
:100E7300F8A3E0F9A3E0FAA3E0FB12002D12027538
:100E830090000AEEF0A3EFF0FDAC06E412023CE49E
:100E9300FBFA7920784012012112027590000AEEC4
:100EA300F0A3EFF090000DE02FF090000CE03EF087
:100EB300806690000EE0F8A3E0F9A3E0FAA3E0FB5C
:100EC3007FF37E1F7DB67C421200291202759000CB
:100ED3000AEEF0A3EFF0FDAC06E412023CE4FBFAE9
:100EE3007920784012012112027590000AEEF0A3D6
:100EF300EFF0D39414EE9400400990000AE4F0A3B9
:100F03007414F090000AE0FEA3E0FFC390000DE02C
:100F13009FF090000CE09EF090000CE0FEA3E0FF39
:010F230022AB
:100F2400E4900000F0A3F0A3F0A3F0A3F0A3F090EA
:100F340000BAE004F070069000B9E004F0D3900029
:100F4400BAE094109000B9E094275003021070E4C2
:100F5400F0A3F07B0190000904F0A37400F0A374E3
:100F640004F07A0079021211A1900002E0FEA3E0DD
:100F7400FFA3E0FCA3E0FD120D31900000EEF0A30E
:100F8400EFF07BFF7A1779D6900045EEF0A3EFF0EF
:100F9400120919900000E0FEA3E0FF121AAC9000C1
:100FA40000EEF0A3EFF07BFF7A1779E5900045EEB1
:100FB400F0A3EFF0120919D3900003E094329000EB
:100FC40002E09400500302104F1224F1EF704D9090
:100FD40000BBE0B40129E4F0D3900001E094329026
:100FE4000000E0940090009974024009F09000A081
:100FF400740CF0800AF090009A14F09000A0F09025
:1010040000AFE0FF121D3D9000AEE0FF1214E2902D
:101014000000E0FEA3E0FF12188180299000ADE0FB
:10102400B40118E4FF1224321223A79000AEE0FFAB
:101034001214E29000BD7401F0800AE4FF1224321D
:101044007F041223FCE49000B8F022E49000ADF099
:101054009000BDF01223A7E4FF1224329000B7746D
:0C106400FFF0FF1214E29000B87401F0DD
:01107000225D
:101C0F001224A3122268122417D2AF12000E12242C
:101C1F00611210717FC87E001223281222B97F2013
:101C2F007E0312244A7F021224CFE4FF1224327B58
:101C3F00FF7A1779F91209197BFF7A18792090002A
:101C4F00457423F0A37436F012091990004574FF00
:101C5F00F0A37418F0A3743EF07BFF7A18792B125F
:101C6F0009197BFF7A1879469000AEE0FF90004586
:101C7F00E4F0A3EFF01209197BFF7A187950900066
:101C8F00AFE0FF900045E4F0A3EFF01209197BFFDE
:101C9F007A18795C1209191215DF120F2412250D0B
:021CAF0080F5BE
:10216200900008EEF0A3EFF0A3ECF0A3EDF0D39F04
:10217200EC9E4004E4FF80229000A0E0FFC39000A8
:1021820009E09FFF900008E09400FEC390000BE07E
:0E2192009F90000AE09E50057F0A1224322220
:10188100900006EEF0A3EFF090009AE0B4010D9005
:101891000006E0FCA3E0FD7F4D0219389000AEE0A8
:1018A100B40A00400302193D9018B0F828287302C9
:1018B10018CE0218DA0218E60218F20218FE02190E
:1018C1000A02191602192202192202192E90000683
:1018D100E0FCA3E0FD7F1E805E900006E0FCA3E03B
:1018E100FD7F2B8052900006E0FCA3E0FD7F2F805E
:1018F10046900006E0FCA3E0FD7F31803A900006AF
:10190100E0FCA3E0FD7F36802E900006E0FCA3E022
:10191100FD7F3C8022900006E0FCA3E0FD7F41803A
:1019210016900006E0FCA3E0FD7F46800A900006C9
:0D193100E0FCA3E0FD7F497E001221622250
:10234A00900095E0B401189000AEE0D39403400FDA
:10235A007403F0FF1214E21222E0E4900095F022D6
:1013DC000D0A3D3D3D3D3D3D3D3D3D3D3D3D3D3D94
:1013EC003D3D3D3D3D3D3D3D3D3D3D3D3D3D3D3D21
:1013FC003D3D3D3D3D3D3D3D3D3D0D0A00706F7712
:10140C006572206F6E20666C617368206761703A3C
:10141C002564202074696D65723A2564200D0A00DC
:10142C00706F776572206F6E20666C6173682076C2
:10143C00616C75653A256420207369676E3A256482
:10144C00200D0A003D3D3D3D3D3D3D3D3D3D3D3D7D
:10145C003D3D3D3D3D3D3D3D3D3D3D3D3D3D3D3DB0
:10146C003D3D3D3D3D3D3D3D3D3D3D3D0D0A003D40
:10147C003D3D3D3D3D3D3D3D3D3D3D3D66697273D0
:10148C007420696E697420646174613D3D3D3D3D1D
:10149C003D3D3D3D3D3D200D0A0030782530345812
:1014AC00202030782530345820203078253034589E
:1014BC002020307825303458200D0A00666C61737A
:1014CC0068206761703A2564202074696D65723AF2
:0614DC002564200D0A004A
:101B73004400AE000000004400B2202005014100F3
:021B8300B601A9
:0624F1009000B6E0FF229E
:0624F7009000B6EFF02298
:10230600D310AF01C3C0D075FDF075FC0F8EFA8FE8
:10231600F975FDD275FC2D75FDE175FC1ED0D092C8
:02232600AF22E4
:10229100D310AF01C3C0D08FFB75FDF075FC0FAE3D
:1022A10004AF058EFA8FF975FDB475FC4B75FDE130
:0822B10075FC1ED0D092AF2293
:0C1EC6007B017A0079AE7D047F047E3C35
:101ED200D310AF01C3C0D0900008EEF0A3EFF0A37F
:0B1EE200EDF0A3EBF0A3EAF0A3E9F0A1
:101EED00E4A3F0C2AFF090000AE0FF90000EE0C353
:101EFD009F502C90000BE0FBA3E475F001120671CE
:101F0D00A9F0FA1205AEFF900008E475F001120673
:101F1D0071ADF0FC12229190000EE004F080C7D25A
:011F2D00AF04
:051F2E00D0D092AF22AB
:040003008F828E83D7
:03000700E493FF80
:01000A0022D3
:06209E007B017D047E3C85
:1020A400900008EEF0A3EFF0A3EBF0A3EAF0A3E9AD
:1020B400F0AF051DEF6028900008E475F0011206EA
:1020C4007185F082F583E493FF90000AE0FBA3E4BA
:1020D40075F001120671A9F0FAEF1205F480D2220C
:1021DC00E4FDFCED2400FFE4343CFE12000374B279
:1021EC002DF582E43400F583E0B507030C80037F02
:1021FC0000220DEDB404DCECC3940440037F0122F7
:02220C007F0051
:01220E0022AD
:10107100E4900000F090FE927404F01221DCEF7015
:101081000790000004F080767BFF7A1379DC120967
:10109100197A0079AE7F0412209E7BFF7A147909B8
:1010A1009000AEE0FF900045E4F0A3EFF09000AFB8
:1010B100E0FF900047E4F0A3EFF01209197BFF7AFB
:1010C10014792C9000B0E0FF900045E4F0A3EFF01C
:1010D1009000B1E0FF900047E4F0A3EFF01209198E
:1010E1007BFF7A1479501209199000AEE0D394096C
:1010F1005006A3E0940540069000007401F09000B2
:1011010000E0640170777BFF7A14797B12091990F2
:1011110000AE7401F0A37403F07F007E3C1223063D
:101121007B017A0079B27D04121ED2121EC67A00AA
:1011310079B27F0012209E7BFF7A1479A69000B2CB
:10114100E0FF900045E4F0A3EFF09000B3E0FF90E2
:101151000047E4F0A3EFF09000B4E0FF900049E411
:10116100F0A3EFF09000B5E0FF90004BE4F0A3EFA7
:10117100F01209197BFF7A1479501209197BFF7A51
:101181001479C89000AEE0FF900045E4F0A3EFF0C1
:101191009000AFE0FF900047E4F0A3EFF0020919DF
:1022E0007F047E3C1223067B017A0079B27D047F55
:1022F00000121ED2121EC67B017A0079AE7D047FC9
:06230000047E3C0220A453
:0E24B300EF1F70011E144E6004000080F32223
:10244A007DA07C01ED1D70011C144C70F7EF1F700C
:06245A00011E144E70EAA1
:012460002259
:032511000224B3EE
:1023E10090FF0974C1F090FF08F090FF07F090FF93
:0B23F10006F0D291D290D287D2862253
:0820E400900045EFF0A3EDF0C0
:1020EC00E4A3F0F0900046E0FFA3E0C39F5027C2AA
:1020FC0087900045E020E704C2868002D286D28712
:10210C007F057E00122511900045E025E0F090003F
:06211C0047E004F080CE54
:01212200229A
:08212300900045EFF0A3EDF080
:10212B00E4A3F0F0900046E0FFA3E0C39F5027C26A
:10213B0087900045E020E004C2868002D286D287D9
:10214B007F057E00122511900045E0C313F090002F
:06215B0047E004F080CE15
:01216100225B
:1023FC00900007EFF0C2917D047F801220E49000E2
:0B240C0007E0FF7D081220E4D29122BF
:10223C00900043EFF0A3EDF0C2917D037FA012203C
:10224C00E4900043E025E025E0FF7D061220E490B9
:0C225C000044E0FF7D04122123D29122F7
:0924E800D291D290D287D2862253
:081B85004100BC004100BD005D
:052503007F060223FC2D
:052508007F040223FC2A
:10238900E4900000F0F0900000E0FFC39420500DAD
:0D2399007D0F12223C900000E004F080E96E
:0123A6002214
:1023A700E4900042F0F0900042E0FFC39420500D0B
:0D23B700E4FD12223C900042E004F080E9B9
:0123C40022F6
:1022B9001223E17F521223FC7F301223FC7F0A1282
:1022C90023FC7F081223FC7F021223FC7F061223C2
:0722D900FC1223A702238978
:0E24C100E4FD7F1C12223CE4FD7F1F02223C42
:101D3D00900006EFF07F061223FCE4FD7F1F1222B8
:101D4D003CE4FD7F1C12223C900006E014601B1445
:101D5D00602314602B14603A1460492405705A7D79
:101D6D000A7F1B12223C7D0E80317D0B7F1B1222C0
:101D7D003C7D0A80267D0E7F1B12223C7D0A801B36
:101D8D007D0A7F1B12223C7D0A7F1C12223C7D0B9B
:101D9D0080227D0A7F1B12223C7D0B7F1C12223C70
:101DAD007D0A80107D0A7F1B12223C7D0A7F1C124A
:0A1DBD00223C7D0E7F1F12223C2203
:1014E200900006EFF07F061223FCE4FD7F1D12221E
:1014F2003CE4FD7F1E12223C9000BDE06401700EB0
:101502009000BCE070057D060215B90215CC900072
:1015120006E0B401047D068063900006E0B4020B8D
:101522007D0B7F1D12223C7D0C8065900006E0B48D
:10153200030B7D0F7F1D12223C7D04805390000619
:10154200E0B4040B7D067F1D12223C7D0680419093
:101552000006E0B4050B7D0D7F1D12223C7D068046
:101562002F900006E0B4060B7D0D7F1D12223C7DFC
:101572000E801D900006E0B407067D077F1D80598E
:10158200900006E0B4080D7D0F7F1D12223C7D0EF7
:101592007F1E8045900006E0B4090D7D0F7F1D126D
:1015A200223C7D067F1E8031900006E0F4702D9073
:1015B20000BCE070157D017F1D12223C7D0E7F1E56
:1015C20012223C9000BC7401F022E49000BCF0FDB9
:0D15D2007F1C12223CE4FD7F1F12223C22F0
:101B8D005E00740000000000000000000000000076
:101B9D000000000000000000000000000000000038
:091BAD00004100920041007300A8
:1022680090FF0E74C1F090FF0F7461F090FFA0749E
:1022780016F090FFA104F075CEFF75CDE675CC067B
:09228800759E02759810D2AC227B
:0C24DC00C2AC8F993099FDC299D2AC229D
:032514000224DCC2
:0B220F0090000DEBF0A3EAF0A3E9F053
:10221A00E4FEEEC39D501A90000DE0FBA3E0FAA382
:10222A00E0F98E827583001205C7FF1225140E800D
:01223A00E1C2
:01223B002280
:10236A009000087455F0A3EFF0A3EDF0A3740DF0FC
:0F237A00A3740AF07B017A0079087D0502220F17
:0624FD00AE071224DC22F0
:0300230002205167
:0D205100C0E0C083C082C0D075D000C007C1
:10205E00E59830E030AF995398FE900092E014600E
:10206E0019047021EFB4551D900074F0900072E0C9
:10207E0004F09000927401F0800B900073EFF090DA
:05208E0000927402F055
:0B209300D007D0D0D082D083D0E03244
:101BB6004100AD004100A4004200A500004100A77D
:0F1BC600004200A800004100AA014200AB00004D
:10000E0090FF1D7461F090FF15F090FF16F090FFB9
:03001E0002F022CB
:10193E00E4900002F0A2A533900001F09000A4E024
:10194E0014602614604E1470030219E12403600320
:10195E000219EA900001E060030219EF9000A5F071
:10196E00A3F09000A404F08078900001E0706B90DA
:10197E0000A6E004F070069000A5E004F0C390000D
:10198E00A6E094039000A5E09400403E9000A4745D
:10199E0002F08036900001E0B40106A37404F080DA
:1019AE003B9000A6E004F070069000A5E004F0C3A2
:1019BE009000A6E094789000A5E09400400C900072
:1019CE00027405F09000A47403F07F0A7E001224C6
:1019DE004A800E900001E0B401078000E49000A45C
:0619EE00F0900002E0FF92
:0119F40022D0
:1019F500E4900002F0A2A633900001F09000A7E069
:101A050014602614604E147003021A9824036003B0
:101A1500021AA1900001E06003021AA69000A8F046
:101A2500A3F09000A704F08078900001E0706B901F
:101A350000A9E004F070069000A8E004F0C390004F
:101A4500A9E094039000A8E09400403E9000A7749C
:101A550002F08036900001E0B40106A37404F08022
:101A65003B9000A9E004F070069000A8E004F0C3E4
:101A75009000A9E094F09000A8E09400400C90003C
:101A8500027406F09000A77403F07F0A7E0012240A
:101A95004A800E900001E0B401078000E49000A7A1
:061AA500F0900002E0FFDA
:011AAB002218
:101F9D0012193EBF05037F01221219F5BF060590E8
:101FAD0000AD80329000AAE0602330A60320B51D5D
:101FBD009000ADE070177F32FE12244AE49000AA23
:101FCD00F020A6037F032220B50F7F022230A60941
:101FDD0030B5069000AA7401F030A513D39000AC73
:101FED00E094019000ABE094004004E4F0A3F07F96
:011FFD0000E3
:011FFE0022C0
:1016D3007365742074696D65207365636F6E643A16
:1016E30025640D0A0065786368616E67655F6865E8
:1016F30061745F76616C7565200D0A0074696D65B0
:10170300207365636F6E643A2564200D0A0070725E
:101713006F74656374200D0A0074696D65206F66CC
:1017230066200D0A0074696D655F746F5F302E3536
:1017330048202074696D655F7365633D2564200DE2
:101743000A0074696D655F746F5F314820207469A6
:101753006D655F7365633D2564200D0A0074696DD3
:10176300655F746F5F3248202074696D655F7365D0
:10177300633D2564200D0A0074696D655F746F5FB6
:101783003448202074696D655F7365633D2564206B
:101793000D0A0074696D655F746F5F3848202074AB
:0E17A300696D655F7365633D2564200D0A0066
:101BD50041009F0042009D00004200A1000041001D
:101BE5009500410096004100A3004100A00041007E
:101BF5009900420097000042009B000042009300BC
:051C05000041009A00FF
:1023C50090009DEEF0A3EFF0E4A3F07BFF7A167981
:0C23D500D3900045EEF0A3EFF0020919D0
:101E5100EFB40A00506E901E5EF8282873021E7CB3
:101E6100021E86021E88021E8A021E94021E9E0205
:101E71001EA8021EB2021EBC021EBC900093E4F01A
:101E8100A3741EF02280028000900093E4F0A374FA
:101E91003CF022900093E4F0A3745AF02290009356
:101EA100E4F0A37478F022900093E4F0A37496F028
:101EB10022900093E4F0A374B4F022900093E4F034
:051EC100A374F0F02203
:101FFF009000AEE0B40A00504890200FF8282873E4
:10200F0002202D02202F02203602203802203A0211
:10201F00203C02204302204A02204A02204A80002C
:10202F009000A07401F0228004800280009000A034
:10203F007405F0229000A07408F0229000A0740C98
:02204F00F0227D
:1021A000900099E0B40234900097E475F0011206B3
:1021B0005BFEC3900094E095F0900093E09E501B6E
:1021C0007BFF7A1679E8120919E4900099F09000E3
:0C21D00097F0A3F090009AF0121FFF227D
:101DC700E490009FF09000AFE0FF700890009DF056
:101DD700A3F08052EFB4010C90009D7407F0A304A8
:101DE700F0E48042EFB4020D90009D740EF0A374EE
:101DF70010F0E48031EFB4030D90009D741CF0A344
:101E07007420F0E48020EFB4040D90009D7438F046
:101E1700A37440F0E4800FEFB4051790009D747031
:101E2700F0A37480F0E49000A1F0A3F090009BF081
:101E3700A3F07BFF7A1679FF90009DE0FFA3E09067
:0A1E47000045CFF0A3EFF0020919E7
:10246100E490FE80F0F589758CF2758AFBC28DD2FD
:06247100A9D28CD2AF22BB
:03000B000212CD11
:1012CD00C0E0C0F0C083C082C0D075D000C000C0E7
:1012DD0001C002C003C004C005C006C0071224F13E
:1012ED00EF60030213C190009FE004F0E0C394642B
:1012FD0050030213C11221A09000A3E0B4022D905F
:10130D0000A2E004F070069000A1E004F0D390007C
:10131D00A2E094209000A1E0941C40109000A3E462
:10132D00F09000A1F0A3F090009504F0D390009EF2
:10133D00E0940090009DE094004048A3E024FFF06D
:10134D0090009DE034FFF0900096E0640270609094
:10135D0000A2E004F070069000A1E004F0D390002C
:10136D00A2E094209000A1E0941C4043900095745D
:10137D0001F0A3E4F09000A1F0A3F07BFF7A1779C0
:10138D001180299000AFE060267F011224F79000B4
:10139D009DE4F0A3F09000A1F0A3F0900096F090E2
:1013AD0000A3F01223A77BFF7A17791C120919905D
:1013BD00009FE4F0D007D006D005D004D003D002B2
:0F13CD00D001D000D0D0D082D083D0F0D0E03289
:101F330090009BE475F00112065BFEE5F08EF01253
:101F430008541F5D07081F650E101F6D1C201F75A9
:101F530038401F7D708000001F9C7BFF7A17792813
:101F6300801E7BFF7A17794580167BFF7A1779608D
:101F7300800E7BFF7A17797B80067BFF7A17799631
:101F830090009DE0FFA3E0900045CFF0A3EFF01297
:0A1F93000919E490009BF0A3F0226E
:041C0A004100BE00D7
:102432007E009000BEE0FD7C00120881E47B64FA1D
:07244200F9F81207318FDFEA
:012449002270
:1023280090FF0074C1F0E490FF9CF0AC06AD077E0E
:102338007A7F12120606EF149000BEF0F5DE75DD06
:022348009722DA
:1024170090FF017401F090FF03F075B4807F147E84
:0B242700001224B390FE9B7449F022C9
:10247700E4FFFE75B50143B440E5B430E5FB53B462
:05248700DFAEB7AFB6A7
:01248C00222D
:10248D00E4FFFE75B50343B440E5B430E5FB53B44A
:05249D00DFAEB7AFB691
:0124A2002217
:0B11A100900006EBF0A3EAF0A3E9F0D9
:1011AC0090000C1207DD00000000E4900010F0F03D
:1011BC0090000CE0F8A3E0F9A3E0FAA3E0FB122402
:1011CC0077E4FCFDEB2FFFEA3EFEED39FDEC38FC3D
:1011DC0090000C1207D1900010E004F0E0C39405CD
:1011EC0040CE90000CE0FCA3E0FDA3E0FEA3E0FFEA
:1011FC00E47B05FAF9F812073190000C1207D1E4E0
:10120C007F887E13FDFC90000CE0F8A3E0F9A3E0CE
:10121C00FAA3E0FB1206A6E4FB7A10F9F8120731E8
:10122C00900006E0FBA3E0FAA3E0F9EE8FF01206C3
:10123C008790000C1207DD00000000E4900010F015
:10124C0090000CE0F8A3E0F9A3E0FAA3E0FB122471
:10125C008DE4FCFDEB2FFFEA3EFEED39FDEC38FC96
:10126C0090000C1207D1900010E004F0E0C394053C
:10127C0040CE90000CE0FCA3E0FDA3E0FEA3E0FF59
:10128C00E47B05FAF9F812073190000C1207D1E44F
:10129C007F887E13FDFC90000CE0F8A3E0F9A3E03E
:1012AC00FAA3E0FB1206A6E4FB7A10F9F812073158
:1012BC00900009E0FBA3E0FAA3E0F9EE8FF0020640
:0112CC00879A
:0D24CF0075BD17EF75F02BA490FEA0F02254
:04250D0043BD102298
:100026000202E1E86480F8E933E83360110460F025
:10003600ED33EC337009E8FCE9FDEAFEEBFF220440
:1000460060DED3EB9FEA9EE99DE8C2E78CF0C2F73B
:1000560095F0400CE8CCF8E9CDF9EACEFAEBCFFB07
:100066001202AC85D0F05804700320D5B3E80470B2
:10007600075002B2D50202EB92D5EC0460F7E4CC4D
:10008600C0E0C398F8603B94186008400DD0E0FBD0
:100096000202C3E4FBFAC9FC8028E830E406E4C99E
:1000A600FBE4CAFCE830E305E4C9CACBFCE8540724
:1000B6006010F8C3E913F9EA13FAEB13FBEC13FC2F
:1000C600D8F130F52FC3E49CFCEF9BFFEE9AFEEDD2
:1000D60099FDD0E0FBEF4E4D4C701222DB0302027D
:1000E600E8EC2CFCEF33FFEE33FEED33FDED30E7AD
:1000F600EB0202C3EF2BFFEE3AFEED39FDD0E0FB3B
:1001060050130BBB00030202EBED13FDEE13FEEFE3
:0801160013FFEC13FC0202C30D
:10011E000202EBEC5D046005E8590470030202E193
:10012E001202AC580460F6EC4860F2EC7004FDFE6E
:10013E00FF22C860DB2481C85009C39860025006B4
:10014E000202E89850CAF582E9294B4A7005AB8243
:10015E000202D775F0007C1A7880C3EF9BEE9AED01
:10016E0099400DC3EF9BFFEE9AFEED99FDE842F02C
:10017E00DC23ACF0D0E0FFD0E0FED0E0FDAB82207F
:10018E00E7101BEB60BAEC2CFCEF33FFEE33FEED09
:10019E0033FD0202C3E803F830E705C0F075F00046
:1001AE00EF2FFFEE33FEED33FD40B830E7C280AAED
:1001BE0074F8CC6480CCC86480C8F58204604FC3E8
:1001CE00EB9FF5F0EA9E42F0E99D42F0E89C45F087
:1001DE00603C501DE5825FFFE582D313CB5BCBF411
:1001EE002B5582FB50280ABA002409B9002008803A
:1001FE001DE5825BFBE582D313CF5FCFF4C3132FD4
:10020E005582FF50090EBE00050DBD00010CC3EB5B
:10021E009FF5F0EA9E42F0E99D42F0E89C45F060C1
:09022E0007CC4820E701B3EC22E3
:1002370075F020800E75F010800575F0087D007E42
:10024700007F003392D530D5031207C3EC3340103B
:10025700EF33FFEE33FEED33FDEC33FCD5F0ED224B
:0E026700E5F0247EA2D513CC92E7CDCEFF2287
:10027500EDD2E7CD33EC3392D524814006E4FFFE81
:10028500FDFC22FCE4CFCECDCC24E0501174FF80E0
:10029500EDC3CC13CCCD13CDCE13CECF13CF04707D
:0702A500F030D5DE0207C3B3
:1008AE00E50D2445F582E43400F583E0050D229034
:1008BE000042301003900045E475F00112080E025C
:1008CE0005AE2009E97F2ED2098018EF540F24902F
:1008DE00D43440D4FF300D0BEF24BFB41A005003B4
:1008EE002461FFE50E6002150E0511E5117002057B
:1008FE001030100E900042E475F00112080EEF0257
:10090E0005F40224FD7403D2108003E4C210F50D29
:10091E00900042120825E4F50EF510F511E50E6073
:10092E00077F201208F180F5750FFFC20AC209C2B7
:10093E000BC20CC20EC20FC2111208BDFF700D30D9
:10094E0010057F00120902AF11AE1022B4255FC24E
:10095E00D5C20D1208BDFF24D0B40A00501A75F08E
:10096E000A780E30D50508B6FF0106C6A426F62075
:10097E00D5047002D20C80D924CFB41A00EF5004E3
:10098E00C2E5D20D020BF4D20A80C6D20980C0D2C3
:10099E000B80BCD2D580BAD20E80B47F201208F163
:1009AE00200B077401B50E0040F11208AEFF1208BD
:1009BE00F102092BD211D20F80951208AEFB12084C
:1009CE00AEFA1208AEF94A4B700679F27A0C7BFF3A
:1009DE00200B2EE50E602A7E008E82758300120596
:1009EE00C760060EEE650F70F0C2D5EBC0E0EAC030
:1009FE00E0E9C0E0EE120C55D0E0F9D0E0FAD0E01C
:100A0E00FB1205AEFF60AAEBC0E0EAC0E0E9C0E071
:100A1E001208F1D0E02401F9D0E03400FAD0E0FB66
:100A2E00E50F0460DCD50FD98087D20B80A2120CA3
:100A3E003760F7E50F7001041202F6A90F600DE59D
:100A4E000F600914F50F120CDFEF60F3EA30E702C6
:100A5E00F404C3995079EAF4250F0430E701E40455
:100A6E00F50F800D120C3760C1EA050F250F12022B
:100A7E00F6EA900071F030E701E4250F04D50F047B
:100A8E00200E0114120C55E4C0E0120CDF90007120
:100A9E00E0601320E70714F01208D9802204F0D08A
:100AAE00E014C0E07F001208D9E50F60071208D0ED
:100ABE00150F800B300E031208D0D0E002092BD098
:100ACE00E00480C4120C37609EE50F041202F6900B
:100ADE000071EAF0E50F200E026001042404120CEE
:010AEE0055B2
:100AEF0074FF04C0E0120CDF1208D9E50F200E02CC
:100AFF0060031208D0D0E0B50FE87F451208E390ED
:100B0F000071E07F2B30E7047F2DF404C0E0120862
:100B1F00F1D0E075F00A84C0F01208DAD0E01208C4
:100B2F00DA02092B791080027908C20FC2118008EE
:100B3F00D2D5790A8004790AC2D5E50F047002F57F
:100B4F000FE4FAFDFEFF1208AEFC7B08200A131219
:100B5F0008AEFD7B1030090A1208AEFE1208AEFF78
:100B6F007B20EC3382D592D55013C3E43009069F16
:100B7F00FFE49EFEE4200A039DFDE49CFCE4CBF819
:100B8F00C20AEC700CCFCECDCCE824F8F870F3800D
:100B9F0017C3EF33FFEE33FEED33FDEC33FCEB33D6
:100BAF00FB994002FB0FD8E9EB300A05F8D0E0C4FF
:100BBF0048B20AC0E00AEC4D4E4F78207B0070C25D
:100BCF00EAB50F0040BCC0E0120C57D0F0D0E020C7
:100BDF000A04C4C0E0C4B20AC0F01208DAD0F0D5DB
:100BEF00F0EB02092B12082E09C8530B3358099941
:100BFF004C0995420B374F0B3F440B3F4909AE430E
:100C0F000B45550A72460AD2450A3C470D12500948
:100C1F009D2D09A12E09C42B09A52309C2200CFB68
:100C2F002A095D48000009BCE50FB4FF03750F06E4
:100C3F001208AEFC1208AEFD1208AEFE1208AEFF8F
:100C4F0090006A020333790AA2D5200C14300E09E2
:100C5F00B910020404B9080104A2D5200F025001F3
:100C6F0004200B68920BB50E005034C0E07F20308B
:100C7F000C197F30A20B720F720E500F120CAEC2F6
:100C8F000BC20FC20EC2117F30800F300E03E9C0AE
:100C9F00E01208F1300E03D0E0F9D0E0B50ECC3001
:100CAF000E177F30B9100C1208F17F58300D077FE7
:100CBF00788003B908031208F1300B057F2D020865
:100CCF00F17F202011F87F2B200FF322920B80CF82
:100CDF007F00B40700500B246AF582E43400F583DB
:100CEF00E0FF22286E756C6C2900D20A1208AE3014
:100CFF000AF8C20A780E30D50108F602095D2D50A8
:100D0F004349581208AE2403B405004001E4900D86
:100D1F000D931208E2743A1208E2D20C750E040217
:020D2F000B3384
:1002AC00E9D2E7C933E833F892D5EDD2E7CD33EC98
:0702BC0033FC5002B2D52211
:1002C300EC30E7100FBF000C0EBE00080DBD00049C
:1002D3000BEB6014A2D5EB13FCED92E7FD2274FF48
:1002E300FCFDFEFF22E480F8A2D574FF13FC7D80A1
:0302F300E480EFB5
:1002F600F920E73624F950037907E4F42402FBE5F4
:1003060082158270021583DBF6E024FB501BE96040
:1003160014E4F0E582158270021583E004F0B40A55
:0D03260008E4F0D9EE7401F00A22C2D522DD
:10033300ED33EC3392D5FA602AB4FF33EDC2E77B99
:10034300FF60067A037958E4227A03796120D504A1
:100353007A03795C224E614E002B494E46002D49AB
:100363004E4600E47A08F0A3DAFC7B00740722C04F
:1003730083C082ECC0E0EDC0E0EEC0E0EFC0E0EA95
:1003830075F010A4CAABF075F04DA42BFBE435F067
:10039300FCEA2410FAEB34C5FBEC34D9FCEDC2E7DC
:1003A300FF75F056A4F42411C5F0F434C58FF0A4FE
:1003B3002AE5F03BE43CF020E71412056ED0E0FFA1
:1003C300D0E0FED0E0FDD0E0FC1201218014F40463
:1003D30012056ED0E0FFD0E0FED0E0FDD0E0FC12CD
:1003E3000438D082D083E0FAEDD2E7CD33EC332466
:1003F30082FBE4C3CF33CFCE33CECD33CD33DBF368
:100403007B0775F00A846004F0A31B0AE5F0F0A3F0
:100413008FF0740AA4FFACF08EF0740AA42CFEAC27
:10042300F050010C8DF0740AA42CFDE435F0F0A318
:05043300DBDE7407226E
:10043800EC4D6011E8497017ED33EC3304600DE4BE
:10044800FCFFFEFD22E933E8330470F80202E112F2
:1004580002AC58046009E4CC2481500628500902F3
:1004680002EB2840030202E8C0E0EB4A7044B9807E
:1004780006D0E0FB0202D7EF4E701CBD8008EBFFF0
:10048800EAFEE9FD80EBE98DF0A4FEE5F002052126
:10049800E9CDF9EAFEEBFFEF89F0A4FCE5F0CE899F
:1004A800F0A42EFFE435F0CD89F0A42DFEE435F05C
:1004B8008067EF4E7005BD80D780C3EF8BF0A4AC8A
:1004C800F0EE8BF0A42CFCE435F0F8EF8AF0A42CC5
:1004D800E5F038FCE433CB8DF0A42CFCE5F03BF8D8
:1004E800EE8AF0A42CFCE5F038F8E433CF89F0A4C8
:1004F8002CFCE5F038CF3400CE89F0A42FFFE5F0CE
:100508003EFEE433C98DF0A42EFEE5F039CD8AF025
:10051800A42FFFE5F03EFEE43DFD33D0E0FB50079D
:100528000BBB000F0202EBEC2CFCEF33FFEE33FEAB
:06053800ED33FD0202C3D9
:10053E003F8000004120000042C80000447A0000C5
:10054E00461C400047C35000497424004B18968047
:10055E004CBEBC205A0E1BCA6753C21C749DC5AE3E
:10056E00FB60065407601C232312059CEB54386075
:10057E0009120588120597120438ECF8EDF9EEFA17
:10058E00EFCB22EB12059780F1543803241C900513
:10059E003EFE93FC0EEE93FD0EEE930ECE93FF22D7
:101CBD00021C0FE493A3F8E493A34003F68001F212
:101CCD0008DFF48029E493A3F85407240CC8C33328
:101CDD00C4540F4420C8834004F456800146F6DFF7
:101CED00E4800B0102040810204080901B62E47E0A
:101CFD00019360BCA3FF543F30E509541FFEE493EC
:101D0D00A360010ECF54C025E060A840B8E493A3B2
:101D1D00FAE493A3F8E493A3C8C582C8CAC583CADD
:101D2D00F0A3C8C582C8CAC583CADFE9DEE780BE95
:011C0E0000D5
:1005AE00BB010689828A83E0225002E722BBFE024B
:0905BE00E32289828A83E493227E
:1005C700BB010CE58229F582E5833AF583E02250E9
:1005D70006E92582F8E622BBFE06E92582F8E22233
:0D05E700E58229F582E5833AF583E493224D
:1005F400BB010689828A83F0225002F722BBFE01E6
:02060400F322DF
:10060600BC000BBE0029EF8DF084FFADF022E4CCD8
:10061600F875F008EF2FFFEE33FEEC33FCEE9DECA1
:10062600984005FCEE9DFE0FD5F0E9E4CEFD22EDE7
:10063600F8F5F0EE8420D21CFEADF075F008EF2F31
:10064600FFED33FD4007985006D5F0F222C398FD22
:050656000FD5F0EA22BF
:10065B00C5F0F8A3E028F0C5F0F8E582158270022A
:06066B001583E038F022C7
:10067100A3F8E0C5F025F0F0E5821582700215833C
:06068100E0C838F0E82299
:10068700BB010A89828A83F0E5F0A3F0225006F7BE
:0F06970009A7F01922BBFE06F3E5F009F31922BB
:1006A600E88FF0A4CC8BF0A42CFCE98EF0A42CFCF3
:1006B6008AF0EDA42CFCEA8EF0A4CDA8F08BF0A471
:1006C6002DCC3825F0FDE98FF0A42CCD35F0FCEBD0
:1006D6008EF0A4FEA9F0EB8FF0A4CFC5F02ECD3995
:0F06E600FEE43CFCEAA42DCE35F0FDE43CFC2202
:1006F50075F008758200EF2FFFEE33FECD33CDCCBC
:1007050033CCC58233C5829BED9AEC99E58298403E
:100715000CF582EE9BFEED9AFDEC99FC0FD5F0D61B
:10072500E4CEFBE4CDFAE4CCF9A88222B800C1B945
:100735000059BA002DEC8BF084CFCECDFCE5F0CB83
:10074500F97818EF2FFFEE33FEED33FDEC33FCEBBC
:1007550033FB10D703994004EB99FB0FD8E5E4F977
:10076500FA227818EF2FFFEE33FEED33FDEC33FC64
:10077500C933C910D7059BE99A4007EC9BFCE99A58
:10078500F90FD8E0E4C9FAE4CCFB2275F010EF2F9D
:10079500FFEE33FEED33FDCC33CCC833C810D7079D
:1007A5009BEC9AE899400AED9BFDEC9AFCE899F8D8
:0E07B5000FD5F0DAE4CDFBE4CCFAE4C8F9226B
:0E07C300C3E49FFFE49EFEE49DFDE49CFC2247
:0C07D100ECF0A3EDF0A3EEF0A3EFF0229B
:1007DD00A8828583F0D083D0821207F41207F41219
:1007ED0007F41207F4E473E493A3C583C5F0C5833E
:1007FD00C8C582C8F0A3C583C5F0C583C8C582C866
:01080D0022C8
:10080E00F8E0FBA3A3E0F925F0F0E5821582700273
:07081E001583E0FA38F02217
:09082500EBF0A3EAF0A3E9F022D4
:10082E00D083D082F8E4937012740193700DA3A359
:10083E0093F8740193F5828883E47374029368606D
:06084E00EFA3A3A380DF6D
:10085400D083D082F8E4937012740193700DA3A333
:1008640093F8740193F5828883E473740293B5F06A
:0D087400067403936860E9A3A3A3A380D8D2
:10088100EC8EF0A4CCC5F0CCCDF8EFA4CEC5F02D04
:10089100FDE43CFCE8A42EC8C5F03DFDE43CFCEFC2
:0D08A100A4FFE5F028FEE43DFDE43CFC2250
:00000001FF
