:03000000021CB02F
:0C1CB000787FE4F6D8FD758122021CF755
:1017B000206B65795F7363616E0D0A00204B45599C
:1017C0005F325F505245530D0A0052203D2025667E
:1017D00020200D0A0074656D702076616C3A2564D6
:1017E000200D0A0063616C695F74656D702076611D
:1017F0006C3A2564200D0A000D0A3D3D3D3D3D3DFE
:101800003D3D3D3D3D3D3D3D3D3D3D3D3D3D3D3D08
:101810003D3D3D3D3D3D3D3D3D3D3D3D0D0A007362
:101820006B753A4B2564200D0A00736F6674207641
:10183000657273696F6E3A2573200D0A00312E3080
:10184000332E303000676170202564200D0A00744B
:10185000696D6572202564200D0A003D3D3D3D3DCA
:101860003D3D3D3D3D3D3D3D3D3D3D3D3D3D3D3DA8
:101870003D3D3D3D3D3D3D3D3D3D3D3D3D0D0A0038
:101B61004200B900004100BB004100B8004100B78C
:011B71000073
:1024A200758E5390FE917401F090FF027410F02229
:1015DE00E4900000F09000B8E0700A121F9C90009A
:1015EE0000EFF08005E4900000F0900000E0640150
:1015FE0070489000ADE070427BFF7A1779B0120907
:10160E00191224F0EF700D7F011224F61223A6E4B6
:10161E00FF022431E4FF1224F6121DC69000BB74A3
:10162E0001F09000AEE0FF121E509000AEE0FF12EF
:10163E0014E19000AFE0FF021D3C1224F0EF6003B6
:10164E000216D1900000E0640270507BFF7A177989
:10165E00BC1209199000AEE0C394095005E004F0E5
:10166E0080069000AE7401F09000AEE0FFD39403BC
:10167E004016A3E0FE70059000A38009EED39403FC
:10168E0040069000967402F09000BB7401F0121E9A
:10169E00509000AEE0FF1214E18025900000E0B4FF
:1016AE0003219000AFE0C394055005E004F08005DF
:1016BE00E49000AFF09000AFE0FF121D3C121DC68B
:0316CE001222DF06
:0116D10022F6
:081AAB00900006EEF0A3EFF03D
:101AB300900092E0640270659000ADE06401705D97
:101AC300900006A3E0FFE4900092F0900073E0FE24
:101AD300D3940F4048EED39F400CE09F9000B0F0AA
:101AE300A37401F08016900073E0FEC3EF9EFF9095
:101AF30000B0F01224DB9000B17402F09000B0E06B
:101B0300FFC394024006EFD394144007E49000B05F
:101B1300F0A3F01222DF7D027F021223699000B14D
:101B2300E0FDB401149000B0E0FF7E00900006EEEB
:101B33008FF012065BAFF0FE22EDB402189000B0F6
:101B4300E0FFC3900007E09FFF900006E09400FED3
:0D1B5300F0A3EFF022900006E0FEA3E0FFFB
:011B60002262
:100D3100900008ECF0A3EDF0900006EEF0FAA3EFBE
:020D4100F0FBC5
:100D4300E490000AF0A3F0A3F0A37414F0A3120735
:100D5300DD00000000C3EB9432EA940040169000DB
:100D630008E0FEA3E0FF900006E0FCA3E0FDD39FB4
:100D7300EC9E4003020E0AE412023CE4FBFA797A89
:100D83007844120121C004C005C006C007900008C2
:100D9300E0FCA3E0FDE412023CE4FBFA797A784438
:100DA300120121D003D002D001D000120029C004C7
:100DB300C005C006C007900006E0FCA3E0FDE412F6
:100DC300023CE4FBFA797A7844120121E4FBFA79D4
:100DD300FF7843120121A804A905AA06AB07D0078F
:100DE300D006D005D00412012190000E1207D1E4E1
:100DF300FFFEFDFC90000EE0F8A3E0F9A3E0FAA3E8
:100E0300E0FB1201BE50057E007FFF227BFF7A17B5
:100E130079CA90000EE0FCA3E0FDA3E0FEA3E0FF8F
:100E23009000451207D1120919E4FFFE7DE17C43CE
:100E330090000EE0F8A3E0F9A3E0FAA3E0FB1201AF
:100E4300BE5004E4FEFF22E4FFFE7DFA7C439000E3
:100E53000EE0F8A3E0F9A3E0FAA3E0FB1201BE6001
:100E630050404EE4FFFE7DFA7CC390000EE0F8A3F1
:100E7300E0F9A3E0FAA3E0FB12002D120275900043
:100E83000AEEF0A3EFF0FDAC06E412023C7B337AEA
:100E9300337913784012012112027590000AEEF0A3
:100EA300A3EFF090000DE02FF090000CE03EF080F7
:100EB3006690000EE0F8A3E0F9A3E0FAA3E0FBE4F8
:100EC300FFFE7DFA7C4312002912027590000AEEA0
:100ED300F0A3EFF0FDAC06E412023C7B337A3379E6
:100EE30013784012012112027590000AEEF0A3EF6D
:100EF300F0D39414EE9400400990000AE4F0A37434
:100F030014F090000AE0FEA3E0FFC390000DE09F01
:0F0F1300F090000CE09EF090000CE0FEA3E0FFD9
:010F220022AC
:100F2300E4900000F0A3F0A3F0A3F0A3F0A3F090EB
:100F330000BAE004F070069000B9E004F0D390002A
:100F4300BAE094109000B9E09427500302106FE4C4
:100F5300F0A3F07B0190000904F0A37400F0A374E4
:100F630004F07A0079021211A0900002E0FEA3E0DF
:100F7300FFA3E0FCA3E0FD120D31900000EEF0A30F
:100F8300EFF07BFF7A1779D5900045EEF0A3EFF0F1
:100F9300120919900000E0FEA3E0FF121AAB9000C3
:100FA30000EEF0A3EFF07BFF7A1779E4900045EEB3
:100FB300F0A3EFF0120919D3900003E094329000EC
:100FC30002E09400500302104E1224F0EF704D9093
:100FD30000BBE0B40129E4F0D3900001E094329027
:100FE3000000E0940090009974024009F09000A082
:100FF3007408F0800AF090009A14F09000A0F0902A
:1010030000AFE0FF121D3C9000AEE0FF1214E19030
:101013000000E0FEA3E0FF12188080299000ADE0FD
:10102300B40118E4FF1224311223A69000AEE0FFAE
:101033001214E19000BD7401F0800AE4FF12243120
:101043007F041223FBE49000B8F022E49000ADF09B
:101053009000BDF01223A6E4FF1224319000B77470
:0C106300FFF0FF1214E19000B87401F0DF
:01106F00225E
:101C0E001224A2122267122416D2AF12000E122430
:101C1E00601210707FC87E001223271222B87F2018
:101C2E007E031224497F021224CEE4FF1224317B5C
:101C3E00FF7A1779F81209197BFF7A18791F90002D
:101C4E00457423F0A37436F012091990004574FF01
:101C5E00F0A37418F0A3743DF07BFF7A18792A1262
:101C6E0009197BFF7A1879459000AEE0FF90004588
:101C7E00E4F0A3EFF01209197BFF7A18794F900068
:101C8E00AFE0FF900045E4F0A3EFF01209197BFFDF
:101C9E007A18795B1209191215DE120F2312250C10
:021CAE0080F5BF
:10216100900008EEF0A3EFF0A3ECF0A3EDF0D39F05
:10217100EC9E4004E4FF80229000A0E0FFC39000A9
:1021810009E09FFF900008E09400FEC390000BE07F
:0E2191009F90000AE09E50057F0A1224312222
:10188000900006EEF0A3EFF090009AE0B4010D9006
:101890000006E0FCA3E0FD7F500219379000AEE0A7
:1018A000B40A00400302193C9018AFF828287302CC
:1018B00018CD0218D90218E50218F10218FD021914
:1018C0000902191502192102192102192D90000689
:1018D000E0FCA3E0FD7F1E805E900006E0FCA3E03C
:1018E000FD7F2B8052900006E0FCA3E0FD7F2F805F
:1018F00046900006E0FCA3E0FD7F31803A900006B0
:10190000E0FCA3E0FD7F36802E900006E0FCA3E023
:10191000FD7F3C8022900006E0FCA3E0FD7F41803B
:1019200016900006E0FCA3E0FD7F46800A900006CA
:0D193000E0FCA3E0FD7F4B7E001221612250
:10234900900095E0B401189000AEE0D39403400FDB
:102359007403F0FF1214E11222DFE4900095F022D9
:1013DB000D0A3D3D3D3D3D3D3D3D3D3D3D3D3D3D95
:1013EB003D3D3D3D3D3D3D3D3D3D3D3D3D3D3D3D22
:1013FB003D3D3D3D3D3D3D3D3D3D0D0A00706F7713
:10140B006572206F6E20666C617368206761703A3D
:10141B002564202074696D65723A2564200D0A00DD
:10142B00706F776572206F6E20666C6173682076C3
:10143B00616C75653A256420207369676E3A256483
:10144B00200D0A003D3D3D3D3D3D3D3D3D3D3D3D7E
:10145B003D3D3D3D3D3D3D3D3D3D3D3D3D3D3D3DB1
:10146B003D3D3D3D3D3D3D3D3D3D3D3D0D0A003D41
:10147B003D3D3D3D3D3D3D3D3D3D3D3D66697273D1
:10148B007420696E697420646174613D3D3D3D3D1E
:10149B003D3D3D3D3D3D200D0A0030782530345813
:1014AB00202030782530345820203078253034589F
:1014BB002020307825303458200D0A00666C61737B
:1014CB0068206761703A2564202074696D65723AF3
:0614DB002564200D0A004B
:101B72004400AE000000004400B2202005014100F4
:021B8200B601AA
:0624F0009000B6E0FF229F
:0624F6009000B6EFF02299
:10230500D310AF01C3C0D075FDF075FC0F8EFA8FE9
:10231500F975FDD275FC2D75FDE175FC1ED0D092C9
:02232500AF22E5
:10229000D310AF01C3C0D08FFB75FDF075FC0FAE3E
:1022A00004AF058EFA8FF975FDB475FC4B75FDE131
:0822B00075FC1ED0D092AF2294
:0C1EC5007B017A0079AE7D047F047E3C36
:101ED100D310AF01C3C0D0900008EEF0A3EFF0A380
:0B1EE100EDF0A3EBF0A3EAF0A3E9F0A2
:101EEC00E4A3F0C2AFF090000AE0FF90000EE0C354
:101EFC009F502C90000BE0FBA3E475F001120671CF
:101F0C00A9F0FA1205AEFF900008E475F001120674
:101F1C0071ADF0FC12229090000EE004F080C7D25C
:011F2C00AF05
:051F2D00D0D092AF22AC
:040003008F828E83D7
:03000700E493FF80
:01000A0022D3
:06209D007B017D047E3C86
:1020A300900008EEF0A3EFF0A3EBF0A3EAF0A3E9AE
:1020B300F0AF051DEF6028900008E475F0011206EB
:1020C3007185F082F583E493FF90000AE0FBA3E4BB
:1020D30075F001120671A9F0FAEF1205F480D2220D
:1021DB00E4FDFCED2400FFE4343CFE12000374B27A
:1021EB002DF582E43400F583E0B507030C80037F03
:1021FB0000220DEDB404DCECC3940440037F0122F8
:02220B007F0052
:01220D0022AE
:10107000E4900000F090FE927404F01221DBEF7017
:101080000790000004F080767BFF7A1379DB120969
:10109000197A0079AE7F0412209D7BFF7A147908BB
:1010A0009000AEE0FF900045E4F0A3EFF09000AFB9
:1010B000E0FF900047E4F0A3EFF01209197BFF7AFC
:1010C00014792B9000B0E0FF900045E4F0A3EFF01E
:1010D0009000B1E0FF900047E4F0A3EFF01209198F
:1010E0007BFF7A14794F1209199000AEE0D394096E
:1010F0005006A3E0940540069000007401F09000B3
:1011000000E0640170777BFF7A14797A12091990F4
:1011100000AE7401F0A37403F07F007E3C1223053F
:101120007B017A0079B27D04121ED1121EC57A00AD
:1011300079B27F0012209D7BFF7A1479A59000B2CE
:10114000E0FF900045E4F0A3EFF09000B3E0FF90E3
:101150000047E4F0A3EFF09000B4E0FF900049E412
:10116000F0A3EFF09000B5E0FF90004BE4F0A3EFA8
:10117000F01209197BFF7A14794F1209197BFF7A53
:101180001479C79000AEE0FF900045E4F0A3EFF0C3
:101190009000AFE0FF900047E4F0A3EFF0020919E0
:1022DF007F047E3C1223057B017A0079B27D047F57
:1022EF0000121ED1121EC57B017A0079AE7D047FCC
:0622FF00047E3C0220A356
:0E24B200EF1F70011E144E6004000080F32224
:102449007DA07C01ED1D70011C144C70F7EF1F700D
:06245900011E144E70EAA2
:01245F00225A
:032510000224B2F0
:1023E00090FF0974C1F090FF08F090FF07F090FF94
:0B23F00006F0D291D290D287D2862254
:0820E300900045EFF0A3EDF0C1
:1020EB00E4A3F0F0900046E0FFA3E0C39F5027C2AB
:1020FB0087900045E020E704C2868002D286D28713
:10210B007F057E00122510900045E025E0F0900041
:06211B0047E004F080CE55
:01212100229B
:08212200900045EFF0A3EDF081
:10212A00E4A3F0F0900046E0FFA3E0C39F5027C26B
:10213A0087900045E020E004C2868002D286D287DA
:10214A007F057E00122510900045E0C313F0900031
:06215A0047E004F080CE16
:01216000225C
:1023FB00900007EFF0C2917D047F801220E39000E4
:0B240B0007E0FF7D081220E3D29122C1
:10223B00900043EFF0A3EDF0C2917D037FA012203D
:10224B00E3900043E025E025E0FF7D061220E390BC
:0C225B000044E0FF7D04122122D29122F9
:0924E700D291D290D287D2862254
:081B84004100BC004100BD005E
:052502007F060223FB2F
:052507007F040223FB2C
:10238800E4900000F0F0900000E0FFC39420500DAE
:0D2398007D0F12223B900000E004F080E970
:0123A5002215
:1023A600E4900042F0F0900042E0FFC39420500D0C
:0D23B600E4FD12223B900042E004F080E9BB
:0123C30022F7
:1022B8001223E07F521223FB7F301223FB7F0A1286
:1022C80023FB7F081223FB7F021223FB7F061223C6
:0722D800FB1223A60223887C
:0E24C000E4FD7F1C12223BE4FD7F1F02223B45
:101D3C00900006EFF07F061223FBE4FD7F1F1222BA
:101D4C003BE4FD7F1C12223B900006E014601B1448
:101D5C00602314602B14603A1460492405705A7D7A
:101D6C000A7F1B12223B7D0E80317D0B7F1B1222C2
:101D7C003B7D0A80267D0E7F1B12223B7D0A801B39
:101D8C007D0A7F1B12223B7D0A7F1C12223B7D0B9E
:101D9C0080227D0A7F1B12223B7D0B7F1C12223B73
:101DAC007D0A80107D0A7F1B12223B7D0A7F1C124C
:0A1DBC00223B7D0E7F1F12223B2206
:1014E100900006EFF07F061223FBE4FD7F1D122220
:1014F1003BE4FD7F1E12223B9000BDE06401700EB3
:101501009000BCE070057D060215B80215CB900075
:1015110006E0B401047D068063900006E0B4020B8E
:101521007D0B7F1D12223B7D0C8065900006E0B48F
:10153100030B7D0F7F1D12223B7D0480539000061B
:10154100E0B4040B7D067F1D12223B7D0680419095
:101551000006E0B4050B7D0D7F1D12223B7D068048
:101561002F900006E0B4060B7D0D7F1D12223B7DFE
:101571000E801D900006E0B407067D077F1D80598F
:10158100900006E0B4080D7D0F7F1D12223B7D0EF9
:101591007F1E8045900006E0B4090D7D0F7F1D126E
:1015A100223B7D067F1E8031900006E0F4702D9075
:1015B10000BCE070157D017F1D12223B7D0E7F1E58
:1015C10012223B9000BC7401F022E49000BCF0FDBB
:0D15D1007F1C12223BE4FD7F1F12223B22F3
:101B8C005E00740000000000000000000000000077
:101B9C000000000000000000000000000000000039
:091BAC00004100920041007300A9
:1022670090FF0E74C1F090FF0F7461F090FFA0749F
:1022770016F090FFA104F075CEFF75CDE675CC067C
:09228700759E02759810D2AC227C
:0C24DB00C2AC8F993099FDC299D2AC229E
:032513000224DBC4
:0B220E0090000DEBF0A3EAF0A3E9F054
:10221900E4FEEEC39D501A90000DE0FBA3E0FAA383
:10222900E0F98E827583001205C7FF1225130E800F
:01223900E1C3
:01223A002281
:102369009000087455F0A3EFF0A3EDF0A3740DF0FD
:0F237900A3740AF07B017A0079087D0502220E19
:0624FC00AE071224DB22F2
:0300230002205068
:0D205000C0E0C083C082C0D075D000C007C2
:10205D00E59830E030AF995398FE900092E014600F
:10206D0019047021EFB4551D900074F0900072E0CA
:10207D0004F09000927401F0800B900073EFF090DB
:05208D0000927402F056
:0B209200D007D0D0D082D083D0E03245
:101BB5004100AD004100A4004200A500004100A77E
:0F1BC500004200A800004100AA014200AB00004E
:10000E0090FF1D7461F090FF15F090FF16F090FFB9
:03001E0002F022CB
:10193D00E4900002F0A2A533900001F09000A4E025
:10194D0014602614604E1470030219E02403600322
:10195D000219E9900001E060030219EE9000A5F074
:10196D00A3F09000A404F08078900001E0706B90DB
:10197D0000A6E004F070069000A5E004F0C390000E
:10198D00A6E094039000A5E09400403E9000A4745E
:10199D0002F08036900001E0B40106A37404F080DB
:1019AD003B9000A6E004F070069000A5E004F0C3A3
:1019BD009000A6E094789000A5E09400400C900073
:1019CD00027405F09000A47403F07F0A7E001224C7
:1019DD0049800E900001E0B401078000E49000A45E
:0619ED00F0900002E0FF93
:0119F30022D1
:1019F400E4900002F0A2A633900001F09000A7E06A
:101A040014602614604E147003021A9724036003B2
:101A1400021AA0900001E06003021AA59000A8F049
:101A2400A3F09000A704F08078900001E0706B9020
:101A340000A9E004F070069000A8E004F0C3900050
:101A4400A9E094039000A8E09400403E9000A7749D
:101A540002F08036900001E0B40106A37404F08023
:101A64003B9000A9E004F070069000A8E004F0C3E5
:101A74009000A9E094F09000A8E09400400C90003D
:101A8400027406F09000A77403F07F0A7E0012240B
:101A940049800E900001E0B401078000E49000A7A3
:061AA400F0900002E0FFDB
:011AAA002219
:101F9C0012193DBF05037F01221219F4BF060590EB
:101FAC0000AD80329000AAE0602330A60320B51D5E
:101FBC009000ADE070177F32FE122449E49000AA25
:101FCC00F020A6037F032220B50F7F022230A60942
:101FDC0030B5069000AA7401F030A513D39000AC74
:101FEC00E094019000ABE094004004E4F0A3F07F97
:011FFC0000E4
:011FFD0022C1
:1016D2007365742074696D65207365636F6E643A17
:1016E20025640D0A0065786368616E67655F6865E9
:1016F20061745F76616C7565200D0A0074696D65B1
:10170200207365636F6E643A2564200D0A0070725F
:101712006F74656374200D0A0074696D65206F66CD
:1017220066200D0A0074696D655F746F5F302E3537
:1017320048202074696D655F7365633D2564200DE3
:101742000A0074696D655F746F5F314820207469A7
:101752006D655F7365633D2564200D0A0074696DD4
:10176200655F746F5F3248202074696D655F7365D1
:10177200633D2564200D0A0074696D655F746F5FB7
:101782003448202074696D655F7365633D2564206C
:101792000D0A0074696D655F746F5F3848202074AC
:0E17A200696D655F7365633D2564200D0A0067
:101BD40041009F0042009D00004200A1000041001E
:101BE4009500410096004100A3004100A00041007F
:101BF4009900420097000042009B000042009300BD
:051C04000041009A0000
:1023C40090009DEEF0A3EFF0E4A3F07BFF7A167982
:0C23D400D2900045EEF0A3EFF0020919D2
:101E5000EFB40A00506E901E5DF8282873021E7BB6
:101E6000021E85021E87021E89021E93021E9D020B
:101E70001EA7021EB1021EBB021EBB900093E4F01F
:101E8000A3741EF02280028000900093E4F0A374FB
:101E90003CF022900093E4F0A3745AF02290009357
:101EA000E4F0A37478F022900093E4F0A37496F029
:101EB00022900093E4F0A374B4F022900093E4F035
:051EC000A374F0F02204
:101FFE009000AEE0B40A00504890200EF8282873E6
:10200E0002202C02202E0220350220370220390217
:10201E00203B022042022049022049022049800032
:10202E009000A07401F0228004800280009000A035
:10203E007402F0229000A07405F0229000A07408A3
:02204E00F0227E
:10219F00900099E0B40234900097E475F0011206B4
:1021AF005BFEC3900094E095F0900093E09E501B6F
:1021BF007BFF7A1679E7120919E4900099F09000E5
:0C21CF0097F0A3F090009AF0121FFE227F
:101DC600E490009FF09000AFE0FF700890009DF057
:101DD600A3F08052EFB4010C90009D7407F0A304A9
:101DE600F0E48042EFB4020D90009D740EF0A374EF
:101DF60010F0E48031EFB4030D90009D741CF0A345
:101E06007420F0E48020EFB4040D90009D7438F047
:101E1600A37440F0E4800FEFB4051790009D747032
:101E2600F0A37480F0E49000A1F0A3F090009BF082
:101E3600A3F07BFF7A1679FE90009DE0FFA3E09069
:0A1E46000045CFF0A3EFF0020919E8
:10246000E490FE80F0F589758CF2758AFBC28DD2FE
:06247000A9D28CD2AF22BC
:03000B000212CC12
:1012CC00C0E0C0F0C083C082C0D075D000C000C0E8
:1012DC0001C002C003C004C005C006C0071224F040
:1012EC00EF60030213C090009FE004F0E0C394642D
:1012FC0050030213C012219F9000A3E0B4022D9062
:10130C0000A2E004F070069000A1E004F0D390007D
:10131C00A2E094209000A1E0941C40109000A3E463
:10132C00F09000A1F0A3F090009504F0D390009EF3
:10133C00E0940090009DE094004048A3E024FFF06E
:10134C0090009DE034FFF0900096E0640270609095
:10135C0000A2E004F070069000A1E004F0D390002D
:10136C00A2E094209000A1E0941C4043900095745E
:10137C0001F0A3E4F09000A1F0A3F07BFF7A1779C1
:10138C001080299000AFE060267F011224F69000B7
:10139C009DE4F0A3F09000A1F0A3F0900096F090E3
:1013AC0000A3F01223A67BFF7A17791B1209199060
:1013BC00009FE4F0D007D006D005D004D003D002B3
:0F13CC00D001D000D0D0D082D083D0F0D0E0328A
:101F320090009BE475F00112065BFEE5F08EF01254
:101F420008541F5C07081F640E101F6C1C201F74AE
:101F520038401F7C708000001F9B7BFF7A17792717
:101F6200801E7BFF7A17794480167BFF7A17795F90
:101F7200800E7BFF7A17797A80067BFF7A17799534
:101F820090009DE0FFA3E0900045CFF0A3EFF01298
:0A1F92000919E490009BF0A3F0226F
:041C09004100BE00D8
:102431007E009000BEE0FD7C00120881E47B64FA1E
:07244100F9F81207318FDFEB
:012448002271
:1023270090FF0074C1F0E490FF9CF0AC06AD077E0F
:102337007A7F12120606EF149000BEF0F5DE75DD07
:022347009722DB
:1024160090FF017401F090FF03F075B4807F147E85
:0B242600001224B290FE9B7449F022CB
:10247600E4FFFE75B50143B440E5B430E5FB53B463
:05248600DFAEB7AFB6A8
:01248B00222E
:10248C00E4FFFE75B50343B440E5B430E5FB53B44B
:05249C00DFAEB7AFB692
:0124A1002218
:0B11A000900006EBF0A3EAF0A3E9F0DA
:1011AB0090000C1207DD00000000E4900010F0F03E
:1011BB0090000CE0F8A3E0F9A3E0FAA3E0FB122403
:1011CB0076E4FCFDEB2FFFEA3EFEED39FDEC38FC3F
:1011DB0090000C1207D1900010E004F0E0C39405CE
:1011EB0040CE90000CE0FCA3E0FDA3E0FEA3E0FFEB
:1011FB00E47B05FAF9F812073190000C1207D1E4E1
:10120B007F887E13FDFC90000CE0F8A3E0F9A3E0CF
:10121B00FAA3E0FB1206A6E4FB7A10F9F8120731E9
:10122B00900006E0FBA3E0FAA3E0F9EE8FF01206C4
:10123B008790000C1207DD00000000E4900010F016
:10124B0090000CE0F8A3E0F9A3E0FAA3E0FB122472
:10125B008CE4FCFDEB2FFFEA3EFEED39FDEC38FC98
:10126B0090000C1207D1900010E004F0E0C394053D
:10127B0040CE90000CE0FCA3E0FDA3E0FEA3E0FF5A
:10128B00E47B05FAF9F812073190000C1207D1E450
:10129B007F887E13FDFC90000CE0F8A3E0F9A3E03F
:1012AB00FAA3E0FB1206A6E4FB7A10F9F812073159
:1012BB00900009E0FBA3E0FAA3E0F9EE8FF0020641
:0112CB00879B
:0D24CE0075BD17EF75F02BA490FEA0F02255
:04250C0043BD102299
:100026000202E1E86480F8E933E83360110460F025
:10003600ED33EC337009E8FCE9FDEAFEEBFF220440
:1000460060DED3EB9FEA9EE99DE8C2E78CF0C2F73B
:1000560095F0400CE8CCF8E9CDF9EACEFAEBCFFB07
:100066001202AC85D0F05804700320D5B3E80470B2
:10007600075002B2D50202EB92D5EC0460F7E4CC4D
:10008600C0E0C398F8603B94186008400DD0E0FBD0
:100096000202C3E4FBFAC9FC8028E830E406E4C99E
:1000A600FBE4CAFCE830E305E4C9CACBFCE8540724
:1000B6006010F8C3E913F9EA13FAEB13FBEC13FC2F
:1000C600D8F130F52FC3E49CFCEF9BFFEE9AFEEDD2
:1000D60099FDD0E0FBEF4E4D4C701222DB0302027D
:1000E600E8EC2CFCEF33FFEE33FEED33FDED30E7AD
:1000F600EB0202C3EF2BFFEE3AFEED39FDD0E0FB3B
:1001060050130BBB00030202EBED13FDEE13FEEFE3
:0801160013FFEC13FC0202C30D
:10011E000202EBEC5D046005E8590470030202E193
:10012E001202AC580460F6EC4860F2EC7004FDFE6E
:10013E00FF22C860DB2481C85009C39860025006B4
:10014E000202E89850CAF582E9294B4A7005AB8243
:10015E000202D775F0007C1A7880C3EF9BEE9AED01
:10016E0099400DC3EF9BFFEE9AFEED99FDE842F02C
:10017E00DC23ACF0D0E0FFD0E0FED0E0FDAB82207F
:10018E00E7101BEB60BAEC2CFCEF33FFEE33FEED09
:10019E0033FD0202C3E803F830E705C0F075F00046
:1001AE00EF2FFFEE33FEED33FD40B830E7C280AAED
:1001BE0074F8CC6480CCC86480C8F58204604FC3E8
:1001CE00EB9FF5F0EA9E42F0E99D42F0E89C45F087
:1001DE00603C501DE5825FFFE582D313CB5BCBF411
:1001EE002B5582FB50280ABA002409B9002008803A
:1001FE001DE5825BFBE582D313CF5FCFF4C3132FD4
:10020E005582FF50090EBE00050DBD00010CC3EB5B
:10021E009FF5F0EA9E42F0E99D42F0E89C45F060C1
:09022E0007CC4820E701B3EC22E3
:1002370075F020800E75F010800575F0087D007E42
:10024700007F003392D530D5031207C3EC3340103B
:10025700EF33FFEE33FEED33FDEC33FCD5F0ED224B
:0E026700E5F0247EA2D513CC92E7CDCEFF2287
:10027500EDD2E7CD33EC3392D524814006E4FFFE81
:10028500FDFC22FCE4CFCECDCC24E0501174FF80E0
:10029500EDC3CC13CCCD13CDCE13CECF13CF04707D
:0702A500F030D5DE0207C3B3
:1008AE00E50D2445F582E43400F583E0050D229034
:1008BE000042301003900045E475F00112080E025C
:1008CE0005AE2009E97F2ED2098018EF540F24902F
:1008DE00D43440D4FF300D0BEF24BFB41A005003B4
:1008EE002461FFE50E6002150E0511E5117002057B
:1008FE001030100E900042E475F00112080EEF0257
:10090E0005F40224FC7403D2108003E4C210F50D2A
:10091E00900042120825E4F50EF510F511E50E6073
:10092E00077F201208F180F5750FFFC20AC209C2B7
:10093E000BC20CC20EC20FC2111208BDFF700D30D9
:10094E0010057F00120902AF11AE1022B4255FC24E
:10095E00D5C20D1208BDFF24D0B40A00501A75F08E
:10096E000A780E30D50508B6FF0106C6A426F62075
:10097E00D5047002D20C80D924CFB41A00EF5004E3
:10098E00C2E5D20D020BF4D20A80C6D20980C0D2C3
:10099E000B80BCD2D580BAD20E80B47F201208F163
:1009AE00200B077401B50E0040F11208AEFF1208BD
:1009BE00F102092BD211D20F80951208AEFB12084C
:1009CE00AEFA1208AEF94A4B700679F27A0C7BFF3A
:1009DE00200B2EE50E602A7E008E82758300120596
:1009EE00C760060EEE650F70F0C2D5EBC0E0EAC030
:1009FE00E0E9C0E0EE120C55D0E0F9D0E0FAD0E01C
:100A0E00FB1205AEFF60AAEBC0E0EAC0E0E9C0E071
:100A1E001208F1D0E02401F9D0E03400FAD0E0FB66
:100A2E00E50F0460DCD50FD98087D20B80A2120CA3
:100A3E003760F7E50F7001041202F6A90F600DE59D
:100A4E000F600914F50F120CDFEF60F3EA30E702C6
:100A5E00F404C3995079EAF4250F0430E701E40455
:100A6E00F50F800D120C3760C1EA050F250F12022B
:100A7E00F6EA900071F030E701E4250F04D50F047B
:100A8E00200E0114120C55E4C0E0120CDF90007120
:100A9E00E0601320E70714F01208D9802204F0D08A
:100AAE00E014C0E07F001208D9E50F60071208D0ED
:100ABE00150F800B300E031208D0D0E002092BD098
:100ACE00E00480C4120C37609EE50F041202F6900B
:100ADE000071EAF0E50F200E026001042404120CEE
:010AEE0055B2
:100AEF0074FF04C0E0120CDF1208D9E50F200E02CC
:100AFF0060031208D0D0E0B50FE87F451208E390ED
:100B0F000071E07F2B30E7047F2DF404C0E0120862
:100B1F00F1D0E075F00A84C0F01208DAD0E01208C4
:100B2F00DA02092B791080027908C20FC2118008EE
:100B3F00D2D5790A8004790AC2D5E50F047002F57F
:100B4F000FE4FAFDFEFF1208AEFC7B08200A131219
:100B5F0008AEFD7B1030090A1208AEFE1208AEFF78
:100B6F007B20EC3382D592D55013C3E43009069F16
:100B7F00FFE49EFEE4200A039DFDE49CFCE4CBF819
:100B8F00C20AEC700CCFCECDCCE824F8F870F3800D
:100B9F0017C3EF33FFEE33FEED33FDEC33FCEB33D6
:100BAF00FB994002FB0FD8E9EB300A05F8D0E0C4FF
:100BBF0048B20AC0E00AEC4D4E4F78207B0070C25D
:100BCF00EAB50F0040BCC0E0120C57D0F0D0E020C7
:100BDF000A04C4C0E0C4B20AC0F01208DAD0F0D5DB
:100BEF00F0EB02092B12082E09C8530B3358099941
:100BFF004C0995420B374F0B3F440B3F4909AE430E
:100C0F000B45550A72460AD2450A3C470D12500948
:100C1F009D2D09A12E09C42B09A52309C2200CFB68
:100C2F002A095D48000009BCE50FB4FF03750F06E4
:100C3F001208AEFC1208AEFD1208AEFE1208AEFF8F
:100C4F0090006A020333790AA2D5200C14300E09E2
:100C5F00B910020404B9080104A2D5200F025001F3
:100C6F0004200B68920BB50E005034C0E07F20308B
:100C7F000C197F30A20B720F720E500F120CAEC2F6
:100C8F000BC20FC20EC2117F30800F300E03E9C0AE
:100C9F00E01208F1300E03D0E0F9D0E0B50ECC3001
:100CAF000E177F30B9100C1208F17F58300D077FE7
:100CBF00788003B908031208F1300B057F2D020865
:100CCF00F17F202011F87F2B200FF322920B80CF82
:100CDF007F00B40700500B246AF582E43400F583DB
:100CEF00E0FF22286E756C6C2900D20A1208AE3014
:100CFF000AF8C20A780E30D50108F602095D2D50A8
:100D0F004349581208AE2403B405004001E4900D86
:100D1F000D931208E2743A1208E2D20C750E040217
:020D2F000B3384
:1002AC00E9D2E7C933E833F892D5EDD2E7CD33EC98
:0702BC0033FC5002B2D52211
:1002C300EC30E7100FBF000C0EBE00080DBD00049C
:1002D3000BEB6014A2D5EB13FCED92E7FD2274FF48
:1002E300FCFDFEFF22E480F8A2D574FF13FC7D80A1
:0302F300E480EFB5
:1002F600F920E73624F950037907E4F42402FBE5F4
:1003060082158270021583DBF6E024FB501BE96040
:1003160014E4F0E582158270021583E004F0B40A55
:0D03260008E4F0D9EE7401F00A22C2D522DD
:10033300ED33EC3392D5FA602AB4FF33EDC2E77B99
:10034300FF60067A037958E4227A03796120D504A1
:100353007A03795C224E614E002B494E46002D49AB
:100363004E4600E47A08F0A3DAFC7B00740722C04F
:1003730083C082ECC0E0EDC0E0EEC0E0EFC0E0EA95
:1003830075F010A4CAABF075F04DA42BFBE435F067
:10039300FCEA2410FAEB34C5FBEC34D9FCEDC2E7DC
:1003A300FF75F056A4F42411C5F0F434C58FF0A4FE
:1003B3002AE5F03BE43CF020E71412056ED0E0FFA1
:1003C300D0E0FED0E0FDD0E0FC1201218014F40463
:1003D30012056ED0E0FFD0E0FED0E0FDD0E0FC12CD
:1003E3000438D082D083E0FAEDD2E7CD33EC332466
:1003F30082FBE4C3CF33CFCE33CECD33CD33DBF368
:100403007B0775F00A846004F0A31B0AE5F0F0A3F0
:100413008FF0740AA4FFACF08EF0740AA42CFEAC27
:10042300F050010C8DF0740AA42CFDE435F0F0A318
:05043300DBDE7407226E
:10043800EC4D6011E8497017ED33EC3304600DE4BE
:10044800FCFFFEFD22E933E8330470F80202E112F2
:1004580002AC58046009E4CC2481500628500902F3
:1004680002EB2840030202E8C0E0EB4A7044B9807E
:1004780006D0E0FB0202D7EF4E701CBD8008EBFFF0
:10048800EAFEE9FD80EBE98DF0A4FEE5F002052126
:10049800E9CDF9EAFEEBFFEF89F0A4FCE5F0CE899F
:1004A800F0A42EFFE435F0CD89F0A42DFEE435F05C
:1004B8008067EF4E7005BD80D780C3EF8BF0A4AC8A
:1004C800F0EE8BF0A42CFCE435F0F8EF8AF0A42CC5
:1004D800E5F038FCE433CB8DF0A42CFCE5F03BF8D8
:1004E800EE8AF0A42CFCE5F038F8E433CF89F0A4C8
:1004F8002CFCE5F038CF3400CE89F0A42FFFE5F0CE
:100508003EFEE433C98DF0A42EFEE5F039CD8AF025
:10051800A42FFFE5F03EFEE43DFD33D0E0FB50079D
:100528000BBB000F0202EBEC2CFCEF33FFEE33FEAB
:06053800ED33FD0202C3D9
:10053E003F8000004120000042C80000447A0000C5
:10054E00461C400047C35000497424004B18968047
:10055E004CBEBC205A0E1BCA6753C21C749DC5AE3E
:10056E00FB60065407601C232312059CEB54386075
:10057E0009120588120597120438ECF8EDF9EEFA17
:10058E00EFCB22EB12059780F1543803241C900513
:10059E003EFE93FC0EEE93FD0EEE930ECE93FF22D7
:101CBC00021C0EE493A3F8E493A34003F68001F214
:101CCC0008DFF48029E493A3F85407240CC8C33329
:101CDC00C4540F4420C8834004F456800146F6DFF8
:101CEC00E4800B0102040810204080901B61E47E0C
:101CFC00019360BCA3FF543F30E509541FFEE493ED
:101D0C00A360010ECF54C025E060A840B8E493A3B3
:101D1C00FAE493A3F8E493A3C8C582C8CAC583CADE
:101D2C00F0A3C8C582C8CAC583CADFE9DEE780BE96
:011C0D0000D6
:1005AE00BB010689828A83E0225002E722BBFE024B
:0905BE00E32289828A83E493227E
:1005C700BB010CE58229F582E5833AF583E02250E9
:1005D70006E92582F8E622BBFE06E92582F8E22233
:0D05E700E58229F582E5833AF583E493224D
:1005F400BB010689828A83F0225002F722BBFE01E6
:02060400F322DF
:10060600BC000BBE0029EF8DF084FFADF022E4CCD8
:10061600F875F008EF2FFFEE33FEEC33FCEE9DECA1
:10062600984005FCEE9DFE0FD5F0E9E4CEFD22EDE7
:10063600F8F5F0EE8420D21CFEADF075F008EF2F31
:10064600FFED33FD4007985006D5F0F222C398FD22
:050656000FD5F0EA22BF
:10065B00C5F0F8A3E028F0C5F0F8E582158270022A
:06066B001583E038F022C7
:10067100A3F8E0C5F025F0F0E5821582700215833C
:06068100E0C838F0E82299
:10068700BB010A89828A83F0E5F0A3F0225006F7BE
:0F06970009A7F01922BBFE06F3E5F009F31922BB
:1006A600E88FF0A4CC8BF0A42CFCE98EF0A42CFCF3
:1006B6008AF0EDA42CFCEA8EF0A4CDA8F08BF0A471
:1006C6002DCC3825F0FDE98FF0A42CCD35F0FCEBD0
:1006D6008EF0A4FEA9F0EB8FF0A4CFC5F02ECD3995
:0F06E600FEE43CFCEAA42DCE35F0FDE43CFC2202
:1006F50075F008758200EF2FFFEE33FECD33CDCCBC
:1007050033CCC58233C5829BED9AEC99E58298403E
:100715000CF582EE9BFEED9AFDEC99FC0FD5F0D61B
:10072500E4CEFBE4CDFAE4CCF9A88222B800C1B945
:100735000059BA002DEC8BF084CFCECDFCE5F0CB83
:10074500F97818EF2FFFEE33FEED33FDEC33FCEBBC
:1007550033FB10D703994004EB99FB0FD8E5E4F977
:10076500FA227818EF2FFFEE33FEED33FDEC33FC64
:10077500C933C910D7059BE99A4007EC9BFCE99A58
:10078500F90FD8E0E4C9FAE4CCFB2275F010EF2F9D
:10079500FFEE33FEED33FDCC33CCC833C810D7079D
:1007A5009BEC9AE899400AED9BFDEC9AFCE899F8D8
:0E07B5000FD5F0DAE4CDFBE4CCFAE4C8F9226B
:0E07C300C3E49FFFE49EFEE49DFDE49CFC2247
:0C07D100ECF0A3EDF0A3EEF0A3EFF0229B
:1007DD00A8828583F0D083D0821207F41207F41219
:1007ED0007F41207F4E473E493A3C583C5F0C5833E
:1007FD00C8C582C8F0A3C583C5F0C583C8C582C866
:01080D0022C8
:10080E00F8E0FBA3A3E0F925F0F0E5821582700273
:07081E001583E0FA38F02217
:09082500EBF0A3EAF0A3E9F022D4
:10082E00D083D082F8E4937012740193700DA3A359
:10083E0093F8740193F5828883E47374029368606D
:06084E00EFA3A3A380DF6D
:10085400D083D082F8E4937012740193700DA3A333
:1008640093F8740193F5828883E473740293B5F06A
:0D087400067403936860E9A3A3A3A380D8D2
:10088100EC8EF0A4CCC5F0CCCDF8EFA4CEC5F02D04
:10089100FDE43CFCE8A42EC8C5F03DFDE43CFCEFC2
:0D08A100A4FFE5F028FEE43DFDE43CFC2250
:00000001FF
