:0300000002227960
:0C227900787FE4F6D8FD7581220222C0B7
:10209400206B65795F7363616E0D0A00204B4559AF
:1020A4005F325F505245530D0A0052203D20256691
:1020B40020200D0A002564200D0A000D0A3D3D3D37
:1020C4003D3D3D3D3D3D3D3D3D3D3D3D3D3D3D3D3C
:1020D4003D3D3D3D3D3D3D3D3D3D3D3D3D3D3D0D5C
:1020E4000A00736B753A4B2564200D0A00736F6602
:1020F400742076657273696F6E3A2573200D0A0039
:10210400312E30302E303000676170202564200D70
:102114000A0074696D6572202564200D0A003D3D36
:102124003D3D3D3D3D3D3D3D3D3D3D3D3D3D3D3DDB
:102134003D3D3D3D3D3D3D3D3D3D3D3D3D3D3D3DCB
:032144000D0A0081
:101E6F004200E800004100EA004100E7004100E6BF
:011E7F000062
:102A3100758E5390FE917401F090FF027410F02294
:101B2500E4900000F09000E7E0700A12241990009C
:101B350000EFF08005E4900000F0900000E0640103
:101B450070489000E5E070427BFF7A207994120995
:101B5500E9122A8BEF700D7F01122A91122935E4C3
:101B6500FF0229C0E4FF122A9112238F9000EA7424
:101B750001F09000D2E0FF1221EC9000D2E0FF12BC
:101B85001A289000D3E0FF022305122A8BEF600389
:101B9500021C18900000E0640270507BFF7A2079E7
:101BA500A01209E99000D2E0C394095005E004F0C1
:101BB50080069000D27401F09000D2E0FFD3940328
:101BC5004016A3E0FE70059000D18009EED3940382
:101BD50040069000C27402F09000EA7401F01221F0
:101BE500EC9000D2E0FF121A288025900000E0B4A6
:101BF50003219000D3E0C394055005E004F080056F
:101C0500E49000D3F09000D3E0FF12230512238F58
:031C150012284E44
:011C180022A9
:081DB400900006EEF0A3EFF031
:101DBC00900091E06402706A9000E5E0640170624A
:101DCC00900006A3E0FFE4900091F09000D604F0A0
:101DDC00900072E0FED3940F4048EED39F400CE08D
:101DEC009F9000D4F0A37401F08016900072E0FE76
:101DFC00C3EF9EFF9000D4F0122A6A9000D57402B3
:101E0C00F09000D4E0FFC394024006EFD39414404A
:101E1C0007E49000D4F0A3F012284E7D027F02124A
:101E2C0028F89000D5E0FDB401149000D4E0FF7EBA
:101E3C0000900006EE8FF012071AAFF0FE22EDB400
:101E4C0002189000D4E0FFC3900007E09FFF9000C1
:101E5C0006E09400FEF0A3EFF022900006E0FEA353
:021E6C00E0FF95
:011E6E002251
:10122900900008ECF0A3EDF0900006EEF0FAA3EFC1
:02123900F0FBC8
:10123B00E490000AF0A37432F0A3740AF0A312082E
:10124B00AD00000000C3EB9432EA9400401690000E
:10125B0008E0FEA3E0FF900006E0FCA3E0FDD39FB7
:10126B00EC9E4003021302E4120342E4FBFA797A88
:10127B007844120227C004C005C006C007900008BE
:10128B00E0FCA3E0FDE4120342E4FBFA797A784434
:10129B00120227D003D002D001D000120029C004C3
:1012AB00C005C006C007900006E0FCA3E0FDE412F9
:1012BB000342E4FBFA797A7844120227E4FBFA79C9
:1012CB00FF7843120227A804A905AA06AB07D0078B
:1012DB00D006D005D00412022790000D1208A1E40D
:1012EB00FFFEFDFC90000DE0F8A3E0F9A3E0FAA3EC
:1012FB00E0FB1202C450057E007FFF227BFF7A20A9
:10130B0079AE90000DE0FCA3E0FDA3E0FEA3E0FFAF
:10131B009000441208A11209E990000DE0FCA3E033
:10132B00FDA3E0FEA3E0FFE4FBFAF97841120227EC
:10133B0090000D1208A1E4FFFE7D927C4290000DFF
:10134B00E0F8A3E0F9A3E0FAA3E0FB1202C4500417
:10135B00E4FEFF2290000DE0FCA3E0FDA3E0FEA362
:10136B00E0FF7BF37A1F79B6784212022790000DCB
:10137B001208A17FF37E1F7DB67C4290000DE0F832
:10138B00A3E0F9A3E0FAA3E0FB12011E7BF37A1FA3
:10139B0079B678421202C4504C90000DE0FCA3E0E9
:1013AB00FDA3E0FEA3E0FF7B497A9D7980783F1295
:1013BB00022790000D1208A190000AE004F0E4FF50
:1013CB00FE7D807C3F90000DE0F8A3E0F9A3E0FAEE
:1013DB00A3E0FB1202C4600250BF90000AE0FFA31F
:1013EB00E02FF0804E90000DE0FCA3E0FDA3E0FEAB
:1013FB00A3E0FF7B6D7AC5797E783F1202279000C0
:10140B000D1208A190000AE004F0E4FFFE7D807C41
:10141B003F90000DE0F8A3E0F9A3E0FAA3E0FB1284
:10142B0002C440C190000BE0FF90000AE0FEC3EF46
:0A143B009EA3F090000BE0FF7E007E
:011445002284
:10158500E4900000F0A3F0A3F0A3F0A3F0A3F09083
:1015950000E9E004F070069000E8E004F0D3900064
:1015A500E9E094109000E8E0942750030216BDE4AA
:1015B500F0A3F07B0190000904F0A37400F0A3747C
:1015C50004F07A0079021217F6900002E0FEA3E01B
:1015D500FFA3E0FCA3E0FD121229900000EEF0A3AA
:1015E500EFF0121DB4900000EEF0A3EFF07BFF7A50
:1015F5002079B9900044EEF0A3EFF01209E9D390F9
:101605000003E09432900002E09400500302169C1F
:10161500122A8BEF704D9000EAE0B40129E4F0D373
:10162500900001E09432900000E094009000C574B1
:10163500024009F09000CC740CF0800AF09000C6CE
:1016450014F09000CCF09000D3E0FF122305900039
:10165500D2E0FF121A28900000E0FEA3E0FF121C62
:10166500F7802E9000E5E0B40118E4FF1229C012BE
:1016750029359000D2E0FF121A289000EC7401F091
:10168500800FE4FF1229C07F0412298AE49000EC40
:10169500F0E49000E7F022E49000E5F09000ECF033
:1016A500122935E4FF1229C09000E674FFF0FF12FD
:0816B5001A289000E77401F00F
:0116BD00220A
:10214700122A311227D61229A5D2AF12000E122950
:10215700EF1214467FC87E001228961228277F2088
:102167007E031229D87F02122A5D1228D8E4FF12B3
:1021770029C07BFF7A2079BF1209E97BFF7A207992
:10218700E69000447423F0A37445F01209E9900027
:102197004474FFF0A37421F0A37404F07BFF7A204A
:1021A70079F11209E97BFF7A21790C9000D2E0FFDF
:1021B700900044E4F0A3EFF01209E97BFF7A21795C
:1021C700169000D3E0FF900044E4F0A3EFF012096B
:1021D700E97BFF7A2179221209E9121B251215855D
:0521E700122AA780F59B
:1026D000900008EEF0A3EFF0A3ECF0A3EDF0D39F91
:1026E000EC9E4004E4FF80229000CCE0FFC3900009
:1026F00009E09FFF900008E09400FEC390000BE00B
:0E2700009F90000AE09E50057F0A1229C02219
:101CF700900006EEF0A3EFF09000C6E0B4010D905F
:101D07000006E0FCA3E0FD7F50021DAE9000D2E08C
:101D1700B40A004003021DB3901D26F82828730259
:101D27001D44021D50021D5C021D68021D74021D28
:101D370080021D8C021D98021D98021DA4900006AA
:101D4700E0FCA3E0FD7F1E805E900006E0FCA3E0C0
:101D5700FD7F2D8052900006E0FCA3E0FD7F3180DF
:101D670046900006E0FCA3E0FD7F34803A90000631
:101D7700E0FCA3E0FD7F37802E900006E0FCA3E0A7
:101D8700FD7F3C8022900006E0FCA3E0FD7F4180C0
:101D970016900006E0FCA3E0FD7F46800A9000064F
:0D1DA700E0FCA3E0FD7F4D7E001226D0225F
:1028B8009000C1E0B401189000D2E0D39403400F17
:1028C8007403F0FF121A2812284EE49000C1F02277
:101922000D0A3D3D3D3D3D3D3D3D3D3D3D3D3D3D48
:101932003D3D3D3D3D3D3D3D3D3D3D3D3D3D3D3DD5
:101942003D3D3D3D3D3D3D3D3D3D0D0A00706F77C6
:101952006572206F6E20666C617368206761703AF1
:101962002564202074696D65723A2564200D0A0091
:10197200706F776572206F6E20666C617368207677
:10198200616C75653A256420207369676E3A256437
:10199200200D0A003D3D3D3D3D3D3D3D3D3D3D3D32
:1019A2003D3D3D3D3D3D3D3D3D3D3D3D3D3D3D3D65
:1019B2003D3D3D3D3D3D3D3D3D3D3D3D0D0A003DF5
:1019C2003D3D3D3D3D3D3D3D3D3D3D3D6669727385
:1019D2007420696E697420646174613D3D3D3D3DD2
:1019E2003D3D3D3D3D3D200D0A00307825303458C7
:1019F2002020307825303458202030782530345853
:101A02002020307825303458200D0A00666C61732E
:101A120068206761703A2564202074696D65723AA6
:061A22002564200D0A00FE
:101E80004500D200000000004400D7202005014199
:031E900000DB0173
:062A8B009000DBE0FF22D9
:062A91009000DBEFF022D3
:10287400D310AF01C3C0D075FDF075FC0F8EFA8F75
:10288400F975FDD275FC2D75FDE175FC1ED0D09255
:02289400AF2271
:1027FF00D310AF01C3C0D08FFB75FDF075FC0FAECA
:10280F0004AF058EFA8FF975FDB475FC4B75FDE1BC
:08281F0075FC1ED0D092AF221F
:0C2497007B017A0079D27D057F047E3C39
:1024A300D310AF01C3C0D0900008EEF0A3EFF0A3A8
:0B24B300EDF0A3EBF0A3EAF0A3E9F0CA
:1024BE00E4A3F0C2AFF090000AE0FF90000EE0C37C
:1024CE009F502C90000BE0FBA3E475F00112073037
:1024DE00A9F0FA12066DFF900008E475F0011207DC
:1024EE0030ADF0FC1227FF90000EE004F080C7D252
:0124FE00AF2E
:0524FF00D0D092AF22D5
:040003008F828E83D7
:03000700E493FF80
:01000A0022D3
:10261200900008EEF0A3EFF0A3EBF0A3EAF0A3E939
:10262200F0AF051DEF6028900008E475F001120775
:102632003085F082F583E493FF90000AE0FBA3E487
:1026420075F001120730A9F0FAEF1206B380D22218
:10274A00E4FDFCED2400FFE4343CFE12000374D7E0
:10275A002DF582E43400F583E0B507030C80037F8E
:10276A0000220DEDB404DCECC3940440037F012283
:02277A007F00DE
:01277C00223A
:10144600E4900000F090FE927404F012274AEF70C8
:101456000790000004F0807C7BFF7A19792212093C
:10146600E97B017A0079D27D057F047E3C12261243
:101476007BFF7A19794F9000D2E0FF900044E4F0A8
:10148600A3EFF09000D3E0FF900046E4F0A3EFF066
:101496001209E97BFF7A1979729000D4E0FF900077
:1014A60044E4F0A3EFF09000D5E0FF900046E4F0AE
:1014B600A3EFF01209E97BFF7A1979961209E990F0
:1014C60000D2E0D394095006A3E0940540069000AC
:1014D600007401F0900000E0640160030215627B75
:1014E600FF7A1979C11209E99000D27401F0A37448
:1014F60003F07F007E3C1228747B017A0079D77D49
:10150600041224A31224977B017A0079D77D047FE5
:10151600007E3C1226127BFF7A1979EC9000D7E008
:10152600FF900044E4F0A3EFF09000D8E0FF9000B5
:1015360046E4F0A3EFF09000D9E0FF900048E4F015
:10154600A3EFF09000DAE0FF90004AE4F0A3EFF09A
:101556001209E97BFF7A1979961209E97BFF7A1A53
:10156600790E9000D2E0FF900044E4F0A3EFF090F3
:0F15760000D3E0FF900046E4F0A3EFF00209E994
:10284E007F047E3C1228747B017A0079D77D047F49
:10285E00001224A31224977B017A0079D27D057F82
:06286E00047E3C0226126C
:0E2A4100EF1F70011E144E6004000080F3228F
:1029D8007DA07C01ED1D70011C144C70F7EF1F7079
:0629E800011E144E70EA0E
:0129EE0022C6
:032AAB00022A41BB
:10296F0090FF0974C1F090FF08F090FF07F090FFFF
:0B297F0006F0D291D290D287D28622BF
:08265200900044EFF0A3EDF04D
:10265A00E4A3F0F0900045E0FFA3E0C39F5027C237
:10266A0087900044E020E704C2868002D286D2879F
:10267A007F057E00122AAB900044E025E0F090002E
:06268A0046E004F080CEE2
:012690002227
:08269100900044EFF0A3EDF00E
:10269900E4A3F0F0900045E0FFA3E0C39F5027C2F8
:1026A90087900044E020E004C2868002D286D28767
:1026B9007F057E00122AAB900044E0C313F090001E
:0626C90046E004F080CEA3
:0126CF0022E8
:10298A00900007EFF0C2917D047F801226529000DA
:0B299A0007E0FF7D08122652D29122B8
:1027AA00900042EFF0A3EDF0C2917D037FA01226C4
:1027BA0052900042E025E025E0FF7D061226529065
:0C27CA000043E0FF7D04122691D2912212
:092A8200D291D290D287D28622B3
:081E93004100EB004100EC00EE
:052A9D007F0602298AFA
:052AA2007F0402298AF7
:10291700E4900000F0F0900000E0FFC39420500D19
:0D2927007D0F1227AA900000E004F080E967
:012934002280
:10293500E4900041F0F0900041E0FFC39420500D79
:0D294500E4FD1227AA900041E004F080E9B3
:012952002262
:1028270012296F7F5212298A7F3012298A7F0A1252
:10283700298A7F0812298A7F0212298A7F0612298C
:072847008A1229350229174E
:0E2A4F00E4FD7F1C1227AAE4FD7F1F0227AAC8
:10230500900006EFF07F0612298AE4FD7F1F122751
:10231500AAE4FD7F1C1227AA900006E014601B1496
:10232500602314602B14603A1460492405705A7DAB
:102335000A7F1B1227AA7D0E80317D0B7F1B12277A
:10234500AA7D0A80267D0E7F1B1227AA7D0A801B87
:102355007D0A7F1B1227AA7D0A7F1C1227AA7D0BE7
:1023650080227D0A7F1B1227AA7D0B7F1C1227AABC
:102375007D0A80107D0A7F1B1227AA7D0A7F1C1209
:0A23850027AA7D0E7F1F1227AA224F
:101A2800900006EFF07F0612298AE4FD7F1D122739
:101A3800AAE4FD7F1E1227AA9000ECE06401700E54
:101A48009000EBE070057D06021AFF021B12900061
:101A580006E0B401047D068063900006E0B4020B42
:101A68007D0B7F1D1227AA7D0C8065900006E0B4CF
:101A7800030B7D0F7F1D1227AA7D0480539000065B
:101A8800E0B4040B7D067F1D1227AA7D06804190D5
:101A98000006E0B4050B7D0D7F1D1227AA7D068088
:101AA8002F900006E0B4060B7D0D7F1D1227AA7D3E
:101AB8000E801D900006E0B407067D077F1D805943
:101AC800900006E0B4080D7D0F7F1D1227AA7D0E39
:101AD8007F1E8045900006E0B4090D7D0F7F1D1222
:101AE80027AA7D067F1E8031900006E0F4702D90B5
:101AF80000EBE070157D017F1D1227AA7D0E7F1E69
:101B08001227AA9000EB7401F022E49000EBF0FD9C
:0D1B18007F1C1227AAE4FD7F1F1227AA22BE
:101E9B005E00730000000000000000000000000066
:101EAB000000000000000000000000000000000027
:091EBB0000410091004100720099
:1027D60090FF0E74C1F090FF0F7461F090FFA0742B
:1027E60016F090FFA104F075CEFF75CDE675CC0608
:0927F600759E02759810D2AC2208
:0C2A6A00C2AC8F993099FDC299D2AC2209
:032AAE00022A6A8F
:0B277D0090000DEBF0A3EAF0A3E9F0E0
:10278800E4FEEEC39D501A90000DE0FBA3E0FAA30F
:10279800E0F98E82758300120686FF122AAE0E803B
:0127A800E14F
:0127A900220D
:1028F8009000087455F0A3EFF0A3EDF0A3740DF069
:0F290800A3740AF07B017A0079087D0502277D10
:062A9700AE07122A6A22BC
:030023000225C5EE
:0D25C500C0E0C083C082C0D075D000C00748
:1025D200E59830E030AF995398FE900091E0146096
:1025E20019047021EFB4551D900073F0900071E052
:1025F20004F09000917401F0800B900072EFF09063
:0526020000917402F0DC
:0B260700D007D0D0D082D083D0E032CA
:101EC4004100E5004100DC004200DD00004100DF8C
:0F1ED400004200E000004100E2014200E3000094
:10000E0090FF1D7461F090FF15F090FF16F090FFB9
:03001E0002F022CB
:101F2600E4900002F0A2A533900001F09000DCE0FE
:101F360014602614604E147003021FC92403600344
:101F4600021FD2900001E06003021FD79000DDF06F
:101F5600A3F09000DC04F08078900001E0706B90B4
:101F660000DEE004F070069000DDE004F0C39000AF
:101F7600DEE094039000DDE09400403E9000DC74C7
:101F860002F08036900001E0B40106A37404F080EC
:101F96003B9000DEE004F070069000DDE004F0C344
:101FA6009000DEE094789000DDE09400400C900014
:101FB600027405F09000DC7403F07F0A7E0012299B
:101FC600D8800E900001E0B401078000E49000DCA8
:061FD600F0900002E0FFA4
:011FDC0022E2
:101FDD00E4900002F0A2A633900001F09000DFE043
:101FED0014602614604E14700302208024036003D5
:101FFD00022089900001E0600302208E9000E0F045
:10200D00A3F09000DF04F08078900001E0706B90F9
:10201D0000E1E004F070069000E0E004F0C39000F1
:10202D00E1E094039000E0E09400403E9000DF7406
:10203D0002F08036900001E0B40106A37404F08034
:10204D003B9000E1E004F070069000E0E004F0C386
:10205D009000E1E094F09000E0E09400400C9000DE
:10206D00027406F09000DF7403F07F0A7E001229DF
:10207D00D8800E900001E0B401078000E49000DFED
:06208D00F0900002E0FFEC
:01209300222A
:10241900121F26BF05037F0122121FDDBF062112ED
:102429002A8BBF01149000D6E0700E9000E504F0ED
:102439009000D6F012284E803CE49000E5F08035FB
:102449009000E2E0602330A60320B51D9000E5E08E
:1024590070177F32FE1229D8E49000E2F020A6031B
:102469007F032220B50F7F022230A60930B50690DE
:1024790000E27401F030A513D39000E4E0940190D8
:0D24890000E3E094004004E4F0A3F07F00C5
:012496002223
:101C19007365742074696D65207365636F6E643ACA
:101C290025640D0A0065786368616E67655F68659C
:101C390061745F76616C7565200D0A0074696D6564
:101C4900207365636F6E643A2564200D0A00707213
:101C59006F74656374200D0A0074696D65206F6681
:101C690066200D0A0074696D655F746F5F302E35EB
:101C790048202074696D655F7365633D2564200D97
:101C89000A0074696D655F746F5F3148202074695B
:101C99006D655F7365633D2564200D0A0074696D88
:101CA900655F746F5F3248202074696D655F736585
:101CB900633D2564200D0A0074696D655F746F5F6B
:101CC9003448202074696D655F7365633D25642020
:101CD9000D0A0074696D655F746F5F384820207460
:0E1CE900696D655F7365633D2564200D0A001B
:101EE3004100CB004200C900004200CD0000410088
:101EF300C1004100C2004100D1004100CC004100BB
:101F0300C5004200C300004200C700004200BF00FA
:0A1F1300004100C6004200CF0000AC
:102953009000C9EEF0A3EFF0E4A3F07BFF7A1C79BB
:0C29630019900044EEF0A3EFF00209E927
:1021EC00EFB40A0040030222789021FCF8282873EF
:1021FC0002221A02222402222E0222380222420237
:10220C00224D02225802226302226302226E9000A7
:10221C00BFE4F0A3741EF0229000BFE4F0A3743C62
:10222C00F0229000BFE4F0A37478F0229000BFE499
:10223C00F0A374B4F0229000BF7401F0A3742CF0DE
:10224C00229000BF7401F0A37468F0229000BF7458
:10225C0001F0A374A4F0229000BF7401F0A374E009
:0D226C00F0229000BF7402F0A3741CF02259
:10256E009000D2E0B40A00504D90257EF8282873D2
:10257E0002259C02259E0225A50225A70225AE0254
:10258E0025B00225B70225BE0225BE0225BE80005B
:10259E009000CC7401F02280009000CC7403F022E5
:1025AE0080009000CC7405F0229000CC7408F022CC
:0725BE009000CC740CF02228
:10270E009000C5E0B402349000C3E475F0011207E6
:10271E001AFEC39000C0E095F09000BFE09E501BE3
:10272E007BFF7A1C792E1209E9E49000C5F0900027
:0C273E00C3F0A3F09000C6F012256E223C
:10238F00E49000CBF09000D3E0FF70089000C9F00C
:10239F00A3F08052EFB4010C9000C97407F0A304AE
:1023AF00F0E48042EFB4020D9000C9740EF0A374F4
:1023BF0010F0E48031EFB4030D9000C9741CF0A34A
:1023CF007420F0E48020EFB4040D9000C97438F04D
:1023DF00A37440F0E4800FEFB405179000C9747038
:1023EF00F0A37480F0E49000CDF0A3F09000C7F05C
:1023FF00A3F07BFF7A1C79459000C9E0FFA3E09022
:0A240F000044CFF0A3EFF00209E94A
:1029EF00E490FE80F0F589758CF2758AFBC28DD26A
:0629FF00A9D28CD2AF2228
:03000B000216BE1C
:1016BE00C0E0C0F0C083C082C0D075D000C000C0F2
:1016CE0001C002C003C004C005C006C007122A8BA9
:1016DE00EF60030217B49000CBE004F0E0C3946413
:1016EE0050030217DB12270E9000D1E0B4022D90AA
:1016FE0000CEE004F070069000CDE004F0D3900030
:10170E00CEE094209000CDE0941C40109000D1E4E7
:10171E00F09000CDF0A3F09000C104F0D39000CA79
:10172E00E094009000C9E094004048A3E024FFF04C
:10173E009000C9E034FFF09000C2E0640270609047
:10174E0000CEE004F070069000CDE004F0D39000DF
:10175E00CEE094209000CDE0941C40439000C174E4
:10176E0001F0A3E4F09000CDF0A3F07BFF7A1C799A
:10177E005780299000D3E060267F01122A919000B5
:10178E00C9E4F0A3F09000CDF0A3F09000C2F09069
:10179E0000D1F01229357BFF7A1C79621209E9908B
:1017AE0000CBE4F080279000E5E0B401209000CF5C
:1017BE00E475F00112071AFED3E5F094E0EE942ED4
:1017CE00400B9000E5E4F09000CFF0A3F0D007D0EE
:1017DE0006D005D004D003D002D001D000D0D0D096
:0817EE0082D083D0F0D0E0327C
:102504009000C7E475F00112071AFEE5F08EF01290
:102514000924252E070825360E10253E1C202546A5
:102524003840254E70800000256D7BFF7A1C796E43
:10253400801E7BFF7A1C798B80167BFF7A1C79A620
:10254400800E7BFF7A1C79C180067BFF7A1C79DCC4
:102554009000C9E0FFA3E0900044CFF0A3EFF01295
:0A25640009E9E49000C7F0A3F0229B
:041F1D004100ED0092
:1029C0007E009000EDE0FD7C00120951E47B64FA8A
:0729D000F9F81207F08FDF98
:0129D70022DD
:1028960090FF0074C1F0E490FF9CF0AC06AD077E9B
:1028A6007A7F121206C5EF149000EDF0F5DE75DDA5
:0228B600972267
:1029A50090FF017401F090FF03F075B4807F147EF1
:0B29B50000122A4190FE9B7449F022A2
:102A0500E4FFFE75B50143B440E5B430E5FB53B4CE
:052A1500DFAEB7AFB613
:012A1A002299
:102A1B00E4FFFE75B50343B440E5B430E5FB53B4B6
:052A2B00DFAEB7AFB6FD
:012A30002283
:0B17F600900006EBF0A3EAF0A3E9F07E
:1018010090000C1208AD00000000E4900010F0F010
:1018110090000CE0F8A3E0F9A3E0FAA3E0FB122AA0
:1018210005E4FCFDEB2FFFEA3EFEED39FDEC38FC53
:1018310090000C1208A1900010E004F0E0C39405A0
:1018410040CE90000CE0FCA3E0FDA3E0FEA3E0FF8E
:10185100E47B05FAF9F81207F090000C1208A1E4F4
:101861007F887E13FDFC90000CE0F8A3E0F9A3E073
:10187100FAA3E0FB120765E4FB7A10F9F81207F00E
:10188100900006E0FBA3E0FAA3E0F9EE8FF0120767
:101891004690000C1208AD00000000E4900010F02A
:1018A10090000CE0F8A3E0F9A3E0FAA3E0FB122A10
:1018B1001BE4FCFDEB2FFFEA3EFEED39FDEC38FCAD
:1018C10090000C1208A1900010E004F0E0C3940510
:1018D10040CE90000CE0FCA3E0FDA3E0FEA3E0FFFE
:1018E100E47B05FAF9F81207F090000C1208A1E464
:1018F1007F887E13FDFC90000CE0F8A3E0F9A3E0E3
:10190100FAA3E0FB120765E4FB7A10F9F81207F07D
:10191100900009E0FBA3E0FAA3E0F9EE8FF00207E3
:01192100467F
:0D2A5D0075BD17EF75F02BA490FEA0F022C0
:042AA70043BD1022F9
:0C2A760000000000000000000000000054
:041F21004100AA00D1
:1028D800E49000A8F0A3F09000A4F0A3F0A3F0A364
:1028E800F09000A304F09000A2F09000A104F02260
:100E010078AB7C007D017BFF7A2A79767E007F0CAE
:100E11001206479000B71208AD000000009000BB19
:100E21001208AD000000009000A8E0FEA3E0FF90D2
:100E310000A6E0FCA3E0FDD39FEC9E50030212212B
:100E4100ED9FFFEC9EFED3EF9464EE94004003020D
:100E51001217E4FCFD9000AB1208A1E490009FF092
:100E6100900096E0FCA3E0FDA3E0FEA3E0FFA31247
:100E710008A1900092E0FCA3E0FDA3E0FEA3E0FF47
:100E8100A31208A19000ABE0FCA3E0FDA3E0FEA348
:100E9100E0FF9000921208A1900096E0FCA3E0FD13
:100EA100A3E0FEA3E0FF900092E0F8A3E0F9A3E045
:100EB100FAA3E0FBD31208904033900096E0F8A328
:100EC100E0F9A3E0FAA3E0FB900092E0FCA3E0FDCF
:100ED100A3E0FEA3E09BFFEE9AFEED99FDEC98FCEA
:100EE1009000AB1208A1E490009EF0803190009236
:100EF100E0F8A3E0F9A3E0FAA3E0FBA3E0FCA3E0A0
:100F0100FDA3E0FEA3E0C39BFFEE9AFEED99FDEC8D
:100F110098FC9000AB1208A190009E7401F0E47F50
:100F210002FEFDFC900096E0F8A3E0F9A3E0FAA32D
:100F3100E0FB1207659000B31208A190009AE0FC53
:100F4100A3E0FDA3E0FEA3E0FF900092E0F8A3E0A0
:100F5100F9A3E0FAA3E02FFFEA3EFEE93DFDE83CFC
:100F6100FC9000B3E0F8A3E0F9A3E0FAA3E0FBC32F
:100F7100120890504B90009AE0FCA3E0FDA3E0FE24
:100F8100A3E0FF900092E0F8A3E0F9A3E0FAA3E068
:100F91002FFFEA3EFEE93DFDE83CFC9000B3E0F89E
:100FA100A3E0F9A3E0FAC3EF9BFFEE9AFEED99FDF2
:100FB100EC98FC9000B31208A1E49000A0F0805DD1
:100FC1009000B3E0FCA3E0FDA3E0FEA3E0FFC004BA
:100FD100C005C006C00790009AE0FCA3E0FDA3E0B5
:100FE100FEA3E0FF900092E0F8A3E0F9A3E0FAA3EA
:100FF100E02FFBEA3EFAE93DF9E83CF8D007D006DC
:10100100D005D004C3EF9BFFEE9AFEED99FDEC985D
:10101100FC9000B31208A19000A07401F09000A10F
:10102100E0FFE4FCFDFE9000ABE0F8A3E0F9A3E0F3
:10103100FAA3E0FB1207659000AB1208A19000A291
:10104100E0FFE4FCFDFE900092E0F8A3E0F9A3E0EC
:10105100FAA3E0FB1207659000AF1208A19000A36C
:10106100E0FFE4FCFDFE9000B3E0F8A3E0F9A3E0AB
:10107100FAA3E0FB1207659000B31208A190009E4D
:10108100E0702D9000B7E0FCA3E0FDA3E0FEA3E03B
:10109100FF9000ABE0F8A3E0F9A3E0FAA3E0FBEFD7
:1010A1002BFFEE3AFEED39FDEC38FC9000B7802BBA
:1010B1009000BBE0FCA3E0FDA3E0FEA3E0FF9000F5
:1010C100ABE0F8A3E0F9A3E0FAA3E0FBEF2BFFEE1E
:1010D1003AFEED39FDEC38FC9000BB1208A19000FE
:1010E1009FE0702E9000B7E0FCA3E0FDA3E0FEA31B
:1010F100E0FF9000ABE0F8A3E0F9A3E0FAA3E0FB86
:10110100EF2BFFEE3AFEED39FDEC38FC9000B71203
:1011110008A19000A0E0702B9000B7E0FCA3E0FDD7
:10112100A3E0FEA3E0FF9000B3E0F8A3E0F9A3E0A1
:10113100FAA3E0FBEF2BFFEE3AFEED39FDEC38FCB4
:10114100A3802B9000BBE0FCA3E0FDA3E0FEA3E0A5
:10115100FF9000B3E0F8A3E0F9A3E0FAA3E0FBEF0E
:101161002BFFEE3AFEED39FDEC38FC9000BB120886
:10117100A19000B7E0F8A3E0F9A3E0FAA3E0FB90A7
:1011810000A4E0FEA3E0FFE4FCFDEB2FFFEA3EFE3E
:10119100ED39FDEC38FC9000B71208A19000BBE0DE
:1011A100FCA3E0FDA3E0FEA3E0FF9000B7E0F8A3FD
:1011B100E0F9A3E0FAA3E0FBD312089040629000AB
:1011C100BBE0F8A3E0F9A3E0FAA3E0FB9000B7E0ED
:1011D100FCA3E0FDA3E0FEA3E09BFFEE9AFEED99E8
:1011E100FDEC98FC9000AB1208A1E47F64FEFDFCCD
:1011F1009000ABE0F8A3E0F9A3E0FAA3E0FBC3128F
:10120100089050129000ABA3A3E0FFA3E09000A4CC
:10121100CFF0A3EFF0229000A4E4F0A37464F022D5
:07122100E49000A4F0A3F02B
:0112280022A3
:100026000203B0E86480F8E933E83360110460F055
:10003600ED33EC337009E8FCE9FDEAFEEBFF220440
:1000460060DED3EB9FEA9EE99DE8C2E78CF0C2F73B
:1000560095F0400CE8CCF8E9CDF9EACEFAEBCFFB07
:1000660012037B85D0F05804700320D5B3E80470E2
:10007600075002B2D50203BA92D5EC0460F7E4CC7D
:10008600C0E0C398F8603B94186008400DD0E0FBD0
:10009600020392E4FBFAC9FC8028E830E406E4C9CE
:1000A600FBE4CAFCE830E305E4C9CACBFCE8540724
:1000B6006010F8C3E913F9EA13FAEB13FBEC13FC2F
:1000C600D8F130F52FC3E49CFCEF9BFFEE9AFEEDD2
:1000D60099FDD0E0FBEF4E4D4C701222DB0302037C
:1000E600B7EC2CFCEF33FFEE33FEED33FDED30E7DE
:1000F600EB020392EF2BFFEE3AFEED39FDD0E0FB6B
:1001060050130BBB00030203BAED13FDEE13FEEF13
:0801160013FFEC13FC0203923D
:10011E00EC4D6011E8497017ED33EC3304600DE4DB
:10012E00FCFFFEFD22E933E8330470F80203B0123F
:10013E00037B58046009E4CC248150062850090240
:10014E0003BA2840030203B7C0E0EB4A7044B980FB
:10015E0006D0E0FB0203A6EF4E701CBD8008EBFF3D
:10016E00EAFEE9FD80EBE98DF0A4FEE5F002020760
:10017E00E9CDF9EAFEEBFFEF89F0A4FCE5F0CE89BC
:10018E00F0A42EFFE435F0CD89F0A42DFEE435F079
:10019E008067EF4E7005BD80D780C3EF8BF0A4ACA7
:1001AE00F0EE8BF0A42CFCE435F0F8EF8AF0A42CE2
:1001BE00E5F038FCE433CB8DF0A42CFCE5F03BF8F5
:1001CE00EE8AF0A42CFCE5F038F8E433CF89F0A4E5
:1001DE002CFCE5F038CF3400CE89F0A42FFFE5F0EB
:1001EE003EFEE433C98DF0A42EFEE5F039CD8AF043
:1001FE00A42FFFE5F03EFEE43DFD33D0E0FB5007BB
:10020E000BBB000F0203BAEC2CFCEF33FFEE33FEF8
:06021E00ED33FD02039226
:100224000203BAEC5D046005E8590470030203B0EC
:1002340012037B580460F6EC4860F2EC7004FDFE97
:10024400FF22C860DB2481C85009C39860025006AD
:100254000203B79850CAF582E9294B4A7005AB826C
:100264000203A675F0007C1A7880C3EF9BEE9AED2A
:1002740099400DC3EF9BFFEE9AFEED99FDE842F025
:10028400DC23ACF0D0E0FFD0E0FED0E0FDAB822078
:10029400E7101BEB60BAEC2CFCEF33FFEE33FEED02
:1002A40033FD020392E803F830E705C0F075F0006F
:1002B400EF2FFFEE33FEED33FD40B830E7C280AAE6
:1002C40074F8CC6480CCC86480C8F58204604FC3E1
:1002D400EB9FF5F0EA9E42F0E99D42F0E89C45F080
:1002E400603C501DE5825FFFE582D313CB5BCBF40A
:1002F4002B5582FB50280ABA002409B90020088033
:100304001DE5825BFBE582D313CF5FCFF4C3132FCC
:100314005582FF50090EBE00050DBD00010CC3EB54
:100324009FF5F0EA9E42F0E99D42F0E89C45F060BA
:0903340007CC4820E701B3EC22DC
:10033D0075F020800E75F010800575F0087D007E3B
:10034D00007F003392D530D503120882EC33401074
:10035D00EF33FFEE33FEED33FDEC33FCD5F0ED2244
:0E036D00E5F0247EA2D513CC92E7CDCEFF2280
:10097E00E50D2444F582E43400F583E0050D229064
:10098E000041301003900044E475F0011208DE02BD
:10099E00066D2009E97F2ED2098018EF540F24909E
:1009AE00D43440D4FF300D0BEF24BFB41A005003E3
:1009BE002461FFE50E6002150E0511E511700205AA
:1009CE001030100E900041E475F0011208DEEF02B7
:1009DE0006B3022A977403D2108003E4C210F50DF9
:1009EE009000411208F5E4F50EF510F511E50E60D4
:1009FE00077F201209C180F5750FFFC20AC209C216
:100A0E000BC20CC20EC20FC21112098DFF700D3037
:100A1E0010057F001209D2AF11AE1022B4255FC2AD
:100A2E00D5C20D12098DFF24D0B40A00501A75F0EC
:100A3E000A780E30D50508B6FF0106C6A426F620A4
:100A4E00D5047002D20C80D924CFB41A00EF500412
:100A5E00C2E5D20D020CC4D20A80C6D20980C0D221
:100A6E000B80BCD2D580BAD20E80B47F201209C1C1
:100A7E00200B077401B50E0040F112097EFF12091A
:100A8E00C10209FBD211D20F809512097EFB120909
:100A9E007EFA12097EF94A4B700679C27A0D7BFFF7
:100AAE00200B2EE50E602A7E008E827583001206C4
:100ABE008660060EEE650F70F0C2D5EBC0E0EAC0A0
:100ACE00E0E9C0E0EE120D25D0E0F9D0E0FAD0E07A
:100ADE00FB12066DFF60AAEBC0E0EAC0E0E9C0E0E1
:100AEE001209C1D0E02401F9D0E03400FAD0E0FBC5
:100AFE00E50F0460DCD50FD98087D20B80A2120DD2
:100B0E000760F7E50F7001041203C5A90F600DE52C
:100B1E000F600914F50F120DAFEF60F3EA30E70224
:100B2E00F404C3995079EAF4250F0430E701E40484
:100B3E00F50F800D120D0760C1EA050F250F120388
:100B4E00C5EA900070F030E701E4250F04D50F04DC
:100B5E00200E0114120D25E4C0E0120DAF900070AE
:100B6E00E0601320E70714F01209A9802204F0D0E8
:100B7E00E014C0E07F001209A9E50F60071209A07A
:100B8E00150F800B300E031209A0D0E00209FBD026
:100B9E00E00480C4120D07609EE50F041203C59099
:100BAE000070EAF0E50F200E026001042404120D1D
:010BBE002511
:100BBF0074FF04C0E0120DAF1209A9E50F200E0259
:100BCF0060031209A0D0E0B50FE87F451209B3907A
:100BDF000070E07F2B30E7047F2DF404C0E0120992
:100BEF00C1D0E075F00A84C0F01209AAD0E0120952
:100BFF00AA0209FB791080027908C20FC21180087E
:100C0F00D2D5790A8004790AC2D5E50F047002F5AE
:100C1F000FE4FAFDFEFF12097EFC7B08200A131277
:100C2F00097EFD7B1030090A12097EFE12097EFF34
:100C3F007B20EC3382D592D55013C3E43009069F45
:100C4F00FFE49EFEE4200A039DFDE49CFCE4CBF848
:100C5F00C20AEC700CCFCECDCCE824F8F870F3803C
:100C6F0017C3EF33FFEE33FEED33FDEC33FCEB3305
:100C7F00FB994002FB0FD8E9EB300A05F8D0E0C42E
:100C8F0048B20AC0E00AEC4D4E4F78207B0070C28C
:100C9F00EAB50F0040BCC0E0120D27D0F0D0E02025
:100CAF000A04C4C0E0C4B20AC0F01209AAD0F0D539
:100CBF00F0EB0209FB1208FE0A98530C03580A695D
:100CCF004C0A65420C074F0C0F440C0F490A7E4328
:100CDF000C15550B42460BA2450B0C470DE2500A63
:100CEF006D2D0A712E0A942B0A75230A92200DCBB3
:100CFF002A0A2D4800000A8CE50FB4FF03750F0672
:100D0F0012097EFC12097EFD12097EFE12097EFF7A
:100D1F00900069020402790AA2D5200C14300E0942
:100D2F00B910020404B9080104A2D5200F02500122
:100D3F0004200B68920BB50E005034C0E07F2030BA
:100D4F000C197F30A20B720F720E500F120D7EC254
:100D5F000BC20FC20EC2117F30800F300E03E9C0DD
:100D6F00E01209C1300E03D0E0F9D0E0B50ECC305F
:100D7F000E177F30B9100C1209C17F58300D077F45
:100D8F00788003B908031209C1300B057F2D0209C2
:100D9F00C17F202011F87F2B200FF322920B80CFE1
:100DAF007F00B40700500B2469F582E43400F5830B
:100DBF00E0FF22286E756C6C2900D20A12097E3072
:100DCF000AF8C20A780E30D50108F6020A2D2D5006
:100DDF0043495812097E2403B405004001E4900DE5
:100DEF00DD931209B2743A1209B2D20C750E0402D5
:020DFF000C03E3
:10037B00E9D2E7C933E833F892D5EDD2E7CD33ECC8
:07038B0033FC5002B2D52241
:10039200EC30E7100FBF000C0EBE00080DBD0004CC
:1003A2000BEB6014A2D5EB13FCED92E7FD2274FF78
:1003B200FCFDFEFF22E480F8A2D574FF13FC7D80D1
:0303C200E480EFE5
:1003C500F920E73624F950037907E4F42402FBE524
:1003D50082158270021583DBF6E024FB501BE96071
:1003E50014E4F0E582158270021583E004F0B40A86
:0D03F50008E4F0D9EE7401F00A22C2D5220E
:10040200ED33EC3392D5FA602AB4FF33EDC2E77BC9
:10041200FF60067A047927E4227A04793020D50431
:100422007A04792B224E614E002B494E46002D490B
:100432004E4600E47A08F0A3DAFC7B00740722C07F
:1004420083C082ECC0E0EDC0E0EEC0E0EFC0E0EAC5
:1004520075F010A4CAABF075F04DA42BFBE435F097
:10046200FCEA2410FAEB34C5FBEC34D9FCEDC2E70C
:10047200FF75F056A4F42411C5F0F434C58FF0A42E
:100482002AE5F03BE43CF020E714120537D0E0FF08
:10049200D0E0FED0E0FDD0E0FC1202278014F4048C
:1004A200120537D0E0FFD0E0FED0E0FDD0E0FC1234
:1004B200011ED082D083E0FAEDD2E7CD33EC3324B3
:1004C20082FBE4C3CF33CFCE33CECD33CD33DBF398
:1004D2007B0775F00A846004F0A31B0AE5F0F0A321
:1004E2008FF0740AA4FFACF08EF0740AA42CFEAC58
:1004F200F050010C8DF0740AA42CFDE435F0F0A349
:05050200DBDE7407229E
:100507003F8000004120000042C80000447A0000FC
:10051700461C400047C35000497424004B1896807E
:100527004CBEBC205A0E1BCA6753C21C749DC5AE75
:10053700FB60065407601C2323120565EB543860E3
:100547000912055112056012011EECF8EDF9EEFAD9
:10055700EFCB22EB12056080F1543803241C900581
:1005670007FE93FC0EEE93FD0EEE930ECE93FF2245
:10228500022147E493A3F8E493A34003F68001F207
:1022950008DFF48029E493A3F85407240CC8C3335A
:1022A500C4540F4420C8834004F456800146F6DF29
:1022B500E4800B0102040810204080901E6FE47E2C
:1022C500019360BCA3FF543F30E509541FFEE4931E
:1022D500A360010ECF54C025E060A840B8E493A3E5
:1022E500FAE493A3F8E493A3C8C582C8CAC583CA10
:1022F500F0A3C8C582C8CAC583CADFE9DEE780BEC8
:011F250000BB
:10057700E709F608DFFA8046E709F208DFFA803E66
:1005870088828C83E709F0A3DFFA8032E309F60853
:10059700DFFA8078E309F208DFFA807088828C83BB
:1005A700E309F0A3DFFA806489828A83E0A3F6086F
:1005B700DFFA805889828A83E0A3F208DFFA804C49
:1005C70080D280FA80C680D4806980F28033801020
:1005D70080A680EA809A80A880DA80E280CA803389
:1005E70089828A83ECFAE493A3C8C582C8CCC58301
:1005F700CCF0A3C8C582C8CCC583CCDFE9DEE780D1
:100607000D89828A83E493A3F608DFF9ECFAA9F04F
:10061700EDFB2289828A83ECFAE0A3C8C582C8CCA5
:10062700C583CCF0A3C8C582C8CCC583CCDFEADEBE
:10063700E880DB89828A83E493A3F208DFF980CC20
:1006470088F0EF60010E4E60C388F0ED2402B40419
:100657000050B9F582EB2402B4040050AF232345C0
:0606670082239005C77319
:10066D00BB010689828A83E0225002E722BBFE028B
:09067D00E32289828A83E49322BE
:10068600BB010CE58229F582E5833AF583E0225029
:1006960006E92582F8E622BBFE06E92582F8E22273
:0D06A600E58229F582E5833AF583E493228D
:1006B300BB010689828A83F0225002F722BBFE0126
:0206C300F32220
:1006C500BC000BBE0029EF8DF084FFADF022E4CC19
:1006D500F875F008EF2FFFEE33FEEC33FCEE9DECE2
:1006E500984005FCEE9DFE0FD5F0E9E4CEFD22ED28
:1006F500F8F5F0EE8420D21CFEADF075F008EF2F72
:10070500FFED33FD4007985006D5F0F222C398FD62
:050715000FD5F0EA22FF
:10071A00C5F0F8A3E028F0C5F0F8E582158270026A
:06072A001583E038F02207
:10073000A3F8E0C5F025F0F0E5821582700215837C
:06074000E0C838F0E822D9
:10074600BB010A89828A83F0E5F0A3F0225006F7FE
:0F07560009A7F01922BBFE06F3E5F009F31922FB
:10076500E88FF0A4CC8BF0A42CFCE98EF0A42CFC33
:100775008AF0EDA42CFCEA8EF0A4CDA8F08BF0A4B1
:100785002DCC3825F0FDE98FF0A42CCD35F0FCEB10
:100795008EF0A4FEA9F0EB8FF0A4CFC5F02ECD39D5
:0F07A500FEE43CFCEAA42DCE35F0FDE43CFC2242
:1007B40075F008758200EF2FFFEE33FECD33CDCCFC
:1007C40033CCC58233C5829BED9AEC99E58298407F
:1007D4000CF582EE9BFEED9AFDEC99FC0FD5F0D65C
:1007E400E4CEFBE4CDFAE4CCF9A88222B800C1B986
:1007F4000059BA002DEC8BF084CFCECDFCE5F0CBC4
:10080400F97818EF2FFFEE33FEED33FDEC33FCEBFC
:1008140033FB10D703994004EB99FB0FD8E5E4F9B7
:10082400FA227818EF2FFFEE33FEED33FDEC33FCA4
:10083400C933C910D7059BE99A4007EC9BFCE99A98
:10084400F90FD8E0E4C9FAE4CCFB2275F010EF2FDD
:10085400FFEE33FEED33FDCC33CCC833C810D707DD
:100864009BEC9AE899400AED9BFDEC9AFCE899F818
:0E0874000FD5F0DAE4CDFBE4CCFAE4C8F922AB
:0E088200C3E49FFFE49EFEE49DFDE49CFC2287
:10089000EB9FF5F0EA9E42F0E99D42F0E89C45F0BE
:0108A0002235
:0C08A100ECF0A3EDF0A3EEF0A3EFF022CA
:1008AD00A8828583F0D083D0821208C41208C412A6
:1008BD0008C41208C4E473E493A3C583C5F0C583CB
:1008CD00C8C582C8F0A3C583C5F0C583C8C582C895
:0108DD0022F8
:1008DE00F8E0FBA3A3E0F925F0F0E58215827002A3
:0708EE001583E0FA38F02247
:0908F500EBF0A3EAF0A3E9F02204
:1008FE00D083D082F8E4937012740193700DA3A389
:10090E0093F8740193F5828883E47374029368609C
:06091E00EFA3A3A380DF9C
:10092400D083D082F8E4937012740193700DA3A362
:1009340093F8740193F5828883E473740293B5F099
:0D094400067403936860E9A3A3A3A380D801
:10095100EC8EF0A4CCC5F0CCCDF8EFA4CEC5F02D33
:10096100FDE43CFCE8A42EC8C5F03DFDE43CFCEFF1
:0D097100A4FFE5F028FEE43DFDE43CFC227F
:00000001FF
