:030000000221EFEB
:0C21EF00787FE4F6D8FD758122022236CC
:101CE200206B65795F7363616E0D0A00204B455965
:101CF2005F325F505245530D0A0052203D20256647
:101D020020200D0A0074656D702076616C3A25649E
:101D1200200D0A0063616C695F74656D70207661E5
:101D22006C3A2564200D0A000D0A3D3D3D3D3D3DC6
:101D32003D3D3D3D3D3D3D3D3D3D3D3D3D3D3D3DD1
:101D42003D3D3D3D3D3D3D3D3D3D3D3D0D0A00732B
:101D52006B753A4B2564200D0A00736F667420760A
:101D6200657273696F6E3A2573200D0A00312E3049
:101D7200302E303000676170202564200D0A007417
:101D8200696D6572202564200D0A003D3D3D3D3D93
:101D92003D3D3D3D3D3D3D3D3D3D3D3D3D3D3D3D71
:101DA2003D3D3D3D3D3D3D3D3D3D3D3D3D0D0A0001
:102098004200E600004100E8004100E5004100E49C
:0120A8000037
:102A1C00758E5390FE917401F090FF027410F022A9
:101B1000E4900000F09000E5E0700A12238F90003E
:101B200000EFF08005E4900000F0900000E0640118
:101B300070489000E3E070427BFF7A1C79E2120962
:101B4000E9122A76EF700D7F01122A7C122920E417
:101B5000FF0229ABE4FF122A7C1223059000E874EF
:101B600001F09000D0E0FF12240D9000D0E0FF12B1
:101B70001A139000D1E0FF02227B122A76EF600355
:101B8000021C03900000E0640270507BFF7A1C7915
:101B9000EE1209E99000D0E0C394095005E004F08A
:101BA00080069000D07401F09000D0E0FFD3940341
:101BB0004016A3E0FE70059000CF8009EED3940399
:101BC00040069000C27402F09000E87401F0122404
:101BD0000D9000D0E0FF121A138025900000E0B4B1
:101BE00003219000D1E0C394055005E004F0800586
:101BF000E49000D1F09000D1E0FF12227B12230587
:031C00001228396E
:011C030022BE
:081E6F00900006EEF0A3EFF075
:101E7700900091E06402706A9000E3E06401706290
:101E8700900006A3E0FFE4900091F09000D404F0E6
:101E9700900072E0FED3940F4048EED39F400CE0D1
:101EA7009F9000D2F0A37401F08016900072E0FEBC
:101EB700C3EF9EFF9000D2F0122A559000D3740210
:101EC700F09000D2E0FFC394024006EFD394144091
:101ED70007E49000D2F0A3F01228397D027F0212A6
:101EE70028E39000D3E0FDB401149000D2E0FF7E18
:101EF70000900006EE8FF012071AAFF0FE22EDB445
:101F070002189000D2E0FFC3900007E09FFF900007
:101F170006E09400FEF0A3EFF022900006E0FEA397
:021F2700E0FFD9
:011F29002295
:10122900900008ECF0A3EDF0900006EEF0FAA3EFC1
:02123900F0FBC8
:10123B00E490000AF0A37432F0A3740AF0A312082E
:10124B00AD00000000C3EB9432EA9400401690000E
:10125B0008E0FEA3E0FF900006E0FCA3E0FDD39FB7
:10126B00EC9E4003021302E4120342E4FBFA797A88
:10127B007844120227C004C005C006C007900008BE
:10128B00E0FCA3E0FDE4120342E4FBFA797A784434
:10129B00120227D003D002D001D000120029C004C3
:1012AB00C005C006C007900006E0FCA3E0FDE412F9
:1012BB000342E4FBFA797A7844120227E4FBFA79C9
:1012CB00FF7843120227A804A905AA06AB07D0078B
:1012DB00D006D005D00412022790000D1208A1E40D
:1012EB00FFFEFDFC90000DE0F8A3E0F9A3E0FAA3EC
:1012FB00E0FB1202C450057E007FFF227BFF7A1CAD
:10130B0079FC90000DE0FCA3E0FDA3E0FEA3E0FF61
:10131B009000441208A11209E990000DE0FCA3E033
:10132B00FDA3E0FEA3E0FFE4FBFAF97841120227EC
:10133B0090000D1208A1E4FFFE7D927C4290000DFF
:10134B00E0F8A3E0F9A3E0FAA3E0FB1202C4500417
:10135B00E4FEFF2290000DE0FCA3E0FDA3E0FEA362
:10136B00E0FF7BF37A1F79B6784212022790000DCB
:10137B001208A17FF37E1F7DB67C4290000DE0F832
:10138B00A3E0F9A3E0FAA3E0FB12011E7BF37A1FA3
:10139B0079B678421202C4504C90000DE0FCA3E0E9
:1013AB00FDA3E0FEA3E0FF7B497A9D7980783F1295
:1013BB00022790000D1208A190000AE004F0E4FF50
:1013CB00FE7D807C3F90000DE0F8A3E0F9A3E0FAEE
:1013DB00A3E0FB1202C4600250BF90000AE0FFA31F
:1013EB00E02FF0804E90000DE0FCA3E0FDA3E0FEAB
:1013FB00A3E0FF7B6D7AC5797E783F1202279000C0
:10140B000D1208A190000AE004F0E4FFFE7D807C41
:10141B003F90000DE0F8A3E0F9A3E0FAA3E0FB1284
:10142B0002C440C190000BE0FF90000AE0FEC3EF46
:0A143B009EA3F090000BE0FF7E007E
:011445002284
:10144600E4900000F0A3F0A3F0A3F0A3F0A3F090C3
:1014560000E7E004F070069000E6E004F0D39000A8
:10146600E7E094109000E6E094275003021592E41A
:10147600F0A3F07B0190000904F0A37400F0A374BC
:1014860004F07A0079021216D2900002E0FEA3E080
:10149600FFA3E0FCA3E0FD121229900000EEF0A3EA
:1014A600EFF07BFF7A1D7907900044EEF0A3EFF092
:1014B6001209E9900000E0FEA3E0FF121E6F900003
:1014C60000EEF0A3EFF07BFF7A1D7916900044EE54
:1014D600F0A3EFF01209E9D3900003E094329000F4
:1014E60002E094005003021571122A76EF704D90B7
:1014F60000E8E0B40129E4F0D3900001E0943290D2
:101506000000E094009000C574024009F09000CC01
:10151600740CF0800AF09000C614F09000CCF090A5
:1015260000D1E0FF12227B9000D0E0FF121A139048
:101536000000E0FEA3E0FF121DB280299000E3E068
:10154600B40118E4FF1229AB1229209000D0E0FF65
:10155600121A139000EA7401F0800AE4FF1229AB14
:101566007F04122975E49000E5F022E49000E3F090
:101576009000EAF0122920E4FF1229AB9000E474EF
:0C158600FFF0FF121A139000E57401F052
:011592002236
:10214A00122A1C1227C1122990D2AF12000E12298C
:10215A00DA1215937FC87E001228811228127F2076
:10216A007E031229C37F02122A481228C3E4FF12EF
:10217A0029AB7BFF7A1D792A1209E97BFF7A1D793F
:10218A00519000447423F0A37445F01209E99000B9
:10219A004474FFF0A3741DF0A3746FF07BFF7A1DE3
:1021AA00795C1209E97BFF7A1D79779000D0E0FF0C
:1021BA00900044E4F0A3EFF01209E97BFF7A1D795D
:1021CA00819000D1E0FF900044E4F0A3EFF01209FF
:1021DA00E97BFF7A1D798D1209E9121B1012144648
:0521EA00122A9280F5AD
:1026BB00900008EEF0A3EFF0A3ECF0A3EDF0D39FA6
:1026CB00EC9E4004E4FF80229000CCE0FFC390001E
:1026DB0009E09FFF900008E09400FEC390000BE020
:0E26EB009F90000AE09E50057F0A1229AB2244
:101DB200900006EEF0A3EFF09000C6E0B4010D90A3
:101DC2000006E0FCA3E0FD7F50021E699000D0E017
:101DD200B40A004003021E6E901DE1F82828730227
:101DE2001DFF021E0B021E17021E23021E2F021EC1
:101DF2003B021E47021E53021E53021E5F90000644
:101E0200E0FCA3E0FD7F1E805E900006E0FCA3E004
:101E1200FD7F2B8052900006E0FCA3E0FD7F2F8027
:101E220046900006E0FCA3E0FD7F31803A90000678
:101E3200E0FCA3E0FD7F36802E900006E0FCA3E0EC
:101E4200FD7F3C8022900006E0FCA3E0FD7F418004
:101E520016900006E0FCA3E0FD7F46800A90000693
:0D1E6200E0FCA3E0FD7F4B7E001226BB22BA
:1028A3009000C1E0B401189000D0E0D39403400F2E
:1028B3007403F0FF121A13122839E49000C1F022B6
:10190D000D0A3D3D3D3D3D3D3D3D3D3D3D3D3D3D5D
:10191D003D3D3D3D3D3D3D3D3D3D3D3D3D3D3D3DEA
:10192D003D3D3D3D3D3D3D3D3D3D0D0A00706F77DB
:10193D006572206F6E20666C617368206761703A06
:10194D002564202074696D65723A2564200D0A00A6
:10195D00706F776572206F6E20666C61736820768C
:10196D00616C75653A256420207369676E3A25644C
:10197D00200D0A003D3D3D3D3D3D3D3D3D3D3D3D47
:10198D003D3D3D3D3D3D3D3D3D3D3D3D3D3D3D3D7A
:10199D003D3D3D3D3D3D3D3D3D3D3D3D0D0A003D0A
:1019AD003D3D3D3D3D3D3D3D3D3D3D3D666972739A
:1019BD007420696E697420646174613D3D3D3D3DE7
:1019CD003D3D3D3D3D3D200D0A00307825303458DC
:1019DD002020307825303458202030782530345868
:1019ED002020307825303458200D0A00666C617344
:1019FD0068206761703A2564202074696D65723ABC
:061A0D002564200D0A0013
:1020A9004500D000000000004400D5202005014172
:0320B90000D9014A
:062A76009000D9E0FF22F0
:062A7C009000D9EFF022EA
:10285F00D310AF01C3C0D075FDF075FC0F8EFA8F8A
:10286F00F975FDD275FC2D75FDE175FC1ED0D0926A
:02287F00AF2286
:1027EA00D310AF01C3C0D08FFB75FDF075FC0FAEDF
:1027FA0004AF058EFA8FF975FDB475FC4B75FDE1D2
:08280A0075FC1ED0D092AF2234
:0C2482007B017A0079D07D057F047E3C50
:10248E00D310AF01C3C0D0900008EEF0A3EFF0A3BD
:0B249E00EDF0A3EBF0A3EAF0A3E9F0DF
:1024A900E4A3F0C2AFF090000AE0FF90000EE0C391
:1024B9009F502C90000BE0FBA3E475F0011207304C
:1024C900A9F0FA12066DFF900008E475F0011207F1
:1024D90030ADF0FC1227EA90000EE004F080C7D27C
:0124E900AF43
:0524EA00D0D092AF22EA
:040003008F828E83D7
:03000700E493FF80
:01000A0022D3
:1025FD00900008EEF0A3EFF0A3EBF0A3EAF0A3E94F
:10260D00F0AF051DEF6028900008E475F00112078A
:10261D003085F082F583E493FF90000AE0FBA3E49C
:10262D0075F001120730A9F0FAEF1206B380D2222D
:10273500E4FDFCED2400FFE4343CFE12000374D5F7
:102745002DF582E43400F583E0B507030C80037FA3
:1027550000220DEDB404DCECC3940440037F012298
:022765007F00F3
:01276700224F
:10159300E4900000F090FE927404F0122735EF708F
:1015A3000790000004F0807C7BFF7A19790D120903
:1015B300E97B017A0079D07D057F047E3C1225FD0D
:1015C3007BFF7A19793A9000D0E0FF900044E4F071
:1015D300A3EFF09000D1E0FF900046E4F0A3EFF01A
:1015E3001209E97BFF7A19795D9000D2E0FF900040
:1015F30044E4F0A3EFF09000D3E0FF900046E4F062
:10160300A3EFF01209E97BFF7A1979811209E990B6
:1016130000D0E0D394095006A3E09405400690005F
:10162300007401F0900000E0640160030216AF7BD8
:10163300FF7A1979AC1209E99000D07401F0A37410
:1016430003F07F007E3C12285F7B017A0079D57D11
:101653000412248E1224827B017A0079D57D047FC3
:10166300007E3C1225FD7BFF7A1979D79000D5E0E7
:10167300FF900044E4F0A3EFF09000D6E0FF900069
:1016830046E4F0A3EFF09000D7E0FF900048E4F0C9
:10169300A3EFF09000D8E0FF90004AE4F0A3EFF04E
:1016A3001209E97BFF7A1979811209E97BFF7A191B
:1016B30079F99000D0E0FF900044E4F0A3EFF090BC
:0F16C30000D1E0FF900046E4F0A3EFF00209E948
:102839007F047E3C12285F7B017A0079D57D047F75
:102849000012248E1224827B017A0079D07D057FC3
:06285900047E3C0225FD97
:0E2A2C00EF1F70011E144E6004000080F322A4
:1029C3007DA07C01ED1D70011C144C70F7EF1F708E
:0629D300011E144E70EA23
:0129D90022DB
:032A9600022A2CE5
:10295A0090FF0974C1F090FF08F090FF07F090FF14
:0B296A0006F0D291D290D287D28622D4
:08263D00900044EFF0A3EDF062
:10264500E4A3F0F0900045E0FFA3E0C39F5027C24C
:1026550087900044E020E704C2868002D286D287B4
:102665007F057E00122A96900044E025E0F0900058
:0626750046E004F080CEF7
:01267B00223C
:08267C00900044EFF0A3EDF023
:10268400E4A3F0F0900045E0FFA3E0C39F5027C20D
:1026940087900044E020E004C2868002D286D2877C
:1026A4007F057E00122A96900044E0C313F0900048
:0626B40046E004F080CEB8
:0126BA0022FD
:10297500900007EFF0C2917D047F8012263D900004
:0B29850007E0FF7D0812263DD29122E2
:10279500900042EFF0A3EDF0C2917D037FA01226D9
:1027A5003D900042E025E025E0FF7D0612263D90A4
:0C27B5000043E0FF7D0412267CD291223C
:092A6D00D291D290D287D28622C8
:0820BC004100E9004100EA00C7
:052A88007F0602297524
:052A8D007F0402297521
:10290200E4900000F0F0900000E0FFC39420500D2E
:0D2912007D0F122795900000E004F080E991
:01291F002295
:10292000E4900041F0F0900041E0FFC39420500D8E
:0D293000E4FD122795900041E004F080E9DD
:01293D002277
:1028120012295A7F521229757F301229757F0A12A6
:1028220029757F081229757F021229757F061229E0
:0728320075122920022902A2
:0E2A3A00E4FD7F1C122795E4FD7F1F02279507
:10227B00900006EFF07F06122975E4FD7F1F1227F1
:10228B0095E4FD7F1C122795900006E014601B144B
:10229B00602314602B14603A1460492405705A7D36
:1022AB000A7F1B1227957D0E80317D0B7F1B12271A
:1022BB00957D0A80267D0E7F1B1227957D0A801B3C
:1022CB007D0A7F1B1227957D0A7F1C1227957D0B9C
:1022DB0080227D0A7F1B1227957D0B7F1C12279571
:1022EB007D0A80107D0A7F1B1227957D0A7F1C12A9
:0A22FB0027957D0E7F1F1227952204
:101A1300900006EFF07F06122975E4FD7F1D122763
:101A230095E4FD7F1E1227959000EAE06401700E95
:101A33009000E9E070057D06021AEA021AFD9000A3
:101A430006E0B401047D068063900006E0B4020B57
:101A53007D0B7F1D1227957D0C8065900006E0B4F9
:101A6300030B7D0F7F1D1227957D04805390000685
:101A7300E0B4040B7D067F1D1227957D06804190FF
:101A83000006E0B4050B7D0D7F1D1227957D0680B2
:101A93002F900006E0B4060B7D0D7F1D1227957D68
:101AA3000E801D900006E0B407067D077F1D805958
:101AB300900006E0B4080D7D0F7F1D1227957D0E63
:101AC3007F1E8045900006E0B4090D7D0F7F1D1237
:101AD30027957D067F1E8031900006E0F4702D90DF
:101AE30000E9E070157D017F1D1227957D0E7F1E95
:101AF3001227959000E97401F022E49000E9F0FDCB
:0D1B03007F1C122795E4FD7F1F12279522FD
:1020C4005E0073000000000000000000000000003B
:1020D40000000000000000000000000000000000FC
:0920E4000041009100410072006E
:1027C10090FF0E74C1F090FF0F7461F090FFA07440
:1027D10016F090FFA104F075CEFF75CDE675CC061D
:0927E100759E02759810D2AC221D
:0C2A5500C2AC8F993099FDC299D2AC221E
:032A9900022A55B9
:0B27680090000DEBF0A3EAF0A3E9F0F5
:10277300E4FEEEC39D501A90000DE0FBA3E0FAA324
:10278300E0F98E82758300120686FF122A990E8065
:01279300E164
:012794002222
:1028E3009000087455F0A3EFF0A3EDF0A3740DF07E
:0F28F300A3740AF07B017A0079087D050227683B
:062A8200AE07122A5522E6
:030023000225B003
:0D25B000C0E0C083C082C0D075D000C0075D
:1025BD00E59830E030AF995398FE900091E01460AB
:1025CD0019047021EFB4551D900073F0900071E067
:1025DD0004F09000917401F0800B900072EFF09078
:0525ED0000917402F0F2
:0B25F200D007D0D0D082D083D0E032E0
:1020ED004100E3004100DA004200DB00004100DD69
:0F20FD00004200DE00004100E0014200E100006F
:10000E0090FF1D7461F090FF15F090FF16F090FFB9
:03001E0002F022CB
:101F2A00E4900002F0A2A533900001F09000DAE0FC
:101F3A0014602614604E147003021FCD240360033C
:101F4A00021FD6900001E06003021FDB9000DBF065
:101F5A00A3F09000DA04F08078900001E0706B90B2
:101F6A0000DCE004F070069000DBE004F0C39000AF
:101F7A00DCE094039000DBE09400403E9000DA74C9
:101F8A0002F08036900001E0B40106A37404F080E8
:101F9A003B9000DCE004F070069000DBE004F0C344
:101FAA009000DCE094789000DBE09400400C900014
:101FBA00027405F09000DA7403F07F0A7E00122999
:101FCA00C3800E900001E0B401078000E49000DABB
:061FDA00F0900002E0FFA0
:011FE00022DE
:101FE100E4900002F0A2A633900001F09000DDE041
:101FF10014602614604E14700302208424036003CD
:1020010002208D900001E060030220929000DEF03A
:10201100A3F09000DD04F08078900001E0706B90F7
:1020210000DFE004F070069000DEE004F0C39000F1
:10203100DFE094039000DEE09400403E9000DD7408
:1020410002F08036900001E0B40106A37404F08030
:102051003B9000DFE004F070069000DEE004F0C386
:102061009000DFE094F09000DEE09400400C9000DE
:10207100027406F09000DD7403F07F0A7E001229DD
:10208100C3800E900001E0B401078000E49000DD00
:06209100F0900002E0FFE8
:012097002226
:10238F00121F2ABF05037F0122121FE1BF06211270
:10239F002A76BF01149000D4E0700E9000E304F091
:1023AF009000D4F0122839803CE49000E3F080359F
:1023BF009000E0E0602330A60320B51D9000E3E01D
:1023CF0070177F32FE1229C3E49000E0F020A603BD
:1023DF007F032220B50F7F022230A60930B5069069
:1023EF0000E07401F030A513D39000E2E094019067
:0D23FF0000E1E094004004E4F0A3F07F0052
:01240C0022AD
:101C04007365742074696D65207365636F6E643ADF
:101C140025640D0A0065786368616E67655F6865B1
:101C240061745F76616C7565200D0A0074696D6579
:101C3400207365636F6E643A2564200D0A00707228
:101C44006F74656374200D0A0074696D65206F6696
:101C540066200D0A0074696D655F746F5F302E3500
:101C640048202074696D655F7365633D2564200DAC
:101C74000A0074696D655F746F5F31482020746970
:101C84006D655F7365633D2564200D0A0074696D9D
:101C9400655F746F5F3248202074696D655F73659A
:101CA400633D2564200D0A0074696D655F746F5F80
:101CB4003448202074696D655F7365633D25642035
:101CC4000D0A0074696D655F746F5F384820207475
:0E1CD400696D655F7365633D2564200D0A0030
:10210C004100CB004200C900004200CD000041005C
:10211C00C1004100C2004100CF004100CC00410091
:10212C00C5004200C300004200C700004200BF00CF
:05213C00004100C60097
:10293E009000C9EEF0A3EFF0E4A3F07BFF7A1C79D0
:0C294E0004900044EEF0A3EFF00209E951
:10240D00EFB40A00506E90241AF82828730224386D
:10241D0002244202244402244602245002245A0279
:10242D00246402246E0224780224789000BFE4F024
:10243D00A3741EF022800280009000BFE4F0A3740C
:10244D003CF0229000BFE4F0A3745AF0229000BF3C
:10245D00E4F0A37478F0229000BFE4F0A37496F03A
:10246D00229000BFE4F0A374B4F0229000BFE4F01A
:05247D00A374F0F02241
:102559009000D0E0B40A00504D902569F8282873FE
:1025690002258702258902259002259202259902D2
:10257900259B0225A20225A90225A90225A98000D9
:102589009000CC7401F02280009000CC7403F022FA
:1025990080009000CC7405F0229000CC7408F022E1
:0725A9009000CC740CF0223D
:1026F9009000C5E0B402349000C3E475F0011207FC
:102709001AFEC39000C0E095F09000BFE09E501BF8
:102719007BFF7A1C79191209E9E49000C5F0900051
:0C272900C3F0A3F09000C6F01225592266
:10230500E49000CBF09000D1E0FF70089000C9F098
:10231500A3F08052EFB4010C9000C97407F0A30438
:10232500F0E48042EFB4020D9000C9740EF0A3747E
:1023350010F0E48031EFB4030D9000C9741CF0A3D4
:102345007420F0E48020EFB4040D9000C97438F0D7
:10235500A37440F0E4800FEFB405179000C97470C2
:10236500F0A37480F0E49000CDF0A3F09000C7F0E6
:10237500A3F07BFF7A1C79309000C9E0FFA3E090C1
:0A2385000044CFF0A3EFF00209E9D5
:1029DA00E490FE80F0F589758CF2758AFBC28DD27F
:0629EA00A9D28CD2AF223D
:03000B000217FEDB
:1017FE00C0E0C0F0C083C082C0D075D000C000C0B1
:10180E0001C002C003C004C005C006C007122A767C
:10181E00EF60030218F29000CBE004F0E0C3946492
:10182E0050030218F21226F99000CFE0B4022D9068
:10183E0000CEE004F070069000CDE004F0D39000EE
:10184E00CEE094209000CDE0941C40109000CFE4A8
:10185E00F09000CDF0A3F09000C104F0D39000CA38
:10186E00E094009000C9E094004048A3E024FFF00B
:10187E009000C9E034FFF09000C2E0640270609006
:10188E0000CEE004F070069000CDE004F0D390009E
:10189E00CEE094209000CDE0941C40439000C174A3
:1018AE0001F0A3E4F09000CDF0A3F07BFF7A1C7959
:1018BE004280299000D1E060267F01122A7C9000A0
:1018CE00C9E4F0A3F09000CDF0A3F09000C2F09028
:1018DE0000CFF01229207BFF7A1C794D1209E99076
:1018EE0000CBE4F0D007D006D005D004D003D00250
:0F18FE00D001D000D0D0D082D083D0F0D0E03253
:1024EF009000C7E475F00112071AFEE5F08EF012A6
:1024FF0009242519070825210E1025291C2025310F
:10250F00384025397080000025587BFF7A1C795997
:10251F00801E7BFF7A1C797680167BFF7A1C79915F
:10252F00800E7BFF7A1C79AC80067BFF7A1C79C703
:10253F009000C9E0FFA3E0900044CFF0A3EFF012AA
:0A254F0009E9E49000C7F0A3F022B0
:042141004100EB006E
:1029AB007E009000EBE0FD7C00120951E47B64FAA1
:0729BB00F9F81207F08FDFAD
:0129C20022F2
:1028810090FF0074C1F0E490FF9CF0AC06AD077EB0
:102891007A7F121206C5EF149000EBF0F5DE75DDBC
:0228A10097227C
:1029900090FF017401F090FF03F075B4807F147E06
:0B29A00000122A2C90FE9B7449F022CC
:1029F000E4FFFE75B50143B440E5B430E5FB53B4E4
:052A0000DFAEB7AFB628
:012A050022AE
:102A0600E4FFFE75B50343B440E5B430E5FB53B4CB
:052A1600DFAEB7AFB612
:012A1B002298
:0B16D200900006EBF0A3EAF0A3E9F0A3
:1016DD0090000C1208AD00000000E4900010F0F036
:1016ED0090000CE0F8A3E0F9A3E0FAA3E0FB1229C7
:1016FD00F0E4FCFDEB2FFFEA3EFEED39FDEC38FC8E
:10170D0090000C1208A1900010E004F0E0C39405C5
:10171D0040CE90000CE0FCA3E0FDA3E0FEA3E0FFB3
:10172D00E47B05FAF9F81207F090000C1208A1E419
:10173D007F887E13FDFC90000CE0F8A3E0F9A3E098
:10174D00FAA3E0FB120765E4FB7A10F9F81207F033
:10175D00900006E0FBA3E0FAA3E0F9EE8FF012078C
:10176D004690000C1208AD00000000E4900010F04F
:10177D0090000CE0F8A3E0F9A3E0FAA3E0FB122A35
:10178D0006E4FCFDEB2FFFEA3EFEED39FDEC38FCE7
:10179D0090000C1208A1900010E004F0E0C3940535
:1017AD0040CE90000CE0FCA3E0FDA3E0FEA3E0FF23
:1017BD00E47B05FAF9F81207F090000C1208A1E489
:1017CD007F887E13FDFC90000CE0F8A3E0F9A3E008
:1017DD00FAA3E0FB120765E4FB7A10F9F81207F0A3
:1017ED00900009E0FBA3E0FAA3E0F9EE8FF0020709
:0117FD0046A5
:0D2A480075BD17EF75F02BA490FEA0F022D5
:042A920043BD10220E
:0C2A610000000000000000000000000069
:042145004100AA00AB
:1028C300E49000A8F0A3F09000A4F0A3F0A3F0A379
:1028D300F09000A304F09000A2F09000A104F02275
:100E010078AB7C007D017BFF7A2A79617E007F0CC3
:100E11001206479000B71208AD000000009000BB19
:100E21001208AD000000009000A8E0FEA3E0FF90D2
:100E310000A6E0FCA3E0FDD39FEC9E50030212212B
:100E4100ED9FFFEC9EFED3EF9464EE94004003020D
:100E51001217E4FCFD9000AB1208A1E490009FF092
:100E6100900096E0FCA3E0FDA3E0FEA3E0FFA31247
:100E710008A1900092E0FCA3E0FDA3E0FEA3E0FF47
:100E8100A31208A19000ABE0FCA3E0FDA3E0FEA348
:100E9100E0FF9000921208A1900096E0FCA3E0FD13
:100EA100A3E0FEA3E0FF900092E0F8A3E0F9A3E045
:100EB100FAA3E0FBD31208904033900096E0F8A328
:100EC100E0F9A3E0FAA3E0FB900092E0FCA3E0FDCF
:100ED100A3E0FEA3E09BFFEE9AFEED99FDEC98FCEA
:100EE1009000AB1208A1E490009EF0803190009236
:100EF100E0F8A3E0F9A3E0FAA3E0FBA3E0FCA3E0A0
:100F0100FDA3E0FEA3E0C39BFFEE9AFEED99FDEC8D
:100F110098FC9000AB1208A190009E7401F0E47F50
:100F210002FEFDFC900096E0F8A3E0F9A3E0FAA32D
:100F3100E0FB1207659000B31208A190009AE0FC53
:100F4100A3E0FDA3E0FEA3E0FF900092E0F8A3E0A0
:100F5100F9A3E0FAA3E02FFFEA3EFEE93DFDE83CFC
:100F6100FC9000B3E0F8A3E0F9A3E0FAA3E0FBC32F
:100F7100120890504B90009AE0FCA3E0FDA3E0FE24
:100F8100A3E0FF900092E0F8A3E0F9A3E0FAA3E068
:100F91002FFFEA3EFEE93DFDE83CFC9000B3E0F89E
:100FA100A3E0F9A3E0FAC3EF9BFFEE9AFEED99FDF2
:100FB100EC98FC9000B31208A1E49000A0F0805DD1
:100FC1009000B3E0FCA3E0FDA3E0FEA3E0FFC004BA
:100FD100C005C006C00790009AE0FCA3E0FDA3E0B5
:100FE100FEA3E0FF900092E0F8A3E0F9A3E0FAA3EA
:100FF100E02FFBEA3EFAE93DF9E83CF8D007D006DC
:10100100D005D004C3EF9BFFEE9AFEED99FDEC985D
:10101100FC9000B31208A19000A07401F09000A10F
:10102100E0FFE4FCFDFE9000ABE0F8A3E0F9A3E0F3
:10103100FAA3E0FB1207659000AB1208A19000A291
:10104100E0FFE4FCFDFE900092E0F8A3E0F9A3E0EC
:10105100FAA3E0FB1207659000AF1208A19000A36C
:10106100E0FFE4FCFDFE9000B3E0F8A3E0F9A3E0AB
:10107100FAA3E0FB1207659000B31208A190009E4D
:10108100E0702D9000B7E0FCA3E0FDA3E0FEA3E03B
:10109100FF9000ABE0F8A3E0F9A3E0FAA3E0FBEFD7
:1010A1002BFFEE3AFEED39FDEC38FC9000B7802BBA
:1010B1009000BBE0FCA3E0FDA3E0FEA3E0FF9000F5
:1010C100ABE0F8A3E0F9A3E0FAA3E0FBEF2BFFEE1E
:1010D1003AFEED39FDEC38FC9000BB1208A19000FE
:1010E1009FE0702E9000B7E0FCA3E0FDA3E0FEA31B
:1010F100E0FF9000ABE0F8A3E0F9A3E0FAA3E0FB86
:10110100EF2BFFEE3AFEED39FDEC38FC9000B71203
:1011110008A19000A0E0702B9000B7E0FCA3E0FDD7
:10112100A3E0FEA3E0FF9000B3E0F8A3E0F9A3E0A1
:10113100FAA3E0FBEF2BFFEE3AFEED39FDEC38FCB4
:10114100A3802B9000BBE0FCA3E0FDA3E0FEA3E0A5
:10115100FF9000B3E0F8A3E0F9A3E0FAA3E0FBEF0E
:101161002BFFEE3AFEED39FDEC38FC9000BB120886
:10117100A19000B7E0F8A3E0F9A3E0FAA3E0FB90A7
:1011810000A4E0FEA3E0FFE4FCFDEB2FFFEA3EFE3E
:10119100ED39FDEC38FC9000B71208A19000BBE0DE
:1011A100FCA3E0FDA3E0FEA3E0FF9000B7E0F8A3FD
:1011B100E0F9A3E0FAA3E0FBD312089040629000AB
:1011C100BBE0F8A3E0F9A3E0FAA3E0FB9000B7E0ED
:1011D100FCA3E0FDA3E0FEA3E09BFFEE9AFEED99E8
:1011E100FDEC98FC9000AB1208A1E47F64FEFDFCCD
:1011F1009000ABE0F8A3E0F9A3E0FAA3E0FBC3128F
:10120100089050129000ABA3A3E0FFA3E09000A4CC
:10121100CFF0A3EFF0229000A4E4F0A37464F022D5
:07122100E49000A4F0A3F02B
:0112280022A3
:100026000203B0E86480F8E933E83360110460F055
:10003600ED33EC337009E8FCE9FDEAFEEBFF220440
:1000460060DED3EB9FEA9EE99DE8C2E78CF0C2F73B
:1000560095F0400CE8CCF8E9CDF9EACEFAEBCFFB07
:1000660012037B85D0F05804700320D5B3E80470E2
:10007600075002B2D50203BA92D5EC0460F7E4CC7D
:10008600C0E0C398F8603B94186008400DD0E0FBD0
:10009600020392E4FBFAC9FC8028E830E406E4C9CE
:1000A600FBE4CAFCE830E305E4C9CACBFCE8540724
:1000B6006010F8C3E913F9EA13FAEB13FBEC13FC2F
:1000C600D8F130F52FC3E49CFCEF9BFFEE9AFEEDD2
:1000D60099FDD0E0FBEF4E4D4C701222DB0302037C
:1000E600B7EC2CFCEF33FFEE33FEED33FDED30E7DE
:1000F600EB020392EF2BFFEE3AFEED39FDD0E0FB6B
:1001060050130BBB00030203BAED13FDEE13FEEF13
:0801160013FFEC13FC0203923D
:10011E00EC4D6011E8497017ED33EC3304600DE4DB
:10012E00FCFFFEFD22E933E8330470F80203B0123F
:10013E00037B58046009E4CC248150062850090240
:10014E0003BA2840030203B7C0E0EB4A7044B980FB
:10015E0006D0E0FB0203A6EF4E701CBD8008EBFF3D
:10016E00EAFEE9FD80EBE98DF0A4FEE5F002020760
:10017E00E9CDF9EAFEEBFFEF89F0A4FCE5F0CE89BC
:10018E00F0A42EFFE435F0CD89F0A42DFEE435F079
:10019E008067EF4E7005BD80D780C3EF8BF0A4ACA7
:1001AE00F0EE8BF0A42CFCE435F0F8EF8AF0A42CE2
:1001BE00E5F038FCE433CB8DF0A42CFCE5F03BF8F5
:1001CE00EE8AF0A42CFCE5F038F8E433CF89F0A4E5
:1001DE002CFCE5F038CF3400CE89F0A42FFFE5F0EB
:1001EE003EFEE433C98DF0A42EFEE5F039CD8AF043
:1001FE00A42FFFE5F03EFEE43DFD33D0E0FB5007BB
:10020E000BBB000F0203BAEC2CFCEF33FFEE33FEF8
:06021E00ED33FD02039226
:100224000203BAEC5D046005E8590470030203B0EC
:1002340012037B580460F6EC4860F2EC7004FDFE97
:10024400FF22C860DB2481C85009C39860025006AD
:100254000203B79850CAF582E9294B4A7005AB826C
:100264000203A675F0007C1A7880C3EF9BEE9AED2A
:1002740099400DC3EF9BFFEE9AFEED99FDE842F025
:10028400DC23ACF0D0E0FFD0E0FED0E0FDAB822078
:10029400E7101BEB60BAEC2CFCEF33FFEE33FEED02
:1002A40033FD020392E803F830E705C0F075F0006F
:1002B400EF2FFFEE33FEED33FD40B830E7C280AAE6
:1002C40074F8CC6480CCC86480C8F58204604FC3E1
:1002D400EB9FF5F0EA9E42F0E99D42F0E89C45F080
:1002E400603C501DE5825FFFE582D313CB5BCBF40A
:1002F4002B5582FB50280ABA002409B90020088033
:100304001DE5825BFBE582D313CF5FCFF4C3132FCC
:100314005582FF50090EBE00050DBD00010CC3EB54
:100324009FF5F0EA9E42F0E99D42F0E89C45F060BA
:0903340007CC4820E701B3EC22DC
:10033D0075F020800E75F010800575F0087D007E3B
:10034D00007F003392D530D503120882EC33401074
:10035D00EF33FFEE33FEED33FDEC33FCD5F0ED2244
:0E036D00E5F0247EA2D513CC92E7CDCEFF2280
:10097E00E50D2444F582E43400F583E0050D229064
:10098E000041301003900044E475F0011208DE02BD
:10099E00066D2009E97F2ED2098018EF540F24909E
:1009AE00D43440D4FF300D0BEF24BFB41A005003E3
:1009BE002461FFE50E6002150E0511E511700205AA
:1009CE001030100E900041E475F0011208DEEF02B7
:1009DE0006B3022A827403D2108003E4C210F50D0E
:1009EE009000411208F5E4F50EF510F511E50E60D4
:1009FE00077F201209C180F5750FFFC20AC209C216
:100A0E000BC20CC20EC20FC21112098DFF700D3037
:100A1E0010057F001209D2AF11AE1022B4255FC2AD
:100A2E00D5C20D12098DFF24D0B40A00501A75F0EC
:100A3E000A780E30D50508B6FF0106C6A426F620A4
:100A4E00D5047002D20C80D924CFB41A00EF500412
:100A5E00C2E5D20D020CC4D20A80C6D20980C0D221
:100A6E000B80BCD2D580BAD20E80B47F201209C1C1
:100A7E00200B077401B50E0040F112097EFF12091A
:100A8E00C10209FBD211D20F809512097EFB120909
:100A9E007EFA12097EF94A4B700679C27A0D7BFFF7
:100AAE00200B2EE50E602A7E008E827583001206C4
:100ABE008660060EEE650F70F0C2D5EBC0E0EAC0A0
:100ACE00E0E9C0E0EE120D25D0E0F9D0E0FAD0E07A
:100ADE00FB12066DFF60AAEBC0E0EAC0E0E9C0E0E1
:100AEE001209C1D0E02401F9D0E03400FAD0E0FBC5
:100AFE00E50F0460DCD50FD98087D20B80A2120DD2
:100B0E000760F7E50F7001041203C5A90F600DE52C
:100B1E000F600914F50F120DAFEF60F3EA30E70224
:100B2E00F404C3995079EAF4250F0430E701E40484
:100B3E00F50F800D120D0760C1EA050F250F120388
:100B4E00C5EA900070F030E701E4250F04D50F04DC
:100B5E00200E0114120D25E4C0E0120DAF900070AE
:100B6E00E0601320E70714F01209A9802204F0D0E8
:100B7E00E014C0E07F001209A9E50F60071209A07A
:100B8E00150F800B300E031209A0D0E00209FBD026
:100B9E00E00480C4120D07609EE50F041203C59099
:100BAE000070EAF0E50F200E026001042404120D1D
:010BBE002511
:100BBF0074FF04C0E0120DAF1209A9E50F200E0259
:100BCF0060031209A0D0E0B50FE87F451209B3907A
:100BDF000070E07F2B30E7047F2DF404C0E0120992
:100BEF00C1D0E075F00A84C0F01209AAD0E0120952
:100BFF00AA0209FB791080027908C20FC21180087E
:100C0F00D2D5790A8004790AC2D5E50F047002F5AE
:100C1F000FE4FAFDFEFF12097EFC7B08200A131277
:100C2F00097EFD7B1030090A12097EFE12097EFF34
:100C3F007B20EC3382D592D55013C3E43009069F45
:100C4F00FFE49EFEE4200A039DFDE49CFCE4CBF848
:100C5F00C20AEC700CCFCECDCCE824F8F870F3803C
:100C6F0017C3EF33FFEE33FEED33FDEC33FCEB3305
:100C7F00FB994002FB0FD8E9EB300A05F8D0E0C42E
:100C8F0048B20AC0E00AEC4D4E4F78207B0070C28C
:100C9F00EAB50F0040BCC0E0120D27D0F0D0E02025
:100CAF000A04C4C0E0C4B20AC0F01209AAD0F0D539
:100CBF00F0EB0209FB1208FE0A98530C03580A695D
:100CCF004C0A65420C074F0C0F440C0F490A7E4328
:100CDF000C15550B42460BA2450B0C470DE2500A63
:100CEF006D2D0A712E0A942B0A75230A92200DCBB3
:100CFF002A0A2D4800000A8CE50FB4FF03750F0672
:100D0F0012097EFC12097EFD12097EFE12097EFF7A
:100D1F00900069020402790AA2D5200C14300E0942
:100D2F00B910020404B9080104A2D5200F02500122
:100D3F0004200B68920BB50E005034C0E07F2030BA
:100D4F000C197F30A20B720F720E500F120D7EC254
:100D5F000BC20FC20EC2117F30800F300E03E9C0DD
:100D6F00E01209C1300E03D0E0F9D0E0B50ECC305F
:100D7F000E177F30B9100C1209C17F58300D077F45
:100D8F00788003B908031209C1300B057F2D0209C2
:100D9F00C17F202011F87F2B200FF322920B80CFE1
:100DAF007F00B40700500B2469F582E43400F5830B
:100DBF00E0FF22286E756C6C2900D20A12097E3072
:100DCF000AF8C20A780E30D50108F6020A2D2D5006
:100DDF0043495812097E2403B405004001E4900DE5
:100DEF00DD931209B2743A1209B2D20C750E0402D5
:020DFF000C03E3
:10037B00E9D2E7C933E833F892D5EDD2E7CD33ECC8
:07038B0033FC5002B2D52241
:10039200EC30E7100FBF000C0EBE00080DBD0004CC
:1003A2000BEB6014A2D5EB13FCED92E7FD2274FF78
:1003B200FCFDFEFF22E480F8A2D574FF13FC7D80D1
:0303C200E480EFE5
:1003C500F920E73624F950037907E4F42402FBE524
:1003D50082158270021583DBF6E024FB501BE96071
:1003E50014E4F0E582158270021583E004F0B40A86
:0D03F50008E4F0D9EE7401F00A22C2D5220E
:10040200ED33EC3392D5FA602AB4FF33EDC2E77BC9
:10041200FF60067A047927E4227A04793020D50431
:100422007A04792B224E614E002B494E46002D490B
:100432004E4600E47A08F0A3DAFC7B00740722C07F
:1004420083C082ECC0E0EDC0E0EEC0E0EFC0E0EAC5
:1004520075F010A4CAABF075F04DA42BFBE435F097
:10046200FCEA2410FAEB34C5FBEC34D9FCEDC2E70C
:10047200FF75F056A4F42411C5F0F434C58FF0A42E
:100482002AE5F03BE43CF020E714120537D0E0FF08
:10049200D0E0FED0E0FDD0E0FC1202278014F4048C
:1004A200120537D0E0FFD0E0FED0E0FDD0E0FC1234
:1004B200011ED082D083E0FAEDD2E7CD33EC3324B3
:1004C20082FBE4C3CF33CFCE33CECD33CD33DBF398
:1004D2007B0775F00A846004F0A31B0AE5F0F0A321
:1004E2008FF0740AA4FFACF08EF0740AA42CFEAC58
:1004F200F050010C8DF0740AA42CFDE435F0F0A349
:05050200DBDE7407229E
:100507003F8000004120000042C80000447A0000FC
:10051700461C400047C35000497424004B1896807E
:100527004CBEBC205A0E1BCA6753C21C749DC5AE75
:10053700FB60065407601C2323120565EB543860E3
:100547000912055112056012011EECF8EDF9EEFAD9
:10055700EFCB22EB12056080F1543803241C900581
:1005670007FE93FC0EEE93FD0EEE930ECE93FF2245
:1021FB0002214AE493A3F8E493A34003F68001F28F
:10220B0008DFF48029E493A3F85407240CC8C333E4
:10221B00C4540F4420C8834004F456800146F6DFB3
:10222B00E4800B0102040810204080902098E47E8B
:10223B00019360BCA3FF543F30E509541FFEE493A8
:10224B00A360010ECF54C025E060A840B8E493A36F
:10225B00FAE493A3F8E493A3C8C582C8CAC583CA9A
:10226B00F0A3C8C582C8CAC583CADFE9DEE780BE52
:012149000095
:10057700E709F608DFFA8046E709F208DFFA803E66
:1005870088828C83E709F0A3DFFA8032E309F60853
:10059700DFFA8078E309F208DFFA807088828C83BB
:1005A700E309F0A3DFFA806489828A83E0A3F6086F
:1005B700DFFA805889828A83E0A3F208DFFA804C49
:1005C70080D280FA80C680D4806980F28033801020
:1005D70080A680EA809A80A880DA80E280CA803389
:1005E70089828A83ECFAE493A3C8C582C8CCC58301
:1005F700CCF0A3C8C582C8CCC583CCDFE9DEE780D1
:100607000D89828A83E493A3F608DFF9ECFAA9F04F
:10061700EDFB2289828A83ECFAE0A3C8C582C8CCA5
:10062700C583CCF0A3C8C582C8CCC583CCDFEADEBE
:10063700E880DB89828A83E493A3F208DFF980CC20
:1006470088F0EF60010E4E60C388F0ED2402B40419
:100657000050B9F582EB2402B4040050AF232345C0
:0606670082239005C77319
:10066D00BB010689828A83E0225002E722BBFE028B
:09067D00E32289828A83E49322BE
:10068600BB010CE58229F582E5833AF583E0225029
:1006960006E92582F8E622BBFE06E92582F8E22273
:0D06A600E58229F582E5833AF583E493228D
:1006B300BB010689828A83F0225002F722BBFE0126
:0206C300F32220
:1006C500BC000BBE0029EF8DF084FFADF022E4CC19
:1006D500F875F008EF2FFFEE33FEEC33FCEE9DECE2
:1006E500984005FCEE9DFE0FD5F0E9E4CEFD22ED28
:1006F500F8F5F0EE8420D21CFEADF075F008EF2F72
:10070500FFED33FD4007985006D5F0F222C398FD62
:050715000FD5F0EA22FF
:10071A00C5F0F8A3E028F0C5F0F8E582158270026A
:06072A001583E038F02207
:10073000A3F8E0C5F025F0F0E5821582700215837C
:06074000E0C838F0E822D9
:10074600BB010A89828A83F0E5F0A3F0225006F7FE
:0F07560009A7F01922BBFE06F3E5F009F31922FB
:10076500E88FF0A4CC8BF0A42CFCE98EF0A42CFC33
:100775008AF0EDA42CFCEA8EF0A4CDA8F08BF0A4B1
:100785002DCC3825F0FDE98FF0A42CCD35F0FCEB10
:100795008EF0A4FEA9F0EB8FF0A4CFC5F02ECD39D5
:0F07A500FEE43CFCEAA42DCE35F0FDE43CFC2242
:1007B40075F008758200EF2FFFEE33FECD33CDCCFC
:1007C40033CCC58233C5829BED9AEC99E58298407F
:1007D4000CF582EE9BFEED9AFDEC99FC0FD5F0D65C
:1007E400E4CEFBE4CDFAE4CCF9A88222B800C1B986
:1007F4000059BA002DEC8BF084CFCECDFCE5F0CBC4
:10080400F97818EF2FFFEE33FEED33FDEC33FCEBFC
:1008140033FB10D703994004EB99FB0FD8E5E4F9B7
:10082400FA227818EF2FFFEE33FEED33FDEC33FCA4
:10083400C933C910D7059BE99A4007EC9BFCE99A98
:10084400F90FD8E0E4C9FAE4CCFB2275F010EF2FDD
:10085400FFEE33FEED33FDCC33CCC833C810D707DD
:100864009BEC9AE899400AED9BFDEC9AFCE899F818
:0E0874000FD5F0DAE4CDFBE4CCFAE4C8F922AB
:0E088200C3E49FFFE49EFEE49DFDE49CFC2287
:10089000EB9FF5F0EA9E42F0E99D42F0E89C45F0BE
:0108A0002235
:0C08A100ECF0A3EDF0A3EEF0A3EFF022CA
:1008AD00A8828583F0D083D0821208C41208C412A6
:1008BD0008C41208C4E473E493A3C583C5F0C583CB
:1008CD00C8C582C8F0A3C583C5F0C583C8C582C895
:0108DD0022F8
:1008DE00F8E0FBA3A3E0F925F0F0E58215827002A3
:0708EE001583E0FA38F02247
:0908F500EBF0A3EAF0A3E9F02204
:1008FE00D083D082F8E4937012740193700DA3A389
:10090E0093F8740193F5828883E47374029368609C
:06091E00EFA3A3A380DF9C
:10092400D083D082F8E4937012740193700DA3A362
:1009340093F8740193F5828883E473740293B5F099
:0D094400067403936860E9A3A3A3A380D801
:10095100EC8EF0A4CCC5F0CCCDF8EFA4CEC5F02D33
:10096100FDE43CFCE8A42EC8C5F03DFDE43CFCEFF1
:0D097100A4FFE5F028FEE43DFDE43CFC227F
:00000001FF
