:030000000221F1E9
:0C21F100787FE4F6D8FD758122022238C8
:10209900206B65795F7363616E0D0A00204B4559AA
:1020A9005F325F505245530D0A0052203D2025668C
:1020B90020200D0A002564200D0A000D0A3D3D3D32
:1020C9003D3D3D3D3D3D3D3D3D3D3D3D3D3D3D3D37
:1020D9003D3D3D3D3D3D3D3D3D3D3D3D3D3D3D0D57
:1020E9000A00736B753A4B2564200D0A00736F66FD
:1020F900742076657273696F6E3A2573200D0A0034
:10210900312E30302E303000676170202564200D6B
:102119000A0074696D6572202564200D0A003D3D31
:102129003D3D3D3D3D3D3D3D3D3D3D3D3D3D3D3DD6
:102139003D3D3D3D3D3D3D3D3D3D3D3D3D3D3D3DC6
:032149000D0A007C
:101E74004200E800004100EA004100E7004100E6BA
:011E8400005D
:102A1500758E5390FE917401F090FF027410F022B0
:101B1E00E4900000F09000E7E0700A1224129000AA
:101B2E0000EFF08005E4900000F0900000E064010A
:101B3E0070489000E5E070427BFF7A207999120997
:101B4E00E9122A6FEF700D7F01122A75122919E41E
:101B5E00FF0229A4E4FF122A751223079000EA74EB
:101B6E0001F09000D2E0FF1223919000D2E0FF121C
:101B7E001A219000D3E0FF02227D122A6FEF60033C
:101B8E00021C11900000E0640270507BFF7A2079F5
:101B9E00A51209E99000D2E0C394095005E004F0C3
:101BAE0080069000D27401F09000D2E0FFD394032F
:101BBE004016A3E0FE70059000D18009EED3940389
:101BCE0040069000C27402F09000EA7401F01223F5
:101BDE00919000D2E0FF121A218025900000E0B40F
:101BEE0003219000D3E0C394055005E004F0800576
:101BFE00E49000D3F09000D3E0FF12227D12230771
:031C0E0012283267
:011C110022B0
:081DB900900006EEF0A3EFF02C
:101DC100900091E06402706A9000E5E06401706245
:101DD100900006A3E0FFE4900091F09000D604F09B
:101DE100900072E0FED3940F4048EED39F400CE088
:101DF1009F9000D4F0A37401F08016900072E0FE71
:101E0100C3EF9EFF9000D4F0122A4E9000D57402C9
:101E1100F09000D4E0FFC394024006EFD394144045
:101E210007E49000D4F0A3F01228327D027F021261
:101E310028DC9000D5E0FDB401149000D4E0FF7ED1
:101E410000900006EE8FF012071AAFF0FE22EDB4FB
:101E510002189000D4E0FFC3900007E09FFF9000BC
:101E610006E09400FEF0A3EFF022900006E0FEA34E
:021E7100E0FF90
:011E7300224C
:10122900900008ECF0A3EDF0900006EEF0FAA3EFC1
:02123900F0FBC8
:10123B00E490000AF0A37432F0A3740AF0A312082E
:10124B00AD00000000C3EB9432EA9400401690000E
:10125B0008E0FEA3E0FF900006E0FCA3E0FDD39FB7
:10126B00EC9E4003021302E4120342E4FBFA797A88
:10127B007844120227C004C005C006C007900008BE
:10128B00E0FCA3E0FDE4120342E4FBFA797A784434
:10129B00120227D003D002D001D000120029C004C3
:1012AB00C005C006C007900006E0FCA3E0FDE412F9
:1012BB000342E4FBFA797A7844120227E4FBFA79C9
:1012CB00FF7843120227A804A905AA06AB07D0078B
:1012DB00D006D005D00412022790000D1208A1E40D
:1012EB00FFFEFDFC90000DE0F8A3E0F9A3E0FAA3EC
:1012FB00E0FB1202C450057E007FFF227BFF7A20A9
:10130B0079B390000DE0FCA3E0FDA3E0FEA3E0FFAA
:10131B009000441208A11209E990000DE0FCA3E033
:10132B00FDA3E0FEA3E0FFE4FBFAF97841120227EC
:10133B0090000D1208A1E4FFFE7D927C4290000DFF
:10134B00E0F8A3E0F9A3E0FAA3E0FB1202C4500417
:10135B00E4FEFF2290000DE0FCA3E0FDA3E0FEA362
:10136B00E0FF7BF37A1F79B6784212022790000DCB
:10137B001208A17FF37E1F7DB67C4290000DE0F832
:10138B00A3E0F9A3E0FAA3E0FB12011E7BF37A1FA3
:10139B0079B678421202C4504C90000DE0FCA3E0E9
:1013AB00FDA3E0FEA3E0FF7B497A9D7980783F1295
:1013BB00022790000D1208A190000AE004F0E4FF50
:1013CB00FE7D807C3F90000DE0F8A3E0F9A3E0FAEE
:1013DB00A3E0FB1202C4600250BF90000AE0FFA31F
:1013EB00E02FF0804E90000DE0FCA3E0FDA3E0FEAB
:1013FB00A3E0FF7B6D7AC5797E783F1202279000C0
:10140B000D1208A190000AE004F0E4FFFE7D807C41
:10141B003F90000DE0F8A3E0F9A3E0FAA3E0FB1284
:10142B0002C440C190000BE0FF90000AE0FEC3EF46
:0A143B009EA3F090000BE0FF7E007E
:011445002284
:1016BD00E4900000F0A3F0A3F0A3F0A3F0A3F0904A
:1016CD0000E9E004F070069000E8E004F0D390002B
:1016DD00E9E094109000E8E0942750030217EEE43F
:1016ED00F0A3F07B0190000904F0A37400F0A37443
:1016FD0004F07A0079021217EF900002E0FEA3E0E9
:10170D00FFA3E0FCA3E0FD121229900000EEF0A370
:10171D00EFF0121DB9900000EEF0A3EFF07BFF7A11
:10172D002079BE900044EEF0A3EFF01209E9D390BA
:10173D000003E09432900002E0940050030217CDB4
:10174D00122A6FEF70469000EAE0B40122E4F0D364
:10175D00900001E09432900000E094009000C57478
:10176D000240028005F09000C614F09000CCF0907D
:10177D0000D3E0FF12227D9000D2E0FF121A2190DB
:10178D000000E0FEA3E0FF121CF0802E9000E5E0CB
:10179D00B40118E4FF1229A41229199000D2E0FF18
:1017AD00121A219000EC7401F0800FE4FF1229A4AD
:1017BD007F0412296EE49000ECF0E49000E7F02233
:1017CD00E49000E5F09000ECF0122919E4FF1229E5
:1017DD00A49000E674FFF0FF121A219000E7740147
:0117ED00F00B
:0117EE0022D8
:10214C00122A151227BA122989D2AF12000E12299F
:10215C00D31214467FC87E0012287A12280B7F20D7
:10216C007E031229BC7F02122A411228BCE4FF1202
:10217C0029A47BFF7A2079C41209E97BFF7A2079A4
:10218C00EB9000447423F0A37445F01209E990001D
:10219C004474FFF0A37421F0A37409F07BFF7A2040
:1021AC0079F61209E97BFF7A2179119000D2E0FFD0
:1021BC00900044E4F0A3EFF01209E97BFF7A217957
:1021CC001B9000D3E0FF900044E4F0A3EFF0120961
:1021DC00E97BFF7A2179271209E9121B1E1216BD21
:0521EC00122A8B80F5B2
:1026B400900008EEF0A3EFF0A3ECF0A3EDF0D39FAD
:1026C400EC9E4004E4FF80229000CCE0FFC3900025
:1026D40009E09FFF900008E09400FEC390000BE027
:0E26E4009F90000AE09E50057F0A1229A42252
:101CF000900006EEF0A3EFF09000C6E0B4010D9066
:101D00000006E0FCA3E0FD7F50021DB39000D2E08E
:101D1000B40A004003021DB8901D1FF82828730262
:101D20001D3D021D49021D55021D61021D6D021D52
:101D300079021D85021D91021D9D021DA9900006BC
:101D4000E0FCA3E0FD7F1E806A900006E0FCA3E0BB
:101D5000FD7F2D805E900006E0FCA3E0FD7F3180DA
:101D600052900006E0FCA3E0FD7F34804690000620
:101D7000E0FCA3E0FD7F37803A900006E0FCA3E0A2
:101D8000FD7F3C802E900006E0FCA3E0FD7F4180BB
:101D900022900006E0FCA3E0FD7F4680169000063E
:101DA000E0FCA3E0FD7F4A800A900006E0FCA3E08F
:091DB000FD7F4D7E001226B422D5
:10289C009000C1E0B401189000D2E0D39403400F33
:1028AC007403F0FF121A21122832E49000C1F022B6
:10191B000D0A3D3D3D3D3D3D3D3D3D3D3D3D3D3D4F
:10192B003D3D3D3D3D3D3D3D3D3D3D3D3D3D3D3DDC
:10193B003D3D3D3D3D3D3D3D3D3D0D0A00706F77CD
:10194B006572206F6E20666C617368206761703AF8
:10195B002564202074696D65723A2564200D0A0098
:10196B00706F776572206F6E20666C61736820767E
:10197B00616C75653A256420207369676E3A25643E
:10198B00200D0A003D3D3D3D3D3D3D3D3D3D3D3D39
:10199B003D3D3D3D3D3D3D3D3D3D3D3D3D3D3D3D6C
:1019AB003D3D3D3D3D3D3D3D3D3D3D3D0D0A003DFC
:1019BB003D3D3D3D3D3D3D3D3D3D3D3D666972738C
:1019CB007420696E697420646174613D3D3D3D3DD9
:1019DB003D3D3D3D3D3D200D0A00307825303458CE
:1019EB00202030782530345820203078253034585A
:1019FB002020307825303458200D0A00666C617336
:101A0B0068206761703A2564202074696D65723AAD
:061A1B002564200D0A0005
:101E85004500D200000000004400D7202005014194
:031E950000DB016E
:062A6F009000DBE0FF22F5
:062A75009000DBEFF022EF
:10285800D310AF01C3C0D075FDF075FC0F8EFA8F91
:10286800F975FDD275FC2D75FDE175FC1ED0D09271
:02287800AF228D
:1027E300D310AF01C3C0D08FFB75FDF075FC0FAEE6
:1027F30004AF058EFA8FF975FDB475FC4B75FDE1D9
:0828030075FC1ED0D092AF223B
:0C2490007B017A0079D27D057F047E3C40
:10249C00D310AF01C3C0D0900008EEF0A3EFF0A3AF
:0B24AC00EDF0A3EBF0A3EAF0A3E9F0D1
:1024B700E4A3F0C2AFF090000AE0FF90000EE0C383
:1024C7009F502C90000BE0FBA3E475F0011207303E
:1024D700A9F0FA12066DFF900008E475F0011207E3
:1024E70030ADF0FC1227E390000EE004F080C7D275
:0124F700AF35
:0524F800D0D092AF22DC
:040003008F828E83D7
:03000700E493FF80
:01000A0022D3
:1025F600900008EEF0A3EFF0A3EBF0A3EAF0A3E956
:10260600F0AF051DEF6028900008E475F001120791
:102616003085F082F583E493FF90000AE0FBA3E4A3
:1026260075F001120730A9F0FAEF1206B380D22234
:10272E00E4FDFCED2400FFE4343CFE12000374D7FC
:10273E002DF582E43400F583E0B507030C80037FAA
:10274E0000220DEDB404DCECC3940440037F01229F
:02275E007F00FA
:012760002256
:10144600E4900000F090FE927404F012272EEF70E4
:101456000790000004F0807C7BFF7A19791B120943
:10146600E97B017A0079D27D057F047E3C1225F660
:101476007BFF7A1979489000D2E0FF900044E4F0AF
:10148600A3EFF09000D3E0FF900046E4F0A3EFF066
:101496001209E97BFF7A19796B9000D4E0FF90007E
:1014A60044E4F0A3EFF09000D5E0FF900046E4F0AE
:1014B600A3EFF01209E97BFF7A19798F1209E990F7
:1014C60000D2E0D394095006A3E0940540069000AC
:1014D600007401F0900000E0640160030215627B75
:1014E600FF7A1979BA1209E99000D27401F0A3744F
:1014F60003F07F007E3C1228587B017A0079D77D65
:101506000412249C1224907B017A0079D77D047FF3
:10151600007E3C1225F67BFF7A1979E59000D7E02C
:10152600FF900044E4F0A3EFF09000D8E0FF9000B5
:1015360046E4F0A3EFF09000D9E0FF900048E4F015
:10154600A3EFF09000DAE0FF90004AE4F0A3EFF09A
:101556001209E97BFF7A19798F1209E97BFF7A1A5A
:1015660079079000D2E0FF900044E4F0A3EFF090FA
:0F15760000D3E0FF900046E4F0A3EFF00209E994
:102832007F047E3C1228587B017A0079D77D047F81
:102842000012249C1224907B017A0079D27D057FAC
:06285200047E3C0225F6A5
:0E2A2500EF1F70011E144E6004000080F322AB
:1029BC007DA07C01ED1D70011C144C70F7EF1F7095
:0629CC00011E144E70EA2A
:0129D20022E2
:032A8F00022A25F3
:1029530090FF0974C1F090FF08F090FF07F090FF1B
:0B29630006F0D291D290D287D28622DB
:08263600900044EFF0A3EDF069
:10263E00E4A3F0F0900045E0FFA3E0C39F5027C253
:10264E0087900044E020E704C2868002D286D287BB
:10265E007F057E00122A8F900044E025E0F0900066
:06266E0046E004F080CEFE
:012674002243
:08267500900044EFF0A3EDF02A
:10267D00E4A3F0F0900045E0FFA3E0C39F5027C214
:10268D0087900044E020E004C2868002D286D28783
:10269D007F057E00122A8F900044E0C313F0900056
:0626AD0046E004F080CEBF
:0126B3002204
:10296E00900007EFF0C2917D047F80122636900012
:0B297E0007E0FF7D08122636D29122F0
:10278E00900042EFF0A3EDF0C2917D037FA01226E0
:10279E0036900042E025E025E0FF7D0612263690B9
:0C27AE000043E0FF7D04122675D291224A
:092A6600D291D290D287D28622CF
:081E98004100EB004100EC00E9
:052A81007F0602296E32
:052A86007F0402296E2F
:1028FB00E4900000F0F0900000E0FFC39420500D36
:0D290B007D0F12278E900000E004F080E99F
:01291800229C
:10291900E4900041F0F0900041E0FFC39420500D95
:0D292900E4FD12278E900041E004F080E9EB
:01293600227E
:10280B001229537F5212296E7F3012296E7F0A12C2
:10281B00296E7F0812296E7F0212296E7F061229FC
:07282B006E1229190228FBBF
:0E2A3300E4FD7F1C12278EE4FD7F1F02278E1C
:10227D00900006EFF07F0612296EE4FD7F1F1227F6
:10228D008EE4FD7F1C12278E900006E014601B1457
:10229D00602314602B14603A1460492405705A7D34
:1022AD000A7F1B12278E7D0E80317D0B7F1B12271F
:1022BD008E7D0A80267D0E7F1B12278E7D0A801B48
:1022CD007D0A7F1B12278E7D0A7F1C12278E7D0BA8
:1022DD0080227D0A7F1B12278E7D0B7F1C12278E7D
:1022ED007D0A80107D0A7F1B12278E7D0A7F1C12AE
:0A22FD00278E7D0E7F1F12278E2210
:101A2100900006EFF07F0612296EE4FD7F1D12275C
:101A31008EE4FD7F1E12278E9000ECE06401700E93
:101A41009000EBE070057D06021AF8021B0B900076
:101A510006E0B401047D068063900006E0B4020B49
:101A61007D0B7F1D12278E7D0C8065900006E0B4F2
:101A7100030B7D0F7F1D12278E7D0480539000067E
:101A8100E0B4040B7D067F1D12278E7D06804190F8
:101A91000006E0B4050B7D0D7F1D12278E7D0680AB
:101AA1002F900006E0B4060B7D0D7F1D12278E7D61
:101AB1000E801D900006E0B407067D077F1D80594A
:101AC100900006E0B4080D7D0F7F1D12278E7D0E5C
:101AD1007F1E8045900006E0B4090D7D0F7F1D1229
:101AE100278E7D067F1E8031900006E0F4702D90D8
:101AF10000EBE070157D017F1D12278E7D0E7F1E8C
:101B010012278E9000EB7401F022E49000EBF0FDBF
:0D1B11007F1C12278EE4FD7F1F12278E22FD
:101EA0005E00730000000000000000000000000061
:101EB0000000000000000000000000000000000022
:091EC00000410091004100720094
:1027BA0090FF0E74C1F090FF0F7461F090FFA07447
:1027CA0016F090FFA104F075CEFF75CDE675CC0624
:0927DA00759E02759810D2AC2224
:0C2A4E00C2AC8F993099FDC299D2AC2225
:032A9200022A4EC7
:0B27610090000DEBF0A3EAF0A3E9F0FC
:10276C00E4FEEEC39D501A90000DE0FBA3E0FAA32B
:10277C00E0F98E82758300120686FF122A920E8073
:01278C00E16B
:01278D002229
:1028DC009000087455F0A3EFF0A3EDF0A3740DF085
:0F28EC00A3740AF07B017A0079087D0502276149
:062A7B00AE07122A4E22F4
:030023000225674C
:0D256700C0E0C083C082C0D075D000C007A6
:10257400E59830E030AF995398FE900091E01460F4
:1025840019047021EFB4551D900073F0900071E0B0
:1025940004F09000917401F0800B900072EFF090C1
:0525A40000917402F03B
:0B25A900D007D0D0D082D083D0E03229
:101EC9004100E5004100DC004200DD00004100DF87
:0F1ED900004200E000004100E2014200E300008F
:10000E0090FF1D7461F090FF15F090FF16F090FFB9
:03001E0002F022CB
:101F2B00E4900002F0A2A533900001F09000DCE0F9
:101F3B0014602614604E147003021FCE240360033A
:101F4B00021FD7900001E06003021FDC9000DDF060
:101F5B00A3F09000DC04F08078900001E0706B90AF
:101F6B0000DEE004F070069000DDE004F0C39000AA
:101F7B00DEE094039000DDE09400403E9000DC74C2
:101F8B0002F08036900001E0B40106A37404F080E7
:101F9B003B9000DEE004F070069000DDE004F0C33F
:101FAB009000DEE094789000DDE09400400C90000F
:101FBB00027405F09000DC7403F07F0A7E00122996
:101FCB00BC800E900001E0B401078000E49000DCBF
:061FDB00F0900002E0FF9F
:011FE10022DD
:101FE200E4900002F0A2A633900001F09000DFE03E
:101FF20014602614604E14700302208524036003CB
:1020020002208E900001E060030220939000E0F035
:10201200A3F09000DF04F08078900001E0706B90F4
:1020220000E1E004F070069000E0E004F0C39000EC
:10203200E1E094039000E0E09400403E9000DF7401
:1020420002F08036900001E0B40106A37404F0802F
:102052003B9000E1E004F070069000E0E004F0C381
:102062009000E1E094F09000E0E09400400C9000D9
:10207200027406F09000DF7403F07F0A7E001229DA
:10208200BC800E900001E0B401078000E49000DF04
:06209200F0900002E0FFE7
:012098002225
:10241200121F2BBF05037F0122121FE2BF062112EA
:102422002A6FBF01149000D6E0700E9000E504F010
:102432009000D6F0122832803CE49000E5F080351E
:102442009000E2E0602330A60320B51D9000E5E095
:1024520070177F32FE1229BCE49000E2F020A6033E
:102462007F032220B50F7F022230A60930B50690E5
:1024720000E27401F030A513D39000E4E0940190DF
:0D24820000E3E094004004E4F0A3F07F00CC
:01248F00222A
:101C12007365742074696D65207365636F6E643AD1
:101C220025640D0A0065786368616E67655F6865A3
:101C320061745F76616C7565200D0A0074696D656B
:101C4200207365636F6E643A2564200D0A0070721A
:101C52006F74656374200D0A0074696D65206F6688
:101C620066200D0A0074696D655F746F5F302E35F2
:101C720048202074696D655F7365633D2564200D9E
:101C82000A0074696D655F746F5F31482020746962
:101C92006D655F7365633D2564200D0A0074696D8F
:101CA200655F746F5F3248202074696D655F73658C
:101CB200633D2564200D0A0074696D655F746F5F72
:101CC2003448202074696D655F7365633D25642027
:101CD2000D0A0074696D655F746F5F384820207467
:0E1CE200696D655F7365633D2564200D0A0022
:101EE8004100CB004200C900004200CD0000410083
:101EF800C1004100C2004100D1004100CC004100B6
:101F0800C5004200C300004200C700004200BF00F5
:0A1F1800004100C6004200CF0000A7
:102937009000C9EEF0A3EFF0E4A3F07BFF7A1C79D7
:0C29470012900044EEF0A3EFF00209E94A
:10239100EFB40A00507A90239EF82828730223BCD8
:1023A1000223C60223C80223D20223DC0223E6024F
:1023B10023F10223FC0223FC0224079000BFE4F076
:1023C100A3741EF02280009000BFE4F0A37478F0A3
:1023D100229000BFE4F0A37496F0229000BFE4F0D5
:1023E100A374F0F0229000BF7401F0A3742CF022CA
:1023F1009000BF7401F0A374E0F0229000BF74025A
:10240100F0A37458F0229000BF7403F0A3740CF091
:0124110022A8
:1025B4009000D2E0B40A0050389025C4F82828735B
:1025C4000225E20225E40225E60225E80225EF02BF
:1025D40025EF0225EF0225EF0225EF0225EF800407
:1025E400800280009000CC7401F0229000CC740230
:0225F400F022D3
:1026F2009000C5E0B402349000C3E475F001120703
:102702001AFEC39000C0E095F09000BFE09E501BFF
:102712007BFF7A1C79271209E9E49000C5F090004A
:0C272200C3F0A3F09000C6F01225B42212
:10230700E49000CBF09000D3E0FF70089000C9F094
:10231700A3F08052EFB4010C9000C97407F0A30436
:10232700F0E48042EFB4020D9000C9740EF0A3747C
:1023370010F0E48031EFB4030D9000C9741CF0A3D2
:102347007420F0E48020EFB4040D9000C97438F0D5
:10235700A37440F0E4800FEFB405179000C97470C0
:10236700F0A37480F0E49000CDF0A3F09000C7F0E4
:10237700A3F07BFF7A1C793E9000C9E0FFA3E090B1
:0A2387000044CFF0A3EFF00209E9D3
:1029D300E490FE80F0F589758CF2758AFBC28DD286
:0629E300A9D28CD2AF2244
:03000B0002158556
:10158500C0E0C0F0C083C082C0D075D000C000C02C
:1015950001C002C003C004C005C006C007122A6FFF
:1015A500EF600302167B9000CBE004F0E0C3946487
:1015B50050030216A21226F29000D1E0B4022D903B
:1015C50000CEE004F070069000CDE004F0D390006A
:1015D500CEE094209000CDE0941C40109000D1E422
:1015E500F09000CDF0A3F09000C104F0D39000CAB4
:1015F500E094009000C9E094004048A3E024FFF087
:101605009000C9E034FFF09000C2E0640270609081
:1016150000CEE004F070069000CDE004F0D3900019
:10162500CEE094209000CDE0941C40439000C1741E
:1016350001F0A3E4F09000CDF0A3F07BFF7A1C79D4
:101645005080299000D3E060267F01122A75900012
:10165500C9E4F0A3F09000CDF0A3F09000C2F090A3
:1016650000D1F01229197BFF7A1C795B1209E990E8
:1016750000CBE4F080279000E5E0B401209000CF96
:10168500E475F00112071AFED3E5F094E0EE942E0E
:10169500400B9000E5E4F09000CFF0A3F0D007D028
:1016A50006D005D004D003D002D001D000D0D0D0D0
:0816B50082D083D0F0D0E032B6
:1024FD009000C7E475F00112071AFEE5F08EF01298
:10250D00092425270708252F0E1025371C20253FC8
:10251D00384025477080000025667BFF7A1C79675F
:10252D00801E7BFF7A1C798480167BFF7A1C799F35
:10253D00800E7BFF7A1C79BA80067BFF7A1C79D5D9
:10254D009000C9E0FFA3E0900044CFF0A3EFF0129C
:0A255D0009E9E49000C7F0A3F022A2
:041F22004100ED008D
:1029A4007E009000EDE0FD7C00120951E47B64FAA6
:0729B400F9F81207F08FDFB4
:0129BB0022F9
:10287A0090FF0074C1F0E490FF9CF0AC06AD077EB7
:10288A007A7F121206C5EF149000EDF0F5DE75DDC1
:02289A00972283
:1029890090FF017401F090FF03F075B4807F147E0D
:0B29990000122A2590FE9B7449F022DA
:1029E900E4FFFE75B50143B440E5B430E5FB53B4EB
:0529F900DFAEB7AFB630
:0129FE0022B6
:1029FF00E4FFFE75B50343B440E5B430E5FB53B4D3
:052A0F00DFAEB7AFB619
:012A1400229F
:0B17EF00900006EBF0A3EAF0A3E9F085
:1017FA0090000C1208AD00000000E4900010F0F018
:10180A0090000CE0F8A3E0F9A3E0FAA3E0FB1229A8
:10181A00E9E4FCFDEB2FFFEA3EFEED39FDEC38FC76
:10182A0090000C1208A1900010E004F0E0C39405A7
:10183A0040CE90000CE0FCA3E0FDA3E0FEA3E0FF95
:10184A00E47B05FAF9F81207F090000C1208A1E4FB
:10185A007F887E13FDFC90000CE0F8A3E0F9A3E07A
:10186A00FAA3E0FB120765E4FB7A10F9F81207F015
:10187A00900006E0FBA3E0FAA3E0F9EE8FF012076E
:10188A004690000C1208AD00000000E4900010F031
:10189A0090000CE0F8A3E0F9A3E0FAA3E0FB122918
:1018AA00FFE4FCFDEB2FFFEA3EFEED39FDEC38FCD0
:1018BA0090000C1208A1900010E004F0E0C3940517
:1018CA0040CE90000CE0FCA3E0FDA3E0FEA3E0FF05
:1018DA00E47B05FAF9F81207F090000C1208A1E46B
:1018EA007F887E13FDFC90000CE0F8A3E0F9A3E0EA
:1018FA00FAA3E0FB120765E4FB7A10F9F81207F085
:10190A00900009E0FBA3E0FAA3E0F9EE8FF00207EA
:01191A004686
:0D2A410075BD17EF75F02BA490FEA0F022DC
:042A8B0043BD102215
:0C2A5A0000000000000000000000000070
:041F26004100AA00CC
:1028BC00E49000A8F0A3F09000A4F0A3F0A3F0A380
:1028CC00F09000A304F09000A2F09000A104F0227C
:100E010078AB7C007D017BFF7A2A795A7E007F0CCA
:100E11001206479000B71208AD000000009000BB19
:100E21001208AD000000009000A8E0FEA3E0FF90D2
:100E310000A6E0FCA3E0FDD39FEC9E50030212212B
:100E4100ED9FFFEC9EFED3EF9464EE94004003020D
:100E51001217E4FCFD9000AB1208A1E490009FF092
:100E6100900096E0FCA3E0FDA3E0FEA3E0FFA31247
:100E710008A1900092E0FCA3E0FDA3E0FEA3E0FF47
:100E8100A31208A19000ABE0FCA3E0FDA3E0FEA348
:100E9100E0FF9000921208A1900096E0FCA3E0FD13
:100EA100A3E0FEA3E0FF900092E0F8A3E0F9A3E045
:100EB100FAA3E0FBD31208904033900096E0F8A328
:100EC100E0F9A3E0FAA3E0FB900092E0FCA3E0FDCF
:100ED100A3E0FEA3E09BFFEE9AFEED99FDEC98FCEA
:100EE1009000AB1208A1E490009EF0803190009236
:100EF100E0F8A3E0F9A3E0FAA3E0FBA3E0FCA3E0A0
:100F0100FDA3E0FEA3E0C39BFFEE9AFEED99FDEC8D
:100F110098FC9000AB1208A190009E7401F0E47F50
:100F210002FEFDFC900096E0F8A3E0F9A3E0FAA32D
:100F3100E0FB1207659000B31208A190009AE0FC53
:100F4100A3E0FDA3E0FEA3E0FF900092E0F8A3E0A0
:100F5100F9A3E0FAA3E02FFFEA3EFEE93DFDE83CFC
:100F6100FC9000B3E0F8A3E0F9A3E0FAA3E0FBC32F
:100F7100120890504B90009AE0FCA3E0FDA3E0FE24
:100F8100A3E0FF900092E0F8A3E0F9A3E0FAA3E068
:100F91002FFFEA3EFEE93DFDE83CFC9000B3E0F89E
:100FA100A3E0F9A3E0FAC3EF9BFFEE9AFEED99FDF2
:100FB100EC98FC9000B31208A1E49000A0F0805DD1
:100FC1009000B3E0FCA3E0FDA3E0FEA3E0FFC004BA
:100FD100C005C006C00790009AE0FCA3E0FDA3E0B5
:100FE100FEA3E0FF900092E0F8A3E0F9A3E0FAA3EA
:100FF100E02FFBEA3EFAE93DF9E83CF8D007D006DC
:10100100D005D004C3EF9BFFEE9AFEED99FDEC985D
:10101100FC9000B31208A19000A07401F09000A10F
:10102100E0FFE4FCFDFE9000ABE0F8A3E0F9A3E0F3
:10103100FAA3E0FB1207659000AB1208A19000A291
:10104100E0FFE4FCFDFE900092E0F8A3E0F9A3E0EC
:10105100FAA3E0FB1207659000AF1208A19000A36C
:10106100E0FFE4FCFDFE9000B3E0F8A3E0F9A3E0AB
:10107100FAA3E0FB1207659000B31208A190009E4D
:10108100E0702D9000B7E0FCA3E0FDA3E0FEA3E03B
:10109100FF9000ABE0F8A3E0F9A3E0FAA3E0FBEFD7
:1010A1002BFFEE3AFEED39FDEC38FC9000B7802BBA
:1010B1009000BBE0FCA3E0FDA3E0FEA3E0FF9000F5
:1010C100ABE0F8A3E0F9A3E0FAA3E0FBEF2BFFEE1E
:1010D1003AFEED39FDEC38FC9000BB1208A19000FE
:1010E1009FE0702E9000B7E0FCA3E0FDA3E0FEA31B
:1010F100E0FF9000ABE0F8A3E0F9A3E0FAA3E0FB86
:10110100EF2BFFEE3AFEED39FDEC38FC9000B71203
:1011110008A19000A0E0702B9000B7E0FCA3E0FDD7
:10112100A3E0FEA3E0FF9000B3E0F8A3E0F9A3E0A1
:10113100FAA3E0FBEF2BFFEE3AFEED39FDEC38FCB4
:10114100A3802B9000BBE0FCA3E0FDA3E0FEA3E0A5
:10115100FF9000B3E0F8A3E0F9A3E0FAA3E0FBEF0E
:101161002BFFEE3AFEED39FDEC38FC9000BB120886
:10117100A19000B7E0F8A3E0F9A3E0FAA3E0FB90A7
:1011810000A4E0FEA3E0FFE4FCFDEB2FFFEA3EFE3E
:10119100ED39FDEC38FC9000B71208A19000BBE0DE
:1011A100FCA3E0FDA3E0FEA3E0FF9000B7E0F8A3FD
:1011B100E0F9A3E0FAA3E0FBD312089040629000AB
:1011C100BBE0F8A3E0F9A3E0FAA3E0FB9000B7E0ED
:1011D100FCA3E0FDA3E0FEA3E09BFFEE9AFEED99E8
:1011E100FDEC98FC9000AB1208A1E47F64FEFDFCCD
:1011F1009000ABE0F8A3E0F9A3E0FAA3E0FBC3128F
:10120100089050129000ABA3A3E0FFA3E09000A4CC
:10121100CFF0A3EFF0229000A4E4F0A37464F022D5
:07122100E49000A4F0A3F02B
:0112280022A3
:100026000203B0E86480F8E933E83360110460F055
:10003600ED33EC337009E8FCE9FDEAFEEBFF220440
:1000460060DED3EB9FEA9EE99DE8C2E78CF0C2F73B
:1000560095F0400CE8CCF8E9CDF9EACEFAEBCFFB07
:1000660012037B85D0F05804700320D5B3E80470E2
:10007600075002B2D50203BA92D5EC0460F7E4CC7D
:10008600C0E0C398F8603B94186008400DD0E0FBD0
:10009600020392E4FBFAC9FC8028E830E406E4C9CE
:1000A600FBE4CAFCE830E305E4C9CACBFCE8540724
:1000B6006010F8C3E913F9EA13FAEB13FBEC13FC2F
:1000C600D8F130F52FC3E49CFCEF9BFFEE9AFEEDD2
:1000D60099FDD0E0FBEF4E4D4C701222DB0302037C
:1000E600B7EC2CFCEF33FFEE33FEED33FDED30E7DE
:1000F600EB020392EF2BFFEE3AFEED39FDD0E0FB6B
:1001060050130BBB00030203BAED13FDEE13FEEF13
:0801160013FFEC13FC0203923D
:10011E00EC4D6011E8497017ED33EC3304600DE4DB
:10012E00FCFFFEFD22E933E8330470F80203B0123F
:10013E00037B58046009E4CC248150062850090240
:10014E0003BA2840030203B7C0E0EB4A7044B980FB
:10015E0006D0E0FB0203A6EF4E701CBD8008EBFF3D
:10016E00EAFEE9FD80EBE98DF0A4FEE5F002020760
:10017E00E9CDF9EAFEEBFFEF89F0A4FCE5F0CE89BC
:10018E00F0A42EFFE435F0CD89F0A42DFEE435F079
:10019E008067EF4E7005BD80D780C3EF8BF0A4ACA7
:1001AE00F0EE8BF0A42CFCE435F0F8EF8AF0A42CE2
:1001BE00E5F038FCE433CB8DF0A42CFCE5F03BF8F5
:1001CE00EE8AF0A42CFCE5F038F8E433CF89F0A4E5
:1001DE002CFCE5F038CF3400CE89F0A42FFFE5F0EB
:1001EE003EFEE433C98DF0A42EFEE5F039CD8AF043
:1001FE00A42FFFE5F03EFEE43DFD33D0E0FB5007BB
:10020E000BBB000F0203BAEC2CFCEF33FFEE33FEF8
:06021E00ED33FD02039226
:100224000203BAEC5D046005E8590470030203B0EC
:1002340012037B580460F6EC4860F2EC7004FDFE97
:10024400FF22C860DB2481C85009C39860025006AD
:100254000203B79850CAF582E9294B4A7005AB826C
:100264000203A675F0007C1A7880C3EF9BEE9AED2A
:1002740099400DC3EF9BFFEE9AFEED99FDE842F025
:10028400DC23ACF0D0E0FFD0E0FED0E0FDAB822078
:10029400E7101BEB60BAEC2CFCEF33FFEE33FEED02
:1002A40033FD020392E803F830E705C0F075F0006F
:1002B400EF2FFFEE33FEED33FD40B830E7C280AAE6
:1002C40074F8CC6480CCC86480C8F58204604FC3E1
:1002D400EB9FF5F0EA9E42F0E99D42F0E89C45F080
:1002E400603C501DE5825FFFE582D313CB5BCBF40A
:1002F4002B5582FB50280ABA002409B90020088033
:100304001DE5825BFBE582D313CF5FCFF4C3132FCC
:100314005582FF50090EBE00050DBD00010CC3EB54
:100324009FF5F0EA9E42F0E99D42F0E89C45F060BA
:0903340007CC4820E701B3EC22DC
:10033D0075F020800E75F010800575F0087D007E3B
:10034D00007F003392D530D503120882EC33401074
:10035D00EF33FFEE33FEED33FDEC33FCD5F0ED2244
:0E036D00E5F0247EA2D513CC92E7CDCEFF2280
:10097E00E50D2444F582E43400F583E0050D229064
:10098E000041301003900044E475F0011208DE02BD
:10099E00066D2009E97F2ED2098018EF540F24909E
:1009AE00D43440D4FF300D0BEF24BFB41A005003E3
:1009BE002461FFE50E6002150E0511E511700205AA
:1009CE001030100E900041E475F0011208DEEF02B7
:1009DE0006B3022A7B7403D2108003E4C210F50D15
:1009EE009000411208F5E4F50EF510F511E50E60D4
:1009FE00077F201209C180F5750FFFC20AC209C216
:100A0E000BC20CC20EC20FC21112098DFF700D3037
:100A1E0010057F001209D2AF11AE1022B4255FC2AD
:100A2E00D5C20D12098DFF24D0B40A00501A75F0EC
:100A3E000A780E30D50508B6FF0106C6A426F620A4
:100A4E00D5047002D20C80D924CFB41A00EF500412
:100A5E00C2E5D20D020CC4D20A80C6D20980C0D221
:100A6E000B80BCD2D580BAD20E80B47F201209C1C1
:100A7E00200B077401B50E0040F112097EFF12091A
:100A8E00C10209FBD211D20F809512097EFB120909
:100A9E007EFA12097EF94A4B700679C27A0D7BFFF7
:100AAE00200B2EE50E602A7E008E827583001206C4
:100ABE008660060EEE650F70F0C2D5EBC0E0EAC0A0
:100ACE00E0E9C0E0EE120D25D0E0F9D0E0FAD0E07A
:100ADE00FB12066DFF60AAEBC0E0EAC0E0E9C0E0E1
:100AEE001209C1D0E02401F9D0E03400FAD0E0FBC5
:100AFE00E50F0460DCD50FD98087D20B80A2120DD2
:100B0E000760F7E50F7001041203C5A90F600DE52C
:100B1E000F600914F50F120DAFEF60F3EA30E70224
:100B2E00F404C3995079EAF4250F0430E701E40484
:100B3E00F50F800D120D0760C1EA050F250F120388
:100B4E00C5EA900070F030E701E4250F04D50F04DC
:100B5E00200E0114120D25E4C0E0120DAF900070AE
:100B6E00E0601320E70714F01209A9802204F0D0E8
:100B7E00E014C0E07F001209A9E50F60071209A07A
:100B8E00150F800B300E031209A0D0E00209FBD026
:100B9E00E00480C4120D07609EE50F041203C59099
:100BAE000070EAF0E50F200E026001042404120D1D
:010BBE002511
:100BBF0074FF04C0E0120DAF1209A9E50F200E0259
:100BCF0060031209A0D0E0B50FE87F451209B3907A
:100BDF000070E07F2B30E7047F2DF404C0E0120992
:100BEF00C1D0E075F00A84C0F01209AAD0E0120952
:100BFF00AA0209FB791080027908C20FC21180087E
:100C0F00D2D5790A8004790AC2D5E50F047002F5AE
:100C1F000FE4FAFDFEFF12097EFC7B08200A131277
:100C2F00097EFD7B1030090A12097EFE12097EFF34
:100C3F007B20EC3382D592D55013C3E43009069F45
:100C4F00FFE49EFEE4200A039DFDE49CFCE4CBF848
:100C5F00C20AEC700CCFCECDCCE824F8F870F3803C
:100C6F0017C3EF33FFEE33FEED33FDEC33FCEB3305
:100C7F00FB994002FB0FD8E9EB300A05F8D0E0C42E
:100C8F0048B20AC0E00AEC4D4E4F78207B0070C28C
:100C9F00EAB50F0040BCC0E0120D27D0F0D0E02025
:100CAF000A04C4C0E0C4B20AC0F01209AAD0F0D539
:100CBF00F0EB0209FB1208FE0A98530C03580A695D
:100CCF004C0A65420C074F0C0F440C0F490A7E4328
:100CDF000C15550B42460BA2450B0C470DE2500A63
:100CEF006D2D0A712E0A942B0A75230A92200DCBB3
:100CFF002A0A2D4800000A8CE50FB4FF03750F0672
:100D0F0012097EFC12097EFD12097EFE12097EFF7A
:100D1F00900069020402790AA2D5200C14300E0942
:100D2F00B910020404B9080104A2D5200F02500122
:100D3F0004200B68920BB50E005034C0E07F2030BA
:100D4F000C197F30A20B720F720E500F120D7EC254
:100D5F000BC20FC20EC2117F30800F300E03E9C0DD
:100D6F00E01209C1300E03D0E0F9D0E0B50ECC305F
:100D7F000E177F30B9100C1209C17F58300D077F45
:100D8F00788003B908031209C1300B057F2D0209C2
:100D9F00C17F202011F87F2B200FF322920B80CFE1
:100DAF007F00B40700500B2469F582E43400F5830B
:100DBF00E0FF22286E756C6C2900D20A12097E3072
:100DCF000AF8C20A780E30D50108F6020A2D2D5006
:100DDF0043495812097E2403B405004001E4900DE5
:100DEF00DD931209B2743A1209B2D20C750E0402D5
:020DFF000C03E3
:10037B00E9D2E7C933E833F892D5EDD2E7CD33ECC8
:07038B0033FC5002B2D52241
:10039200EC30E7100FBF000C0EBE00080DBD0004CC
:1003A2000BEB6014A2D5EB13FCED92E7FD2274FF78
:1003B200FCFDFEFF22E480F8A2D574FF13FC7D80D1
:0303C200E480EFE5
:1003C500F920E73624F950037907E4F42402FBE524
:1003D50082158270021583DBF6E024FB501BE96071
:1003E50014E4F0E582158270021583E004F0B40A86
:0D03F50008E4F0D9EE7401F00A22C2D5220E
:10040200ED33EC3392D5FA602AB4FF33EDC2E77BC9
:10041200FF60067A047927E4227A04793020D50431
:100422007A04792B224E614E002B494E46002D490B
:100432004E4600E47A08F0A3DAFC7B00740722C07F
:1004420083C082ECC0E0EDC0E0EEC0E0EFC0E0EAC5
:1004520075F010A4CAABF075F04DA42BFBE435F097
:10046200FCEA2410FAEB34C5FBEC34D9FCEDC2E70C
:10047200FF75F056A4F42411C5F0F434C58FF0A42E
:100482002AE5F03BE43CF020E714120537D0E0FF08
:10049200D0E0FED0E0FDD0E0FC1202278014F4048C
:1004A200120537D0E0FFD0E0FED0E0FDD0E0FC1234
:1004B200011ED082D083E0FAEDD2E7CD33EC3324B3
:1004C20082FBE4C3CF33CFCE33CECD33CD33DBF398
:1004D2007B0775F00A846004F0A31B0AE5F0F0A321
:1004E2008FF0740AA4FFACF08EF0740AA42CFEAC58
:1004F200F050010C8DF0740AA42CFDE435F0F0A349
:05050200DBDE7407229E
:100507003F8000004120000042C80000447A0000FC
:10051700461C400047C35000497424004B1896807E
:100527004CBEBC205A0E1BCA6753C21C749DC5AE75
:10053700FB60065407601C2323120565EB543860E3
:100547000912055112056012011EECF8EDF9EEFAD9
:10055700EFCB22EB12056080F1543803241C900581
:1005670007FE93FC0EEE93FD0EEE930ECE93FF2245
:1021FD0002214CE493A3F8E493A34003F68001F28B
:10220D0008DFF48029E493A3F85407240CC8C333E2
:10221D00C4540F4420C8834004F456800146F6DFB1
:10222D00E4800B0102040810204080901E74E47EAF
:10223D00019360BCA3FF543F30E509541FFEE493A6
:10224D00A360010ECF54C025E060A840B8E493A36D
:10225D00FAE493A3F8E493A3C8C582C8CAC583CA98
:10226D00F0A3C8C582C8CAC583CADFE9DEE780BE50
:011F2A0000B6
:10057700E709F608DFFA8046E709F208DFFA803E66
:1005870088828C83E709F0A3DFFA8032E309F60853
:10059700DFFA8078E309F208DFFA807088828C83BB
:1005A700E309F0A3DFFA806489828A83E0A3F6086F
:1005B700DFFA805889828A83E0A3F208DFFA804C49
:1005C70080D280FA80C680D4806980F28033801020
:1005D70080A680EA809A80A880DA80E280CA803389
:1005E70089828A83ECFAE493A3C8C582C8CCC58301
:1005F700CCF0A3C8C582C8CCC583CCDFE9DEE780D1
:100607000D89828A83E493A3F608DFF9ECFAA9F04F
:10061700EDFB2289828A83ECFAE0A3C8C582C8CCA5
:10062700C583CCF0A3C8C582C8CCC583CCDFEADEBE
:10063700E880DB89828A83E493A3F208DFF980CC20
:1006470088F0EF60010E4E60C388F0ED2402B40419
:100657000050B9F582EB2402B4040050AF232345C0
:0606670082239005C77319
:10066D00BB010689828A83E0225002E722BBFE028B
:09067D00E32289828A83E49322BE
:10068600BB010CE58229F582E5833AF583E0225029
:1006960006E92582F8E622BBFE06E92582F8E22273
:0D06A600E58229F582E5833AF583E493228D
:1006B300BB010689828A83F0225002F722BBFE0126
:0206C300F32220
:1006C500BC000BBE0029EF8DF084FFADF022E4CC19
:1006D500F875F008EF2FFFEE33FEEC33FCEE9DECE2
:1006E500984005FCEE9DFE0FD5F0E9E4CEFD22ED28
:1006F500F8F5F0EE8420D21CFEADF075F008EF2F72
:10070500FFED33FD4007985006D5F0F222C398FD62
:050715000FD5F0EA22FF
:10071A00C5F0F8A3E028F0C5F0F8E582158270026A
:06072A001583E038F02207
:10073000A3F8E0C5F025F0F0E5821582700215837C
:06074000E0C838F0E822D9
:10074600BB010A89828A83F0E5F0A3F0225006F7FE
:0F07560009A7F01922BBFE06F3E5F009F31922FB
:10076500E88FF0A4CC8BF0A42CFCE98EF0A42CFC33
:100775008AF0EDA42CFCEA8EF0A4CDA8F08BF0A4B1
:100785002DCC3825F0FDE98FF0A42CCD35F0FCEB10
:100795008EF0A4FEA9F0EB8FF0A4CFC5F02ECD39D5
:0F07A500FEE43CFCEAA42DCE35F0FDE43CFC2242
:1007B40075F008758200EF2FFFEE33FECD33CDCCFC
:1007C40033CCC58233C5829BED9AEC99E58298407F
:1007D4000CF582EE9BFEED9AFDEC99FC0FD5F0D65C
:1007E400E4CEFBE4CDFAE4CCF9A88222B800C1B986
:1007F4000059BA002DEC8BF084CFCECDFCE5F0CBC4
:10080400F97818EF2FFFEE33FEED33FDEC33FCEBFC
:1008140033FB10D703994004EB99FB0FD8E5E4F9B7
:10082400FA227818EF2FFFEE33FEED33FDEC33FCA4
:10083400C933C910D7059BE99A4007EC9BFCE99A98
:10084400F90FD8E0E4C9FAE4CCFB2275F010EF2FDD
:10085400FFEE33FEED33FDCC33CCC833C810D707DD
:100864009BEC9AE899400AED9BFDEC9AFCE899F818
:0E0874000FD5F0DAE4CDFBE4CCFAE4C8F922AB
:0E088200C3E49FFFE49EFEE49DFDE49CFC2287
:10089000EB9FF5F0EA9E42F0E99D42F0E89C45F0BE
:0108A0002235
:0C08A100ECF0A3EDF0A3EEF0A3EFF022CA
:1008AD00A8828583F0D083D0821208C41208C412A6
:1008BD0008C41208C4E473E493A3C583C5F0C583CB
:1008CD00C8C582C8F0A3C583C5F0C583C8C582C895
:0108DD0022F8
:1008DE00F8E0FBA3A3E0F925F0F0E58215827002A3
:0708EE001583E0FA38F02247
:0908F500EBF0A3EAF0A3E9F02204
:1008FE00D083D082F8E4937012740193700DA3A389
:10090E0093F8740193F5828883E47374029368609C
:06091E00EFA3A3A380DF9C
:10092400D083D082F8E4937012740193700DA3A362
:1009340093F8740193F5828883E473740293B5F099
:0D094400067403936860E9A3A3A3A380D801
:10095100EC8EF0A4CCC5F0CCCDF8EFA4CEC5F02D33
:10096100FDE43CFCE8A42EC8C5F03DFDE43CFCEFF1
:0D097100A4FFE5F028FEE43DFDE43CFC227F
:00000001FF
