:0300000002219842
:0C219800787FE4F6D8FD7581220221DF7B
:10210A002564200D0A000D0A3D3D3D3D3D3D3D3D06
:10211A003D3D3D3D3D3D3D3D3D3D3D3D3D3D3D3DE5
:10212A003D3D3D3D3D3D3D3D3D3D0D0A00736B75D9
:10213A003A4B2564200D0A00736F66742076657227
:10214A0073696F6E3A2573200D0A00312E30302ED6
:10215A00303000676170202564200D0A0074696DB3
:10216A006572202564200D0A003D3D3D3D3D3D3D03
:10217A003D3D3D3D3D3D3D3D3D3D3D3D3D3D3D3D85
:0E218A003D3D3D3D3D3D3D3D3D3D3D0D0A0091
:101DAF004200C900004100CB004100C8004100C7FC
:011DBF000023
:102A0200758E5390FE917401F090FF027410F022C3
:101B2400E4900000F09000C8E0700A12233890009E
:101B340000EFF08005E4900000F0900000E0640104
:101B440070479000C6E07041122A5CEF700D7F016F
:101B5400122A62122906E4FF022991E4FF122A6282
:101B64001222AE9000CB7401F09000B3E0FF122378
:101B7400B69000B3E0FF1220799000B3E0FF121A90
:101B8400279000B4E0FF022224122A5CEF600302D3
:101B94001C15900000E06402704F9000B3E0C39401
:101BA400095005E004F080069000B37401F0900041
:101BB400B3E0FFD394034016A3E0FE70059000B297
:101BC4008009EED3940340069000A37402F09000C1
:101BD400CB7401F01223B69000B3E0FF1220799089
:101BE40000B3E0FF121A278025900000E0B403211F
:101BF4009000B4E0C394055005E004F08005E4903F
:101C040000B4F09000B4E0FF1222241222AE122895
:011C14001FB0
:011C150022AC
:081CF400900006EEF0A3EFF0F2
:101CFC00900086E06402706A9000C6E06401706235
:101D0C00900006A3E0FFE4900086F09000B704F08A
:101D1C00900067E0FED3940F4048EED39F400CE058
:101D2C009F9000B5F0A37401F08016900067E0FE60
:101D3C00C3EF9EFF9000B5F0122A3B9000B67402E0
:101D4C00F09000B5E0FFC394024006EFD39414402A
:101D5C0007E49000B5F0A3F012281F7D027F021259
:101D6C0028C99000B6E0FDB401149000B5E0FF7EE8
:101D7C0000900006EE8FF012072CAFF0FE22EDB4AF
:101D8C0002189000B5E0FFC3900007E09FFF9000A1
:101D9C0006E09400FEF0A3EFF022900006E0FEA314
:021DAC00E0FF56
:011DAE002212
:10123B00900008ECF0A3EDF0900006EEF0FAA3EFAF
:02124B00F0FBB6
:10124D00E490000AF0A37432F0A3740AF0A312081C
:10125D00BF00000000C3EB9432EA940040169000EA
:10126D0008E0FEA3E0FF900006E0FCA3E0FDD39FA5
:10127D00EC9E4003021314E4120342E4FBFA797A64
:10128D007844120227C004C005C006C007900008AC
:10129D00E0FCA3E0FDE4120342E4FBFA797A784422
:1012AD00120227D003D002D001D000120029C004B1
:1012BD00C005C006C007900006E0FCA3E0FDE412E7
:1012CD000342E4FBFA797A7844120227E4FBFA79B7
:1012DD00FF7843120227A804A905AA06AB07D00779
:1012ED00D006D005D00412022790000D1208B3E4E9
:1012FD00FFFEFDFC90000DE0F8A3E0F9A3E0FAA3DA
:10130D00E0FB1202C450057E007FFF2290000DE02D
:10131D00FCA3E0FDA3E0FEA3E0FFE4FBFAF97841B6
:10132D0012022790000D1208B3E4FFFE7D927C425D
:10133D0090000DE0F8A3E0F9A3E0FAA3E0FB1202A0
:10134D00C45004E4FEFF2290000DE0FCA3E0FDA3D9
:10135D00E0FEA3E0FF7BF37A1F79B67842120227F5
:10136D0090000D1208B37FF37E1F7DB67C42900076
:10137D000DE0F8A3E0F9A3E0FAA3E0FB12011E7B58
:10138D00F37A1F79B678421202C4504C90000DE0EA
:10139D00FCA3E0FDA3E0FEA3E0FF7B497A9D7980ED
:1013AD00783F12022790000D1208B390000AE00456
:1013BD00F0E4FFFE7D807C3F90000DE0F8A3E0F9A6
:1013CD00A3E0FAA3E0FB1202C4600250BF90000A32
:1013DD00E0FFA3E02FF0804E90000DE0FCA3E0FDB8
:1013ED00A3E0FEA3E0FF7B6D7AC5797E783F120204
:1013FD002790000D1208B390000AE004F0E4FFFE00
:10140D007D807C3F90000DE0F8A3E0F9A3E0FAA306
:10141D00E0FB1202C440C190000BE0FF90000AE017
:0D142D00FEC3EF9EA3F090000BE0FF7E00D9
:01143A00228F
:10143B00E4900000F0A3F0A3F0A3F0A3F0A3F090CE
:10144B0000CAE004F070069000C9E004F0D39000ED
:10145B00CAE094109000C9E09427500302159BE456
:10146B00F0A3F07B0190000904F0A37400F0A374C7
:10147B0004F07A0079021216DB900002E0FEA3E082
:10148B00FFA3E0FCA3E0FD12123B900000EEF0A3E3
:10149B00EFF0121CF4900000EEF0A3EFF07BFF7A5C
:1014AB0021790A900039EEF0A3EFF01209FBD390EB
:1014BB000003E09432900002E09400500302157A8E
:1014CB00122A5CEF707A9000CBE0B40129E4F0D3E0
:1014DB00900001E09432900000E094009000A6741C
:1014EB00024009F09000AD740CF0800AF09000A758
:1014FB0014F09000ADF09000A7E0701C900000E09D
:10150B00FEA3E0FF7C007D0A1206C590009DEEF065
:10151B00A3EFF0120E1380169000A7E0B4010F900A
:10152B000000E0FCA3E0FD7F4D7E001226649000DE
:10153B00B4E0FF1222249000B3E0FF121A27802997
:10154B009000C6E0B40118E4FF122991122906900D
:10155B0000B3E0FF121A279000CD7401F0800AE46B
:10156B00FF1229917F0412295BE49000C8F022E45A
:10157B009000C6F09000CDF0122906E4FF122991DD
:10158B009000C774FFF0FF121A279000C87401F087
:01159B00222D
:101FD400122A021227A7122976D2AF12000E122952
:101FE400C012159C7FC87E001228671227F87F2034
:101FF4007E031229A97F02122A2E1228A9E4FF12B5
:1020040029917BFF7A2179101209FB7BFF7A2179D0
:10201400379000397423F0A37445F01209FB900043
:102024003974FFF0A37421F0A37455F07BFF7A2177
:1020340079421209FB7BFF7A21795D9000B3E0FFBE
:10204400900039E4F0A3EFF01209FB7BFF7A2179C9
:10205400679000B4E0FF900039E4F0A3EFF01209B8
:10206400FB7BFF7A2179731209FB121B2412143BA8
:05207400122A7880F53E
:10207900EFB40A004003022109902089F828287347
:102089000220A70220B20220BD0220C80220D302EA
:1020990020DE0220E90220F40220F40220FF900051
:1020A9009B7401F0A3742CF02290009B7401F0A39F
:1020B90074AEF02290009B7401F0A374D6F02290C4
:1020C900009B7401F0A374F4F02290009B7402F059
:1020D900A3741CF02290009B7402F0A37458F022A0
:1020E90090009B7402F0A3748AF02290009B740202
:1020F900F0A374BCF02290009B7402F0A374EEF07C
:0121090022B3
:102889009000A2E0B401189000B3E0D39403400F84
:102899007403F0FF121A2712281FE49000A2F022F5
:101921000D0A3D3D3D3D3D3D3D3D3D3D3D3D3D3D49
:101931003D3D3D3D3D3D3D3D3D3D3D3D3D3D3D3DD6
:101941003D3D3D3D3D3D3D3D3D3D0D0A00706F77C7
:101951006572206F6E20666C617368206761703AF2
:101961002564202074696D65723A2564200D0A0092
:10197100706F776572206F6E20666C617368207678
:10198100616C75653A256420207369676E3A256438
:10199100200D0A003D3D3D3D3D3D3D3D3D3D3D3D33
:1019A1003D3D3D3D3D3D3D3D3D3D3D3D3D3D3D3D66
:1019B1003D3D3D3D3D3D3D3D3D3D3D3D0D0A003DF6
:1019C1003D3D3D3D3D3D3D3D3D3D3D3D6669727386
:1019D1007420696E697420646174613D3D3D3D3DD3
:1019E1003D3D3D3D3D3D200D0A00307825303458C8
:1019F1002020307825303458202030782530345854
:101A01002020307825303458200D0A00666C61732F
:101A110068206761703A2564202074696D65723AA7
:061A21002564200D0A00FF
:101DC0004500B300000000004400B8202005014198
:031DD00000BC0153
:062A5C009000BCE0FF2227
:062A62009000BCEFF02221
:10284500D310AF01C3C0D075FDF075FC0F8EFA8FA4
:10285500F975FDD275FC2D75FDE175FC1ED0D09284
:02286500AF22A0
:1027D000D310AF01C3C0D08FFB75FDF075FC0FAEF9
:1027E00004AF058EFA8FF975FDB475FC4B75FDE1EC
:0827F00075FC1ED0D092AF224F
:0C242B007B017A0079B37D057F047E3CC4
:10243700D310AF01C3C0D0900008EEF0A3EFF0A314
:0B244700EDF0A3EBF0A3EAF0A3E9F036
:10245200E4A3F0C2AFF090000AE0FF90000EE0C3E8
:102462009F502C90000BE0FBA3E475F00112074291
:10247200A9F0FA12066DFF900008E475F001120748
:1024820042ADF0FC1227D090000EE004F080C7D2DB
:01249200AF9A
:05249300D0D092AF2241
:040003008F828E83D7
:03000700E493FF80
:01000A0022D3
:1025A600900008EEF0A3EFF0A3EBF0A3EAF0A3E9A6
:1025B600F0AF051DEF6028900008E475F0011207E2
:1025C6004285F082F583E493FF90000AE0FBA3E4E2
:1025D60075F001120742A9F0FAEF1206B380D22273
:10271B00E4FDFCED2400FFE4343CFE12000374B82E
:10272B002DF582E43400F583E0B507030C80037FBD
:10273B0000220DEDB404DCECC3940440037F0122B2
:02274B007F000D
:01274D002269
:10159C00E4900000F090FE927404F012271BEF70A0
:1015AC000790000004F0807C7BFF7A1979211209E6
:1015BC00FB7B017A0079B37D057F047E3C1225A666
:1015CC007BFF7A19794E9000B3E0FF900039E4F07C
:1015DC00A3EFF09000B4E0FF90003BE4F0A3EFF039
:1015EC001209FB7BFF7A1979719000B5E0FF90002E
:1015FC0039E4F0A3EFF09000B6E0FF90003BE4F08C
:10160C00A3EFF01209FB7BFF7A1979951209FB9075
:10161C0000B3E0D394095006A3E094054006900073
:10162C00007401F0900000E0640160030216B87BC6
:10163C00FF7A1979C01209FB9000B37401F0A374FE
:10164C0003F07F007E3C1228457B017A0079B87D3F
:10165C000412243712242B7B017A0079B87D047F85
:10166C00007E3C1225A67BFF7A1979EB9000B8E03E
:10167C00FF900039E4F0A3EFF09000B9E0FF900088
:10168C003BE4F0A3EFF09000BAE0FF90003DE4F0F3
:10169C00A3EFF09000BBE0FF90003FE4F0A3EFF06D
:1016AC001209FB7BFF7A1979951209FB7BFF7A1AD9
:1016BC00790D9000B3E0FF900039E4F0A3EFF090C7
:0F16CC0000B4E0FF90003BE4F0A3EFF00209FB55
:10281F007F047E3C1228457B017A0079B87D047FC6
:10282F000012243712242B7B017A0079B37D057FA8
:06283F00047E3C0225A608
:0E2A1200EF1F70011E144E6004000080F322BE
:1029A9007DA07C01ED1D70011C144C70F7EF1F70A8
:0629B900011E144E70EA3D
:0129BF0022F5
:032A7C00022A1219
:1029400090FF0974C1F090FF08F090FF07F090FF2E
:0B29500006F0D291D290D287D28622EE
:0825E600900039EFF0A3EDF0C5
:1025EE00E4A3F0F090003AE0FFA3E0C39F5027C2AF
:1025FE0087900039E020E704C2868002D286D28717
:10260E007F057E00122A7C900039E025E0F09000D4
:06261E003BE004F080CE59
:012624002293
:08262500900039EFF0A3EDF085
:10262D00E4A3F0F090003AE0FFA3E0C39F5027C26F
:10263D0087900039E020E004C2868002D286D287DE
:10264D007F057E00122A7C900039E0C313F09000C4
:06265D003BE004F080CE1A
:012663002254
:10295B00900007EFF0C2917D047F801225E6900076
:0B296B0007E0FF7D081225E6D2912254
:10277B00900037EFF0A3EDF0C2917D037FA01225FF
:10278B00E6900037E025E025E0FF7D061225E69078
:0C279B000038E0FF7D04122625D29122B8
:092A5300D291D290D287D28622E2
:081DD3004100CC004100CD00ED
:052A6E007F0602295B58
:052A73007F0402295B55
:1028E800E4900000F0F0900000E0FFC39420500D49
:0D28F8007D0F12277B900000E004F080E9C6
:0129050022AF
:10290600E4900036F0F0900036E0FFC39420500DBE
:0D291600E4FD12277B900036E004F080E91C
:012923002291
:1027F8001229407F5212295B7F3012295B7F0A120F
:10280800295B7F0812295B7F0212295B7F06122948
:072818005B1229060228E80B
:0E2A2000E4FD7F1C12277BE4FD7F1F02277B55
:10222400900006EFF07F0612295BE4FD7F1F122762
:102234007BE4FD7F1C12277B900006E014601B14D6
:10224400602314602B14603A1460492405705A7D8D
:102254000A7F1B12277B7D0E80317D0B7F1B12278B
:102264007B7D0A80267D0E7F1B12277B7D0A801BC7
:102274007D0A7F1B12277B7D0A7F1C12277B7D0B27
:1022840080227D0A7F1B12277B7D0B7F1C12277BFC
:102294007D0A80107D0A7F1B12277B7D0A7F1C121A
:0A22A400277B7D0E7F1F12277B228F
:101A2700900006EFF07F0612295BE4FD7F1D122769
:101A37007BE4FD7F1E12277B9000CDE06401700ED2
:101A47009000CCE070057D06021AFE021B11900083
:101A570006E0B401047D068063900006E0B4020B43
:101A67007D0B7F1D12277B7D0C8065900006E0B4FF
:101A7700030B7D0F7F1D12277B7D0480539000068B
:101A8700E0B4040B7D067F1D12277B7D0680419005
:101A97000006E0B4050B7D0D7F1D12277B7D0680B8
:101AA7002F900006E0B4060B7D0D7F1D12277B7D6E
:101AB7000E801D900006E0B407067D077F1D805944
:101AC700900006E0B4080D7D0F7F1D12277B7D0E69
:101AD7007F1E8045900006E0B4090D7D0F7F1D1223
:101AE700277B7D067F1E8031900006E0F4702D90E5
:101AF70000CCE070157D017F1D12277B7D0E7F1EB8
:101B070012277B9000CC7401F022E49000CCF0FD0A
:0D1B17007F1C12277BE4FD7F1F12277B221D
:101DDB005E00680000000000000000000000000032
:101DEB0000000000000000000000000000000000E8
:091DFB0000410086004100670070
:1027A70090FF0E74C1F090FF0F7461F090FFA0745A
:1027B70016F090FFA104F075CEFF75CDE675CC0637
:0927C700759E02759810D2AC2237
:0C2A3B00C2AC8F993099FDC299D2AC2238
:032A7F00022A3BED
:0B274E0090000DEBF0A3EAF0A3E9F00F
:10275900E4FEEEC39D501A90000DE0FBA3E0FAA33E
:10276900E0F98E82758300120686FF122A7F0E8099
:01277900E17E
:01277A00223C
:1028C9009000087455F0A3EFF0A3EDF0A3740DF098
:0F28D900A3740AF07B017A0079087D0502274E6F
:062A6800AE07122A3B221A
:030023000225595A
:0D255900C0E0C083C082C0D075D000C007B4
:10256600E59830E030AF995398FE900086E014600D
:1025760019047021EFB4551D900068F0900066E0D4
:1025860004F09000867401F0800B900067EFF090E5
:0525960000867402F054
:0B259B00D007D0D0D082D083D0E03237
:101E04004100C6004100BD004200BE00004100C0C8
:0F1E1400004200C100004100C3014200C40000B1
:10000E0090FF1D7461F090FF15F090FF16F090FFB9
:03001E0002F022CB
:101E6600E4900002F0A2A533900001F09000BDE0DE
:101E760014602614604E147003021F0924036003C5
:101E8600021F12900001E06003021F179000BEF0CF
:101E9600A3F09000BD04F08078900001E0706B9094
:101EA60000BFE004F070069000BEE004F0C39000AE
:101EB600BFE094039000BEE09400403E9000BD74E5
:101EC60002F08036900001E0B40106A37404F080AD
:101ED6003B9000BFE004F070069000BEE004F0C343
:101EE6009000BFE094789000BEE09400400C900013
:101EF600027405F09000BD7403F07F0A7E0012297B
:101F0600A9800E900001E0B401078000E49000BDB6
:061F1600F0900002E0FF64
:011F1C0022A2
:101F1D00E4900002F0A2A633900001F09000C0E022
:101F2D0014602614604E147003021FC02403600356
:101F3D00021FC9900001E06003021FCE9000C1F0A6
:101F4D00A3F09000C004F08078900001E0706B90D9
:101F5D0000C2E004F070069000C1E004F0C39000F0
:101F6D00C2E094039000C1E09400403E9000C07424
:101F7D0002F08036900001E0B40106A37404F080F5
:101F8D003B9000C2E004F070069000C1E004F0C385
:101F9D009000C2E094F09000C1E09400400C9000DD
:101FAD00027406F09000C07403F07F0A7E001229BF
:101FBD00A9800E900001E0B401078000E49000C0FC
:061FCD00F0900002E0FFAD
:011FD30022EB
:10233800121E66BF05037F0122121F1DBF06211250
:102348002A5CBF01149000B7E0700E9000C604F03C
:102358009000B7F012281F803CE49000C6F080354A
:102368009000C3E0602330A60320B51D9000C6E0AE
:1023780070177F32FE1229A9E49000C3F020A6034B
:102388007F032220B50F7F022230A60930B50690C0
:1023980000C37401F030A513D39000C5E0940190F8
:0D23A80000C4E094004004E4F0A3F07F00C6
:0123B5002205
:101C16007365742074696D65207365636F6E643ACD
:101C260025640D0A0065786368616E67655F68659F
:101C360061745F76616C7565200D0A0074696D6567
:101C4600207365636F6E643A2564200D0A00707216
:101C56006F74656374200D0A0074696D65206F6684
:101C660066200D0A0074696D655F746F5F302E35EE
:101C760048202074696D655F7365633D2564200D9A
:101C86000A0074696D655F746F5F3148202074695E
:101C96006D655F7365633D2564200D0A0074696D8B
:101CA600655F746F5F3248202074696D655F736588
:101CB600633D2564200D0A0074696D655F746F5F6E
:101CC6003448202074696D655F7365633D25642023
:101CD6000D0A0074696D655F746F5F384820207463
:0E1CE600696D655F7365633D2564200D0A001E
:101E23004100AC004200AA00004200B000004100A3
:101E3300A2004100A3004100B2004100AD004100F7
:101E4300A6004200A400004200A800004200A00037
:0A1E5300004100A7004200AE0000AD
:10266400900006EEF0A3EFF0A3ECF0A3EDF0D39FFF
:10267400EC9E4004E4FF80229000ADE0FFC3900094
:1026840007E09FFF900006E09400FEC3900009E07D
:0E2694009F900008E09E50057F0A12299122B7
:1026A2009000A7E070369000AFE004F07006900052
:1026B200AEE004F0C39000AFE09F9000AEE09E5009
:1026C200047F0A8002E4FF1229919000AEE07004B8
:0D26D200A3E0646470069000AEF0A3F02257
:102924009000AAEEF0A3EFF0E4A3F07BFF7A1C7909
:0C29340016900039EEF0A3EFF00209FB52
:1023B600EFB40A00506E9023C3F82828730223E175
:1023C6000223EB0223ED0223EF0223F90224030288
:1023D600240D0224170224210224219000A0E4F0F7
:1023E600A3741EF022800280009000A0E4F0A37483
:1023F6003CF0229000A0E4F0A3745AF0229000A0D2
:10240600E4F0A37478F0229000A0E4F0A37496F0B0
:10241600229000A0E4F0A374B4F0229000A0E4F0AF
:05242600A374F0F02298
:102502009000B3E0B40A00504D902512F8282873C9
:1025120002253002253202253902253B02254202DC
:10252200254402254B0225520225520225528000E3
:102532009000AD7401F02280009000AD7403F0228F
:1025420080009000AD7405F0229000AD7408F02276
:072552009000AD740CF022B3
:1026DF009000A6E0B402349000A4E475F001120754
:1026EF002CFEC39000A1E095F09000A0E09E501B3F
:1026FF007BFF7A1C792B1209FBE49000A6F0900067
:0C270F00A4F0A3F09000A7F01225022215
:1022AE00E49000ACF09000B4E0FF70089000AAF04B
:1022BE00A3F08052EFB4010C9000AA7407F0A304AF
:1022CE00F0E48042EFB4020D9000AA740EF0A374F5
:1022DE0010F0E48031EFB4030D9000AA741CF0A34B
:1022EE007420F0E48020EFB4040D9000AA7438F04E
:1022FE00A37440F0E4800FEFB405179000AA747039
:10230E00F0A37480F0E49000B0F0A3F09000A8F079
:10231E00A3F07BFF7A1C79429000AAE0FFA3E09025
:0A232E000039CFF0A3EFF00209FB25
:1029C000E490FE80F0F589758CF2758AFBC28DD299
:0629D000A9D28CD2AF2257
:03000B00021807D1
:10180700C0E0C0F0C083C082C0D075D000C000C0A7
:1018170001C002C003C004C005C006C007122A5C8D
:10182700EF60030219069000ACE004F0E0C3946493
:1018370050030218FB1226DF9000B2E0B4022D908D
:1018470000B1E004F070069000B0E004F0D390001F
:10185700B1E094209000B0E0941C40109000B2E4F6
:10186700F09000B0F0A3F09000A204F0D39000AB8A
:10187700E094009000AAE094004048A3E024FFF021
:101887009000AAE034FFF09000A3E064027060903B
:1018970000B1E004F070069000B0E004F0D39000CF
:1018A700B1E094209000B0E0941C40439000A274F3
:1018B70001F0A3E4F09000B0F0A3F07BFF7A1C796D
:1018C7005480299000B4E060267F01122A629000BC
:1018D700AAE4F0A3F09000B0F0A3F09000A3F0907A
:1018E70000B2F01229067BFF7A1C795F1209FB9080
:1018F70000ACE4F0900099E0FEA3E0FF1226A2D02E
:1019070007D006D005D004D003D002D001D000D034
:0A191700D0D082D083D0F0D0E032AF
:102498009000A8E475F00112072CFEE5F08EF0120A
:1024A800093624C2070824CA0E1024D21C2024DAB4
:1024B800384024E27080000025017BFF7A1C796B8C
:1024C800801E7BFF7A1C798880167BFF7A1C79A393
:1024D800800E7BFF7A1C79BE80067BFF7A1C79D937
:1024E8009000AAE0FFA3E0900039CFF0A3EFF0122C
:0A24F80009FBE49000A8F0A3F02215
:041E5D004100CE0072
:102991007E009000CEE0FD7C00120963E47B64FAC6
:0729A100F9F81208028FDFB4
:0129A800220C
:1028670090FF0074C1F0E490FF9CF0AC06AD077ECA
:102877007A7F121206D7EF149000CEF0F5DE75DDE1
:02288700972296
:1029760090FF017401F090FF03F075B4807F147E20
:0B29860000122A1290FE9B7449F02200
:1029D600E4FFFE75B50143B440E5B430E5FB53B4FE
:0529E600DFAEB7AFB643
:0129EB0022C9
:1029EC00E4FFFE75B50343B440E5B430E5FB53B4E6
:0529FC00DFAEB7AFB62D
:012A010022B2
:0B16DB00900006EBF0A3EAF0A3E9F09A
:1016E60090000C1208BF00000000E4900010F0F01B
:1016F60090000CE0F8A3E0F9A3E0FAA3E0FB1229BE
:10170600D6E4FCFDEB2FFFEA3EFEED39FDEC38FC9E
:1017160090000C1208B3900010E004F0E0C39405AA
:1017260040CE90000CE0FCA3E0FDA3E0FEA3E0FFAA
:10173600E47B05FAF9F812080290000C1208B3E4EB
:101746007F887E13FDFC90000CE0F8A3E0F9A3E08F
:10175600FAA3E0FB120777E4FB7A10F9F812080205
:10176600900006E0FBA3E0FAA3E0F9EE8FF0120783
:101776005890000C1208BF00000000E4900010F022
:1017860090000CE0F8A3E0F9A3E0FAA3E0FB12292D
:10179600ECE4FCFDEB2FFFEA3EFEED39FDEC38FCF8
:1017A60090000C1208B3900010E004F0E0C394051A
:1017B60040CE90000CE0FCA3E0FDA3E0FEA3E0FF1A
:1017C600E47B05FAF9F812080290000C1208B3E45B
:1017D6007F887E13FDFC90000CE0F8A3E0F9A3E0FF
:1017E600FAA3E0FB120777E4FB7A10F9F812080275
:1017F600900009E0FBA3E0FAA3E0F9EE8FF0020700
:011806005889
:0D2A2E0075BD17EF75F02BA490FEA0F022EF
:042A780043BD102228
:0C2A470000000000000000000000000083
:041E610041009F009D
:1028A900E490009DF0A3F0900099F0A3F0A3F0A3A9
:1028B900F090009804F0900097F090009604F022B0
:100E130078067C007D017BFF7A2A79477E007F0C70
:100E23001206479000121208BF000000009000163F
:100E33001208BF0000000090009DE0FEA3E0FF90B9
:100E4300009BE0FCA3E0FDD39FEC9E500302123312
:100E5300ED9FFFEC9EFED3EF9464EE9400400302FB
:100E63001229E4FCFD9000061208B3E4900094F00C
:100E730090008BE0FCA3E0FDA3E0FEA3E0FFA31240
:100E830008B3900087E0FCA3E0FDA3E0FEA3E0FF2E
:100E9300A31208B3900006E0FCA3E0FDA3E0FEA3C9
:100EA300E0FF9000871208B390008BE0FCA3E0FD05
:100EB300A3E0FEA3E0FF900087E0F8A3E0F9A3E03E
:100EC300FAA3E0FBD31208A2403390008BE0F8A30F
:100ED300E0F9A3E0FAA3E0FB900087E0FCA3E0FDC8
:100EE300A3E0FEA3E09BFFEE9AFEED99FDEC98FCD8
:100EF3009000061208B3E4900093F08031900087CD
:100F0300E0F8A3E0F9A3E0FAA3E0FBA3E0FCA3E08D
:100F1300FDA3E0FEA3E0C39BFFEE9AFEED99FDEC7B
:100F230098FC9000061208B39000937401F0E47FDC
:100F330002FEFDFC90008BE0F8A3E0F9A3E0FAA326
:100F4300E0FB12077790000E1208B390008FE0FCCD
:100F5300A3E0FDA3E0FEA3E0FF900087E0F8A3E099
:100F6300F9A3E0FAA3E02FFFEA3EFEE93DFDE83CEA
:100F7300FC90000EE0F8A3E0F9A3E0FAA3E0FBC3C2
:100F83001208A2504B90008FE0FCA3E0FDA3E0FE0B
:100F9300A3E0FF900087E0F8A3E0F9A3E0FAA3E061
:100FA3002FFFEA3EFEE93DFDE83CFC90000EE0F831
:100FB300A3E0F9A3E0FAC3EF9BFFEE9AFEED99FDE0
:100FC300EC98FC90000E1208B3E4900095F0805D5D
:100FD30090000EE0FCA3E0FDA3E0FEA3E0FFC0044D
:100FE300C005C006C00790008FE0FCA3E0FDA3E0AE
:100FF300FEA3E0FF900087E0F8A3E0F9A3E0FAA3E3
:10100300E02FFBEA3EFAE93DF9E83CF8D007D006C9
:10101300D005D004C3EF9BFFEE9AFEED99FDEC984B
:10102300FC90000E1208B39000957401F0900096A6
:10103300E0FFE4FCFDFE900006E0F8A3E0F9A3E086
:10104300FAA3E0FB1207779000061208B39000970B
:10105300E0FFE4FCFDFE900087E0F8A3E0F9A3E0E5
:10106300FAA3E0FB12077790000A1208B3900098E6
:10107300E0FFE4FCFDFE90000EE0F8A3E0F9A3E03E
:10108300FAA3E0FB12077790000E1208B3900093C7
:10109300E0702D900012E0FCA3E0FDA3E0FEA3E0CE
:1010A300FF900006E0F8A3E0F9A3E0FAA3E0FBEF6A
:1010B3002BFFEE3AFEED39FDEC38FC900012802B4D
:1010C300900016E0FCA3E0FDA3E0FEA3E0FF900088
:1010D30006E0F8A3E0F9A3E0FAA3E0FBEF2BFFEEB1
:1010E3003AFEED39FDEC38FC9000161208B390007F
:1010F30094E0702E900012E0FCA3E0FDA3E0FEA3B9
:10110300E0FF900006E0F8A3E0F9A3E0FAA3E0FB18
:10111300EF2BFFEE3AFEED39FDEC38FC9000121296
:1011230008B3900095E0702B900012E0FCA3E0FD63
:10113300A3E0FEA3E0FF90000EE0F8A3E0F9A3E034
:10114300FAA3E0FBEF2BFFEE3AFEED39FDEC38FCA2
:10115300A3802B900016E0FCA3E0FDA3E0FEA3E038
:10116300FF90000EE0F8A3E0F9A3E0FAA3E0FBEFA1
:101173002BFFEE3AFEED39FDEC38FC900016120819
:10118300B3900012E0F8A3E0F9A3E0FAA3E0FB9028
:101193000099E0FEA3E0FFE4FCFDEB2FFFEA3EFE37
:1011A300ED39FDEC38FC9000121208B3900016E004
:1011B300FCA3E0FDA3E0FEA3E0FF900012E0F8A390
:1011C300E0F9A3E0FAA3E0FBD31208A24062900087
:1011D30016E0F8A3E0F9A3E0FAA3E0FB900012E025
:1011E300FCA3E0FDA3E0FEA3E09BFFEE9AFEED99D6
:1011F300FDEC98FC9000061208B3E47F64FEFDFC4E
:10120300900006E0F8A3E0F9A3E0FAA3E0FBC31221
:1012130008A25012900006A3A3E0FFA3E090009958
:10122300CFF0A3EFF022900099E4F0A37464F022CE
:07123300E4900099F0A3F024
:01123A002291
:100026000203B0E86480F8E933E83360110460F055
:10003600ED33EC337009E8FCE9FDEAFEEBFF220440
:1000460060DED3EB9FEA9EE99DE8C2E78CF0C2F73B
:1000560095F0400CE8CCF8E9CDF9EACEFAEBCFFB07
:1000660012037B85D0F05804700320D5B3E80470E2
:10007600075002B2D50203BA92D5EC0460F7E4CC7D
:10008600C0E0C398F8603B94186008400DD0E0FBD0
:10009600020392E4FBFAC9FC8028E830E406E4C9CE
:1000A600FBE4CAFCE830E305E4C9CACBFCE8540724
:1000B6006010F8C3E913F9EA13FAEB13FBEC13FC2F
:1000C600D8F130F52FC3E49CFCEF9BFFEE9AFEEDD2
:1000D60099FDD0E0FBEF4E4D4C701222DB0302037C
:1000E600B7EC2CFCEF33FFEE33FEED33FDED30E7DE
:1000F600EB020392EF2BFFEE3AFEED39FDD0E0FB6B
:1001060050130BBB00030203BAED13FDEE13FEEF13
:0801160013FFEC13FC0203923D
:10011E00EC4D6011E8497017ED33EC3304600DE4DB
:10012E00FCFFFEFD22E933E8330470F80203B0123F
:10013E00037B58046009E4CC248150062850090240
:10014E0003BA2840030203B7C0E0EB4A7044B980FB
:10015E0006D0E0FB0203A6EF4E701CBD8008EBFF3D
:10016E00EAFEE9FD80EBE98DF0A4FEE5F002020760
:10017E00E9CDF9EAFEEBFFEF89F0A4FCE5F0CE89BC
:10018E00F0A42EFFE435F0CD89F0A42DFEE435F079
:10019E008067EF4E7005BD80D780C3EF8BF0A4ACA7
:1001AE00F0EE8BF0A42CFCE435F0F8EF8AF0A42CE2
:1001BE00E5F038FCE433CB8DF0A42CFCE5F03BF8F5
:1001CE00EE8AF0A42CFCE5F038F8E433CF89F0A4E5
:1001DE002CFCE5F038CF3400CE89F0A42FFFE5F0EB
:1001EE003EFEE433C98DF0A42EFEE5F039CD8AF043
:1001FE00A42FFFE5F03EFEE43DFD33D0E0FB5007BB
:10020E000BBB000F0203BAEC2CFCEF33FFEE33FEF8
:06021E00ED33FD02039226
:100224000203BAEC5D046005E8590470030203B0EC
:1002340012037B580460F6EC4860F2EC7004FDFE97
:10024400FF22C860DB2481C85009C39860025006AD
:100254000203B79850CAF582E9294B4A7005AB826C
:100264000203A675F0007C1A7880C3EF9BEE9AED2A
:1002740099400DC3EF9BFFEE9AFEED99FDE842F025
:10028400DC23ACF0D0E0FFD0E0FED0E0FDAB822078
:10029400E7101BEB60BAEC2CFCEF33FFEE33FEED02
:1002A40033FD020392E803F830E705C0F075F0006F
:1002B400EF2FFFEE33FEED33FD40B830E7C280AAE6
:1002C40074F8CC6480CCC86480C8F58204604FC3E1
:1002D400EB9FF5F0EA9E42F0E99D42F0E89C45F080
:1002E400603C501DE5825FFFE582D313CB5BCBF40A
:1002F4002B5582FB50280ABA002409B90020088033
:100304001DE5825BFBE582D313CF5FCFF4C3132FCC
:100314005582FF50090EBE00050DBD00010CC3EB54
:100324009FF5F0EA9E42F0E99D42F0E89C45F060BA
:0903340007CC4820E701B3EC22DC
:10033D0075F020800E75F010800575F0087D007E3B
:10034D00007F003392D530D503120894EC33401062
:10035D00EF33FFEE33FEED33FDEC33FCD5F0ED2244
:0E036D00E5F0247EA2D513CC92E7CDCEFF2280
:10099000E50D2439F582E43400F583E0050D22905D
:1009A0000036301003900039E475F0011208F002AF
:1009B000066D2009E97F2ED2098018EF540F24908C
:1009C000D43440D4FF300D0BEF24BFB41A005003D1
:1009D0002461FFE50E6002150E0511E51170020598
:1009E0001030100E900036E475F0011208F0EF029E
:1009F00006B3022A687403D2108003E4C210F50D16
:100A0000900036120907E4F50EF510F511E50E60B9
:100A1000077F201209D380F5750FFFC20AC209C2F1
:100A20000BC20CC20EC20FC21112099FFF700D3013
:100A300010057F001209E4AF11AE1022B4255FC289
:100A4000D5C20D12099FFF24D0B40A00501A75F0C8
:100A50000A780E30D50508B6FF0106C6A426F62092
:100A6000D5047002D20C80D924CFB41A00EF500400
:100A7000C2E5D20D020CD6D20A80C6D20980C0D2FD
:100A80000B80BCD2D580BAD20E80B47F201209D39D
:100A9000200B077401B50E0040F1120990FF1209F6
:100AA000D3020A0DD211D20F8095120990FB1209C0
:100AB00090FA120990F94A4B700679D47A0D7BFFAF
:100AC000200B2EE50E602A7E008E827583001206B2
:100AD0008660060EEE650F70F0C2D5EBC0E0EAC08E
:100AE000E0E9C0E0EE120D37D0E0F9D0E0FAD0E056
:100AF000FB12066DFF60AAEBC0E0EAC0E0E9C0E0CF
:100B00001209D3D0E02401F9D0E03400FAD0E0FBA0
:100B1000E50F0460DCD50FD98087D20B80A2120DBF
:100B20001960F7E50F7001041203C5A90F600DE508
:100B30000F600914F50F120DC1EF60F3EA30E70200
:100B4000F404C3995079EAF4250F0430E701E40472
:100B5000F50F800D120D1960C1EA050F250F120364
:100B6000C5EA900065F030E701E4250F04D50F04D5
:100B7000200E0114120D37E4C0E0120DC190006583
:100B8000E0601320E70714F01209BB802204F0D0C4
:100B9000E014C0E07F001209BBE50F60071209B244
:100BA000150F800B300E031209B2D0E0020A0DD0EF
:100BB000E00480C4120D19609EE50F041203C59075
:100BC0000065EAF0E50F200E026001042404120D16
:010BD00037ED
:100BD10074FF04C0E0120DC11209BBE50F200E0223
:100BE10060031209B2D0E0B50FE87F451209C59044
:100BF1000065E07F2B30E7047F2DF404C0E012098B
:100C0100D3D0E075F00A84C0F01209BCD0E012091B
:100C1100BC020A0D791080027908C20FC211800846
:100C2100D2D5790A8004790AC2D5E50F047002F59C
:100C31000FE4FAFDFEFF120990FC7B08200A131253
:100C41000990FD7B1030090A120990FE120990FFEC
:100C51007B20EC3382D592D55013C3E43009069F33
:100C6100FFE49EFEE4200A039DFDE49CFCE4CBF836
:100C7100C20AEC700CCFCECDCCE824F8F870F3802A
:100C810017C3EF33FFEE33FEED33FDEC33FCEB33F3
:100C9100FB994002FB0FD8E9EB300A05F8D0E0C41C
:100CA10048B20AC0E00AEC4D4E4F78207B0070C27A
:100CB100EAB50F0040BCC0E0120D39D0F0D0E02001
:100CC1000A04C4C0E0C4B20AC0F01209BCD0F0D515
:100CD100F0EB020A0D1209100AAA530C15580A7BEF
:100CE1004C0A77420C194F0C21440C21490A9043BC
:100CF1000C27550B54460BB4450B1E470DF4500AF7
:100D01007F2D0A832E0AA62B0A87230AA4200DDD34
:100D11002A0A3F4800000A9EE50FB4FF03750F063B
:100D2100120990FC120990FD120990FE120990FF20
:100D310090005E020402790AA2D5200C14300E093B
:100D4100B910020404B9080104A2D5200F02500110
:100D510004200B68920BB50E005034C0E07F2030A8
:100D61000C197F30A20B720F720E500F120D90C230
:100D71000BC20FC20EC2117F30800F300E03E9C0CB
:100D8100E01209D3300E03D0E0F9D0E0B50ECC303B
:100D91000E177F30B9100C1209D37F58300D077F21
:100DA100788003B908031209D3300B057F2D02099E
:100DB100D37F202011F87F2B200FF322920B80CFBD
:100DC1007F00B40700500B245EF582E43400F58304
:100DD100E0FF22286E756C6C2900D20A120990304E
:100DE1000AF8C20A780E30D50108F6020A3F2D50E2
:100DF1004349581209902403B405004001E4900DC1
:100E0100EF931209C4743A1209C4D20C750E04028C
:020E11000C15BE
:10037B00E9D2E7C933E833F892D5EDD2E7CD33ECC8
:07038B0033FC5002B2D52241
:10039200EC30E7100FBF000C0EBE00080DBD0004CC
:1003A2000BEB6014A2D5EB13FCED92E7FD2274FF78
:1003B200FCFDFEFF22E480F8A2D574FF13FC7D80D1
:0303C200E480EFE5
:1003C500F920E73624F950037907E4F42402FBE524
:1003D50082158270021583DBF6E024FB501BE96071
:1003E50014E4F0E582158270021583E004F0B40A86
:0D03F50008E4F0D9EE7401F00A22C2D5220E
:10040200ED33EC3392D5FA602AB4FF33EDC2E77BC9
:10041200FF60067A047927E4227A04793020D50431
:100422007A04792B224E614E002B494E46002D490B
:100432004E4600E47A08F0A3DAFC7B00740722C07F
:1004420083C082ECC0E0EDC0E0EEC0E0EFC0E0EAC5
:1004520075F010A4CAABF075F04DA42BFBE435F097
:10046200FCEA2410FAEB34C5FBEC34D9FCEDC2E70C
:10047200FF75F056A4F42411C5F0F434C58FF0A42E
:100482002AE5F03BE43CF020E714120537D0E0FF08
:10049200D0E0FED0E0FDD0E0FC1202278014F4048C
:1004A200120537D0E0FFD0E0FED0E0FDD0E0FC1234
:1004B200011ED082D083E0FAEDD2E7CD33EC3324B3
:1004C20082FBE4C3CF33CFCE33CECD33CD33DBF398
:1004D2007B0775F00A846004F0A31B0AE5F0F0A321
:1004E2008FF0740AA4FFACF08EF0740AA42CFEAC58
:1004F200F050010C8DF0740AA42CFDE435F0F0A349
:05050200DBDE7407229E
:100507003F8000004120000042C80000447A0000FC
:10051700461C400047C35000497424004B1896807E
:100527004CBEBC205A0E1BCA6753C21C749DC5AE75
:10053700FB60065407601C2323120565EB543860E3
:100547000912055112056012011EECF8EDF9EEFAD9
:10055700EFCB22EB12056080F1543803241C900581
:1005670007FE93FC0EEE93FD0EEE930ECE93FF2245
:1021A400021FD4E493A3F8E493A34003F68001F25E
:1021B40008DFF48029E493A3F85407240CC8C3333C
:1021C400C4540F4420C8834004F456800146F6DF0B
:1021D400E4800B0102040810204080901DAFE47ECF
:1021E400019360BCA3FF543F30E509541FFEE49300
:1021F400A360010ECF54C025E060A840B8E493A3C7
:10220400FAE493A3F8E493A3C8C582C8CAC583CAF1
:10221400F0A3C8C582C8CAC583CADFE9DEE780BEA9
:011E6500007C
:10057700E709F608DFFA8046E709F208DFFA803E66
:1005870088828C83E709F0A3DFFA8032E309F60853
:10059700DFFA8078E309F208DFFA807088828C83BB
:1005A700E309F0A3DFFA806489828A83E0A3F6086F
:1005B700DFFA805889828A83E0A3F208DFFA804C49
:1005C70080D280FA80C680D4806980F28033801020
:1005D70080A680EA809A80A880DA80E280CA803389
:1005E70089828A83ECFAE493A3C8C582C8CCC58301
:1005F700CCF0A3C8C582C8CCC583CCDFE9DEE780D1
:100607000D89828A83E493A3F608DFF9ECFAA9F04F
:10061700EDFB2289828A83ECFAE0A3C8C582C8CCA5
:10062700C583CCF0A3C8C582C8CCC583CCDFEADEBE
:10063700E880DB89828A83E493A3F208DFF980CC20
:1006470088F0EF60010E4E60C388F0ED2402B40419
:100657000050B9F582EB2402B4040050AF232345C0
:0606670082239005C77319
:10066D00BB010689828A83E0225002E722BBFE028B
:09067D00E32289828A83E49322BE
:10068600BB010CE58229F582E5833AF583E0225029
:1006960006E92582F8E622BBFE06E92582F8E22273
:0D06A600E58229F582E5833AF583E493228D
:1006B300BB010689828A83F0225002F722BBFE0126
:0206C300F32220
:1006C500EF8DF0A4A8F0CF8CF0A428CE8DF0A42E49
:0206D500FE2203
:1006D700BC000BBE0029EF8DF084FFADF022E4CC07
:1006E700F875F008EF2FFFEE33FEEC33FCEE9DECD0
:1006F700984005FCEE9DFE0FD5F0E9E4CEFD22ED16
:10070700F8F5F0EE8420D21CFEADF075F008EF2F5F
:10071700FFED33FD4007985006D5F0F222C398FD50
:050727000FD5F0EA22ED
:10072C00C5F0F8A3E028F0C5F0F8E5821582700258
:06073C001583E038F022F5
:10074200A3F8E0C5F025F0F0E5821582700215836A
:06075200E0C838F0E822C7
:10075800BB010A89828A83F0E5F0A3F0225006F7EC
:0F07680009A7F01922BBFE06F3E5F009F31922E9
:10077700E88FF0A4CC8BF0A42CFCE98EF0A42CFC21
:100787008AF0EDA42CFCEA8EF0A4CDA8F08BF0A49F
:100797002DCC3825F0FDE98FF0A42CCD35F0FCEBFE
:1007A7008EF0A4FEA9F0EB8FF0A4CFC5F02ECD39C3
:0F07B700FEE43CFCEAA42DCE35F0FDE43CFC2230
:1007C60075F008758200EF2FFFEE33FECD33CDCCEA
:1007D60033CCC58233C5829BED9AEC99E58298406D
:1007E6000CF582EE9BFEED9AFDEC99FC0FD5F0D64A
:1007F600E4CEFBE4CDFAE4CCF9A88222B800C1B974
:100806000059BA002DEC8BF084CFCECDFCE5F0CBB1
:10081600F97818EF2FFFEE33FEED33FDEC33FCEBEA
:1008260033FB10D703994004EB99FB0FD8E5E4F9A5
:10083600FA227818EF2FFFEE33FEED33FDEC33FC92
:10084600C933C910D7059BE99A4007EC9BFCE99A86
:10085600F90FD8E0E4C9FAE4CCFB2275F010EF2FCB
:10086600FFEE33FEED33FDCC33CCC833C810D707CB
:100876009BEC9AE899400AED9BFDEC9AFCE899F806
:0E0886000FD5F0DAE4CDFBE4CCFAE4C8F92299
:0E089400C3E49FFFE49EFEE49DFDE49CFC2275
:1008A200EB9FF5F0EA9E42F0E99D42F0E89C45F0AC
:0108B2002223
:0C08B300ECF0A3EDF0A3EEF0A3EFF022B8
:1008BF00A8828583F0D083D0821208D61208D61270
:1008CF0008D61208D6E473E493A3C583C5F0C58395
:1008DF00C8C582C8F0A3C583C5F0C583C8C582C883
:0108EF0022E6
:1008F000F8E0FBA3A3E0F925F0F0E5821582700291
:070900001583E0FA38F02234
:09090700EBF0A3EAF0A3E9F022F1
:10091000D083D082F8E4937012740193700DA3A376
:1009200093F8740193F5828883E47374029368608A
:06093000EFA3A3A380DF8A
:10093600D083D082F8E4937012740193700DA3A350
:1009460093F8740193F5828883E473740293B5F087
:0D095600067403936860E9A3A3A3A380D8EF
:10096300EC8EF0A4CCC5F0CCCDF8EFA4CEC5F02D21
:10097300FDE43CFCE8A42EC8C5F03DFDE43CFCEFDF
:0D098300A4FFE5F028FEE43DFDE43CFC226D
:00000001FF
