:030000000221CB0F
:0C21CB00787FE4F6D8FD75812202221214
:10213D002564200D0A000D0A3D3D3D3D3D3D3D3DD3
:10214D003D3D3D3D3D3D3D3D3D3D3D3D3D3D3D3DB2
:10215D003D3D3D3D3D3D3D3D3D3D0D0A00736B75A6
:10216D003A4B2564200D0A00736F667420766572F4
:10217D0073696F6E3A2573200D0A00312E30302EA3
:10218D00303000676170202564200D0A0074696D80
:10219D006572202564200D0A003D3D3D3D3D3D3DD0
:1021AD003D3D3D3D3D3D3D3D3D3D3D3D3D3D3D3D52
:0E21BD003D3D3D3D3D3D3D3D3D3D3D0D0A005E
:101D22004200CB00004100CD004100CA004100C981
:011D320000B0
:102A3500758E5390FE917401F090FF027410F02290
:101B5200E4900000F09000CAE0700A12236B90003B
:101B620000EFF08005E4900000F0900000E06401D6
:101B720070479000C8E07041122A8FEF700D7F010C
:101B8200122A95122939E4FF0229C4E4FF122A9588
:101B92001222E19000CD7401F09000B5E0FF122313
:101BA200E99000B5E0FF1220AC9000B5E0FF121AF8
:101BB200559000B6E0FF022257122A8FEF6003020F
:101BC2001C43900000E06402704F9000B5E0C394A3
:101BD200095005E004F080069000B57401F0900011
:101BE200B5E0FFD394034016A3E0FE70059000B465
:101BF2008009EED3940340069000A37402F0900093
:101C0200CD7401F01223E99000B5E0FF1220AC90F0
:101C120000B5E0FF121A558025900000E0B40321C0
:101C22009000B6E0C394055005E004F08005E4900E
:101C320000B6F09000B6E0FF1222571222E11228FD
:011C4200524F
:011C4300227E
:081DDE00900006EEF0A3EFF007
:101DE600900086E06402706A9000C8E06401706248
:101DF600900006A3E0FFE4900086F09000B904F09E
:101E0600900067E0FED3940F4048EED39F400CE06D
:101E16009F9000B7F0A37401F08016900067E0FE73
:101E2600C3EF9EFF9000B7F0122A6E9000B87402BE
:101E3600F09000B7E0FFC394024006EFD39414403D
:101E460007E49000B7F0A3F01228527D027F021239
:101E560028FC9000B8E0FDB401149000B7E0FF7EC6
:101E660000900006EE8FF012072CAFF0FE22EDB4C4
:101E760002189000B7E0FFC3900007E09FFF9000B4
:101E860006E09400FEF0A3EFF022900006E0FEA329
:021E9600E0FF6B
:011E98002227
:10123B00900008ECF0A3EDF0900006EEF0FAA3EFAF
:02124B00F0FBB6
:10124D00E490000AF0A37432F0A3740AF0A312081C
:10125D00BF00000000C3EB9432EA940040169000EA
:10126D0008E0FEA3E0FF900006E0FCA3E0FDD39FA5
:10127D00EC9E4003021314E4120342E4FBFA797A64
:10128D007844120227C004C005C006C007900008AC
:10129D00E0FCA3E0FDE4120342E4FBFA797A784422
:1012AD00120227D003D002D001D000120029C004B1
:1012BD00C005C006C007900006E0FCA3E0FDE412E7
:1012CD000342E4FBFA797A7844120227E4FBFA79B7
:1012DD00FF7843120227A804A905AA06AB07D00779
:1012ED00D006D005D00412022790000D1208B3E4E9
:1012FD00FFFEFDFC90000DE0F8A3E0F9A3E0FAA3DA
:10130D00E0FB1202C450057E007FFF2290000DE02D
:10131D00FCA3E0FDA3E0FEA3E0FFE4FBFAF97841B6
:10132D0012022790000D1208B3E4FFFE7D927C425D
:10133D0090000DE0F8A3E0F9A3E0FAA3E0FB1202A0
:10134D00C45004E4FEFF2290000DE0FCA3E0FDA3D9
:10135D00E0FEA3E0FF7BF37A1F79B67842120227F5
:10136D0090000D1208B37FF37E1F7DB67C42900076
:10137D000DE0F8A3E0F9A3E0FAA3E0FB12011E7B58
:10138D00F37A1F79B678421202C4504C90000DE0EA
:10139D00FCA3E0FDA3E0FEA3E0FF7B497A9D7980ED
:1013AD00783F12022790000D1208B390000AE00456
:1013BD00F0E4FFFE7D807C3F90000DE0F8A3E0F9A6
:1013CD00A3E0FAA3E0FB1202C4600250BF90000A32
:1013DD00E0FFA3E02FF0804E90000DE0FCA3E0FDB8
:1013ED00A3E0FEA3E0FF7B6D7AC5797E783F120204
:1013FD002790000D1208B390000AE004F0E4FFFE00
:10140D007D807C3F90000DE0F8A3E0F9A3E0FAA306
:10141D00E0FB1202C440C190000BE0FF90000AE017
:0D142D00FEC3EF9EA3F090000BE0FF7E00D9
:01143A00228F
:10143B00E4900000F0A3F0A3F0A3F0A3F0A3F090CE
:10144B0000CCE004F070069000CBE004F0D39000E9
:10145B00CCE094109000CBE0942750030215A0E44D
:10146B00F0A3F07B0190000904F0A37400F0A374C7
:10147B0004F07A007902121823900002E0FEA3E038
:10148B00FFA3E0FCA3E0FD12123B900000EEF0A3E3
:10149B00EFF0121DDE900000EEF0A3EFF07BFF7A71
:1014AB0021793D900039EEF0A3EFF01209FBD390B8
:1014BB000003E09432900002E09400500302157F89
:1014CB00122A8FEF707A9000CDE0B40129E4F0D3AB
:1014DB00900001E09432900000E094009000A6741C
:1014EB00024009F09000AD740CF0800AF09000A758
:1014FB0014F09000ADF09000A7E0701C900000E09D
:10150B00FEA3E0FF7C007D0A1206C590009DEEF065
:10151B00A3EFF0120E1380169000A7E0B4010F900A
:10152B000000E0FCA3E0FD7F4D7E001226979000AB
:10153B00B6E0FF1222579000B5E0FF121A55802E2D
:10154B009000C8E0B40118E4FF1229C412293990A5
:10155B0000B5E0FF121A559000CF7401F0800FE434
:10156B00FF1229C47F0412298EE49000CFF0E4907F
:10157B0000CAF022E49000C8F09000CFF012293995
:10158B00E4FF1229C49000C974FFF0FF121A5590A2
:05159B0000CA7401F01C
:0115A0002228
:10200700122A351227DA1229A9D2AF12000E122985
:10201700F31216E47FC87E0012289A12282B7F201D
:102027007E031229DC7F02122A611228DCE4FF12E8
:1020370029C47BFF7A2179431209FB7BFF7A217937
:102047006A9000397423F0A37445F01209FB9000DD
:102057003974FFF0A37421F0A37488F07BFF7A2111
:1020670079751209FB7BFF7A2179909000B5E0FF23
:10207700900039E4F0A3EFF01209FB7BFF7A217996
:102087009A9000B6E0FF900039E4F0A3EFF0120950
:10209700FB7BFF7A2179A61209FB121B5212143B14
:0520A700122AAB80F5D8
:1020AC00EFB40A00400302213C9020BCF8282873AE
:1020BC000220DA0220E50220F00220FB02210602B7
:1020CC00211102211C02212702212702213290001A
:1020DC009B7401F0A3742CF02290009B7401F0A36C
:1020EC0074AEF02290009B7401F0A374D6F0229091
:1020FC00009B7401F0A374F4F02290009B7402F026
:10210C00A3741CF02290009B7402F0A37458F0226C
:10211C0090009B7402F0A3748AF02290009B7402CE
:10212C00F0A374BCF02290009B7402F0A374EEF048
:01213C002280
:1028BC009000A2E0B401189000B5E0D39403400F4F
:1028CC007403F0FF121A55122852E49000A2F02261
:10194F000D0A3D3D3D3D3D3D3D3D3D3D3D3D3D3D1B
:10195F003D3D3D3D3D3D3D3D3D3D3D3D3D3D3D3DA8
:10196F003D3D3D3D3D3D3D3D3D3D0D0A00706F7799
:10197F006572206F6E20666C617368206761703AC4
:10198F002564202074696D65723A2564200D0A0064
:10199F00706F776572206F6E20666C61736820764A
:1019AF00616C75653A256420207369676E3A25640A
:1019BF00200D0A003D3D3D3D3D3D3D3D3D3D3D3D05
:1019CF003D3D3D3D3D3D3D3D3D3D3D3D3D3D3D3D38
:1019DF003D3D3D3D3D3D3D3D3D3D3D3D0D0A003DC8
:1019EF003D3D3D3D3D3D3D3D3D3D3D3D6669727358
:1019FF007420696E697420646174613D3D3D3D3DA5
:101A0F003D3D3D3D3D3D200D0A0030782530345899
:101A1F002020307825303458202030782530345825
:101A2F002020307825303458200D0A00666C617301
:101A3F0068206761703A2564202074696D65723A79
:061A4F002564200D0A00D1
:101D33004500B500000000004400BA202005014121
:031D430000BE01DE
:062A8F009000BEE0FF22F2
:062A95009000BEEFF022EC
:10287800D310AF01C3C0D075FDF075FC0F8EFA8F71
:10288800F975FDD275FC2D75FDE175FC1ED0D09251
:02289800AF226D
:10280300D310AF01C3C0D08FFB75FDF075FC0FAEC5
:1028130004AF058EFA8FF975FDB475FC4B75FDE1B8
:0828230075FC1ED0D092AF221B
:0C245E007B017A0079B57D057F047E3C8F
:10246A00D310AF01C3C0D0900008EEF0A3EFF0A3E1
:0B247A00EDF0A3EBF0A3EAF0A3E9F003
:10248500E4A3F0C2AFF090000AE0FF90000EE0C3B5
:102495009F502C90000BE0FBA3E475F0011207425E
:1024A500A9F0FA12066DFF900008E475F001120715
:1024B50042ADF0FC12280390000EE004F080C7D274
:0124C500AF67
:0524C600D0D092AF220E
:040003008F828E83D7
:03000700E493FF80
:01000A0022D3
:1025D900900008EEF0A3EFF0A3EBF0A3EAF0A3E973
:1025E900F0AF051DEF6028900008E475F0011207AF
:1025F9004285F082F583E493FF90000AE0FBA3E4AF
:1026090075F001120742A9F0FAEF1206B380D2223F
:10274E00E4FDFCED2400FFE4343CFE12000374BAF9
:10275E002DF582E43400F583E0B507030C80037F8A
:10276E0000220DEDB404DCECC3940440037F01227F
:02277E007F00DA
:012780002236
:1016E400E4900000F090FE927404F012274EEF7024
:1016F4000790000004F0807C7BFF7A19794F12096F
:10170400FB7B017A0079B57D057F047E3C1225D9E7
:101714007BFF7A19797C9000B5E0FF900039E4F002
:10172400A3EFF09000B6E0FF90003BE4F0A3EFF0ED
:101734001209FB7BFF7A19799F9000B7E0FF9000B4
:1017440039E4F0A3EFF09000B8E0FF90003BE4F040
:10175400A3EFF01209FB7BFF7A1979C31209FB90FE
:1017640000B5E0D394095006A3E094054006900028
:10177400007401F0900000E0640160030218007B33
:10178400FF7A1979EE1209FB9000B57401F0A37485
:1017940003F07F007E3C1228787B017A0079BA7DC1
:1017A4000412246A12245E7B017A0079BA7D047FD4
:1017B400007E3C1225D97BFF7A1A79199000BAE091
:1017C400FF900039E4F0A3EFF09000BBE0FF90003D
:1017D4003BE4F0A3EFF09000BCE0FF90003DE4F0A8
:1017E400A3EFF09000BDE0FF90003FE4F0A3EFF022
:1017F4001209FB7BFF7A1979C31209FB7BFF7A1A62
:10180400793B9000B5E0FF900039E4F0A3EFF0904D
:0F18140000B6E0FF90003BE4F0A3EFF00209FB09
:102852007F047E3C1228787B017A0079BA7D047F5E
:102862000012246A12245E7B017A0079B57D057F0D
:06287200047E3C0225D9A2
:0E2A4500EF1F70011E144E6004000080F3228B
:1029DC007DA07C01ED1D70011C144C70F7EF1F7075
:0629EC00011E144E70EA0A
:0129F20022C2
:032AAF00022A45B3
:1029730090FF0974C1F090FF08F090FF07F090FFFB
:0B29830006F0D291D290D287D28622BB
:08261900900039EFF0A3EDF091
:10262100E4A3F0F090003AE0FFA3E0C39F5027C27B
:1026310087900039E020E704C2868002D286D287E3
:102641007F057E00122AAF900039E025E0F090006E
:062651003BE004F080CE26
:012657002260
:08265800900039EFF0A3EDF052
:10266000E4A3F0F090003AE0FFA3E0C39F5027C23C
:1026700087900039E020E004C2868002D286D287AB
:102680007F057E00122AAF900039E0C313F090005E
:062690003BE004F080CEE7
:012696002221
:10298E00900007EFF0C2917D047F8012261990000F
:0B299E0007E0FF7D08122619D29122ED
:1027AE00900037EFF0A3EDF0C2917D037FA01226CB
:1027BE0019900037E025E025E0FF7D0612261990DE
:0C27CE000038E0FF7D04122658D2912252
:092A8600D291D290D287D28622AF
:081D46004100CE004100CF0076
:052AA1007F0602298EF2
:052AA6007F0402298EEF
:10291B00E4900000F0F0900000E0FFC39420500D15
:0D292B007D0F1227AE900000E004F080E95F
:01293800227C
:10293900E4900036F0F0900036E0FFC39420500D8B
:0D294900E4FD1227AE900036E004F080E9B6
:01295600225E
:10282B001229737F5212298E7F3012298E7F0A1242
:10283B00298E7F0812298E7F0212298E7F0612297C
:07284B008E12293902291B3E
:0E2A5300E4FD7F1C1227AEE4FD7F1F0227AEBC
:10225700900006EFF07F0612298EE4FD7F1F1227FC
:10226700AEE4FD7F1C1227AE900006E014601B143D
:10227700602314602B14603A1460492405705A7D5A
:102287000A7F1B1227AE7D0E80317D0B7F1B122725
:10229700AE7D0A80267D0E7F1B1227AE7D0A801B2E
:1022A7007D0A7F1B1227AE7D0A7F1C1227AE7D0B8E
:1022B70080227D0A7F1B1227AE7D0B7F1C1227AE63
:1022C7007D0A80107D0A7F1B1227AE7D0A7F1C12B4
:0A22D70027AE7D0E7F1F1227AE22F6
:101A5500900006EFF07F0612298EE4FD7F1D122708
:101A6500AEE4FD7F1E1227AE9000CFE06401700E3C
:101A75009000CEE070057D06021B2C021B3F9000F6
:101A850006E0B401047D068063900006E0B4020B15
:101A95007D0B7F1D1227AE7D0C8065900006E0B49E
:101AA500030B7D0F7F1D1227AE7D0480539000062A
:101AB500E0B4040B7D067F1D1227AE7D06804190A4
:101AC5000006E0B4050B7D0D7F1D1227AE7D068057
:101AD5002F900006E0B4060B7D0D7F1D1227AE7D0D
:101AE5000E801D900006E0B407067D077F1D805916
:101AF500900006E0B4080D7D0F7F1D1227AE7D0E08
:101B05007F1E8045900006E0B4090D7D0F7F1D12F4
:101B150027AE7D067F1E8031900006E0F4702D9083
:101B250000CEE070157D017F1D1227AE7D0E7F1E54
:101B35001227AE9000CE7401F022E49000CEF0FDA5
:0D1B45007F1C1227AEE4FD7F1F1227AE2289
:101D4E005E006800000000000000000000000000BF
:101D5E000000000000000000000000000000000075
:091D6E00004100860041006700FD
:1027DA0090FF0E74C1F090FF0F7461F090FFA07427
:1027EA0016F090FFA104F075CEFF75CDE675CC0604
:0927FA00759E02759810D2AC2204
:0C2A6E00C2AC8F993099FDC299D2AC2205
:032AB200022A6E87
:0B27810090000DEBF0A3EAF0A3E9F0DC
:10278C00E4FEEEC39D501A90000DE0FBA3E0FAA30B
:10279C00E0F98E82758300120686FF122AB20E8033
:0127AC00E14B
:0127AD002209
:1028FC009000087455F0A3EFF0A3EDF0A3740DF065
:0F290C00A3740AF07B017A0079087D0502278108
:062A9B00AE07122A6E22B4
:0300230002258C27
:0D258C00C0E0C083C082C0D075D000C00781
:10259900E59830E030AF995398FE900086E01460DA
:1025A90019047021EFB4551D900068F0900066E0A1
:1025B90004F09000867401F0800B900067EFF090B2
:0525C90000867402F021
:0B25CE00D007D0D0D082D083D0E03204
:101D77004100C8004100BF004200C000004100C24E
:0F1D8700004200C300004100C5014200C6000039
:10000E0090FF1D7461F090FF15F090FF16F090FFB9
:03001E0002F022CB
:101E9900E4900002F0A2A533900001F09000BFE0A9
:101EA90014602614604E147003021F3C240360035F
:101EB900021F45900001E06003021F4A9000C0F034
:101EC900A3F09000BF04F08078900001E0706B905F
:101ED90000C1E004F070069000C0E004F0C3900077
:101EE900C1E094039000C0E09400403E9000BF74AC
:101EF90002F08036900001E0B40106A37404F0807A
:101F09003B9000C1E004F070069000C0E004F0C30B
:101F19009000C1E094789000C0E09400400C9000DB
:101F2900027405F09000BF7403F07F0A7E00122945
:101F3900DC800E900001E0B401078000E49000BF4E
:061F4900F0900002E0FF31
:011F4F00226F
:101F5000E4900002F0A2A633900001F09000C2E0ED
:101F600014602614604E147003021FF324036003F0
:101F7000021FFC900001E060030220019000C3F00A
:101F8000A3F09000C204F08078900001E0706B90A4
:101F900000C4E004F070069000C3E004F0C39000B9
:101FA000C4E094039000C3E09400403E9000C274EB
:101FB00002F08036900001E0B40106A37404F080C2
:101FC0003B9000C4E004F070069000C3E004F0C34E
:101FD0009000C4E094F09000C3E09400400C9000A6
:101FE000027406F09000C27403F07F0A7E0012298A
:101FF000DC800E900001E0B401078000E49000C294
:06200000F0900002E0FF79
:0120060022B7
:10236B00121E99BF05037F0122121F50BF062112B7
:10237B002A8FBF01149000B9E0700E9000C804F0D2
:10238B009000B9F0122852803CE49000C8F08035E0
:10239B009000C5E0602330A60320B51D9000C8E077
:1023AB0070177F32FE1229DCE49000C5F020A603E3
:1023BB007F032220B50F7F022230A60930B506908D
:1023CB0000C57401F030A513D39000C7E0940190C1
:0D23DB0000C6E094004004E4F0A3F07F0091
:0123E80022D2
:101C44007365742074696D65207365636F6E643A9F
:101C540025640D0A0065786368616E67655F686571
:101C640061745F76616C7565200D0A0074696D6539
:101C7400207365636F6E643A2564200D0A007072E8
:101C84006F74656374200D0A0074696D65206F6656
:101C940066200D0A0074696D655F746F5F302E35C0
:101CA40048202074696D655F7365633D2564200D6C
:101CB4000A0074696D655F746F5F31482020746930
:101CC4006D655F7365633D2564200D0A0074696D5D
:101CD400655F746F5F3248202074696D655F73655A
:101CE400633D2564200D0A0074696D655F746F5F40
:101CF4003448202074696D655F7365633D256420F5
:101D04000D0A0074696D655F746F5F384820207434
:0E1D1400696D655F7365633D2564200D0A00EF
:101D96004100AC004200AA00004200B00000410031
:101DA600A2004100A3004100B4004100AD00410083
:101DB600A6004200A400004200A800004200A000C5
:0F1DC600004100A7004200B200004200AE000042
:10269700900006EEF0A3EFF0A3ECF0A3EDF0D39FCC
:1026A700EC9E4004E4FF80229000ADE0FFC3900061
:1026B70007E09FFF900006E09400FEC3900009E04A
:0E26C7009F900008E09E50057F0A1229C42251
:1026D5009000A7E070369000AFE004F0700690001F
:1026E500AEE004F0C39000AFE09F9000AEE09E50D6
:1026F500047F0A8002E4FF1229C49000AEE0700452
:0D270500A3E0646470069000AEF0A3F02223
:102957009000AAEEF0A3EFF0E4A3F07BFF7A1C79D6
:0C29670044900039EEF0A3EFF00209FBF1
:1023E900EFB40A00506E9023F6F8282873022414DB
:1023F90002241E02242002242202242C0224360252
:10240900244002244A0224540224549000A0E4F0F7
:10241900A3741EF022800280009000A0E4F0A3744F
:102429003CF0229000A0E4F0A3745AF0229000A09E
:10243900E4F0A37478F0229000A0E4F0A37496F07D
:10244900229000A0E4F0A374B4F0229000A0E4F07C
:05245900A374F0F02265
:102535009000B5E0B40A00504D902545F828287361
:1025450002256302256502256C02256E02257502AA
:10255500257702257E0225850225850225858000B1
:102565009000AD7401F02280009000AD7403F0225C
:1025750080009000AD7405F0229000AD7408F02243
:072585009000AD740CF02280
:102712009000A6E0B402349000A4E475F001120720
:102722002CFEC39000A1E095F09000A0E09E501B0B
:102732007BFF7A1C79591209FBE49000A6F0900005
:0C274200A4F0A3F09000A7F012253522AF
:1022E100E49000ACF09000B6E0FF70089000AAF016
:1022F100A3F08052EFB4010C9000AA7407F0A3047C
:10230100F0E48042EFB4020D9000AA740EF0A374C1
:1023110010F0E48031EFB4030D9000AA741CF0A317
:102321007420F0E48020EFB4040D9000AA7438F01A
:10233100A37440F0E4800FEFB405179000AA747005
:10234100F0A37480F0E49000B0F0A3F09000A8F046
:10235100A3F07BFF7A1C79709000AAE0FFA3E090C4
:0A2361000039CFF0A3EFF00209FBF2
:1029F300E490FE80F0F589758CF2758AFBC28DD266
:062A0300A9D28CD2AF2223
:03000B000215A13A
:1015A100C0E0C0F0C083C082C0D075D000C000C010
:1015B10001C002C003C004C005C006C007122A8FC3
:1015C100EF60030216A29000ACE004F0E0C3946463
:1015D10050030216951227129000B4E0B4022D9028
:1015E10000B1E004F070069000B0E004F0D3900088
:1015F100B1E094209000B0E0941C40109000B4E45D
:10160100F09000B0F0A3F09000A204F0D39000ABF2
:10161100E094009000AAE094004048A3E024FFF089
:101621009000AAE034FFF09000A3E06402706090A3
:1016310000B1E004F070069000B0E004F0D3900037
:10164100B1E094209000B0E0941C40439000A2745B
:1016510001F0A3E4F09000B0F0A3F07BFF7A1C79D5
:101661008280299000B6E060267F01122A959000C1
:10167100AAE4F0A3F09000B0F0A3F09000A3F090E2
:1016810000B4F01229397BFF7A1C798D1209FB9085
:1016910000ACE4F0900099E0FEA3E0FF1226D580B3
:1016A100279000C8E0B401209000B2E475F0011267
:1016B100072CFED3E5F094E0EE942E400B9000C889
:1016C100E4F09000B2F0A3F0D007D006D005D0042A
:1016D100D003D002D001D000D0D0D082D083D0F0BE
:0316E100D0E03224
:1024CB009000A8E475F00112072CFEE5F08EF012D7
:1024DB00093624F5070824FD0E1025051C20250DB3
:1024EB00384025157080000025347BFF7A1C7999C4
:1024FB00801E7BFF7A1C79B680167BFF7A1C79D104
:10250B00800E7BFF7A1C79EC80067BFF7A1D7907A6
:10251B009000AAE0FFA3E0900039CFF0A3EFF012F8
:0A252B0009FBE49000A8F0A3F022E1
:041DD5004100D000F9
:1029C4007E009000D0E0FD7C00120963E47B64FA91
:0729D400F9F81208028FDF81
:0129DB0022D9
:10289A0090FF0074C1F0E490FF9CF0AC06AD077E97
:1028AA007A7F121206D7EF149000D0F0F5DE75DDAC
:0228BA00972263
:1029A90090FF017401F090FF03F075B4807F147EED
:0B29B90000122A4590FE9B7449F0229A
:102A0900E4FFFE75B50143B440E5B430E5FB53B4CA
:052A1900DFAEB7AFB60F
:012A1E002295
:102A1F00E4FFFE75B50343B440E5B430E5FB53B4B2
:052A2F00DFAEB7AFB6F9
:012A3400227F
:0B182300900006EBF0A3EAF0A3E9F050
:10182E0090000C1208BF00000000E4900010F0F0D1
:10183E0090000CE0F8A3E0F9A3E0FAA3E0FB122A73
:10184E0009E4FCFDEB2FFFEA3EFEED39FDEC38FC22
:10185E0090000C1208B3900010E004F0E0C3940561
:10186E0040CE90000CE0FCA3E0FDA3E0FEA3E0FF61
:10187E00E47B05FAF9F812080290000C1208B3E4A2
:10188E007F887E13FDFC90000CE0F8A3E0F9A3E046
:10189E00FAA3E0FB120777E4FB7A10F9F8120802BC
:1018AE00900006E0FBA3E0FAA3E0F9EE8FF012073A
:1018BE005890000C1208BF00000000E4900010F0D9
:1018CE0090000CE0F8A3E0F9A3E0FAA3E0FB122AE3
:1018DE001FE4FCFDEB2FFFEA3EFEED39FDEC38FC7C
:1018EE0090000C1208B3900010E004F0E0C39405D1
:1018FE0040CE90000CE0FCA3E0FDA3E0FEA3E0FFD1
:10190E00E47B05FAF9F812080290000C1208B3E411
:10191E007F887E13FDFC90000CE0F8A3E0F9A3E0B5
:10192E00FAA3E0FB120777E4FB7A10F9F81208022B
:10193E00900009E0FBA3E0FAA3E0F9EE8FF00207B6
:01194E005840
:0D2A610075BD17EF75F02BA490FEA0F022BC
:042AAB0043BD1022F5
:0C2A7A0000000000000000000000000050
:041DD90041009F0026
:1028DC00E490009DF0A3F0900099F0A3F0A3F0A376
:1028EC00F090009804F0900097F090009604F0227D
:100E130078067C007D017BFF7A2A797A7E007F0C3D
:100E23001206479000121208BF000000009000163F
:100E33001208BF0000000090009DE0FEA3E0FF90B9
:100E4300009BE0FCA3E0FDD39FEC9E500302123312
:100E5300ED9FFFEC9EFED3EF9464EE9400400302FB
:100E63001229E4FCFD9000061208B3E4900094F00C
:100E730090008BE0FCA3E0FDA3E0FEA3E0FFA31240
:100E830008B3900087E0FCA3E0FDA3E0FEA3E0FF2E
:100E9300A31208B3900006E0FCA3E0FDA3E0FEA3C9
:100EA300E0FF9000871208B390008BE0FCA3E0FD05
:100EB300A3E0FEA3E0FF900087E0F8A3E0F9A3E03E
:100EC300FAA3E0FBD31208A2403390008BE0F8A30F
:100ED300E0F9A3E0FAA3E0FB900087E0FCA3E0FDC8
:100EE300A3E0FEA3E09BFFEE9AFEED99FDEC98FCD8
:100EF3009000061208B3E4900093F08031900087CD
:100F0300E0F8A3E0F9A3E0FAA3E0FBA3E0FCA3E08D
:100F1300FDA3E0FEA3E0C39BFFEE9AFEED99FDEC7B
:100F230098FC9000061208B39000937401F0E47FDC
:100F330002FEFDFC90008BE0F8A3E0F9A3E0FAA326
:100F4300E0FB12077790000E1208B390008FE0FCCD
:100F5300A3E0FDA3E0FEA3E0FF900087E0F8A3E099
:100F6300F9A3E0FAA3E02FFFEA3EFEE93DFDE83CEA
:100F7300FC90000EE0F8A3E0F9A3E0FAA3E0FBC3C2
:100F83001208A2504B90008FE0FCA3E0FDA3E0FE0B
:100F9300A3E0FF900087E0F8A3E0F9A3E0FAA3E061
:100FA3002FFFEA3EFEE93DFDE83CFC90000EE0F831
:100FB300A3E0F9A3E0FAC3EF9BFFEE9AFEED99FDE0
:100FC300EC98FC90000E1208B3E4900095F0805D5D
:100FD30090000EE0FCA3E0FDA3E0FEA3E0FFC0044D
:100FE300C005C006C00790008FE0FCA3E0FDA3E0AE
:100FF300FEA3E0FF900087E0F8A3E0F9A3E0FAA3E3
:10100300E02FFBEA3EFAE93DF9E83CF8D007D006C9
:10101300D005D004C3EF9BFFEE9AFEED99FDEC984B
:10102300FC90000E1208B39000957401F0900096A6
:10103300E0FFE4FCFDFE900006E0F8A3E0F9A3E086
:10104300FAA3E0FB1207779000061208B39000970B
:10105300E0FFE4FCFDFE900087E0F8A3E0F9A3E0E5
:10106300FAA3E0FB12077790000A1208B3900098E6
:10107300E0FFE4FCFDFE90000EE0F8A3E0F9A3E03E
:10108300FAA3E0FB12077790000E1208B3900093C7
:10109300E0702D900012E0FCA3E0FDA3E0FEA3E0CE
:1010A300FF900006E0F8A3E0F9A3E0FAA3E0FBEF6A
:1010B3002BFFEE3AFEED39FDEC38FC900012802B4D
:1010C300900016E0FCA3E0FDA3E0FEA3E0FF900088
:1010D30006E0F8A3E0F9A3E0FAA3E0FBEF2BFFEEB1
:1010E3003AFEED39FDEC38FC9000161208B390007F
:1010F30094E0702E900012E0FCA3E0FDA3E0FEA3B9
:10110300E0FF900006E0F8A3E0F9A3E0FAA3E0FB18
:10111300EF2BFFEE3AFEED39FDEC38FC9000121296
:1011230008B3900095E0702B900012E0FCA3E0FD63
:10113300A3E0FEA3E0FF90000EE0F8A3E0F9A3E034
:10114300FAA3E0FBEF2BFFEE3AFEED39FDEC38FCA2
:10115300A3802B900016E0FCA3E0FDA3E0FEA3E038
:10116300FF90000EE0F8A3E0F9A3E0FAA3E0FBEFA1
:101173002BFFEE3AFEED39FDEC38FC900016120819
:10118300B3900012E0F8A3E0F9A3E0FAA3E0FB9028
:101193000099E0FEA3E0FFE4FCFDEB2FFFEA3EFE37
:1011A300ED39FDEC38FC9000121208B3900016E004
:1011B300FCA3E0FDA3E0FEA3E0FF900012E0F8A390
:1011C300E0F9A3E0FAA3E0FBD31208A24062900087
:1011D30016E0F8A3E0F9A3E0FAA3E0FB900012E025
:1011E300FCA3E0FDA3E0FEA3E09BFFEE9AFEED99D6
:1011F300FDEC98FC9000061208B3E47F64FEFDFC4E
:10120300900006E0F8A3E0F9A3E0FAA3E0FBC31221
:1012130008A25012900006A3A3E0FFA3E090009958
:10122300CFF0A3EFF022900099E4F0A37464F022CE
:07123300E4900099F0A3F024
:01123A002291
:100026000203B0E86480F8E933E83360110460F055
:10003600ED33EC337009E8FCE9FDEAFEEBFF220440
:1000460060DED3EB9FEA9EE99DE8C2E78CF0C2F73B
:1000560095F0400CE8CCF8E9CDF9EACEFAEBCFFB07
:1000660012037B85D0F05804700320D5B3E80470E2
:10007600075002B2D50203BA92D5EC0460F7E4CC7D
:10008600C0E0C398F8603B94186008400DD0E0FBD0
:10009600020392E4FBFAC9FC8028E830E406E4C9CE
:1000A600FBE4CAFCE830E305E4C9CACBFCE8540724
:1000B6006010F8C3E913F9EA13FAEB13FBEC13FC2F
:1000C600D8F130F52FC3E49CFCEF9BFFEE9AFEEDD2
:1000D60099FDD0E0FBEF4E4D4C701222DB0302037C
:1000E600B7EC2CFCEF33FFEE33FEED33FDED30E7DE
:1000F600EB020392EF2BFFEE3AFEED39FDD0E0FB6B
:1001060050130BBB00030203BAED13FDEE13FEEF13
:0801160013FFEC13FC0203923D
:10011E00EC4D6011E8497017ED33EC3304600DE4DB
:10012E00FCFFFEFD22E933E8330470F80203B0123F
:10013E00037B58046009E4CC248150062850090240
:10014E0003BA2840030203B7C0E0EB4A7044B980FB
:10015E0006D0E0FB0203A6EF4E701CBD8008EBFF3D
:10016E00EAFEE9FD80EBE98DF0A4FEE5F002020760
:10017E00E9CDF9EAFEEBFFEF89F0A4FCE5F0CE89BC
:10018E00F0A42EFFE435F0CD89F0A42DFEE435F079
:10019E008067EF4E7005BD80D780C3EF8BF0A4ACA7
:1001AE00F0EE8BF0A42CFCE435F0F8EF8AF0A42CE2
:1001BE00E5F038FCE433CB8DF0A42CFCE5F03BF8F5
:1001CE00EE8AF0A42CFCE5F038F8E433CF89F0A4E5
:1001DE002CFCE5F038CF3400CE89F0A42FFFE5F0EB
:1001EE003EFEE433C98DF0A42EFEE5F039CD8AF043
:1001FE00A42FFFE5F03EFEE43DFD33D0E0FB5007BB
:10020E000BBB000F0203BAEC2CFCEF33FFEE33FEF8
:06021E00ED33FD02039226
:100224000203BAEC5D046005E8590470030203B0EC
:1002340012037B580460F6EC4860F2EC7004FDFE97
:10024400FF22C860DB2481C85009C39860025006AD
:100254000203B79850CAF582E9294B4A7005AB826C
:100264000203A675F0007C1A7880C3EF9BEE9AED2A
:1002740099400DC3EF9BFFEE9AFEED99FDE842F025
:10028400DC23ACF0D0E0FFD0E0FED0E0FDAB822078
:10029400E7101BEB60BAEC2CFCEF33FFEE33FEED02
:1002A40033FD020392E803F830E705C0F075F0006F
:1002B400EF2FFFEE33FEED33FD40B830E7C280AAE6
:1002C40074F8CC6480CCC86480C8F58204604FC3E1
:1002D400EB9FF5F0EA9E42F0E99D42F0E89C45F080
:1002E400603C501DE5825FFFE582D313CB5BCBF40A
:1002F4002B5582FB50280ABA002409B90020088033
:100304001DE5825BFBE582D313CF5FCFF4C3132FCC
:100314005582FF50090EBE00050DBD00010CC3EB54
:100324009FF5F0EA9E42F0E99D42F0E89C45F060BA
:0903340007CC4820E701B3EC22DC
:10033D0075F020800E75F010800575F0087D007E3B
:10034D00007F003392D530D503120894EC33401062
:10035D00EF33FFEE33FEED33FDEC33FCD5F0ED2244
:0E036D00E5F0247EA2D513CC92E7CDCEFF2280
:10099000E50D2439F582E43400F583E0050D22905D
:1009A0000036301003900039E475F0011208F002AF
:1009B000066D2009E97F2ED2098018EF540F24908C
:1009C000D43440D4FF300D0BEF24BFB41A005003D1
:1009D0002461FFE50E6002150E0511E51170020598
:1009E0001030100E900036E475F0011208F0EF029E
:1009F00006B3022A9B7403D2108003E4C210F50DE3
:100A0000900036120907E4F50EF510F511E50E60B9
:100A1000077F201209D380F5750FFFC20AC209C2F1
:100A20000BC20CC20EC20FC21112099FFF700D3013
:100A300010057F001209E4AF11AE1022B4255FC289
:100A4000D5C20D12099FFF24D0B40A00501A75F0C8
:100A50000A780E30D50508B6FF0106C6A426F62092
:100A6000D5047002D20C80D924CFB41A00EF500400
:100A7000C2E5D20D020CD6D20A80C6D20980C0D2FD
:100A80000B80BCD2D580BAD20E80B47F201209D39D
:100A9000200B077401B50E0040F1120990FF1209F6
:100AA000D3020A0DD211D20F8095120990FB1209C0
:100AB00090FA120990F94A4B700679D47A0D7BFFAF
:100AC000200B2EE50E602A7E008E827583001206B2
:100AD0008660060EEE650F70F0C2D5EBC0E0EAC08E
:100AE000E0E9C0E0EE120D37D0E0F9D0E0FAD0E056
:100AF000FB12066DFF60AAEBC0E0EAC0E0E9C0E0CF
:100B00001209D3D0E02401F9D0E03400FAD0E0FBA0
:100B1000E50F0460DCD50FD98087D20B80A2120DBF
:100B20001960F7E50F7001041203C5A90F600DE508
:100B30000F600914F50F120DC1EF60F3EA30E70200
:100B4000F404C3995079EAF4250F0430E701E40472
:100B5000F50F800D120D1960C1EA050F250F120364
:100B6000C5EA900065F030E701E4250F04D50F04D5
:100B7000200E0114120D37E4C0E0120DC190006583
:100B8000E0601320E70714F01209BB802204F0D0C4
:100B9000E014C0E07F001209BBE50F60071209B244
:100BA000150F800B300E031209B2D0E0020A0DD0EF
:100BB000E00480C4120D19609EE50F041203C59075
:100BC0000065EAF0E50F200E026001042404120D16
:010BD00037ED
:100BD10074FF04C0E0120DC11209BBE50F200E0223
:100BE10060031209B2D0E0B50FE87F451209C59044
:100BF1000065E07F2B30E7047F2DF404C0E012098B
:100C0100D3D0E075F00A84C0F01209BCD0E012091B
:100C1100BC020A0D791080027908C20FC211800846
:100C2100D2D5790A8004790AC2D5E50F047002F59C
:100C31000FE4FAFDFEFF120990FC7B08200A131253
:100C41000990FD7B1030090A120990FE120990FFEC
:100C51007B20EC3382D592D55013C3E43009069F33
:100C6100FFE49EFEE4200A039DFDE49CFCE4CBF836
:100C7100C20AEC700CCFCECDCCE824F8F870F3802A
:100C810017C3EF33FFEE33FEED33FDEC33FCEB33F3
:100C9100FB994002FB0FD8E9EB300A05F8D0E0C41C
:100CA10048B20AC0E00AEC4D4E4F78207B0070C27A
:100CB100EAB50F0040BCC0E0120D39D0F0D0E02001
:100CC1000A04C4C0E0C4B20AC0F01209BCD0F0D515
:100CD100F0EB020A0D1209100AAA530C15580A7BEF
:100CE1004C0A77420C194F0C21440C21490A9043BC
:100CF1000C27550B54460BB4450B1E470DF4500AF7
:100D01007F2D0A832E0AA62B0A87230AA4200DDD34
:100D11002A0A3F4800000A9EE50FB4FF03750F063B
:100D2100120990FC120990FD120990FE120990FF20
:100D310090005E020402790AA2D5200C14300E093B
:100D4100B910020404B9080104A2D5200F02500110
:100D510004200B68920BB50E005034C0E07F2030A8
:100D61000C197F30A20B720F720E500F120D90C230
:100D71000BC20FC20EC2117F30800F300E03E9C0CB
:100D8100E01209D3300E03D0E0F9D0E0B50ECC303B
:100D91000E177F30B9100C1209D37F58300D077F21
:100DA100788003B908031209D3300B057F2D02099E
:100DB100D37F202011F87F2B200FF322920B80CFBD
:100DC1007F00B40700500B245EF582E43400F58304
:100DD100E0FF22286E756C6C2900D20A120990304E
:100DE1000AF8C20A780E30D50108F6020A3F2D50E2
:100DF1004349581209902403B405004001E4900DC1
:100E0100EF931209C4743A1209C4D20C750E04028C
:020E11000C15BE
:10037B00E9D2E7C933E833F892D5EDD2E7CD33ECC8
:07038B0033FC5002B2D52241
:10039200EC30E7100FBF000C0EBE00080DBD0004CC
:1003A2000BEB6014A2D5EB13FCED92E7FD2274FF78
:1003B200FCFDFEFF22E480F8A2D574FF13FC7D80D1
:0303C200E480EFE5
:1003C500F920E73624F950037907E4F42402FBE524
:1003D50082158270021583DBF6E024FB501BE96071
:1003E50014E4F0E582158270021583E004F0B40A86
:0D03F50008E4F0D9EE7401F00A22C2D5220E
:10040200ED33EC3392D5FA602AB4FF33EDC2E77BC9
:10041200FF60067A047927E4227A04793020D50431
:100422007A04792B224E614E002B494E46002D490B
:100432004E4600E47A08F0A3DAFC7B00740722C07F
:1004420083C082ECC0E0EDC0E0EEC0E0EFC0E0EAC5
:1004520075F010A4CAABF075F04DA42BFBE435F097
:10046200FCEA2410FAEB34C5FBEC34D9FCEDC2E70C
:10047200FF75F056A4F42411C5F0F434C58FF0A42E
:100482002AE5F03BE43CF020E714120537D0E0FF08
:10049200D0E0FED0E0FDD0E0FC1202278014F4048C
:1004A200120537D0E0FFD0E0FED0E0FDD0E0FC1234
:1004B200011ED082D083E0FAEDD2E7CD33EC3324B3
:1004C20082FBE4C3CF33CFCE33CECD33CD33DBF398
:1004D2007B0775F00A846004F0A31B0AE5F0F0A321
:1004E2008FF0740AA4FFACF08EF0740AA42CFEAC58
:1004F200F050010C8DF0740AA42CFDE435F0F0A349
:05050200DBDE7407229E
:100507003F8000004120000042C80000447A0000FC
:10051700461C400047C35000497424004B1896807E
:100527004CBEBC205A0E1BCA6753C21C749DC5AE75
:10053700FB60065407601C2323120565EB543860E3
:100547000912055112056012011EECF8EDF9EEFAD9
:10055700EFCB22EB12056080F1543803241C900581
:1005670007FE93FC0EEE93FD0EEE930ECE93FF2245
:1021D700022007E493A3F8E493A34003F68001F2F7
:1021E70008DFF48029E493A3F85407240CC8C33309
:1021F700C4540F4420C8834004F456800146F6DFD8
:10220700E4800B0102040810204080901D22E47E28
:10221700019360BCA3FF543F30E509541FFEE493CC
:10222700A360010ECF54C025E060A840B8E493A393
:10223700FAE493A3F8E493A3C8C582C8CAC583CABE
:10224700F0A3C8C582C8CAC583CADFE9DEE780BE76
:011DDD000005
:10057700E709F608DFFA8046E709F208DFFA803E66
:1005870088828C83E709F0A3DFFA8032E309F60853
:10059700DFFA8078E309F208DFFA807088828C83BB
:1005A700E309F0A3DFFA806489828A83E0A3F6086F
:1005B700DFFA805889828A83E0A3F208DFFA804C49
:1005C70080D280FA80C680D4806980F28033801020
:1005D70080A680EA809A80A880DA80E280CA803389
:1005E70089828A83ECFAE493A3C8C582C8CCC58301
:1005F700CCF0A3C8C582C8CCC583CCDFE9DEE780D1
:100607000D89828A83E493A3F608DFF9ECFAA9F04F
:10061700EDFB2289828A83ECFAE0A3C8C582C8CCA5
:10062700C583CCF0A3C8C582C8CCC583CCDFEADEBE
:10063700E880DB89828A83E493A3F208DFF980CC20
:1006470088F0EF60010E4E60C388F0ED2402B40419
:100657000050B9F582EB2402B4040050AF232345C0
:0606670082239005C77319
:10066D00BB010689828A83E0225002E722BBFE028B
:09067D00E32289828A83E49322BE
:10068600BB010CE58229F582E5833AF583E0225029
:1006960006E92582F8E622BBFE06E92582F8E22273
:0D06A600E58229F582E5833AF583E493228D
:1006B300BB010689828A83F0225002F722BBFE0126
:0206C300F32220
:1006C500EF8DF0A4A8F0CF8CF0A428CE8DF0A42E49
:0206D500FE2203
:1006D700BC000BBE0029EF8DF084FFADF022E4CC07
:1006E700F875F008EF2FFFEE33FEEC33FCEE9DECD0
:1006F700984005FCEE9DFE0FD5F0E9E4CEFD22ED16
:10070700F8F5F0EE8420D21CFEADF075F008EF2F5F
:10071700FFED33FD4007985006D5F0F222C398FD50
:050727000FD5F0EA22ED
:10072C00C5F0F8A3E028F0C5F0F8E5821582700258
:06073C001583E038F022F5
:10074200A3F8E0C5F025F0F0E5821582700215836A
:06075200E0C838F0E822C7
:10075800BB010A89828A83F0E5F0A3F0225006F7EC
:0F07680009A7F01922BBFE06F3E5F009F31922E9
:10077700E88FF0A4CC8BF0A42CFCE98EF0A42CFC21
:100787008AF0EDA42CFCEA8EF0A4CDA8F08BF0A49F
:100797002DCC3825F0FDE98FF0A42CCD35F0FCEBFE
:1007A7008EF0A4FEA9F0EB8FF0A4CFC5F02ECD39C3
:0F07B700FEE43CFCEAA42DCE35F0FDE43CFC2230
:1007C60075F008758200EF2FFFEE33FECD33CDCCEA
:1007D60033CCC58233C5829BED9AEC99E58298406D
:1007E6000CF582EE9BFEED9AFDEC99FC0FD5F0D64A
:1007F600E4CEFBE4CDFAE4CCF9A88222B800C1B974
:100806000059BA002DEC8BF084CFCECDFCE5F0CBB1
:10081600F97818EF2FFFEE33FEED33FDEC33FCEBEA
:1008260033FB10D703994004EB99FB0FD8E5E4F9A5
:10083600FA227818EF2FFFEE33FEED33FDEC33FC92
:10084600C933C910D7059BE99A4007EC9BFCE99A86
:10085600F90FD8E0E4C9FAE4CCFB2275F010EF2FCB
:10086600FFEE33FEED33FDCC33CCC833C810D707CB
:100876009BEC9AE899400AED9BFDEC9AFCE899F806
:0E0886000FD5F0DAE4CDFBE4CCFAE4C8F92299
:0E089400C3E49FFFE49EFEE49DFDE49CFC2275
:1008A200EB9FF5F0EA9E42F0E99D42F0E89C45F0AC
:0108B2002223
:0C08B300ECF0A3EDF0A3EEF0A3EFF022B8
:1008BF00A8828583F0D083D0821208D61208D61270
:1008CF0008D61208D6E473E493A3C583C5F0C58395
:1008DF00C8C582C8F0A3C583C5F0C583C8C582C883
:0108EF0022E6
:1008F000F8E0FBA3A3E0F925F0F0E5821582700291
:070900001583E0FA38F02234
:09090700EBF0A3EAF0A3E9F022F1
:10091000D083D082F8E4937012740193700DA3A376
:1009200093F8740193F5828883E47374029368608A
:06093000EFA3A3A380DF8A
:10093600D083D082F8E4937012740193700DA3A350
:1009460093F8740193F5828883E473740293B5F087
:0D095600067403936860E9A3A3A3A380D8EF
:10096300EC8EF0A4CCC5F0CCCDF8EFA4CEC5F02D21
:10097300FDE43CFCE8A42EC8C5F03DFDE43CFCEFDF
:0D098300A4FFE5F028FEE43DFDE43CFC226D
:00000001FF
