:03000000021A1EC3
:0C1A1E00787FE4F6D8FD758122021A657D
:10173C00206B65795F7363616E0D0A00204B455910
:10174C005F325F505245530D0A0061647631203D83
:10175C002025642061647633203D2564200D0A0029
:10176C0074656D702076616C3A2564200D0A000D4D
:10177C000A3D3D3D3D3D3D3D3D3D3D3D3D3D3D3DC0
:10178C003D3D3D3D3D3D3D3D3D3D3D3D3D3D3D3D7D
:10179C003D3D3D0D0A00736B753A4B2564200D0AD7
:1017AC0000736F66742076657273696F6E3A257379
:1017BC00200D0A00312E30332E303000676170203E
:1017CC002564200D0A0074696D6572202564200D56
:1017DC000A003D3D3D3D3D3D3D3D3D3D3D3D3D3D9D
:1017EC003D3D3D3D3D3D3D3D3D3D3D3D3D3D3D3D1D
:0717FC003D3D3D3D0D0A00DB
:101CA0004200860000410088004100850041008418
:011CB0000033
:1021E200758E5390FE917401F090FF027410F022EC
:10101200E4900000F0900085E0700A121DCA900072
:1010220000EFF08005E4900000F0900000E0640121
:10103200705D7BFF7A17793C1208CA122230EF707A
:101042000D7F011222361220D3E4FF02215EE4FF5B
:10105200122236121B34900077E0FFD3940340161D
:10106200A3E0FE70059000768009EED3940340065B
:101072009000697402F09000887401F0121BBE9017
:101082000077E0FF12148B900078E0FF021AAA1298
:101092002230EF600302113A900000E064027050C7
:1010A2007BFF7A1779481208CA900077E0C3940947
:1010B2005005E004F080069000777401F09000770C
:1010C200E0FFD394034016A3E0FE70059000768003
:1010D20009EED3940340069000697402F0900088F0
:1010E2007401F0121BBE900077E0FF12148B804552
:1010F200900000E064037040900078E0C3940550D3
:1011020005E004F08005E4900078F0900077E0D3E9
:1011120094034016A3E0FF70059000768009EFD398
:10112200940340069000697402F0900078E0FF1288
:081132001AAA121B3412202B33
:01113A002292
:100CE200900008ECF0A3EDF0900006EEF0FAA3EF0E
:020CF200F0FB15
:100CF400E490000AF0A37432F0A3740AF0A312077C
:100D04008E00000000C3EB9432EA94004016900079
:100D140008E0FEA3E0FF900006E0FCA3E0FDD39F03
:100D2400EC9E4003020DBBE412032AE4FBFA797A39
:100D3400784412020FC004C005C006C00790000822
:100D4400E0FCA3E0FDE412032AE4FBFA797A784498
:100D540012020FD003D002D001D000120011C0043F
:100D6400C005C006C007900006E0FCA3E0FDE41245
:100D7400032AE4FBFA797A784412020FE4FBFA7945
:100D8400FF784312020FA804A905AA06AB07D007EF
:100D9400D006D005D00412020F90000D120782E491
:100DA400FFFEFDFC90000DE0F8A3E0F9A3E0FAA338
:100DB400E0FB1202AC50057E007FFF2290000DE0A4
:100DC400FCA3E0FDA3E0FEA3E0FFE4FBFAF9784115
:100DD40012020F90000D120782E4FFFE7D927C4206
:100DE40090000DE0F8A3E0F9A3E0FAA3E0FB1202FF
:100DF400AC5004E4FEFF2290000DE0FCA3E0FDA350
:100E0400E0FEA3E0FF7BF37A1F79B6784212020F6B
:100E140090000D1207827FF37E1F7DB67C42900006
:100E24000DE0F8A3E0F9A3E0FAA3E0FB1201067BCE
:100E3400F37A1F79B678421202AC504C90000DE060
:100E4400FCA3E0FDA3E0FEA3E0FF7B497A9D79804B
:100E5400783F12020F90000D12078290000AE004FE
:100E6400F0E4FFFE7D807C3F90000DE0F8A3E0F904
:100E7400A3E0FAA3E0FB1202AC600250BF90000AA8
:100E8400E0FFA3E02FF0804E90000DE0FCA3E0FD16
:100E9400A3E0FEA3E0FF7B6D7AC5797E783F120262
:100EA4000F90000D12078290000AE004F0E4FFFEA8
:100EB4007D807C3F90000DE0F8A3E0F9A3E0FAA365
:100EC400E0FB1202AC40C190000BE0FF90000AE08E
:100ED400FEC3EF9EA3F090000BE024FEFFE434FF7A
:010EE400FE0F
:010EE50022EA
:10113B00E4900000F0A3F0A3F0A3F0A3F0A3F090D1
:10114B000087E004F07006900086E004F0D3900076
:10115B0087E09410900086E09427500302125FE41E
:10116B00F0A3F07B0190000904F0A37400F0A374CA
:10117B0004F07A007902120EE67BFF7A177956900B
:10118B000002E0FFA3E0900039CFF0A3EFF0900056
:10119B0004E0FFA3E090003BCFF0A3EFF01208CAEE
:1011AB00900002E0FEA3E0FFA3E0FCA3E0FD120C25
:1011BB00E2900000EEF0A3EFF07BFF7A17796C90D2
:1011CB000039EEF0A3EFF01208CAD3900003E094BD
:1011DB0032900002E094004063122230EF704D9089
:1011EB000088E0B40129E4F0D3900001E094329040
:1011FB000000E0940090006C74024009F0900073C2
:10120B00740CF0800AF090006D14F0900073F09065
:10121B000078E0FF121AAA900077E0FF12148B906F
:10122B000000E0FEA3E0FF121803800AE4FF122186
:10123B005E7F04122128E4900085F0221220D3E473
:10124B00FF12215E90008474FFF0FF12148B90004C
:04125B00857401F0A5
:01125F00226C
:101979001221E2121FB3122143D2AF1221CF122139
:101989008D1212607FC87E001220731220047F20FE
:101999007E031221767F0212220EE4FF12215E7B62
:1019A900FF7A17797B1208CA7BFF7A1779A2900010
:1019B900397423F0A37433F01208CA90003974FF04
:1019C900F0A37417F0A374C0F07BFF7A1779AD12F6
:1019D90008CA7BFF7A1779C8900077E0FF90003931
:1019E900E4F0A3EFF01208CA7BFF7A1779D29000CE
:1019F90078E0FF900039E4F0A3EFF01208CA7BFF0A
:101A09007A1779DE1208CA12101212113B122095A8
:051A190012224C80F2D6
:101EDA00900008EEF0A3EFF0A3ECF0A3EDF0D39F8F
:101EEA00EC9E4004E4FF8022900073E0FFC3900060
:101EFA0009E09FFF900008E09400FEC390000BE009
:0E1F0A009F90000AE09E50057F0A12215E2281
:10180300900006EEF0A3EFF090006DE0B401030248
:1018130018B2900077E0B40A0040030218C1901890
:1018230028F828287302184602185202185E021874
:101833006A02187602188202188E02189A0218A6F3
:101843000218B2900006E0FCA3E0FD7F1E806A90C0
:101853000006E0FCA3E0FD7F2B805E900006E0FC29
:10186300A3E0FD7F2F8052900006E0FCA3E0FD7F04
:10187300318046900006E0FCA3E0FD7F36803A907D
:101883000006E0FCA3E0FD7F3C802E900006E0FC18
:10189300A3E0FD7F418022900006E0FCA3E0FD7FF2
:1018A300468016900006E0FCA3E0FD7F49800A9085
:0F18B3000006E0FCA3E0FD7F4D7E00121EDA224E
:10209500900068E0B40118900077E0D39403400FF6
:1020A5007403F0FF12148B12202BE4900068F022C9
:10157C000D0A3D3D3D3D3D3D3D3D3D3D3D3D3D3DF2
:10158C003D3D3D3D3D3D3D3D3D3D3D3D3D3D3D3D7F
:10159C003D3D3D3D3D3D3D3D3D3D0D0A00706F7770
:1015AC006572206F6E20666C617368206761703A9B
:1015BC002564202074696D65723A2564200D0A003B
:1015CC003D3D3D3D3D3D3D3D3D3D3D3D3D3D3D3D3F
:1015DC003D3D3D3D3D3D3D3D3D3D3D3D3D3D3D3D2F
:1015EC003D3D3D3D3D3D3D3D0D0A003D3D3D3D3DBF
:1015FC003D3D3D3D3D3D3D3D666972737420696ED8
:10160C00697420646174613D3D3D3D3D3D3D3D3D12
:10161C003D3D200D0A00307825303458202030789C
:10162C00253034582020307825303458202030781C
:10163C0025303458200D0A00666C61736820676190
:10164C00703A2564202074696D65723A2564200D0A
:02165C000A0082
:0B1CB1004400792020050141007D0166
:0622300090007DE0FF229A
:0622360090007DEFF02294
:10205100D310AF01C3C0D075FDF075FC0F8EFA8FA0
:10206100F975FDD275FC2D75FDE175FC1ED0D09280
:02207100AF229C
:101FDC00D310AF01C3C0D08FFB75FDF075FC0FAEF5
:101FEC0004AF058EFA8FF975FDB475FC4B75FDE1E8
:081FFC0075FC1ED0D092AF224B
:0C1C33007B017A0079777D027F047E3C03
:101C3F00D310AF01C3C0D0900001EEF0A3EFF0A31B
:0B1C4F00EDF0A3EBF0A3EAF0A3E9F036
:101C5A00E4A3F0C2AFF0900003E0FF900007E0C3F6
:101C6A009F502C900004E0FBA3E475F001120622B9
:101C7A00A9F0FA12055FFF900001E475F00112065F
:101C8A0022ADF0FC121FDC900007E004F080C7D2FE
:011C9A00AF9A
:051C9B00D0D092AF2241
:040003008F828E83D7
:03000700E493FF80
:01000A0022D3
:101E1C00900001EEF0A3EFF0A3EBF0A3EAF0A3E93E
:101E2C00F0AF051DEF6028900001E475F00112067B
:101E3C002285F082F583E493FF900003E0FBA3E49A
:101E4C0075F001120622A9F0FAEF1205A580D22234
:101F5400E4FDFCED2400FFE4343CFE12000374793C
:101F64002DF582E43400F583E0B507030C80037F8C
:101F740000220DEDB404DCECC3940440037F012281
:021F84007F00DC
:011F86002238
:10126000E4900000F090FE927404F0121F54EF70AE
:101270000790000004F080597BFF7A15797C1208F2
:10128000CA7B017A0079777D027F047E3C121E1CA6
:101290007BFF7A1579A9900077E0FF900039E4F0A0
:1012A000A3EFF0900078E0FF90003BE4F0A3EFF0B4
:1012B0001208CA7BFF7A1579CC1208CA900077E031
:1012C000D394095006A3E0940540069000007401F1
:1012D000F0900000E0640160030213597BFF7A156F
:1012E00079F71208CA9000777401F0A37403F07FB5
:1012F000007E3C1220517B017A0079797D04121C1A
:101300003F121C337B017A0079797D047F007E3C9B
:10131000121E1C7BFF7A167922900079E0FF900064
:1013200039E4F0A3EFF090007AE0FF90003BE4F0A6
:10133000A3EFF090007BE0FF90003DE4F0A3EFF01E
:1013400090007CE0FF90003FE4F0A3EFF01208CAA9
:101350007BFF7A1579CC1208CA7BFF7A1679449004
:101360000077E0FF900039E4F0A3EFF0900078E020
:0C137000FF90003BE4F0A3EFF00208CA7D
:10202B007F047E3C1220517B017A0079797D047FFD
:10203B0000121C3F121C337B017A0079777D027FE3
:06204B00047E3C021E1C95
:0E21F200EF1F70011E144E6004000080F322E7
:102176007DA07C01ED1D70011C144C70F7EF1F70E3
:06218600011E144E70EA78
:01218C002230
:032250000221F276
:10210D0090FF0974C1F090FF08F090FF07F090FF69
:0B211D0006F0D291D290D287D2862229
:081E5C00900039EFF0A3EDF056
:101E6400E4A3F0F090003AE0FFA3E0C39F5027C240
:101E740087900039E020E704C2868002D286D287A8
:101E84007F057E00122250900039E025E0F090009A
:061E94003BE004F080CEEB
:011E9A002225
:081E9B00900039EFF0A3EDF017
:101EA300E4A3F0F090003AE0FFA3E0C39F5027C201
:101EB30087900039E020E004C2868002D286D28770
:101EC3007F057E00122250900039E0C313F090008A
:061ED3003BE004F080CEAC
:011ED90022E6
:10212800900007EFF0C2917D047F80121E5C900042
:0B21380007E0FF7D08121E5CD2912220
:101F8700900037EFF0A3EDF0C2917D037FA0121E02
:101F97005C900037E025E025E0FF7D06121E5C908F
:0C1FA7000038E0FF7D04121E9BD2912246
:09222700D291D290D287D2862216
:041CBC00410089005A
:052242007F06022128C7
:052247007F04022128C4
:1020B500E4900000F0F0900000E0FFC39420500D84
:0D20C5007D0F121F87900000E004F080E9FD
:0120D20022EB
:1020D300E4900036F0F0900036E0FFC39420500DFA
:0D20E300E4FD121F87900036E004F080E954
:0120F00022CD
:1020040012210D7F521221287F301221287F0A12BB
:1020140021287F081221287F021221287F061221FD
:07202400281220D30220B5B1
:0E220000E4FD7F1C121F87E4FD7F1F021F8775
:101AAA00900006EFF07F06122128E4FD7F1F121F27
:101ABA0087E4FD7F1C121F87900006E014601B1448
:101ACA00602314602B14603A1460492405705A7D0F
:101ADA000A7F1B121F877D0E80317D0B7F1B121F11
:101AEA00877D0A80267D0E7F1B121F877D0A801B39
:101AFA007D0A7F1B121F877D0A7F1C121F877D0BA1
:101B0A0080227D0A7F1B121F877D0B7F1C121F8775
:101B1A007D0A80107D0A7F1B121F877D0A7F1C1297
:0A1B2A001F877D0E7F1F121F872208
:10148B00900006EFF07F06122128E4FD7F1D121F4E
:10149B0087E4FD7F1E121F87900006E070047D0617
:1014AB00805C900006E0B401047D0680639000062A
:1014BB00E0B4020B7D0B7F1D121F877D0C806590A6
:1014CB000006E0B4030B7D0F7F1D121F877D048088
:1014DB0053900006E0B4040B7D067F1D121F877D21
:1014EB00068041900006E0B4050B7D0D7F1D121F99
:1014FB00877D06802F900006E0B4060B7D0D7F1DC7
:10150B00121F877D0E801D900006E0B407067D0735
:10151B007F1D8059900006E0B4080D7D0F7F1D12D2
:10152B001F877D0E7F1E8045900006E0B4090D7D60
:10153B000F7F1D121F877D067F1E8031900006E0F6
:10154B00F4702D900089E070157D017F1D121F87AF
:10155B007D0E7F1E121F879000897401F022E4908C
:10156B000089F0FD7F1C121F87E4FD7F1F121F8770
:01157B00224D
:101FB30090FF0E74C1F090FF0F7461F090FFA07456
:101FC30016F090FFA104F075CEFF75CDE675CC0633
:091FD300759E02759810D2AC2233
:0C221B00C2AC8F993099FDC299D2AC2260
:06223C00AE0712221B2276
:101CC00041007E0042007F0000410081014200820D
:021CD000000012
:1021CF0090FF1D7461F090FF15F090FF16F090FFD7
:0321DF0002F022E9
:1018C200E4900002F0A2A533900001F090007EE0C7
:1018D20014602614604E1470030219652403600319
:1018E20002196E900001E0600302197390007FF00C
:1018F200A3F090007E04F08078900001E0706B907D
:101902000080E004F0700690007FE004F0C39000D5
:1019120080E0940390007FE09400403E90007E744B
:1019220002F08036900001E0B40106A37404F08056
:101932003B900080E004F0700690007FE004F0C36A
:10194200900080E0947890007FE09400400C90003A
:10195200027405F090007E7403F07F0A7E0012216B
:1019620076800E900001E0B401078000E490007ED2
:06197200F0900002E0FF0E
:01197800224C
:101DCA001218C2BF05037F0122900081E0601E3015
:101DDA00A60320B5187F327E00122176E490008196
:101DEA00F020A6037F032220B50F7F022230A60926
:101DFA0030B5069000817401F030A513D3900083AA
:101E0A00E09401900082E094004004E4F0A3F07FA3
:011E1A0000C7
:011E1B0022A4
:10165E007365742074696D65207365636F6E643A8B
:10166E0025640D0A0065786368616E67655F68655D
:10167E0061745F76616C7565200D0A0074696D6525
:10168E00207365636F6E643A2564200D0A007072D4
:10169E006F74656374200D0A0074696D65206F6642
:1016AE0066200D0A0074696D655F746F5F302E35AC
:1016BE0048202074696D655F7365633D2564200D58
:1016CE000A0074696D655F746F5F3148202074691C
:1016DE006D655F7365633D2564200D0A0074696D49
:1016EE00655F746F5F3248202074696D655F736546
:1016FE00633D2564200D0A0074696D655F746F5F2C
:10170E003448202074696D655F7365633D256420E0
:10171E000D0A0074696D655F746F5F384820207420
:0E172E00696D655F7365633D2564200D0A00DB
:101CD20041007200420070000042007400004100A6
:101CE2006800410069004100760041007300410034
:101CF2006C0042006A000042006E00004200660072
:051D02000041006D002E
:1020F100900070EEF0A3EFF0E4A3F07BFF7A167985
:0C2101005E900039EEF0A3EFF00208CA77
:101BBE00EFB40A00506E901BCBF8282873021BE975
:101BCE00021BF3021BF5021BF7021C01021C0B0287
:101BDE001C15021C1F021C29021C29900066E4F031
:101BEE00A3741EF02280028000900066E4F0A374BD
:101BFE003CF022900066E4F0A3745AF02290006646
:101C0E00E4F0A37478F022900066E4F0A37496F0EA
:101C1E0022900066E4F0A374B4F022900066E4F023
:051C2E00A374F0F02298
:101D7600900077E0B40A00504A901D86F828287330
:101D8600021DA4021DA6021DAD021DAF021DB10259
:101D96001DB3021DBA021DBC021DC3021DC3800075
:101DA6009000737401F0228004800280009000731A
:101DB6007405F02280009000737408F0229000737E
:041DC600740CF02287
:101F180090006CE0B4023490006AE475F001120697
:101F28000CFEC3900067E095F0900066E09E501BA1
:101F38007BFF7A1679731208CAE490006CF090005F
:0C1F48006AF0A3F090006DF0121D7622EC
:101B3400E4900072F0900078E0FF7008900070F07C
:101B4400A3F08052EFB4010C9000707407F0A3046A
:101B5400F0E48042EFB4020D900070740EF0A374B0
:101B640010F0E48031EFB4030D900070741CF0A306
:101B74007420F0E48020EFB4040D9000707438F009
:101B8400A37440F0E4800FEFB405179000707470F4
:101B9400F0A37480F0E4900074F0A3F090006EF071
:101BA400A3F07BFF7A16798A900070E0FFA3E0909F
:0A1BB4000039CFF0A3EFF00208CAD9
:10218D00E490FE80F0F589758CF2758AFBC28DD2D4
:06219D00A9D28CD2AF2292
:03000B0002137C61
:10137C00C0E0C0F0C083C082C0D075D000C000C037
:10138C0001C002C003C004C005C006C00712223051
:10139C00EF6003021470900072E004F0E0C39464F8
:1013AC005003021470121F18900076E0B4022D90B6
:1013BC000075E004F07006900074E004F0D3900027
:1013CC0075E09420900074E0941C4010900076E43A
:1013DC00F0900074F0A3F090006804F0D3900071CA
:1013EC00E09400900070E094004048A3E024FFF0EB
:1013FC00900070E034FFF0900069E064027060903F
:10140C000075E004F07006900074E004F0D39000D6
:10141C0075E09420900074E0941C40439000687434
:10142C0001F0A3E4F0900074F0A3F07BFF7A16793E
:10143C009C8029900078E060267F01122236900073
:10144C0070E4F0A3F0900074F0A3F0900069F090B9
:10145C000076F01220D37BFF7A1679A71208CA9077
:10146C000072E4F0D007D006D005D004D003D0022F
:0F147C00D001D000D0D0D082D083D0F0D0E032D9
:101D0C0090006EE475F00112060CFEE5F08EF012F8
:101D1C0008051D3607081D3E0E101D461C201D4EC5
:101D2C0038401D56708000001D757BFF7A1679B304
:101D3C00801E7BFF7A1679D080167BFF7A1679EBA2
:101D4C00800E7BFF7A17790680067BFF7A17792144
:101D5C00900070E0FFA3E0900039CFF0A3EFF012F9
:0A1D6C0008CAE490006EF0A3F02214
:041D070041008A000D
:10215E007E0090008AE0FD7C00120832E47B64FA77
:07216E00F9F81206E28FDF11
:012175002247
:1020730090FF0074C1F0E490FF9CF0AC06AD077EC6
:102083007A7F121205B7EF1490008AF0F5DE75DD42
:02209300972292
:1021430090FF017401F090FF03F075B4807F147E5B
:0B215300001221F290FE9B7449F02264
:1021A300E4FFFE75B50143B440E5B430E5FB53B439
:0521B300DFAEB7AFB67E
:0121B8002204
:1021B900E4FFFE75B50343B440E5B430E5FB53B421
:0521C900DFAEB7AFB668
:0121CE0022EE
:0B0EE600900006EBF0A3EAF0A3E9F097
:100EF10090000C12078E00000000E4900010F0F04A
:100F010090000CE0F8A3E0F9A3E0FAA3E0FB1221C2
:100F1100A3E4FCFDEB2FFFEA3EFEED39FDEC38FCCE
:100F210090000C120782900010E004F0E0C39405D9
:100F310040CE90000CE0FCA3E0FDA3E0FEA3E0FFA7
:100F4100E47B05FAF9F81206E290000C120782E43C
:100F51007F887E13FDFC90000CE0F8A3E0F9A3E08C
:100F6100FAA3E0FB120657E4FB7A10F9F81206E245
:100F7100900006E0FBA3E0FAA3E0F9EE8FF0120681
:100F81003890000C12078E00000000E4900010F071
:100F910090000CE0F8A3E0F9A3E0FAA3E0FB122132
:100FA100B9E4FCFDEB2FFFEA3EFEED39FDEC38FC28
:100FB10090000C120782900010E004F0E0C3940549
:100FC10040CE90000CE0FCA3E0FDA3E0FEA3E0FF17
:100FD100E47B05FAF9F81206E290000C120782E4AC
:100FE1007F887E13FDFC90000CE0F8A3E0F9A3E0FC
:100FF100FAA3E0FB120657E4FB7A10F9F81206E2B5
:10100100900009E0FBA3E0FAA3E0F9EE8FF00206FD
:0110110038A6
:0D220E0075BD17EF75F02BA490FEA0F02217
:04224C0043BD10225C
:10000E00020398E86480F8E933E83360110460F085
:10001E00ED33EC337009E8FCE9FDEAFEEBFF220458
:10002E0060DED3EB9FEA9EE99DE8C2E78CF0C2F753
:10003E0095F0400CE8CCF8E9CDF9EACEFAEBCFFB1F
:10004E0012036385D0F05804700320D5B3E8047012
:10005E00075002B2D50203A292D5EC0460F7E4CCAD
:10006E00C0E0C398F8603B94186008400DD0E0FBE8
:10007E0002037AE4FBFAC9FC8028E830E406E4C9FE
:10008E00FBE4CAFCE830E305E4C9CACBFCE854073C
:10009E006010F8C3E913F9EA13FAEB13FBEC13FC47
:1000AE00D8F130F52FC3E49CFCEF9BFFEE9AFEEDEA
:1000BE0099FDD0E0FBEF4E4D4C701222DB03020394
:1000CE009FEC2CFCEF33FFEE33FEED33FDED30E70E
:1000DE00EB02037AEF2BFFEE3AFEED39FDD0E0FB9B
:1000EE0050130BBB00030203A2ED13FDEE13FEEF44
:0800FE0013FFEC13FC02037A6E
:10010600EC4D6011E8497017ED33EC3304600DE4F3
:10011600FCFFFEFD22E933E8330470F8020398126F
:10012600036358046009E4CC248150062850090270
:1001360003A228400302039FC0E0EB4A7044B98043
:1001460006D0E0FB02038EEF4E701CBD8008EBFF6D
:10015600EAFEE9FD80EBE98DF0A4FEE5F00201EF91
:10016600E9CDF9EAFEEBFFEF89F0A4FCE5F0CE89D4
:10017600F0A42EFFE435F0CD89F0A42DFEE435F091
:100186008067EF4E7005BD80D780C3EF8BF0A4ACBF
:10019600F0EE8BF0A42CFCE435F0F8EF8AF0A42CFA
:1001A600E5F038FCE433CB8DF0A42CFCE5F03BF80D
:1001B600EE8AF0A42CFCE5F038F8E433CF89F0A4FD
:1001C6002CFCE5F038CF3400CE89F0A42FFFE5F003
:1001D6003EFEE433C98DF0A42EFEE5F039CD8AF05B
:1001E600A42FFFE5F03EFEE43DFD33D0E0FB5007D3
:1001F6000BBB000F0203A2EC2CFCEF33FFEE33FE29
:06020600ED33FD02037A56
:10020C000203A2EC5D046005E85904700302039834
:10021C00120363580460F6EC4860F2EC7004FDFEC7
:10022C00FF22C860DB2481C85009C39860025006C5
:10023C0002039F9850CAF582E9294B4A7005AB829C
:10024C0002038E75F0007C1A7880C3EF9BEE9AED5A
:10025C0099400DC3EF9BFFEE9AFEED99FDE842F03D
:10026C00DC23ACF0D0E0FFD0E0FED0E0FDAB822090
:10027C00E7101BEB60BAEC2CFCEF33FFEE33FEED1A
:10028C0033FD02037AE803F830E705C0F075F0009F
:10029C00EF2FFFEE33FEED33FD40B830E7C280AAFE
:1002AC0074F8CC6480CCC86480C8F58204604FC3F9
:1002BC00EB9FF5F0EA9E42F0E99D42F0E89C45F098
:1002CC00603C501DE5825FFFE582D313CB5BCBF422
:1002DC002B5582FB50280ABA002409B9002008804B
:1002EC001DE5825BFBE582D313CF5FCFF4C3132FE5
:1002FC005582FF50090EBE00050DBD00010CC3EB6D
:10030C009FF5F0EA9E42F0E99D42F0E89C45F060D2
:09031C0007CC4820E701B3EC22F4
:1003250075F020800E75F010800575F0087D007E53
:10033500007F003392D530D503120774EC3340109B
:10034500EF33FFEE33FEED33FDEC33FCD5F0ED225C
:0E035500E5F0247EA2D513CC92E7CDCEFF2298
:10085F00E50D2439F582E43400F583E0050D22908F
:10086F000036301003900039E475F0011207BF0213
:10087F00055F2009E97F2ED2098018EF540F2490CD
:10088F00D43440D4FF300D0BEF24BFB41A00500303
:10089F002461FFE50E6002150E0511E511700205CA
:1008AF001030100E900036E475F0011207BFEF0202
:1008BF0005A502223C7403D2108003E4C210F50D8B
:1008CF009000361207D6E4F50EF510F511E50E601F
:1008DF00077F201208A280F5750FFFC20AC209C256
:1008EF000BC20CC20EC20FC21112086EFF700D3078
:1008FF0010057F001208B3AF11AE1022B4255FC2EE
:10090F00D5C20D12086EFF24D0B40A00501A75F02C
:10091F000A780E30D50508B6FF0106C6A426F620C4
:10092F00D5047002D20C80D924CFB41A00EF500432
:10093F00C2E5D20D020BA5D20A80C6D20980C0D261
:10094F000B80BCD2D580BAD20E80B47F201208A201
:10095F00200B077401B50E0040F112085FFF12085B
:10096F00A20208DCD211D20F809512085FFB120889
:10097F005FFA12085FF94A4B700679A37A0C7BFF76
:10098F00200B2EE50E602A7E008E827583001205E5
:10099F007860060EEE650F70F0C2D5EBC0E0EAC0CE
:1009AF00E0E9C0E0EE120C06D0E0F9D0E0FAD0E0BA
:1009BF00FB12055FFF60AAEBC0E0EAC0E0E9C0E010
:1009CF001208A2D0E02401F9D0E03400FAD0E0FB05
:1009DF00E50F0460DCD50FD98087D20B80A2120BF4
:1009EF00E860F7E50F7001041203ADA90F600DE584
:1009FF000F600914F50F120C90EF60F3EA30E70265
:100A0F00F404C3995079EAF4250F0430E701E404A4
:100A1F00F50F800D120BE860C1EA050F250F1203C9
:100A2F00ADEA900065F030E701E4250F04D50F041F
:100A3F00200E0114120C06E4C0E0120C9090006519
:100A4F00E0601320E70714F012088A802204F0D028
:100A5F00E014C0E07F0012088AE50F6007120881DA
:100A6F00150F800B300E03120881D0E00208DCD086
:100A7F00E00480C4120BE8609EE50F041203AD90F2
:100A8F000065EAF0E50F200E026001042404120C49
:010A9F000650
:100AA00074FF04C0E0120C9012088AE50F200E02B9
:100AB0006003120881D0E0B50FE87F4512089490DA
:100AC0000065E07F2B30E7047F2DF404C0E01208BE
:100AD000A2D0E075F00A84C0F012088BD0E01208B2
:100AE0008B0208DC791080027908C20FC2118008DD
:100AF000D2D5790A8004790AC2D5E50F047002F5CF
:100B00000FE4FAFDFEFF12085FFC7B08200A1312B7
:100B1000085FFD7B1030090A12085FFE12085FFFB4
:100B20007B20EC3382D592D55013C3E43009069F65
:100B3000FFE49EFEE4200A039DFDE49CFCE4CBF868
:100B4000C20AEC700CCFCECDCCE824F8F870F3805C
:100B500017C3EF33FFEE33FEED33FDEC33FCEB3325
:100B6000FB994002FB0FD8E9EB300A05F8D0E0C44E
:100B700048B20AC0E00AEC4D4E4F78207B0070C2AC
:100B8000EAB50F0040BCC0E0120C08D0F0D0E02065
:100B90000A04C4C0E0C4B20AC0F012088BD0F0D579
:100BA000F0EB0208DC1207DF0979530AE458094A1E
:100BB0004C0946420AE84F0AF0440AF049095F43EB
:100BC0000AF6550A23460A834509ED470CC3500926
:100BD0004E2D09522E09752B0956230973200CAC92
:100BE0002A090E480000096DE50FB4FF03750F06D2
:100BF00012085FFC12085FFD12085FFE12085FFF1B
:100C000090005E0203EA790AA2D5200C14300E0986
:100C1000B910020404B9080104A2D5200F02500142
:100C200004200B68920BB50E005034C0E07F2030DA
:100C30000C197F30A20B720F720E500F120C5FC294
:100C40000BC20FC20EC2117F30800F300E03E9C0FD
:100C5000E01208A2300E03D0E0F9D0E0B50ECC309F
:100C60000E177F30B9100C1208A27F58300D077F85
:100C7000788003B908031208A2300B057F2D020803
:100C8000A27F202011F87F2B200FF322920B80CF20
:100C90007F00B40700500B245EF582E43400F58336
:100CA000E0FF22286E756C6C2900D20A12085F30B2
:100CB0000AF8C20A780E30D50108F602090E2D5046
:100CC00043495812085F2403B405004001E4900C26
:100CD000BE93120893743A120893D20C750E040254
:020CE0000AE424
:10036300E9D2E7C933E833F892D5EDD2E7CD33ECE0
:0703730033FC5002B2D52259
:10037A00EC30E7100FBF000C0EBE00080DBD0004E4
:10038A000BEB6014A2D5EB13FCED92E7FD2274FF90
:10039A00FCFDFEFF22E480F8A2D574FF13FC7D80E9
:0303AA00E480EFFD
:1003AD00F920E73624F950037907E4F42402FBE53C
:1003BD0082158270021583DBF6E024FB501BE96089
:1003CD0014E4F0E582158270021583E004F0B40A9E
:0D03DD0008E4F0D9EE7401F00A22C2D52226
:1003EA00ED33EC3392D5FA602AB4FF33EDC2E77BE2
:1003FA00FF60067A04790FE4227A04791820D5047A
:10040A007A047913224E614E002B494E46002D493B
:10041A004E4600E47A08F0A3DAFC7B00740722C097
:10042A0083C082ECC0E0EDC0E0EEC0E0EFC0E0EADD
:10043A0075F010A4CAABF075F04DA42BFBE435F0AF
:10044A00FCEA2410FAEB34C5FBEC34D9FCEDC2E724
:10045A00FF75F056A4F42411C5F0F434C58FF0A446
:10046A002AE5F03BE43CF020E71412051FD0E0FF38
:10047A00D0E0FED0E0FDD0E0FC12020F8014F404BC
:10048A0012051FD0E0FFD0E0FED0E0FDD0E0FC1264
:10049A000106D082D083E0FAEDD2E7CD33EC3324E3
:1004AA0082FBE4C3CF33CFCE33CECD33CD33DBF3B0
:1004BA007B0775F00A846004F0A31B0AE5F0F0A339
:1004CA008FF0740AA4FFACF08EF0740AA42CFEAC70
:1004DA00F050010C8DF0740AA42CFDE435F0F0A361
:0504EA00DBDE740722B7
:1004EF003F8000004120000042C80000447A000015
:1004FF00461C400047C35000497424004B18968097
:10050F004CBEBC205A0E1BCA6753C21C749DC5AE8D
:10051F00FB60065407601C232312054DEB54386013
:10052F0009120539120548120106ECF8EDF9EEFA39
:10053F00EFCB22EB12054880F1543803241C9004B2
:10054F00EFFE93FC0EEE93FD0EEE930ECE93FF2275
:101A2A00021979E493A3F8E493A34003F68001F240
:101A3A0008DFF48029E493A3F85407240CC8C333BD
:101A4A00C4540F4420C8834004F456800146F6DF8C
:101A5A00E4800B0102040810204080901CA0E47E60
:101A6A00019360BCA3FF543F30E509541FFEE49381
:101A7A00A360010ECF54C025E060A840B8E493A348
:101A8A00FAE493A3F8E493A3C8C582C8CAC583CA73
:101A9A00F0A3C8C582C8CAC583CADFE9DEE780BE2B
:011D0B0000D7
:10055F00BB010689828A83E0225002E722BBFE029A
:09056F00E32289828A83E49322CD
:10057800BB010CE58229F582E5833AF583E0225038
:1005880006E92582F8E622BBFE06E92582F8E22282
:0D059800E58229F582E5833AF583E493229C
:1005A500BB010689828A83F0225002F722BBFE0135
:0205B500F3222F
:1005B700BC000BBE0029EF8DF084FFADF022E4CC28
:1005C700F875F008EF2FFFEE33FEEC33FCEE9DECF1
:1005D700984005FCEE9DFE0FD5F0E9E4CEFD22ED37
:1005E700F8F5F0EE8420D21CFEADF075F008EF2F81
:1005F700FFED33FD4007985006D5F0F222C398FD72
:050607000FD5F0EA220E
:10060C00C5F0F8A3E028F0C5F0F8E5821582700279
:06061C001583E038F02216
:10062200A3F8E0C5F025F0F0E5821582700215838B
:06063200E0C838F0E822E8
:10063800BB010A89828A83F0E5F0A3F0225006F70D
:0F06480009A7F01922BBFE06F3E5F009F319220A
:10065700E88FF0A4CC8BF0A42CFCE98EF0A42CFC42
:100667008AF0EDA42CFCEA8EF0A4CDA8F08BF0A4C0
:100677002DCC3825F0FDE98FF0A42CCD35F0FCEB1F
:100687008EF0A4FEA9F0EB8FF0A4CFC5F02ECD39E4
:0F069700FEE43CFCEAA42DCE35F0FDE43CFC2251
:1006A60075F008758200EF2FFFEE33FECD33CDCC0B
:1006B60033CCC58233C5829BED9AEC99E58298408E
:1006C6000CF582EE9BFEED9AFDEC99FC0FD5F0D66B
:1006D600E4CEFBE4CDFAE4CCF9A88222B800C1B995
:1006E6000059BA002DEC8BF084CFCECDFCE5F0CBD3
:1006F600F97818EF2FFFEE33FEED33FDEC33FCEB0C
:1007060033FB10D703994004EB99FB0FD8E5E4F9C6
:10071600FA227818EF2FFFEE33FEED33FDEC33FCB3
:10072600C933C910D7059BE99A4007EC9BFCE99AA7
:10073600F90FD8E0E4C9FAE4CCFB2275F010EF2FEC
:10074600FFEE33FEED33FDCC33CCC833C810D707EC
:100756009BEC9AE899400AED9BFDEC9AFCE899F827
:0E0766000FD5F0DAE4CDFBE4CCFAE4C8F922BA
:0E077400C3E49FFFE49EFEE49DFDE49CFC2296
:0C078200ECF0A3EDF0A3EEF0A3EFF022EA
:10078E00A8828583F0D083D0821207A51207A51206
:10079E0007A51207A5E473E493A3C583C5F0C5832B
:1007AE00C8C582C8F0A3C583C5F0C583C8C582C8B5
:0107BE002218
:1007BF00F8E0FBA3A3E0F925F0F0E58215827002C3
:0707CF001583E0FA38F02267
:0907D600EBF0A3EAF0A3E9F02224
:1007DF00D083D082F8E4937012740193700DA3A3A9
:1007EF0093F8740193F5828883E4737402936860BD
:0607FF00EFA3A3A380DFBD
:10080500D083D082F8E4937012740193700DA3A382
:1008150093F8740193F5828883E473740293B5F0B9
:0D082500067403936860E9A3A3A3A380D821
:10083200EC8EF0A4CCC5F0CCCDF8EFA4CEC5F02D53
:10084200FDE43CFCE8A42EC8C5F03DFDE43CFCEF11
:0D085200A4FFE5F028FEE43DFDE43CFC229F
:00000001FF
